{"@keep-network/bitcoin-spv-sol/contracts/BTCUtils.sol":{"BTCUtils":{"abi":[{"inputs":[],"name":"DIFF1_TARGET","outputs":[{"internalType":"uint256","name":"","type":"uint256"}],"stateMutability":"view","type":"function"},{"inputs":[],"name":"ERR_BAD_ARG","outputs":[{"internalType":"uint256","name":"","type":"uint256"}],"stateMutability":"view","type":"function"},{"inputs":[],"name":"RETARGET_PERIOD","outputs":[{"internalType":"uint256","name":"","type":"uint256"}],"stateMutability":"view","type":"function"},{"inputs":[],"name":"RETARGET_PERIOD_BLOCKS","outputs":[{"internalType":"uint256","name":"","type":"uint256"}],"stateMutability":"view","type":"function"}],"devdoc":{"kind":"dev","methods":{},"version":1},"evm":{"bytecode":{"linkReferences":{},"object":"61018e610053600b82828239805160001a607314610046577f4e487b7100000000000000000000000000000000000000000000000000000000600052600060045260246000fd5b30600052607381538281f3fe73000000000000000000000000000000000000000030146080604052600436106100565760003560e01c8063056e04ec1461005b5780638cc71569146100795780638db69e6014610097578063d4258ca7146100b5575b600080fd5b6100636100d3565b604051610070919061013d565b60405180910390f35b6100816100da565b60405161008e919061013d565b60405180910390f35b61009f6100e0565b6040516100ac919061013d565b60405180910390f35b6100bd610104565b6040516100ca919061013d565b60405180910390f35b6212750081565b6107e081565b7fffffffffffffffffffffffffffffffffffffffffffffffffffffffffffffffff81565b7bffff000000000000000000000000000000000000000000000000000081565b6000819050919050565b61013781610124565b82525050565b6000602082019050610152600083018461012e565b9291505056fea2646970667358221220a92c176d25111552bd479e039f12b2d29cc650f435f60d254421f5e9afd61a1864736f6c63430008110033","opcodes":"PUSH2 0x18E PUSH2 0x53 PUSH1 0xB DUP3 DUP3 DUP3 CODECOPY DUP1 MLOAD PUSH1 0x0 BYTE PUSH1 0x73 EQ PUSH2 0x46 JUMPI PUSH32 0x4E487B7100000000000000000000000000000000000000000000000000000000 PUSH1 0x0 MSTORE PUSH1 0x0 PUSH1 0x4 MSTORE PUSH1 0x24 PUSH1 0x0 REVERT JUMPDEST ADDRESS PUSH1 0x0 MSTORE PUSH1 0x73 DUP2 MSTORE8 DUP3 DUP2 RETURN INVALID PUSH20 0x0 ADDRESS EQ PUSH1 0x80 PUSH1 0x40 MSTORE PUSH1 0x4 CALLDATASIZE LT PUSH2 0x56 JUMPI PUSH1 0x0 CALLDATALOAD PUSH1 0xE0 SHR DUP1 PUSH4 0x56E04EC EQ PUSH2 0x5B JUMPI DUP1 PUSH4 0x8CC71569 EQ PUSH2 0x79 JUMPI DUP1 PUSH4 0x8DB69E60 EQ PUSH2 0x97 JUMPI DUP1 PUSH4 0xD4258CA7 EQ PUSH2 0xB5 JUMPI JUMPDEST PUSH1 0x0 DUP1 REVERT JUMPDEST PUSH2 0x63 PUSH2 0xD3 JUMP JUMPDEST PUSH1 0x40 MLOAD PUSH2 0x70 SWAP2 SWAP1 PUSH2 0x13D JUMP JUMPDEST PUSH1 0x40 MLOAD DUP1 SWAP2 SUB SWAP1 RETURN JUMPDEST PUSH2 0x81 PUSH2 0xDA JUMP JUMPDEST PUSH1 0x40 MLOAD PUSH2 0x8E SWAP2 SWAP1 PUSH2 0x13D JUMP JUMPDEST PUSH1 0x40 MLOAD DUP1 SWAP2 SUB SWAP1 RETURN JUMPDEST PUSH2 0x9F PUSH2 0xE0 JUMP JUMPDEST PUSH1 0x40 MLOAD PUSH2 0xAC SWAP2 SWAP1 PUSH2 0x13D JUMP JUMPDEST PUSH1 0x40 MLOAD DUP1 SWAP2 SUB SWAP1 RETURN JUMPDEST PUSH2 0xBD PUSH2 0x104 JUMP JUMPDEST PUSH1 0x40 MLOAD PUSH2 0xCA SWAP2 SWAP1 PUSH2 0x13D JUMP JUMPDEST PUSH1 0x40 MLOAD DUP1 SWAP2 SUB SWAP1 RETURN JUMPDEST PUSH3 0x127500 DUP2 JUMP JUMPDEST PUSH2 0x7E0 DUP2 JUMP JUMPDEST PUSH32 0xFFFFFFFFFFFFFFFFFFFFFFFFFFFFFFFFFFFFFFFFFFFFFFFFFFFFFFFFFFFFFFFF DUP2 JUMP JUMPDEST PUSH28 0xFFFF0000000000000000000000000000000000000000000000000000 DUP2 JUMP JUMPDEST PUSH1 0x0 DUP2 SWAP1 POP SWAP2 SWAP1 POP JUMP JUMPDEST PUSH2 0x137 DUP2 PUSH2 0x124 JUMP JUMPDEST DUP3 MSTORE POP POP JUMP JUMPDEST PUSH1 0x0 PUSH1 0x20 DUP3 ADD SWAP1 POP PUSH2 0x152 PUSH1 0x0 DUP4 ADD DUP5 PUSH2 0x12E JUMP JUMPDEST SWAP3 SWAP2 POP POP JUMP INVALID LOG2 PUSH5 0x6970667358 0x22 SLT KECCAK256 0xA9 0x2C OR PUSH14 0x25111552BD479E039F12B2D29CC6 POP DELEGATECALL CALLDATALOAD 0xF6 0xD 0x25 DIFFICULTY 0x21 CREATE2 0xE9 0xAF 0xD6 BYTE XOR PUSH5 0x736F6C6343 STOP ADDMOD GT STOP CALLER "},"gasEstimates":{"creation":{"codeDepositCost":"79600","executionCost":"154","totalCost":"79754"},"external":{"DIFF1_TARGET()":"357","ERR_BAD_ARG()":"335","RETARGET_PERIOD()":"291","RETARGET_PERIOD_BLOCKS()":"313"},"internal":{"_hash256MerkleStep(bytes memory,bytes memory)":"infinite","_hash256MerkleStep(bytes32,bytes32)":"infinite","bytesToUint(bytes memory)":"infinite","calculateDifficulty(uint256)":"infinite","determineInputLength(bytes memory)":"infinite","determineInputLengthAt(bytes memory,uint256)":"infinite","determineOutputLength(bytes memory)":"infinite","determineOutputLengthAt(bytes memory,uint256)":"infinite","determineVarIntDataLength(bytes memory)":"infinite","determineVarIntDataLengthAt(bytes memory,uint256)":"infinite","extractDifficulty(bytes memory)":"infinite","extractHash(bytes memory)":"infinite","extractHashAt(bytes memory,uint256,uint256)":"infinite","extractInputAtIndex(bytes memory,uint256)":"infinite","extractInputTxIdLE(bytes memory)":"infinite","extractInputTxIdLeAt(bytes memory,uint256)":"infinite","extractMerkleRootLE(bytes memory)":"infinite","extractOpReturnData(bytes memory)":"infinite","extractOutpoint(bytes memory)":"infinite","extractOutputAtIndex(bytes memory,uint256)":"infinite","extractPrevBlockLE(bytes memory)":"infinite","extractPrevBlockLEAt(bytes memory,uint256)":"infinite","extractScriptSig(bytes memory)":"infinite","extractScriptSigLen(bytes memory)":"infinite","extractScriptSigLenAt(bytes memory,uint256)":"infinite","extractSequenceLELegacy(bytes memory)":"infinite","extractSequenceLEWitness(bytes memory)":"infinite","extractSequenceLegacy(bytes memory)":"infinite","extractSequenceWitness(bytes memory)":"infinite","extractTarget(bytes memory)":"infinite","extractTargetAt(bytes memory,uint256)":"infinite","extractTimestamp(bytes memory)":"infinite","extractTimestampLE(bytes memory)":"infinite","extractTxIndexLE(bytes memory)":"infinite","extractTxIndexLeAt(bytes memory,uint256)":"infinite","extractValue(bytes memory)":"infinite","extractValueAt(bytes memory,uint256)":"infinite","extractValueLE(bytes memory)":"infinite","hash160(bytes memory)":"infinite","hash160View(bytes memory)":"infinite","hash256(bytes memory)":"infinite","hash256Pair(bytes32,bytes32)":"infinite","hash256Slice(bytes memory,uint256,uint256)":"infinite","hash256View(bytes memory)":"infinite","isLegacyInput(bytes memory)":"infinite","lastBytes(bytes memory,uint256)":"infinite","parseVarInt(bytes memory)":"infinite","parseVarIntAt(bytes memory,uint256)":"infinite","retargetAlgorithm(uint256,uint256,uint256)":"infinite","reverseEndianness(bytes memory)":"infinite","reverseUint16(uint16)":"infinite","reverseUint24(uint24)":"infinite","reverseUint256(uint256)":"infinite","reverseUint32(uint32)":"infinite","reverseUint64(uint64)":"infinite","validateVin(bytes memory)":"infinite","validateVout(bytes memory)":"infinite","verifyHash256Merkle(bytes memory,uint256)":"infinite","verifyHash256Merkle(bytes32,bytes memory,bytes32,uint256)":"infinite"}},"methodIdentifiers":{"DIFF1_TARGET()":"d4258ca7","ERR_BAD_ARG()":"8db69e60","RETARGET_PERIOD()":"056e04ec","RETARGET_PERIOD_BLOCKS()":"8cc71569"}},"storageLayout":{"storage":[],"types":null},"userdoc":{"kind":"user","methods":{},"version":1}}}}