{"contracts/l2/L2BitcoinDepositor.sol":{"L2BitcoinDepositor":{"abi":[{"inputs":[],"stateMutability":"nonpayable","type":"constructor"},{"anonymous":false,"inputs":[{"components":[{"internalType":"bytes4","name":"version","type":"bytes4"},{"internalType":"bytes","name":"inputVector","type":"bytes"},{"internalType":"bytes","name":"outputVector","type":"bytes"},{"internalType":"bytes4","name":"locktime","type":"bytes4"}],"indexed":false,"internalType":"struct IBridgeTypes.BitcoinTxInfo","name":"fundingTx","type":"tuple"},{"components":[{"internalType":"uint32","name":"fundingOutputIndex","type":"uint32"},{"internalType":"bytes8","name":"blindingFactor","type":"bytes8"},{"internalType":"bytes20","name":"walletPubKeyHash","type":"bytes20"},{"internalType":"bytes20","name":"refundPubKeyHash","type":"bytes20"},{"internalType":"bytes4","name":"refundLocktime","type":"bytes4"},{"internalType":"address","name":"vault","type":"address"}],"indexed":false,"internalType":"struct IBridgeTypes.DepositRevealInfo","name":"reveal","type":"tuple"},{"indexed":true,"internalType":"address","name":"l2DepositOwner","type":"address"},{"indexed":true,"internalType":"address","name":"l2Sender","type":"address"}],"name":"DepositInitialized","type":"event"},{"anonymous":false,"inputs":[{"indexed":false,"internalType":"uint8","name":"version","type":"uint8"}],"name":"Initialized","type":"event"},{"anonymous":false,"inputs":[{"indexed":true,"internalType":"address","name":"previousOwner","type":"address"},{"indexed":true,"internalType":"address","name":"newOwner","type":"address"}],"name":"OwnershipTransferred","type":"event"},{"inputs":[{"internalType":"address","name":"_l1BitcoinDepositor","type":"address"}],"name":"attachL1BitcoinDepositor","outputs":[],"stateMutability":"nonpayable","type":"function"},{"inputs":[{"internalType":"address","name":"_wormholeRelayer","type":"address"},{"internalType":"address","name":"_l2WormholeGateway","type":"address"},{"internalType":"uint16","name":"_l1ChainId","type":"uint16"}],"name":"initialize","outputs":[],"stateMutability":"nonpayable","type":"function"},{"inputs":[{"components":[{"internalType":"bytes4","name":"version","type":"bytes4"},{"internalType":"bytes","name":"inputVector","type":"bytes"},{"internalType":"bytes","name":"outputVector","type":"bytes"},{"internalType":"bytes4","name":"locktime","type":"bytes4"}],"internalType":"struct IBridgeTypes.BitcoinTxInfo","name":"fundingTx","type":"tuple"},{"components":[{"internalType":"uint32","name":"fundingOutputIndex","type":"uint32"},{"internalType":"bytes8","name":"blindingFactor","type":"bytes8"},{"internalType":"bytes20","name":"walletPubKeyHash","type":"bytes20"},{"internalType":"bytes20","name":"refundPubKeyHash","type":"bytes20"},{"internalType":"bytes4","name":"refundLocktime","type":"bytes4"},{"internalType":"address","name":"vault","type":"address"}],"internalType":"struct IBridgeTypes.DepositRevealInfo","name":"reveal","type":"tuple"},{"internalType":"address","name":"l2DepositOwner","type":"address"}],"name":"initializeDeposit","outputs":[],"stateMutability":"nonpayable","type":"function"},{"inputs":[],"name":"l1BitcoinDepositor","outputs":[{"internalType":"address","name":"","type":"address"}],"stateMutability":"view","type":"function"},{"inputs":[],"name":"l1ChainId","outputs":[{"internalType":"uint16","name":"","type":"uint16"}],"stateMutability":"view","type":"function"},{"inputs":[],"name":"l2WormholeGateway","outputs":[{"internalType":"contract IL2WormholeGateway","name":"","type":"address"}],"stateMutability":"view","type":"function"},{"inputs":[],"name":"owner","outputs":[{"internalType":"address","name":"","type":"address"}],"stateMutability":"view","type":"function"},{"inputs":[{"internalType":"bytes","name":"","type":"bytes"},{"internalType":"bytes[]","name":"additionalVaas","type":"bytes[]"},{"internalType":"bytes32","name":"sourceAddress","type":"bytes32"},{"internalType":"uint16","name":"sourceChain","type":"uint16"},{"internalType":"bytes32","name":"","type":"bytes32"}],"name":"receiveWormholeMessages","outputs":[],"stateMutability":"payable","type":"function"},{"inputs":[],"name":"renounceOwnership","outputs":[],"stateMutability":"nonpayable","type":"function"},{"inputs":[{"internalType":"address","name":"newOwner","type":"address"}],"name":"transferOwnership","outputs":[],"stateMutability":"nonpayable","type":"function"},{"inputs":[],"name":"wormholeRelayer","outputs":[{"internalType":"contract IWormholeRelayer","name":"","type":"address"}],"stateMutability":"view","type":"function"}],"devdoc":{"kind":"dev","methods":{"attachL1BitcoinDepositor(address)":{"details":"Requirements:      - Can be called only by the contract owner,      - The address must not be set yet,      - The new address must not be 0x0.","params":{"_l1BitcoinDepositor":"Address of the `L1BitcoinDepositor` contract."}},"constructor":{"custom:oz-upgrades-unsafe-allow":"constructor"},"initializeDeposit((bytes4,bytes,bytes,bytes4),(uint32,bytes8,bytes20,bytes20,bytes4,address),address)":{"details":"The alternative approach of using Wormhole Relayer to send the      deposit data to L1 was considered. However, it turned out to be      too expensive. For example, relying deposit data from Base L2 to      Ethereum L1 costs around ~0.045 ETH (~170 USD at the moment of writing).      Moreover, the next iteration of the direct bridging mechanism      assumes that no L2 transaction will be required to initialize the      deposit and the relayer should obtain the deposit data off-chain.      There is a high chance this function will be removed then.      That said, there was no sense to explore another cross-chain      messaging solutions. Relying on simple on-chain event and custom      off-chain relayer seems to be the most reasonable way to go. It      also aligns with the future direction of the direct bridging mechanism.","params":{"fundingTx":"Bitcoin funding transaction data.","l2DepositOwner":"Address of the L2 deposit owner.","reveal":"Deposit reveal data."}},"owner()":{"details":"Returns the address of the current owner."},"receiveWormholeMessages(bytes,bytes[],bytes32,uint16,bytes32)":{"details":"Requirements:      - Can be called only by the Wormhole Relayer contract,      - The source chain must be the expected L1 chain,      - The source address must be the corresponding        `L1BitcoinDepositor` contract,      - The message must carry exactly 1 additional VAA key representing        the token transfer.","params":{"additionalVaas":"Additional VAAs that are part of the Wormhole message.","sourceAddress":"Address of the source of the message (in Wormhole format).","sourceChain":"Wormhole chain ID of the source chain."}},"renounceOwnership()":{"details":"Leaves the contract without owner. It will not be possible to call `onlyOwner` functions. Can only be called by the current owner. NOTE: Renouncing ownership will leave the contract without an owner, thereby disabling any functionality that is only available to the owner."},"transferOwnership(address)":{"details":"Transfers ownership of the contract to a new account (`newOwner`). Can only be called by the current owner."}},"title":"L2BitcoinDepositor","version":1},"evm":{"bytecode":{"linkReferences":{},"object":"60806040523480156200001157600080fd5b50620000226200002860201b60201c565b620001d2565b600060019054906101000a900460ff16156200007b576040517f08c379a0000000000000000000000000000000000000000000000000000000008152600401620000729062000175565b60405180910390fd5b60ff801660008054906101000a900460ff1660ff1614620000ec5760ff6000806101000a81548160ff021916908360ff1602179055507f7f26b83ff96e1f2b6a682f133852f6798a09c465da95921460cefb384740249860ff604051620000e39190620001b5565b60405180910390a15b565b600082825260208201905092915050565b7f496e697469616c697a61626c653a20636f6e747261637420697320696e69746960008201527f616c697a696e6700000000000000000000000000000000000000000000000000602082015250565b60006200015d602783620000ee565b91506200016a82620000ff565b604082019050919050565b6000602082019050818103600083015262000190816200014e565b9050919050565b600060ff82169050919050565b620001af8162000197565b82525050565b6000602082019050620001cc6000830184620001a4565b92915050565b611eb080620001e26000396000f3fe60806040526004361061009c5760003560e01c80637ebef529116100645780637ebef529146101515780638da5cb5b1461017a578063aa82e33b146101a5578063da25b725146101d0578063e1551fc9146101fb578063f2fde38b146102265761009c565b806312622e5b146100a157806331446c46146100cc578063529dca32146100f5578063642dc03314610111578063715018a61461013a575b600080fd5b3480156100ad57600080fd5b506100b661024f565b6040516100c39190610cd4565b60405180910390f35b3480156100d857600080fd5b506100f360048036038101906100ee9190610d61565b610263565b005b61010f600480360381019061010a919061101c565b6103af565b005b34801561011d57600080fd5b5061013860048036038101906101339190611112565b610624565b005b34801561014657600080fd5b5061014f610690565b005b34801561015d57600080fd5b5061017860048036038101906101739190611182565b6106a4565b005b34801561018657600080fd5b5061018f610962565b60405161019c91906111e4565b60405180910390f35b3480156101b157600080fd5b506101ba61098c565b6040516101c7919061125e565b60405180910390f35b3480156101dc57600080fd5b506101e56109b2565b6040516101f2919061129a565b60405180910390f35b34801561020757600080fd5b506102106109d8565b60405161021d91906111e4565b60405180910390f35b34801561023257600080fd5b5061024d60048036038101906102489190610d61565b6109fe565b005b606660149054906101000a900461ffff1681565b61026b610a81565b600073ffffffffffffffffffffffffffffffffffffffff16606760009054906101000a900473ffffffffffffffffffffffffffffffffffffffff1673ffffffffffffffffffffffffffffffffffffffff16146102fc576040517f08c379a00000000000000000000000000000000000000000000000000000000081526004016102f390611312565b60405180910390fd5b600073ffffffffffffffffffffffffffffffffffffffff168173ffffffffffffffffffffffffffffffffffffffff160361036b576040517f08c379a0000000000000000000000000000000000000000000000000000000008152600401610362906113a4565b60405180910390fd5b80606760006101000a81548173ffffffffffffffffffffffffffffffffffffffff021916908373ffffffffffffffffffffffffffffffffffffffff16021790555050565b606560009054906101000a900473ffffffffffffffffffffffffffffffffffffffff1673ffffffffffffffffffffffffffffffffffffffff163373ffffffffffffffffffffffffffffffffffffffff161461043f576040517f08c379a000000000000000000000000000000000000000000000000000000000815260040161043690611410565b60405180910390fd5b606660149054906101000a900461ffff1661ffff168261ffff1614610499576040517f08c379a0000000000000000000000000000000000000000000000000000000008152600401610490906114a2565b60405180910390fd5b606760009054906101000a900473ffffffffffffffffffffffffffffffffffffffff1673ffffffffffffffffffffffffffffffffffffffff166104db84610aff565b73ffffffffffffffffffffffffffffffffffffffff1614610531576040517f08c379a000000000000000000000000000000000000000000000000000000000815260040161052890611534565b60405180910390fd5b6001845114610575576040517f08c379a000000000000000000000000000000000000000000000000000000000815260040161056c906115c6565b60405180910390fd5b606660009054906101000a900473ffffffffffffffffffffffffffffffffffffffff1673ffffffffffffffffffffffffffffffffffffffff16635d21a596856000815181106105c7576105c66115e6565b5b60200260200101516040518263ffffffff1660e01b81526004016105eb9190611694565b600060405180830381600087803b15801561060557600080fd5b505af1158015610619573d6000803e3d6000fd5b505050505050505050565b3373ffffffffffffffffffffffffffffffffffffffff168173ffffffffffffffffffffffffffffffffffffffff167f69a2a6d267e87f99180657174ca85389598d457ba949435ee4940f621bb849cf8585604051610683929190611aa1565b60405180910390a3505050565b610698610a81565b6106a26000610b0c565b565b60008060019054906101000a900460ff161590508080156106d55750600160008054906101000a900460ff1660ff16105b8061070257506106e430610bd2565b1580156107015750600160008054906101000a900460ff1660ff16145b5b610741576040517f08c379a000000000000000000000000000000000000000000000000000000000815260040161073890611b43565b60405180910390fd5b60016000806101000a81548160ff021916908360ff160217905550801561077e576001600060016101000a81548160ff0219169083151502179055505b610786610bf5565b600073ffffffffffffffffffffffffffffffffffffffff168473ffffffffffffffffffffffffffffffffffffffff16036107f5576040517f08c379a00000000000000000000000000000000000000000000000000000000081526004016107ec90611bd5565b60405180910390fd5b600073ffffffffffffffffffffffffffffffffffffffff168373ffffffffffffffffffffffffffffffffffffffff1603610864576040517f08c379a000000000000000000000000000000000000000000000000000000000815260040161085b90611c67565b60405180910390fd5b83606560006101000a81548173ffffffffffffffffffffffffffffffffffffffff021916908373ffffffffffffffffffffffffffffffffffffffff16021790555082606660006101000a81548173ffffffffffffffffffffffffffffffffffffffff021916908373ffffffffffffffffffffffffffffffffffffffff16021790555081606660146101000a81548161ffff021916908361ffff160217905550801561095c5760008060016101000a81548160ff0219169083151502179055507f7f26b83ff96e1f2b6a682f133852f6798a09c465da95921460cefb384740249860016040516109539190611ccf565b60405180910390a15b50505050565b6000603360009054906101000a900473ffffffffffffffffffffffffffffffffffffffff16905090565b606660009054906101000a900473ffffffffffffffffffffffffffffffffffffffff1681565b606560009054906101000a900473ffffffffffffffffffffffffffffffffffffffff1681565b606760009054906101000a900473ffffffffffffffffffffffffffffffffffffffff1681565b610a06610a81565b600073ffffffffffffffffffffffffffffffffffffffff168173ffffffffffffffffffffffffffffffffffffffff1603610a75576040517f08c379a0000000000000000000000000000000000000000000000000000000008152600401610a6c90611d5c565b60405180910390fd5b610a7e81610b0c565b50565b610a89610c4e565b73ffffffffffffffffffffffffffffffffffffffff16610aa7610962565b73ffffffffffffffffffffffffffffffffffffffff1614610afd576040517f08c379a0000000000000000000000000000000000000000000000000000000008152600401610af490611dc8565b60405180910390fd5b565b60008160001c9050919050565b6000603360009054906101000a900473ffffffffffffffffffffffffffffffffffffffff16905081603360006101000a81548173ffffffffffffffffffffffffffffffffffffffff021916908373ffffffffffffffffffffffffffffffffffffffff1602179055508173ffffffffffffffffffffffffffffffffffffffff168173ffffffffffffffffffffffffffffffffffffffff167f8be0079c531659141344cd1fd0a4f28419497f9722a3daafe3b4186f6b6457e060405160405180910390a35050565b6000808273ffffffffffffffffffffffffffffffffffffffff163b119050919050565b600060019054906101000a900460ff16610c44576040517f08c379a0000000000000000000000000000000000000000000000000000000008152600401610c3b90611e5a565b60405180910390fd5b610c4c610c56565b565b600033905090565b600060019054906101000a900460ff16610ca5576040517f08c379a0000000000000000000000000000000000000000000000000000000008152600401610c9c90611e5a565b60405180910390fd5b610cb5610cb0610c4e565b610b0c565b565b600061ffff82169050919050565b610cce81610cb7565b82525050565b6000602082019050610ce96000830184610cc5565b92915050565b6000604051905090565b600080fd5b600080fd5b600073ffffffffffffffffffffffffffffffffffffffff82169050919050565b6000610d2e82610d03565b9050919050565b610d3e81610d23565b8114610d4957600080fd5b50565b600081359050610d5b81610d35565b92915050565b600060208284031215610d7757610d76610cf9565b5b6000610d8584828501610d4c565b91505092915050565b600080fd5b600080fd5b6000601f19601f8301169050919050565b7f4e487b7100000000000000000000000000000000000000000000000000000000600052604160045260246000fd5b610de182610d98565b810181811067ffffffffffffffff82111715610e0057610dff610da9565b5b80604052505050565b6000610e13610cef565b9050610e1f8282610dd8565b919050565b600067ffffffffffffffff821115610e3f57610e3e610da9565b5b610e4882610d98565b9050602081019050919050565b82818337600083830152505050565b6000610e77610e7284610e24565b610e09565b905082815260208101848484011115610e9357610e92610d93565b5b610e9e848285610e55565b509392505050565b600082601f830112610ebb57610eba610d8e565b5b8135610ecb848260208601610e64565b91505092915050565b600067ffffffffffffffff821115610eef57610eee610da9565b5b602082029050602081019050919050565b600080fd5b6000610f18610f1384610ed4565b610e09565b90508083825260208201905060208402830185811115610f3b57610f3a610f00565b5b835b81811015610f8257803567ffffffffffffffff811115610f6057610f5f610d8e565b5b808601610f6d8982610ea6565b85526020850194505050602081019050610f3d565b5050509392505050565b600082601f830112610fa157610fa0610d8e565b5b8135610fb1848260208601610f05565b91505092915050565b6000819050919050565b610fcd81610fba565b8114610fd857600080fd5b50565b600081359050610fea81610fc4565b92915050565b610ff981610cb7565b811461100457600080fd5b50565b60008135905061101681610ff0565b92915050565b600080600080600060a0868803121561103857611037610cf9565b5b600086013567ffffffffffffffff81111561105657611055610cfe565b5b61106288828901610ea6565b955050602086013567ffffffffffffffff81111561108357611082610cfe565b5b61108f88828901610f8c565b94505060406110a088828901610fdb565b93505060606110b188828901611007565b92505060806110c288828901610fdb565b9150509295509295909350565b600080fd5b6000608082840312156110ea576110e96110cf565b5b81905092915050565b600060c08284031215611109576111086110cf565b5b81905092915050565b6000806000610100848603121561112c5761112b610cf9565b5b600084013567ffffffffffffffff81111561114a57611149610cfe565b5b611156868287016110d4565b9350506020611167868287016110f3565b92505060e061117886828701610d4c565b9150509250925092565b60008060006060848603121561119b5761119a610cf9565b5b60006111a986828701610d4c565b93505060206111ba86828701610d4c565b92505060406111cb86828701611007565b9150509250925092565b6111de81610d23565b82525050565b60006020820190506111f960008301846111d5565b92915050565b6000819050919050565b600061122461121f61121a84610d03565b6111ff565b610d03565b9050919050565b600061123682611209565b9050919050565b60006112488261122b565b9050919050565b6112588161123d565b82525050565b6000602082019050611273600083018461124f565b92915050565b60006112848261122b565b9050919050565b61129481611279565b82525050565b60006020820190506112af600083018461128b565b92915050565b600082825260208201905092915050565b7f4c3120426974636f696e204465706f7369746f7220616c726561647920736574600082015250565b60006112fc6020836112b5565b9150611307826112c6565b602082019050919050565b6000602082019050818103600083015261132b816112ef565b9050919050565b7f4c3120426974636f696e204465706f7369746f72206d757374206e6f7420626560008201527f2030783000000000000000000000000000000000000000000000000000000000602082015250565b600061138e6024836112b5565b915061139982611332565b604082019050919050565b600060208201905081810360008301526113bd81611381565b9050919050565b7f43616c6c6572206973206e6f7420576f726d686f6c652052656c617965720000600082015250565b60006113fa601e836112b5565b9150611405826113c4565b602082019050919050565b60006020820190508181036000830152611429816113ed565b9050919050565b7f536f7572636520636861696e206973206e6f742074686520657870656374656460008201527f204c3120636861696e0000000000000000000000000000000000000000000000602082015250565b600061148c6029836112b5565b915061149782611430565b604082019050919050565b600060208201905081810360008301526114bb8161147f565b9050919050565b7f536f757263652061646472657373206973206e6f74207468652065787065637460008201527f6564204c3120426974636f696e206465706f7369746f72000000000000000000602082015250565b600061151e6037836112b5565b9150611529826114c2565b604082019050919050565b6000602082019050818103600083015261154d81611511565b9050919050565b7f45787065637465642031206164646974696f6e616c20564141206b657920666f60008201527f7220746f6b656e207472616e7366657200000000000000000000000000000000602082015250565b60006115b06030836112b5565b91506115bb82611554565b604082019050919050565b600060208201905081810360008301526115df816115a3565b9050919050565b7f4e487b7100000000000000000000000000000000000000000000000000000000600052603260045260246000fd5b600081519050919050565b600082825260208201905092915050565b60005b8381101561164f578082015181840152602081019050611634565b60008484015250505050565b600061166682611615565b6116708185611620565b9350611680818560208601611631565b61168981610d98565b840191505092915050565b600060208201905081810360008301526116ae818461165b565b905092915050565b60007fffffffff0000000000000000000000000000000000000000000000000000000082169050919050565b6116eb816116b6565b81146116f657600080fd5b50565b600081359050611708816116e2565b92915050565b600061171d60208401846116f9565b905092915050565b61172e816116b6565b82525050565b600080fd5b600080fd5b600080fd5b600080833560016020038436030381126117605761175f61173e565b5b83810192508235915060208301925067ffffffffffffffff82111561178857611787611734565b5b60018202360383131561179e5761179d611739565b5b509250929050565b600082825260208201905092915050565b60006117c383856117a6565b93506117d0838584610e55565b6117d983610d98565b840190509392505050565b6000608083016117f7600084018461170e565b6118046000860182611725565b506118126020840184611743565b85830360208701526118258382846117b7565b925050506118366040840184611743565b85830360408701526118498382846117b7565b9250505061185a606084018461170e565b6118676060860182611725565b508091505092915050565b600063ffffffff82169050919050565b61188b81611872565b811461189657600080fd5b50565b6000813590506118a881611882565b92915050565b60006118bd6020840184611899565b905092915050565b6118ce81611872565b82525050565b60007fffffffffffffffff00000000000000000000000000000000000000000000000082169050919050565b611909816118d4565b811461191457600080fd5b50565b60008135905061192681611900565b92915050565b600061193b6020840184611917565b905092915050565b61194c816118d4565b82525050565b60007fffffffffffffffffffffffffffffffffffffffff00000000000000000000000082169050919050565b61198781611952565b811461199257600080fd5b50565b6000813590506119a48161197e565b92915050565b60006119b96020840184611995565b905092915050565b6119ca81611952565b82525050565b60006119df6020840184610d4c565b905092915050565b6119f081610d23565b82525050565b60c08201611a0760008301836118ae565b611a1460008501826118c5565b50611a22602083018361192c565b611a2f6020850182611943565b50611a3d60408301836119aa565b611a4a60408501826119c1565b50611a5860608301836119aa565b611a6560608501826119c1565b50611a73608083018361170e565b611a806080850182611725565b50611a8e60a08301836119d0565b611a9b60a08501826119e7565b50505050565b600060e0820190508181036000830152611abb81856117e4565b9050611aca60208301846119f6565b9392505050565b7f496e697469616c697a61626c653a20636f6e747261637420697320616c72656160008201527f647920696e697469616c697a6564000000000000000000000000000000000000602082015250565b6000611b2d602e836112b5565b9150611b3882611ad1565b604082019050919050565b60006020820190508181036000830152611b5c81611b20565b9050919050565b7f576f726d686f6c6552656c6179657220616464726573732063616e6e6f74206260008201527f65207a65726f0000000000000000000000000000000000000000000000000000602082015250565b6000611bbf6026836112b5565b9150611bca82611b63565b604082019050919050565b60006020820190508181036000830152611bee81611bb2565b9050919050565b7f4c32576f726d686f6c654761746577617920616464726573732063616e6e6f7460008201527f206265207a65726f000000000000000000000000000000000000000000000000602082015250565b6000611c516028836112b5565b9150611c5c82611bf5565b604082019050919050565b60006020820190508181036000830152611c8081611c44565b9050919050565b6000819050919050565b600060ff82169050919050565b6000611cb9611cb4611caf84611c87565b6111ff565b611c91565b9050919050565b611cc981611c9e565b82525050565b6000602082019050611ce46000830184611cc0565b92915050565b7f4f776e61626c653a206e6577206f776e657220697320746865207a65726f206160008201527f6464726573730000000000000000000000000000000000000000000000000000602082015250565b6000611d466026836112b5565b9150611d5182611cea565b604082019050919050565b60006020820190508181036000830152611d7581611d39565b9050919050565b7f4f776e61626c653a2063616c6c6572206973206e6f7420746865206f776e6572600082015250565b6000611db26020836112b5565b9150611dbd82611d7c565b602082019050919050565b60006020820190508181036000830152611de181611da5565b9050919050565b7f496e697469616c697a61626c653a20636f6e7472616374206973206e6f74206960008201527f6e697469616c697a696e67000000000000000000000000000000000000000000602082015250565b6000611e44602b836112b5565b9150611e4f82611de8565b604082019050919050565b60006020820190508181036000830152611e7381611e37565b905091905056fea2646970667358221220d509593b31375289113324a6cbc314a9542a6cf25c7f232016a4f467b68fb14364736f6c63430008110033","opcodes":"PUSH1 0x80 PUSH1 0x40 MSTORE CALLVALUE DUP1 ISZERO PUSH3 0x11 JUMPI PUSH1 0x0 DUP1 REVERT JUMPDEST POP PUSH3 0x22 PUSH3 0x28 PUSH1 0x20 SHL PUSH1 0x20 SHR JUMP JUMPDEST PUSH3 0x1D2 JUMP JUMPDEST PUSH1 0x0 PUSH1 0x1 SWAP1 SLOAD SWAP1 PUSH2 0x100 EXP SWAP1 DIV PUSH1 0xFF AND ISZERO PUSH3 0x7B JUMPI PUSH1 0x40 MLOAD PUSH32 0x8C379A000000000000000000000000000000000000000000000000000000000 DUP2 MSTORE PUSH1 0x4 ADD PUSH3 0x72 SWAP1 PUSH3 0x175 JUMP JUMPDEST PUSH1 0x40 MLOAD DUP1 SWAP2 SUB SWAP1 REVERT JUMPDEST PUSH1 0xFF DUP1 AND PUSH1 0x0 DUP1 SLOAD SWAP1 PUSH2 0x100 EXP SWAP1 DIV PUSH1 0xFF AND PUSH1 0xFF AND EQ PUSH3 0xEC JUMPI PUSH1 0xFF PUSH1 0x0 DUP1 PUSH2 0x100 EXP DUP2 SLOAD DUP2 PUSH1 0xFF MUL NOT AND SWAP1 DUP4 PUSH1 0xFF AND MUL OR SWAP1 SSTORE POP PUSH32 0x7F26B83FF96E1F2B6A682F133852F6798A09C465DA95921460CEFB3847402498 PUSH1 0xFF PUSH1 0x40 MLOAD PUSH3 0xE3 SWAP2 SWAP1 PUSH3 0x1B5 JUMP JUMPDEST PUSH1 0x40 MLOAD DUP1 SWAP2 SUB SWAP1 LOG1 JUMPDEST JUMP JUMPDEST PUSH1 0x0 DUP3 DUP3 MSTORE PUSH1 0x20 DUP3 ADD SWAP1 POP SWAP3 SWAP2 POP POP JUMP JUMPDEST PUSH32 0x496E697469616C697A61626C653A20636F6E747261637420697320696E697469 PUSH1 0x0 DUP3 ADD MSTORE PUSH32 0x616C697A696E6700000000000000000000000000000000000000000000000000 PUSH1 0x20 DUP3 ADD MSTORE POP JUMP JUMPDEST PUSH1 0x0 PUSH3 0x15D PUSH1 0x27 DUP4 PUSH3 0xEE JUMP JUMPDEST SWAP2 POP PUSH3 0x16A DUP3 PUSH3 0xFF JUMP JUMPDEST PUSH1 0x40 DUP3 ADD SWAP1 POP SWAP2 SWAP1 POP JUMP JUMPDEST PUSH1 0x0 PUSH1 0x20 DUP3 ADD SWAP1 POP DUP2 DUP2 SUB PUSH1 0x0 DUP4 ADD MSTORE PUSH3 0x190 DUP2 PUSH3 0x14E JUMP JUMPDEST SWAP1 POP SWAP2 SWAP1 POP JUMP JUMPDEST PUSH1 0x0 PUSH1 0xFF DUP3 AND SWAP1 POP SWAP2 SWAP1 POP JUMP JUMPDEST PUSH3 0x1AF DUP2 PUSH3 0x197 JUMP JUMPDEST DUP3 MSTORE POP POP JUMP JUMPDEST PUSH1 0x0 PUSH1 0x20 DUP3 ADD SWAP1 POP PUSH3 0x1CC PUSH1 0x0 DUP4 ADD DUP5 PUSH3 0x1A4 JUMP JUMPDEST SWAP3 SWAP2 POP POP JUMP JUMPDEST PUSH2 0x1EB0 DUP1 PUSH3 0x1E2 PUSH1 0x0 CODECOPY PUSH1 0x0 RETURN INVALID PUSH1 0x80 PUSH1 0x40 MSTORE PUSH1 0x4 CALLDATASIZE LT PUSH2 0x9C JUMPI PUSH1 0x0 CALLDATALOAD PUSH1 0xE0 SHR DUP1 PUSH4 0x7EBEF529 GT PUSH2 0x64 JUMPI DUP1 PUSH4 0x7EBEF529 EQ PUSH2 0x151 JUMPI DUP1 PUSH4 0x8DA5CB5B EQ PUSH2 0x17A JUMPI DUP1 PUSH4 0xAA82E33B EQ PUSH2 0x1A5 JUMPI DUP1 PUSH4 0xDA25B725 EQ PUSH2 0x1D0 JUMPI DUP1 PUSH4 0xE1551FC9 EQ PUSH2 0x1FB JUMPI DUP1 PUSH4 0xF2FDE38B EQ PUSH2 0x226 JUMPI PUSH2 0x9C JUMP JUMPDEST DUP1 PUSH4 0x12622E5B EQ PUSH2 0xA1 JUMPI DUP1 PUSH4 0x31446C46 EQ PUSH2 0xCC JUMPI DUP1 PUSH4 0x529DCA32 EQ PUSH2 0xF5 JUMPI DUP1 PUSH4 0x642DC033 EQ PUSH2 0x111 JUMPI DUP1 PUSH4 0x715018A6 EQ PUSH2 0x13A JUMPI JUMPDEST PUSH1 0x0 DUP1 REVERT JUMPDEST CALLVALUE DUP1 ISZERO PUSH2 0xAD JUMPI PUSH1 0x0 DUP1 REVERT JUMPDEST POP PUSH2 0xB6 PUSH2 0x24F JUMP JUMPDEST PUSH1 0x40 MLOAD PUSH2 0xC3 SWAP2 SWAP1 PUSH2 0xCD4 JUMP JUMPDEST PUSH1 0x40 MLOAD DUP1 SWAP2 SUB SWAP1 RETURN JUMPDEST CALLVALUE DUP1 ISZERO PUSH2 0xD8 JUMPI PUSH1 0x0 DUP1 REVERT JUMPDEST POP PUSH2 0xF3 PUSH1 0x4 DUP1 CALLDATASIZE SUB DUP2 ADD SWAP1 PUSH2 0xEE SWAP2 SWAP1 PUSH2 0xD61 JUMP JUMPDEST PUSH2 0x263 JUMP JUMPDEST STOP JUMPDEST PUSH2 0x10F PUSH1 0x4 DUP1 CALLDATASIZE SUB DUP2 ADD SWAP1 PUSH2 0x10A SWAP2 SWAP1 PUSH2 0x101C JUMP JUMPDEST PUSH2 0x3AF JUMP JUMPDEST STOP JUMPDEST CALLVALUE DUP1 ISZERO PUSH2 0x11D JUMPI PUSH1 0x0 DUP1 REVERT JUMPDEST POP PUSH2 0x138 PUSH1 0x4 DUP1 CALLDATASIZE SUB DUP2 ADD SWAP1 PUSH2 0x133 SWAP2 SWAP1 PUSH2 0x1112 JUMP JUMPDEST PUSH2 0x624 JUMP JUMPDEST STOP JUMPDEST CALLVALUE DUP1 ISZERO PUSH2 0x146 JUMPI PUSH1 0x0 DUP1 REVERT JUMPDEST POP PUSH2 0x14F PUSH2 0x690 JUMP JUMPDEST STOP JUMPDEST CALLVALUE DUP1 ISZERO PUSH2 0x15D JUMPI PUSH1 0x0 DUP1 REVERT JUMPDEST POP PUSH2 0x178 PUSH1 0x4 DUP1 CALLDATASIZE SUB DUP2 ADD SWAP1 PUSH2 0x173 SWAP2 SWAP1 PUSH2 0x1182 JUMP JUMPDEST PUSH2 0x6A4 JUMP JUMPDEST STOP JUMPDEST CALLVALUE DUP1 ISZERO PUSH2 0x186 JUMPI PUSH1 0x0 DUP1 REVERT JUMPDEST POP PUSH2 0x18F PUSH2 0x962 JUMP JUMPDEST PUSH1 0x40 MLOAD PUSH2 0x19C SWAP2 SWAP1 PUSH2 0x11E4 JUMP JUMPDEST PUSH1 0x40 MLOAD DUP1 SWAP2 SUB SWAP1 RETURN JUMPDEST CALLVALUE DUP1 ISZERO PUSH2 0x1B1 JUMPI PUSH1 0x0 DUP1 REVERT JUMPDEST POP PUSH2 0x1BA PUSH2 0x98C JUMP JUMPDEST PUSH1 0x40 MLOAD PUSH2 0x1C7 SWAP2 SWAP1 PUSH2 0x125E JUMP JUMPDEST PUSH1 0x40 MLOAD DUP1 SWAP2 SUB SWAP1 RETURN JUMPDEST CALLVALUE DUP1 ISZERO PUSH2 0x1DC JUMPI PUSH1 0x0 DUP1 REVERT JUMPDEST POP PUSH2 0x1E5 PUSH2 0x9B2 JUMP JUMPDEST PUSH1 0x40 MLOAD PUSH2 0x1F2 SWAP2 SWAP1 PUSH2 0x129A JUMP JUMPDEST PUSH1 0x40 MLOAD DUP1 SWAP2 SUB SWAP1 RETURN JUMPDEST CALLVALUE DUP1 ISZERO PUSH2 0x207 JUMPI PUSH1 0x0 DUP1 REVERT JUMPDEST POP PUSH2 0x210 PUSH2 0x9D8 JUMP JUMPDEST PUSH1 0x40 MLOAD PUSH2 0x21D SWAP2 SWAP1 PUSH2 0x11E4 JUMP JUMPDEST PUSH1 0x40 MLOAD DUP1 SWAP2 SUB SWAP1 RETURN JUMPDEST CALLVALUE DUP1 ISZERO PUSH2 0x232 JUMPI PUSH1 0x0 DUP1 REVERT JUMPDEST POP PUSH2 0x24D PUSH1 0x4 DUP1 CALLDATASIZE SUB DUP2 ADD SWAP1 PUSH2 0x248 SWAP2 SWAP1 PUSH2 0xD61 JUMP JUMPDEST PUSH2 0x9FE JUMP JUMPDEST STOP JUMPDEST PUSH1 0x66 PUSH1 0x14 SWAP1 SLOAD SWAP1 PUSH2 0x100 EXP SWAP1 DIV PUSH2 0xFFFF AND DUP2 JUMP JUMPDEST PUSH2 0x26B PUSH2 0xA81 JUMP JUMPDEST PUSH1 0x0 PUSH20 0xFFFFFFFFFFFFFFFFFFFFFFFFFFFFFFFFFFFFFFFF AND PUSH1 0x67 PUSH1 0x0 SWAP1 SLOAD SWAP1 PUSH2 0x100 EXP SWAP1 DIV PUSH20 0xFFFFFFFFFFFFFFFFFFFFFFFFFFFFFFFFFFFFFFFF AND PUSH20 0xFFFFFFFFFFFFFFFFFFFFFFFFFFFFFFFFFFFFFFFF AND EQ PUSH2 0x2FC JUMPI PUSH1 0x40 MLOAD PUSH32 0x8C379A000000000000000000000000000000000000000000000000000000000 DUP2 MSTORE PUSH1 0x4 ADD PUSH2 0x2F3 SWAP1 PUSH2 0x1312 JUMP JUMPDEST PUSH1 0x40 MLOAD DUP1 SWAP2 SUB SWAP1 REVERT JUMPDEST PUSH1 0x0 PUSH20 0xFFFFFFFFFFFFFFFFFFFFFFFFFFFFFFFFFFFFFFFF AND DUP2 PUSH20 0xFFFFFFFFFFFFFFFFFFFFFFFFFFFFFFFFFFFFFFFF AND SUB PUSH2 0x36B JUMPI PUSH1 0x40 MLOAD PUSH32 0x8C379A000000000000000000000000000000000000000000000000000000000 DUP2 MSTORE PUSH1 0x4 ADD PUSH2 0x362 SWAP1 PUSH2 0x13A4 JUMP JUMPDEST PUSH1 0x40 MLOAD DUP1 SWAP2 SUB SWAP1 REVERT JUMPDEST DUP1 PUSH1 0x67 PUSH1 0x0 PUSH2 0x100 EXP DUP2 SLOAD DUP2 PUSH20 0xFFFFFFFFFFFFFFFFFFFFFFFFFFFFFFFFFFFFFFFF MUL NOT AND SWAP1 DUP4 PUSH20 0xFFFFFFFFFFFFFFFFFFFFFFFFFFFFFFFFFFFFFFFF AND MUL OR SWAP1 SSTORE POP POP JUMP JUMPDEST PUSH1 0x65 PUSH1 0x0 SWAP1 SLOAD SWAP1 PUSH2 0x100 EXP SWAP1 DIV PUSH20 0xFFFFFFFFFFFFFFFFFFFFFFFFFFFFFFFFFFFFFFFF AND PUSH20 0xFFFFFFFFFFFFFFFFFFFFFFFFFFFFFFFFFFFFFFFF AND CALLER PUSH20 0xFFFFFFFFFFFFFFFFFFFFFFFFFFFFFFFFFFFFFFFF AND EQ PUSH2 0x43F JUMPI PUSH1 0x40 MLOAD PUSH32 0x8C379A000000000000000000000000000000000000000000000000000000000 DUP2 MSTORE PUSH1 0x4 ADD PUSH2 0x436 SWAP1 PUSH2 0x1410 JUMP JUMPDEST PUSH1 0x40 MLOAD DUP1 SWAP2 SUB SWAP1 REVERT JUMPDEST PUSH1 0x66 PUSH1 0x14 SWAP1 SLOAD SWAP1 PUSH2 0x100 EXP SWAP1 DIV PUSH2 0xFFFF AND PUSH2 0xFFFF AND DUP3 PUSH2 0xFFFF AND EQ PUSH2 0x499 JUMPI PUSH1 0x40 MLOAD PUSH32 0x8C379A000000000000000000000000000000000000000000000000000000000 DUP2 MSTORE PUSH1 0x4 ADD PUSH2 0x490 SWAP1 PUSH2 0x14A2 JUMP JUMPDEST PUSH1 0x40 MLOAD DUP1 SWAP2 SUB SWAP1 REVERT JUMPDEST PUSH1 0x67 PUSH1 0x0 SWAP1 SLOAD SWAP1 PUSH2 0x100 EXP SWAP1 DIV PUSH20 0xFFFFFFFFFFFFFFFFFFFFFFFFFFFFFFFFFFFFFFFF AND PUSH20 0xFFFFFFFFFFFFFFFFFFFFFFFFFFFFFFFFFFFFFFFF AND PUSH2 0x4DB DUP5 PUSH2 0xAFF JUMP JUMPDEST PUSH20 0xFFFFFFFFFFFFFFFFFFFFFFFFFFFFFFFFFFFFFFFF AND EQ PUSH2 0x531 JUMPI PUSH1 0x40 MLOAD PUSH32 0x8C379A000000000000000000000000000000000000000000000000000000000 DUP2 MSTORE PUSH1 0x4 ADD PUSH2 0x528 SWAP1 PUSH2 0x1534 JUMP JUMPDEST PUSH1 0x40 MLOAD DUP1 SWAP2 SUB SWAP1 REVERT JUMPDEST PUSH1 0x1 DUP5 MLOAD EQ PUSH2 0x575 JUMPI PUSH1 0x40 MLOAD PUSH32 0x8C379A000000000000000000000000000000000000000000000000000000000 DUP2 MSTORE PUSH1 0x4 ADD PUSH2 0x56C SWAP1 PUSH2 0x15C6 JUMP JUMPDEST PUSH1 0x40 MLOAD DUP1 SWAP2 SUB SWAP1 REVERT JUMPDEST PUSH1 0x66 PUSH1 0x0 SWAP1 SLOAD SWAP1 PUSH2 0x100 EXP SWAP1 DIV PUSH20 0xFFFFFFFFFFFFFFFFFFFFFFFFFFFFFFFFFFFFFFFF AND PUSH20 0xFFFFFFFFFFFFFFFFFFFFFFFFFFFFFFFFFFFFFFFF AND PUSH4 0x5D21A596 DUP6 PUSH1 0x0 DUP2 MLOAD DUP2 LT PUSH2 0x5C7 JUMPI PUSH2 0x5C6 PUSH2 0x15E6 JUMP JUMPDEST JUMPDEST PUSH1 0x20 MUL PUSH1 0x20 ADD ADD MLOAD PUSH1 0x40 MLOAD DUP3 PUSH4 0xFFFFFFFF AND PUSH1 0xE0 SHL DUP2 MSTORE PUSH1 0x4 ADD PUSH2 0x5EB SWAP2 SWAP1 PUSH2 0x1694 JUMP JUMPDEST PUSH1 0x0 PUSH1 0x40 MLOAD DUP1 DUP4 SUB DUP2 PUSH1 0x0 DUP8 DUP1 EXTCODESIZE ISZERO DUP1 ISZERO PUSH2 0x605 JUMPI PUSH1 0x0 DUP1 REVERT JUMPDEST POP GAS CALL ISZERO DUP1 ISZERO PUSH2 0x619 JUMPI RETURNDATASIZE PUSH1 0x0 DUP1 RETURNDATACOPY RETURNDATASIZE PUSH1 0x0 REVERT JUMPDEST POP POP POP POP POP POP POP POP POP JUMP JUMPDEST CALLER PUSH20 0xFFFFFFFFFFFFFFFFFFFFFFFFFFFFFFFFFFFFFFFF AND DUP2 PUSH20 0xFFFFFFFFFFFFFFFFFFFFFFFFFFFFFFFFFFFFFFFF AND PUSH32 0x69A2A6D267E87F99180657174CA85389598D457BA949435EE4940F621BB849CF DUP6 DUP6 PUSH1 0x40 MLOAD PUSH2 0x683 SWAP3 SWAP2 SWAP1 PUSH2 0x1AA1 JUMP JUMPDEST PUSH1 0x40 MLOAD DUP1 SWAP2 SUB SWAP1 LOG3 POP POP POP JUMP JUMPDEST PUSH2 0x698 PUSH2 0xA81 JUMP JUMPDEST PUSH2 0x6A2 PUSH1 0x0 PUSH2 0xB0C JUMP JUMPDEST JUMP JUMPDEST PUSH1 0x0 DUP1 PUSH1 0x1 SWAP1 SLOAD SWAP1 PUSH2 0x100 EXP SWAP1 DIV PUSH1 0xFF AND ISZERO SWAP1 POP DUP1 DUP1 ISZERO PUSH2 0x6D5 JUMPI POP PUSH1 0x1 PUSH1 0x0 DUP1 SLOAD SWAP1 PUSH2 0x100 EXP SWAP1 DIV PUSH1 0xFF AND PUSH1 0xFF AND LT JUMPDEST DUP1 PUSH2 0x702 JUMPI POP PUSH2 0x6E4 ADDRESS PUSH2 0xBD2 JUMP JUMPDEST ISZERO DUP1 ISZERO PUSH2 0x701 JUMPI POP PUSH1 0x1 PUSH1 0x0 DUP1 SLOAD SWAP1 PUSH2 0x100 EXP SWAP1 DIV PUSH1 0xFF AND PUSH1 0xFF AND EQ JUMPDEST JUMPDEST PUSH2 0x741 JUMPI PUSH1 0x40 MLOAD PUSH32 0x8C379A000000000000000000000000000000000000000000000000000000000 DUP2 MSTORE PUSH1 0x4 ADD PUSH2 0x738 SWAP1 PUSH2 0x1B43 JUMP JUMPDEST PUSH1 0x40 MLOAD DUP1 SWAP2 SUB SWAP1 REVERT JUMPDEST PUSH1 0x1 PUSH1 0x0 DUP1 PUSH2 0x100 EXP DUP2 SLOAD DUP2 PUSH1 0xFF MUL NOT AND SWAP1 DUP4 PUSH1 0xFF AND MUL OR SWAP1 SSTORE POP DUP1 ISZERO PUSH2 0x77E JUMPI PUSH1 0x1 PUSH1 0x0 PUSH1 0x1 PUSH2 0x100 EXP DUP2 SLOAD DUP2 PUSH1 0xFF MUL NOT AND SWAP1 DUP4 ISZERO ISZERO MUL OR SWAP1 SSTORE POP JUMPDEST PUSH2 0x786 PUSH2 0xBF5 JUMP JUMPDEST PUSH1 0x0 PUSH20 0xFFFFFFFFFFFFFFFFFFFFFFFFFFFFFFFFFFFFFFFF AND DUP5 PUSH20 0xFFFFFFFFFFFFFFFFFFFFFFFFFFFFFFFFFFFFFFFF AND SUB PUSH2 0x7F5 JUMPI PUSH1 0x40 MLOAD PUSH32 0x8C379A000000000000000000000000000000000000000000000000000000000 DUP2 MSTORE PUSH1 0x4 ADD PUSH2 0x7EC SWAP1 PUSH2 0x1BD5 JUMP JUMPDEST PUSH1 0x40 MLOAD DUP1 SWAP2 SUB SWAP1 REVERT JUMPDEST PUSH1 0x0 PUSH20 0xFFFFFFFFFFFFFFFFFFFFFFFFFFFFFFFFFFFFFFFF AND DUP4 PUSH20 0xFFFFFFFFFFFFFFFFFFFFFFFFFFFFFFFFFFFFFFFF AND SUB PUSH2 0x864 JUMPI PUSH1 0x40 MLOAD PUSH32 0x8C379A000000000000000000000000000000000000000000000000000000000 DUP2 MSTORE PUSH1 0x4 ADD PUSH2 0x85B SWAP1 PUSH2 0x1C67 JUMP JUMPDEST PUSH1 0x40 MLOAD DUP1 SWAP2 SUB SWAP1 REVERT JUMPDEST DUP4 PUSH1 0x65 PUSH1 0x0 PUSH2 0x100 EXP DUP2 SLOAD DUP2 PUSH20 0xFFFFFFFFFFFFFFFFFFFFFFFFFFFFFFFFFFFFFFFF MUL NOT AND SWAP1 DUP4 PUSH20 0xFFFFFFFFFFFFFFFFFFFFFFFFFFFFFFFFFFFFFFFF AND MUL OR SWAP1 SSTORE POP DUP3 PUSH1 0x66 PUSH1 0x0 PUSH2 0x100 EXP DUP2 SLOAD DUP2 PUSH20 0xFFFFFFFFFFFFFFFFFFFFFFFFFFFFFFFFFFFFFFFF MUL NOT AND SWAP1 DUP4 PUSH20 0xFFFFFFFFFFFFFFFFFFFFFFFFFFFFFFFFFFFFFFFF AND MUL OR SWAP1 SSTORE POP DUP2 PUSH1 0x66 PUSH1 0x14 PUSH2 0x100 EXP DUP2 SLOAD DUP2 PUSH2 0xFFFF MUL NOT AND SWAP1 DUP4 PUSH2 0xFFFF AND MUL OR SWAP1 SSTORE POP DUP1 ISZERO PUSH2 0x95C JUMPI PUSH1 0x0 DUP1 PUSH1 0x1 PUSH2 0x100 EXP DUP2 SLOAD DUP2 PUSH1 0xFF MUL NOT AND SWAP1 DUP4 ISZERO ISZERO MUL OR SWAP1 SSTORE POP PUSH32 0x7F26B83FF96E1F2B6A682F133852F6798A09C465DA95921460CEFB3847402498 PUSH1 0x1 PUSH1 0x40 MLOAD PUSH2 0x953 SWAP2 SWAP1 PUSH2 0x1CCF JUMP JUMPDEST PUSH1 0x40 MLOAD DUP1 SWAP2 SUB SWAP1 LOG1 JUMPDEST POP POP POP POP JUMP JUMPDEST PUSH1 0x0 PUSH1 0x33 PUSH1 0x0 SWAP1 SLOAD SWAP1 PUSH2 0x100 EXP SWAP1 DIV PUSH20 0xFFFFFFFFFFFFFFFFFFFFFFFFFFFFFFFFFFFFFFFF AND SWAP1 POP SWAP1 JUMP JUMPDEST PUSH1 0x66 PUSH1 0x0 SWAP1 SLOAD SWAP1 PUSH2 0x100 EXP SWAP1 DIV PUSH20 0xFFFFFFFFFFFFFFFFFFFFFFFFFFFFFFFFFFFFFFFF AND DUP2 JUMP JUMPDEST PUSH1 0x65 PUSH1 0x0 SWAP1 SLOAD SWAP1 PUSH2 0x100 EXP SWAP1 DIV PUSH20 0xFFFFFFFFFFFFFFFFFFFFFFFFFFFFFFFFFFFFFFFF AND DUP2 JUMP JUMPDEST PUSH1 0x67 PUSH1 0x0 SWAP1 SLOAD SWAP1 PUSH2 0x100 EXP SWAP1 DIV PUSH20 0xFFFFFFFFFFFFFFFFFFFFFFFFFFFFFFFFFFFFFFFF AND DUP2 JUMP JUMPDEST PUSH2 0xA06 PUSH2 0xA81 JUMP JUMPDEST PUSH1 0x0 PUSH20 0xFFFFFFFFFFFFFFFFFFFFFFFFFFFFFFFFFFFFFFFF AND DUP2 PUSH20 0xFFFFFFFFFFFFFFFFFFFFFFFFFFFFFFFFFFFFFFFF AND SUB PUSH2 0xA75 JUMPI PUSH1 0x40 MLOAD PUSH32 0x8C379A000000000000000000000000000000000000000000000000000000000 DUP2 MSTORE PUSH1 0x4 ADD PUSH2 0xA6C SWAP1 PUSH2 0x1D5C JUMP JUMPDEST PUSH1 0x40 MLOAD DUP1 SWAP2 SUB SWAP1 REVERT JUMPDEST PUSH2 0xA7E DUP2 PUSH2 0xB0C JUMP JUMPDEST POP JUMP JUMPDEST PUSH2 0xA89 PUSH2 0xC4E JUMP JUMPDEST PUSH20 0xFFFFFFFFFFFFFFFFFFFFFFFFFFFFFFFFFFFFFFFF AND PUSH2 0xAA7 PUSH2 0x962 JUMP JUMPDEST PUSH20 0xFFFFFFFFFFFFFFFFFFFFFFFFFFFFFFFFFFFFFFFF AND EQ PUSH2 0xAFD JUMPI PUSH1 0x40 MLOAD PUSH32 0x8C379A000000000000000000000000000000000000000000000000000000000 DUP2 MSTORE PUSH1 0x4 ADD PUSH2 0xAF4 SWAP1 PUSH2 0x1DC8 JUMP JUMPDEST PUSH1 0x40 MLOAD DUP1 SWAP2 SUB SWAP1 REVERT JUMPDEST JUMP JUMPDEST PUSH1 0x0 DUP2 PUSH1 0x0 SHR SWAP1 POP SWAP2 SWAP1 POP JUMP JUMPDEST PUSH1 0x0 PUSH1 0x33 PUSH1 0x0 SWAP1 SLOAD SWAP1 PUSH2 0x100 EXP SWAP1 DIV PUSH20 0xFFFFFFFFFFFFFFFFFFFFFFFFFFFFFFFFFFFFFFFF AND SWAP1 POP DUP2 PUSH1 0x33 PUSH1 0x0 PUSH2 0x100 EXP DUP2 SLOAD DUP2 PUSH20 0xFFFFFFFFFFFFFFFFFFFFFFFFFFFFFFFFFFFFFFFF MUL NOT AND SWAP1 DUP4 PUSH20 0xFFFFFFFFFFFFFFFFFFFFFFFFFFFFFFFFFFFFFFFF AND MUL OR SWAP1 SSTORE POP DUP2 PUSH20 0xFFFFFFFFFFFFFFFFFFFFFFFFFFFFFFFFFFFFFFFF AND DUP2 PUSH20 0xFFFFFFFFFFFFFFFFFFFFFFFFFFFFFFFFFFFFFFFF AND PUSH32 0x8BE0079C531659141344CD1FD0A4F28419497F9722A3DAAFE3B4186F6B6457E0 PUSH1 0x40 MLOAD PUSH1 0x40 MLOAD DUP1 SWAP2 SUB SWAP1 LOG3 POP POP JUMP JUMPDEST PUSH1 0x0 DUP1 DUP3 PUSH20 0xFFFFFFFFFFFFFFFFFFFFFFFFFFFFFFFFFFFFFFFF AND EXTCODESIZE GT SWAP1 POP SWAP2 SWAP1 POP JUMP JUMPDEST PUSH1 0x0 PUSH1 0x1 SWAP1 SLOAD SWAP1 PUSH2 0x100 EXP SWAP1 DIV PUSH1 0xFF AND PUSH2 0xC44 JUMPI PUSH1 0x40 MLOAD PUSH32 0x8C379A000000000000000000000000000000000000000000000000000000000 DUP2 MSTORE PUSH1 0x4 ADD PUSH2 0xC3B SWAP1 PUSH2 0x1E5A JUMP JUMPDEST PUSH1 0x40 MLOAD DUP1 SWAP2 SUB SWAP1 REVERT JUMPDEST PUSH2 0xC4C PUSH2 0xC56 JUMP JUMPDEST JUMP JUMPDEST PUSH1 0x0 CALLER SWAP1 POP SWAP1 JUMP JUMPDEST PUSH1 0x0 PUSH1 0x1 SWAP1 SLOAD SWAP1 PUSH2 0x100 EXP SWAP1 DIV PUSH1 0xFF AND PUSH2 0xCA5 JUMPI PUSH1 0x40 MLOAD PUSH32 0x8C379A000000000000000000000000000000000000000000000000000000000 DUP2 MSTORE PUSH1 0x4 ADD PUSH2 0xC9C SWAP1 PUSH2 0x1E5A JUMP JUMPDEST PUSH1 0x40 MLOAD DUP1 SWAP2 SUB SWAP1 REVERT JUMPDEST PUSH2 0xCB5 PUSH2 0xCB0 PUSH2 0xC4E JUMP JUMPDEST PUSH2 0xB0C JUMP JUMPDEST JUMP JUMPDEST PUSH1 0x0 PUSH2 0xFFFF DUP3 AND SWAP1 POP SWAP2 SWAP1 POP JUMP JUMPDEST PUSH2 0xCCE DUP2 PUSH2 0xCB7 JUMP JUMPDEST DUP3 MSTORE POP POP JUMP JUMPDEST PUSH1 0x0 PUSH1 0x20 DUP3 ADD SWAP1 POP PUSH2 0xCE9 PUSH1 0x0 DUP4 ADD DUP5 PUSH2 0xCC5 JUMP JUMPDEST SWAP3 SWAP2 POP POP JUMP JUMPDEST PUSH1 0x0 PUSH1 0x40 MLOAD SWAP1 POP SWAP1 JUMP JUMPDEST PUSH1 0x0 DUP1 REVERT JUMPDEST PUSH1 0x0 DUP1 REVERT JUMPDEST PUSH1 0x0 PUSH20 0xFFFFFFFFFFFFFFFFFFFFFFFFFFFFFFFFFFFFFFFF DUP3 AND SWAP1 POP SWAP2 SWAP1 POP JUMP JUMPDEST PUSH1 0x0 PUSH2 0xD2E DUP3 PUSH2 0xD03 JUMP JUMPDEST SWAP1 POP SWAP2 SWAP1 POP JUMP JUMPDEST PUSH2 0xD3E DUP2 PUSH2 0xD23 JUMP JUMPDEST DUP2 EQ PUSH2 0xD49 JUMPI PUSH1 0x0 DUP1 REVERT JUMPDEST POP JUMP JUMPDEST PUSH1 0x0 DUP2 CALLDATALOAD SWAP1 POP PUSH2 0xD5B DUP2 PUSH2 0xD35 JUMP JUMPDEST SWAP3 SWAP2 POP POP JUMP JUMPDEST PUSH1 0x0 PUSH1 0x20 DUP3 DUP5 SUB SLT ISZERO PUSH2 0xD77 JUMPI PUSH2 0xD76 PUSH2 0xCF9 JUMP JUMPDEST JUMPDEST PUSH1 0x0 PUSH2 0xD85 DUP5 DUP3 DUP6 ADD PUSH2 0xD4C JUMP JUMPDEST SWAP2 POP POP SWAP3 SWAP2 POP POP JUMP JUMPDEST PUSH1 0x0 DUP1 REVERT JUMPDEST PUSH1 0x0 DUP1 REVERT JUMPDEST PUSH1 0x0 PUSH1 0x1F NOT PUSH1 0x1F DUP4 ADD AND SWAP1 POP SWAP2 SWAP1 POP JUMP JUMPDEST PUSH32 0x4E487B7100000000000000000000000000000000000000000000000000000000 PUSH1 0x0 MSTORE PUSH1 0x41 PUSH1 0x4 MSTORE PUSH1 0x24 PUSH1 0x0 REVERT JUMPDEST PUSH2 0xDE1 DUP3 PUSH2 0xD98 JUMP JUMPDEST DUP2 ADD DUP2 DUP2 LT PUSH8 0xFFFFFFFFFFFFFFFF DUP3 GT OR ISZERO PUSH2 0xE00 JUMPI PUSH2 0xDFF PUSH2 0xDA9 JUMP JUMPDEST JUMPDEST DUP1 PUSH1 0x40 MSTORE POP POP POP JUMP JUMPDEST PUSH1 0x0 PUSH2 0xE13 PUSH2 0xCEF JUMP JUMPDEST SWAP1 POP PUSH2 0xE1F DUP3 DUP3 PUSH2 0xDD8 JUMP JUMPDEST SWAP2 SWAP1 POP JUMP JUMPDEST PUSH1 0x0 PUSH8 0xFFFFFFFFFFFFFFFF DUP3 GT ISZERO PUSH2 0xE3F JUMPI PUSH2 0xE3E PUSH2 0xDA9 JUMP JUMPDEST JUMPDEST PUSH2 0xE48 DUP3 PUSH2 0xD98 JUMP JUMPDEST SWAP1 POP PUSH1 0x20 DUP2 ADD SWAP1 POP SWAP2 SWAP1 POP JUMP JUMPDEST DUP3 DUP2 DUP4 CALLDATACOPY PUSH1 0x0 DUP4 DUP4 ADD MSTORE POP POP POP JUMP JUMPDEST PUSH1 0x0 PUSH2 0xE77 PUSH2 0xE72 DUP5 PUSH2 0xE24 JUMP JUMPDEST PUSH2 0xE09 JUMP JUMPDEST SWAP1 POP DUP3 DUP2 MSTORE PUSH1 0x20 DUP2 ADD DUP5 DUP5 DUP5 ADD GT ISZERO PUSH2 0xE93 JUMPI PUSH2 0xE92 PUSH2 0xD93 JUMP JUMPDEST JUMPDEST PUSH2 0xE9E DUP5 DUP3 DUP6 PUSH2 0xE55 JUMP JUMPDEST POP SWAP4 SWAP3 POP POP POP JUMP JUMPDEST PUSH1 0x0 DUP3 PUSH1 0x1F DUP4 ADD SLT PUSH2 0xEBB JUMPI PUSH2 0xEBA PUSH2 0xD8E JUMP JUMPDEST JUMPDEST DUP2 CALLDATALOAD PUSH2 0xECB DUP5 DUP3 PUSH1 0x20 DUP7 ADD PUSH2 0xE64 JUMP JUMPDEST SWAP2 POP POP SWAP3 SWAP2 POP POP JUMP JUMPDEST PUSH1 0x0 PUSH8 0xFFFFFFFFFFFFFFFF DUP3 GT ISZERO PUSH2 0xEEF JUMPI PUSH2 0xEEE PUSH2 0xDA9 JUMP JUMPDEST JUMPDEST PUSH1 0x20 DUP3 MUL SWAP1 POP PUSH1 0x20 DUP2 ADD SWAP1 POP SWAP2 SWAP1 POP JUMP JUMPDEST PUSH1 0x0 DUP1 REVERT JUMPDEST PUSH1 0x0 PUSH2 0xF18 PUSH2 0xF13 DUP5 PUSH2 0xED4 JUMP JUMPDEST PUSH2 0xE09 JUMP JUMPDEST SWAP1 POP DUP1 DUP4 DUP3 MSTORE PUSH1 0x20 DUP3 ADD SWAP1 POP PUSH1 0x20 DUP5 MUL DUP4 ADD DUP6 DUP2 GT ISZERO PUSH2 0xF3B JUMPI PUSH2 0xF3A PUSH2 0xF00 JUMP JUMPDEST JUMPDEST DUP4 JUMPDEST DUP2 DUP2 LT ISZERO PUSH2 0xF82 JUMPI DUP1 CALLDATALOAD PUSH8 0xFFFFFFFFFFFFFFFF DUP2 GT ISZERO PUSH2 0xF60 JUMPI PUSH2 0xF5F PUSH2 0xD8E JUMP JUMPDEST JUMPDEST DUP1 DUP7 ADD PUSH2 0xF6D DUP10 DUP3 PUSH2 0xEA6 JUMP JUMPDEST DUP6 MSTORE PUSH1 0x20 DUP6 ADD SWAP5 POP POP POP PUSH1 0x20 DUP2 ADD SWAP1 POP PUSH2 0xF3D JUMP JUMPDEST POP POP POP SWAP4 SWAP3 POP POP POP JUMP JUMPDEST PUSH1 0x0 DUP3 PUSH1 0x1F DUP4 ADD SLT PUSH2 0xFA1 JUMPI PUSH2 0xFA0 PUSH2 0xD8E JUMP JUMPDEST JUMPDEST DUP2 CALLDATALOAD PUSH2 0xFB1 DUP5 DUP3 PUSH1 0x20 DUP7 ADD PUSH2 0xF05 JUMP JUMPDEST SWAP2 POP POP SWAP3 SWAP2 POP POP JUMP JUMPDEST PUSH1 0x0 DUP2 SWAP1 POP SWAP2 SWAP1 POP JUMP JUMPDEST PUSH2 0xFCD DUP2 PUSH2 0xFBA JUMP JUMPDEST DUP2 EQ PUSH2 0xFD8 JUMPI PUSH1 0x0 DUP1 REVERT JUMPDEST POP JUMP JUMPDEST PUSH1 0x0 DUP2 CALLDATALOAD SWAP1 POP PUSH2 0xFEA DUP2 PUSH2 0xFC4 JUMP JUMPDEST SWAP3 SWAP2 POP POP JUMP JUMPDEST PUSH2 0xFF9 DUP2 PUSH2 0xCB7 JUMP JUMPDEST DUP2 EQ PUSH2 0x1004 JUMPI PUSH1 0x0 DUP1 REVERT JUMPDEST POP JUMP JUMPDEST PUSH1 0x0 DUP2 CALLDATALOAD SWAP1 POP PUSH2 0x1016 DUP2 PUSH2 0xFF0 JUMP JUMPDEST SWAP3 SWAP2 POP POP JUMP JUMPDEST PUSH1 0x0 DUP1 PUSH1 0x0 DUP1 PUSH1 0x0 PUSH1 0xA0 DUP7 DUP9 SUB SLT ISZERO PUSH2 0x1038 JUMPI PUSH2 0x1037 PUSH2 0xCF9 JUMP JUMPDEST JUMPDEST PUSH1 0x0 DUP7 ADD CALLDATALOAD PUSH8 0xFFFFFFFFFFFFFFFF DUP2 GT ISZERO PUSH2 0x1056 JUMPI PUSH2 0x1055 PUSH2 0xCFE JUMP JUMPDEST JUMPDEST PUSH2 0x1062 DUP9 DUP3 DUP10 ADD PUSH2 0xEA6 JUMP JUMPDEST SWAP6 POP POP PUSH1 0x20 DUP7 ADD CALLDATALOAD PUSH8 0xFFFFFFFFFFFFFFFF DUP2 GT ISZERO PUSH2 0x1083 JUMPI PUSH2 0x1082 PUSH2 0xCFE JUMP JUMPDEST JUMPDEST PUSH2 0x108F DUP9 DUP3 DUP10 ADD PUSH2 0xF8C JUMP JUMPDEST SWAP5 POP POP PUSH1 0x40 PUSH2 0x10A0 DUP9 DUP3 DUP10 ADD PUSH2 0xFDB JUMP JUMPDEST SWAP4 POP POP PUSH1 0x60 PUSH2 0x10B1 DUP9 DUP3 DUP10 ADD PUSH2 0x1007 JUMP JUMPDEST SWAP3 POP POP PUSH1 0x80 PUSH2 0x10C2 DUP9 DUP3 DUP10 ADD PUSH2 0xFDB JUMP JUMPDEST SWAP2 POP POP SWAP3 SWAP6 POP SWAP3 SWAP6 SWAP1 SWAP4 POP JUMP JUMPDEST PUSH1 0x0 DUP1 REVERT JUMPDEST PUSH1 0x0 PUSH1 0x80 DUP3 DUP5 SUB SLT ISZERO PUSH2 0x10EA JUMPI PUSH2 0x10E9 PUSH2 0x10CF JUMP JUMPDEST JUMPDEST DUP2 SWAP1 POP SWAP3 SWAP2 POP POP JUMP JUMPDEST PUSH1 0x0 PUSH1 0xC0 DUP3 DUP5 SUB SLT ISZERO PUSH2 0x1109 JUMPI PUSH2 0x1108 PUSH2 0x10CF JUMP JUMPDEST JUMPDEST DUP2 SWAP1 POP SWAP3 SWAP2 POP POP JUMP JUMPDEST PUSH1 0x0 DUP1 PUSH1 0x0 PUSH2 0x100 DUP5 DUP7 SUB SLT ISZERO PUSH2 0x112C JUMPI PUSH2 0x112B PUSH2 0xCF9 JUMP JUMPDEST JUMPDEST PUSH1 0x0 DUP5 ADD CALLDATALOAD PUSH8 0xFFFFFFFFFFFFFFFF DUP2 GT ISZERO PUSH2 0x114A JUMPI PUSH2 0x1149 PUSH2 0xCFE JUMP JUMPDEST JUMPDEST PUSH2 0x1156 DUP7 DUP3 DUP8 ADD PUSH2 0x10D4 JUMP JUMPDEST SWAP4 POP POP PUSH1 0x20 PUSH2 0x1167 DUP7 DUP3 DUP8 ADD PUSH2 0x10F3 JUMP JUMPDEST SWAP3 POP POP PUSH1 0xE0 PUSH2 0x1178 DUP7 DUP3 DUP8 ADD PUSH2 0xD4C JUMP JUMPDEST SWAP2 POP POP SWAP3 POP SWAP3 POP SWAP3 JUMP JUMPDEST PUSH1 0x0 DUP1 PUSH1 0x0 PUSH1 0x60 DUP5 DUP7 SUB SLT ISZERO PUSH2 0x119B JUMPI PUSH2 0x119A PUSH2 0xCF9 JUMP JUMPDEST JUMPDEST PUSH1 0x0 PUSH2 0x11A9 DUP7 DUP3 DUP8 ADD PUSH2 0xD4C JUMP JUMPDEST SWAP4 POP POP PUSH1 0x20 PUSH2 0x11BA DUP7 DUP3 DUP8 ADD PUSH2 0xD4C JUMP JUMPDEST SWAP3 POP POP PUSH1 0x40 PUSH2 0x11CB DUP7 DUP3 DUP8 ADD PUSH2 0x1007 JUMP JUMPDEST SWAP2 POP POP SWAP3 POP SWAP3 POP SWAP3 JUMP JUMPDEST PUSH2 0x11DE DUP2 PUSH2 0xD23 JUMP JUMPDEST DUP3 MSTORE POP POP JUMP JUMPDEST PUSH1 0x0 PUSH1 0x20 DUP3 ADD SWAP1 POP PUSH2 0x11F9 PUSH1 0x0 DUP4 ADD DUP5 PUSH2 0x11D5 JUMP JUMPDEST SWAP3 SWAP2 POP POP JUMP JUMPDEST PUSH1 0x0 DUP2 SWAP1 POP SWAP2 SWAP1 POP JUMP JUMPDEST PUSH1 0x0 PUSH2 0x1224 PUSH2 0x121F PUSH2 0x121A DUP5 PUSH2 0xD03 JUMP JUMPDEST PUSH2 0x11FF JUMP JUMPDEST PUSH2 0xD03 JUMP JUMPDEST SWAP1 POP SWAP2 SWAP1 POP JUMP JUMPDEST PUSH1 0x0 PUSH2 0x1236 DUP3 PUSH2 0x1209 JUMP JUMPDEST SWAP1 POP SWAP2 SWAP1 POP JUMP JUMPDEST PUSH1 0x0 PUSH2 0x1248 DUP3 PUSH2 0x122B JUMP JUMPDEST SWAP1 POP SWAP2 SWAP1 POP JUMP JUMPDEST PUSH2 0x1258 DUP2 PUSH2 0x123D JUMP JUMPDEST DUP3 MSTORE POP POP JUMP JUMPDEST PUSH1 0x0 PUSH1 0x20 DUP3 ADD SWAP1 POP PUSH2 0x1273 PUSH1 0x0 DUP4 ADD DUP5 PUSH2 0x124F JUMP JUMPDEST SWAP3 SWAP2 POP POP JUMP JUMPDEST PUSH1 0x0 PUSH2 0x1284 DUP3 PUSH2 0x122B JUMP JUMPDEST SWAP1 POP SWAP2 SWAP1 POP JUMP JUMPDEST PUSH2 0x1294 DUP2 PUSH2 0x1279 JUMP JUMPDEST DUP3 MSTORE POP POP JUMP JUMPDEST PUSH1 0x0 PUSH1 0x20 DUP3 ADD SWAP1 POP PUSH2 0x12AF PUSH1 0x0 DUP4 ADD DUP5 PUSH2 0x128B JUMP JUMPDEST SWAP3 SWAP2 POP POP JUMP JUMPDEST PUSH1 0x0 DUP3 DUP3 MSTORE PUSH1 0x20 DUP3 ADD SWAP1 POP SWAP3 SWAP2 POP POP JUMP JUMPDEST PUSH32 0x4C3120426974636F696E204465706F7369746F7220616C726561647920736574 PUSH1 0x0 DUP3 ADD MSTORE POP JUMP JUMPDEST PUSH1 0x0 PUSH2 0x12FC PUSH1 0x20 DUP4 PUSH2 0x12B5 JUMP JUMPDEST SWAP2 POP PUSH2 0x1307 DUP3 PUSH2 0x12C6 JUMP JUMPDEST PUSH1 0x20 DUP3 ADD SWAP1 POP SWAP2 SWAP1 POP JUMP JUMPDEST PUSH1 0x0 PUSH1 0x20 DUP3 ADD SWAP1 POP DUP2 DUP2 SUB PUSH1 0x0 DUP4 ADD MSTORE PUSH2 0x132B DUP2 PUSH2 0x12EF JUMP JUMPDEST SWAP1 POP SWAP2 SWAP1 POP JUMP JUMPDEST PUSH32 0x4C3120426974636F696E204465706F7369746F72206D757374206E6F74206265 PUSH1 0x0 DUP3 ADD MSTORE PUSH32 0x2030783000000000000000000000000000000000000000000000000000000000 PUSH1 0x20 DUP3 ADD MSTORE POP JUMP JUMPDEST PUSH1 0x0 PUSH2 0x138E PUSH1 0x24 DUP4 PUSH2 0x12B5 JUMP JUMPDEST SWAP2 POP PUSH2 0x1399 DUP3 PUSH2 0x1332 JUMP JUMPDEST PUSH1 0x40 DUP3 ADD SWAP1 POP SWAP2 SWAP1 POP JUMP JUMPDEST PUSH1 0x0 PUSH1 0x20 DUP3 ADD SWAP1 POP DUP2 DUP2 SUB PUSH1 0x0 DUP4 ADD MSTORE PUSH2 0x13BD DUP2 PUSH2 0x1381 JUMP JUMPDEST SWAP1 POP SWAP2 SWAP1 POP JUMP JUMPDEST PUSH32 0x43616C6C6572206973206E6F7420576F726D686F6C652052656C617965720000 PUSH1 0x0 DUP3 ADD MSTORE POP JUMP JUMPDEST PUSH1 0x0 PUSH2 0x13FA PUSH1 0x1E DUP4 PUSH2 0x12B5 JUMP JUMPDEST SWAP2 POP PUSH2 0x1405 DUP3 PUSH2 0x13C4 JUMP JUMPDEST PUSH1 0x20 DUP3 ADD SWAP1 POP SWAP2 SWAP1 POP JUMP JUMPDEST PUSH1 0x0 PUSH1 0x20 DUP3 ADD SWAP1 POP DUP2 DUP2 SUB PUSH1 0x0 DUP4 ADD MSTORE PUSH2 0x1429 DUP2 PUSH2 0x13ED JUMP JUMPDEST SWAP1 POP SWAP2 SWAP1 POP JUMP JUMPDEST PUSH32 0x536F7572636520636861696E206973206E6F7420746865206578706563746564 PUSH1 0x0 DUP3 ADD MSTORE PUSH32 0x204C3120636861696E0000000000000000000000000000000000000000000000 PUSH1 0x20 DUP3 ADD MSTORE POP JUMP JUMPDEST PUSH1 0x0 PUSH2 0x148C PUSH1 0x29 DUP4 PUSH2 0x12B5 JUMP JUMPDEST SWAP2 POP PUSH2 0x1497 DUP3 PUSH2 0x1430 JUMP JUMPDEST PUSH1 0x40 DUP3 ADD SWAP1 POP SWAP2 SWAP1 POP JUMP JUMPDEST PUSH1 0x0 PUSH1 0x20 DUP3 ADD SWAP1 POP DUP2 DUP2 SUB PUSH1 0x0 DUP4 ADD MSTORE PUSH2 0x14BB DUP2 PUSH2 0x147F JUMP JUMPDEST SWAP1 POP SWAP2 SWAP1 POP JUMP JUMPDEST PUSH32 0x536F757263652061646472657373206973206E6F742074686520657870656374 PUSH1 0x0 DUP3 ADD MSTORE PUSH32 0x6564204C3120426974636F696E206465706F7369746F72000000000000000000 PUSH1 0x20 DUP3 ADD MSTORE POP JUMP JUMPDEST PUSH1 0x0 PUSH2 0x151E PUSH1 0x37 DUP4 PUSH2 0x12B5 JUMP JUMPDEST SWAP2 POP PUSH2 0x1529 DUP3 PUSH2 0x14C2 JUMP JUMPDEST PUSH1 0x40 DUP3 ADD SWAP1 POP SWAP2 SWAP1 POP JUMP JUMPDEST PUSH1 0x0 PUSH1 0x20 DUP3 ADD SWAP1 POP DUP2 DUP2 SUB PUSH1 0x0 DUP4 ADD MSTORE PUSH2 0x154D DUP2 PUSH2 0x1511 JUMP JUMPDEST SWAP1 POP SWAP2 SWAP1 POP JUMP JUMPDEST PUSH32 0x45787065637465642031206164646974696F6E616C20564141206B657920666F PUSH1 0x0 DUP3 ADD MSTORE PUSH32 0x7220746F6B656E207472616E7366657200000000000000000000000000000000 PUSH1 0x20 DUP3 ADD MSTORE POP JUMP JUMPDEST PUSH1 0x0 PUSH2 0x15B0 PUSH1 0x30 DUP4 PUSH2 0x12B5 JUMP JUMPDEST SWAP2 POP PUSH2 0x15BB DUP3 PUSH2 0x1554 JUMP JUMPDEST PUSH1 0x40 DUP3 ADD SWAP1 POP SWAP2 SWAP1 POP JUMP JUMPDEST PUSH1 0x0 PUSH1 0x20 DUP3 ADD SWAP1 POP DUP2 DUP2 SUB PUSH1 0x0 DUP4 ADD MSTORE PUSH2 0x15DF DUP2 PUSH2 0x15A3 JUMP JUMPDEST SWAP1 POP SWAP2 SWAP1 POP JUMP JUMPDEST PUSH32 0x4E487B7100000000000000000000000000000000000000000000000000000000 PUSH1 0x0 MSTORE PUSH1 0x32 PUSH1 0x4 MSTORE PUSH1 0x24 PUSH1 0x0 REVERT JUMPDEST PUSH1 0x0 DUP2 MLOAD SWAP1 POP SWAP2 SWAP1 POP JUMP JUMPDEST PUSH1 0x0 DUP3 DUP3 MSTORE PUSH1 0x20 DUP3 ADD SWAP1 POP SWAP3 SWAP2 POP POP JUMP JUMPDEST PUSH1 0x0 JUMPDEST DUP4 DUP2 LT ISZERO PUSH2 0x164F JUMPI DUP1 DUP3 ADD MLOAD DUP2 DUP5 ADD MSTORE PUSH1 0x20 DUP2 ADD SWAP1 POP PUSH2 0x1634 JUMP JUMPDEST PUSH1 0x0 DUP5 DUP5 ADD MSTORE POP POP POP POP JUMP JUMPDEST PUSH1 0x0 PUSH2 0x1666 DUP3 PUSH2 0x1615 JUMP JUMPDEST PUSH2 0x1670 DUP2 DUP6 PUSH2 0x1620 JUMP JUMPDEST SWAP4 POP PUSH2 0x1680 DUP2 DUP6 PUSH1 0x20 DUP7 ADD PUSH2 0x1631 JUMP JUMPDEST PUSH2 0x1689 DUP2 PUSH2 0xD98 JUMP JUMPDEST DUP5 ADD SWAP2 POP POP SWAP3 SWAP2 POP POP JUMP JUMPDEST PUSH1 0x0 PUSH1 0x20 DUP3 ADD SWAP1 POP DUP2 DUP2 SUB PUSH1 0x0 DUP4 ADD MSTORE PUSH2 0x16AE DUP2 DUP5 PUSH2 0x165B JUMP JUMPDEST SWAP1 POP SWAP3 SWAP2 POP POP JUMP JUMPDEST PUSH1 0x0 PUSH32 0xFFFFFFFF00000000000000000000000000000000000000000000000000000000 DUP3 AND SWAP1 POP SWAP2 SWAP1 POP JUMP JUMPDEST PUSH2 0x16EB DUP2 PUSH2 0x16B6 JUMP JUMPDEST DUP2 EQ PUSH2 0x16F6 JUMPI PUSH1 0x0 DUP1 REVERT JUMPDEST POP JUMP JUMPDEST PUSH1 0x0 DUP2 CALLDATALOAD SWAP1 POP PUSH2 0x1708 DUP2 PUSH2 0x16E2 JUMP JUMPDEST SWAP3 SWAP2 POP POP JUMP JUMPDEST PUSH1 0x0 PUSH2 0x171D PUSH1 0x20 DUP5 ADD DUP5 PUSH2 0x16F9 JUMP JUMPDEST SWAP1 POP SWAP3 SWAP2 POP POP JUMP JUMPDEST PUSH2 0x172E DUP2 PUSH2 0x16B6 JUMP JUMPDEST DUP3 MSTORE POP POP JUMP JUMPDEST PUSH1 0x0 DUP1 REVERT JUMPDEST PUSH1 0x0 DUP1 REVERT JUMPDEST PUSH1 0x0 DUP1 REVERT JUMPDEST PUSH1 0x0 DUP1 DUP4 CALLDATALOAD PUSH1 0x1 PUSH1 0x20 SUB DUP5 CALLDATASIZE SUB SUB DUP2 SLT PUSH2 0x1760 JUMPI PUSH2 0x175F PUSH2 0x173E JUMP JUMPDEST JUMPDEST DUP4 DUP2 ADD SWAP3 POP DUP3 CALLDATALOAD SWAP2 POP PUSH1 0x20 DUP4 ADD SWAP3 POP PUSH8 0xFFFFFFFFFFFFFFFF DUP3 GT ISZERO PUSH2 0x1788 JUMPI PUSH2 0x1787 PUSH2 0x1734 JUMP JUMPDEST JUMPDEST PUSH1 0x1 DUP3 MUL CALLDATASIZE SUB DUP4 SGT ISZERO PUSH2 0x179E JUMPI PUSH2 0x179D PUSH2 0x1739 JUMP JUMPDEST JUMPDEST POP SWAP3 POP SWAP3 SWAP1 POP JUMP JUMPDEST PUSH1 0x0 DUP3 DUP3 MSTORE PUSH1 0x20 DUP3 ADD SWAP1 POP SWAP3 SWAP2 POP POP JUMP JUMPDEST PUSH1 0x0 PUSH2 0x17C3 DUP4 DUP6 PUSH2 0x17A6 JUMP JUMPDEST SWAP4 POP PUSH2 0x17D0 DUP4 DUP6 DUP5 PUSH2 0xE55 JUMP JUMPDEST PUSH2 0x17D9 DUP4 PUSH2 0xD98 JUMP JUMPDEST DUP5 ADD SWAP1 POP SWAP4 SWAP3 POP POP POP JUMP JUMPDEST PUSH1 0x0 PUSH1 0x80 DUP4 ADD PUSH2 0x17F7 PUSH1 0x0 DUP5 ADD DUP5 PUSH2 0x170E JUMP JUMPDEST PUSH2 0x1804 PUSH1 0x0 DUP7 ADD DUP3 PUSH2 0x1725 JUMP JUMPDEST POP PUSH2 0x1812 PUSH1 0x20 DUP5 ADD DUP5 PUSH2 0x1743 JUMP JUMPDEST DUP6 DUP4 SUB PUSH1 0x20 DUP8 ADD MSTORE PUSH2 0x1825 DUP4 DUP3 DUP5 PUSH2 0x17B7 JUMP JUMPDEST SWAP3 POP POP POP PUSH2 0x1836 PUSH1 0x40 DUP5 ADD DUP5 PUSH2 0x1743 JUMP JUMPDEST DUP6 DUP4 SUB PUSH1 0x40 DUP8 ADD MSTORE PUSH2 0x1849 DUP4 DUP3 DUP5 PUSH2 0x17B7 JUMP JUMPDEST SWAP3 POP POP POP PUSH2 0x185A PUSH1 0x60 DUP5 ADD DUP5 PUSH2 0x170E JUMP JUMPDEST PUSH2 0x1867 PUSH1 0x60 DUP7 ADD DUP3 PUSH2 0x1725 JUMP JUMPDEST POP DUP1 SWAP2 POP POP SWAP3 SWAP2 POP POP JUMP JUMPDEST PUSH1 0x0 PUSH4 0xFFFFFFFF DUP3 AND SWAP1 POP SWAP2 SWAP1 POP JUMP JUMPDEST PUSH2 0x188B DUP2 PUSH2 0x1872 JUMP JUMPDEST DUP2 EQ PUSH2 0x1896 JUMPI PUSH1 0x0 DUP1 REVERT JUMPDEST POP JUMP JUMPDEST PUSH1 0x0 DUP2 CALLDATALOAD SWAP1 POP PUSH2 0x18A8 DUP2 PUSH2 0x1882 JUMP JUMPDEST SWAP3 SWAP2 POP POP JUMP JUMPDEST PUSH1 0x0 PUSH2 0x18BD PUSH1 0x20 DUP5 ADD DUP5 PUSH2 0x1899 JUMP JUMPDEST SWAP1 POP SWAP3 SWAP2 POP POP JUMP JUMPDEST PUSH2 0x18CE DUP2 PUSH2 0x1872 JUMP JUMPDEST DUP3 MSTORE POP POP JUMP JUMPDEST PUSH1 0x0 PUSH32 0xFFFFFFFFFFFFFFFF000000000000000000000000000000000000000000000000 DUP3 AND SWAP1 POP SWAP2 SWAP1 POP JUMP JUMPDEST PUSH2 0x1909 DUP2 PUSH2 0x18D4 JUMP JUMPDEST DUP2 EQ PUSH2 0x1914 JUMPI PUSH1 0x0 DUP1 REVERT JUMPDEST POP JUMP JUMPDEST PUSH1 0x0 DUP2 CALLDATALOAD SWAP1 POP PUSH2 0x1926 DUP2 PUSH2 0x1900 JUMP JUMPDEST SWAP3 SWAP2 POP POP JUMP JUMPDEST PUSH1 0x0 PUSH2 0x193B PUSH1 0x20 DUP5 ADD DUP5 PUSH2 0x1917 JUMP JUMPDEST SWAP1 POP SWAP3 SWAP2 POP POP JUMP JUMPDEST PUSH2 0x194C DUP2 PUSH2 0x18D4 JUMP JUMPDEST DUP3 MSTORE POP POP JUMP JUMPDEST PUSH1 0x0 PUSH32 0xFFFFFFFFFFFFFFFFFFFFFFFFFFFFFFFFFFFFFFFF000000000000000000000000 DUP3 AND SWAP1 POP SWAP2 SWAP1 POP JUMP JUMPDEST PUSH2 0x1987 DUP2 PUSH2 0x1952 JUMP JUMPDEST DUP2 EQ PUSH2 0x1992 JUMPI PUSH1 0x0 DUP1 REVERT JUMPDEST POP JUMP JUMPDEST PUSH1 0x0 DUP2 CALLDATALOAD SWAP1 POP PUSH2 0x19A4 DUP2 PUSH2 0x197E JUMP JUMPDEST SWAP3 SWAP2 POP POP JUMP JUMPDEST PUSH1 0x0 PUSH2 0x19B9 PUSH1 0x20 DUP5 ADD DUP5 PUSH2 0x1995 JUMP JUMPDEST SWAP1 POP SWAP3 SWAP2 POP POP JUMP JUMPDEST PUSH2 0x19CA DUP2 PUSH2 0x1952 JUMP JUMPDEST DUP3 MSTORE POP POP JUMP JUMPDEST PUSH1 0x0 PUSH2 0x19DF PUSH1 0x20 DUP5 ADD DUP5 PUSH2 0xD4C JUMP JUMPDEST SWAP1 POP SWAP3 SWAP2 POP POP JUMP JUMPDEST PUSH2 0x19F0 DUP2 PUSH2 0xD23 JUMP JUMPDEST DUP3 MSTORE POP POP JUMP JUMPDEST PUSH1 0xC0 DUP3 ADD PUSH2 0x1A07 PUSH1 0x0 DUP4 ADD DUP4 PUSH2 0x18AE JUMP JUMPDEST PUSH2 0x1A14 PUSH1 0x0 DUP6 ADD DUP3 PUSH2 0x18C5 JUMP JUMPDEST POP PUSH2 0x1A22 PUSH1 0x20 DUP4 ADD DUP4 PUSH2 0x192C JUMP JUMPDEST PUSH2 0x1A2F PUSH1 0x20 DUP6 ADD DUP3 PUSH2 0x1943 JUMP JUMPDEST POP PUSH2 0x1A3D PUSH1 0x40 DUP4 ADD DUP4 PUSH2 0x19AA JUMP JUMPDEST PUSH2 0x1A4A PUSH1 0x40 DUP6 ADD DUP3 PUSH2 0x19C1 JUMP JUMPDEST POP PUSH2 0x1A58 PUSH1 0x60 DUP4 ADD DUP4 PUSH2 0x19AA JUMP JUMPDEST PUSH2 0x1A65 PUSH1 0x60 DUP6 ADD DUP3 PUSH2 0x19C1 JUMP JUMPDEST POP PUSH2 0x1A73 PUSH1 0x80 DUP4 ADD DUP4 PUSH2 0x170E JUMP JUMPDEST PUSH2 0x1A80 PUSH1 0x80 DUP6 ADD DUP3 PUSH2 0x1725 JUMP JUMPDEST POP PUSH2 0x1A8E PUSH1 0xA0 DUP4 ADD DUP4 PUSH2 0x19D0 JUMP JUMPDEST PUSH2 0x1A9B PUSH1 0xA0 DUP6 ADD DUP3 PUSH2 0x19E7 JUMP JUMPDEST POP POP POP POP JUMP JUMPDEST PUSH1 0x0 PUSH1 0xE0 DUP3 ADD SWAP1 POP DUP2 DUP2 SUB PUSH1 0x0 DUP4 ADD MSTORE PUSH2 0x1ABB DUP2 DUP6 PUSH2 0x17E4 JUMP JUMPDEST SWAP1 POP PUSH2 0x1ACA PUSH1 0x20 DUP4 ADD DUP5 PUSH2 0x19F6 JUMP JUMPDEST SWAP4 SWAP3 POP POP POP JUMP JUMPDEST PUSH32 0x496E697469616C697A61626C653A20636F6E747261637420697320616C726561 PUSH1 0x0 DUP3 ADD MSTORE PUSH32 0x647920696E697469616C697A6564000000000000000000000000000000000000 PUSH1 0x20 DUP3 ADD MSTORE POP JUMP JUMPDEST PUSH1 0x0 PUSH2 0x1B2D PUSH1 0x2E DUP4 PUSH2 0x12B5 JUMP JUMPDEST SWAP2 POP PUSH2 0x1B38 DUP3 PUSH2 0x1AD1 JUMP JUMPDEST PUSH1 0x40 DUP3 ADD SWAP1 POP SWAP2 SWAP1 POP JUMP JUMPDEST PUSH1 0x0 PUSH1 0x20 DUP3 ADD SWAP1 POP DUP2 DUP2 SUB PUSH1 0x0 DUP4 ADD MSTORE PUSH2 0x1B5C DUP2 PUSH2 0x1B20 JUMP JUMPDEST SWAP1 POP SWAP2 SWAP1 POP JUMP JUMPDEST PUSH32 0x576F726D686F6C6552656C6179657220616464726573732063616E6E6F742062 PUSH1 0x0 DUP3 ADD MSTORE PUSH32 0x65207A65726F0000000000000000000000000000000000000000000000000000 PUSH1 0x20 DUP3 ADD MSTORE POP JUMP JUMPDEST PUSH1 0x0 PUSH2 0x1BBF PUSH1 0x26 DUP4 PUSH2 0x12B5 JUMP JUMPDEST SWAP2 POP PUSH2 0x1BCA DUP3 PUSH2 0x1B63 JUMP JUMPDEST PUSH1 0x40 DUP3 ADD SWAP1 POP SWAP2 SWAP1 POP JUMP JUMPDEST PUSH1 0x0 PUSH1 0x20 DUP3 ADD SWAP1 POP DUP2 DUP2 SUB PUSH1 0x0 DUP4 ADD MSTORE PUSH2 0x1BEE DUP2 PUSH2 0x1BB2 JUMP JUMPDEST SWAP1 POP SWAP2 SWAP1 POP JUMP JUMPDEST PUSH32 0x4C32576F726D686F6C654761746577617920616464726573732063616E6E6F74 PUSH1 0x0 DUP3 ADD MSTORE PUSH32 0x206265207A65726F000000000000000000000000000000000000000000000000 PUSH1 0x20 DUP3 ADD MSTORE POP JUMP JUMPDEST PUSH1 0x0 PUSH2 0x1C51 PUSH1 0x28 DUP4 PUSH2 0x12B5 JUMP JUMPDEST SWAP2 POP PUSH2 0x1C5C DUP3 PUSH2 0x1BF5 JUMP JUMPDEST PUSH1 0x40 DUP3 ADD SWAP1 POP SWAP2 SWAP1 POP JUMP JUMPDEST PUSH1 0x0 PUSH1 0x20 DUP3 ADD SWAP1 POP DUP2 DUP2 SUB PUSH1 0x0 DUP4 ADD MSTORE PUSH2 0x1C80 DUP2 PUSH2 0x1C44 JUMP JUMPDEST SWAP1 POP SWAP2 SWAP1 POP JUMP JUMPDEST PUSH1 0x0 DUP2 SWAP1 POP SWAP2 SWAP1 POP JUMP JUMPDEST PUSH1 0x0 PUSH1 0xFF DUP3 AND SWAP1 POP SWAP2 SWAP1 POP JUMP JUMPDEST PUSH1 0x0 PUSH2 0x1CB9 PUSH2 0x1CB4 PUSH2 0x1CAF DUP5 PUSH2 0x1C87 JUMP JUMPDEST PUSH2 0x11FF JUMP JUMPDEST PUSH2 0x1C91 JUMP JUMPDEST SWAP1 POP SWAP2 SWAP1 POP JUMP JUMPDEST PUSH2 0x1CC9 DUP2 PUSH2 0x1C9E JUMP JUMPDEST DUP3 MSTORE POP POP JUMP JUMPDEST PUSH1 0x0 PUSH1 0x20 DUP3 ADD SWAP1 POP PUSH2 0x1CE4 PUSH1 0x0 DUP4 ADD DUP5 PUSH2 0x1CC0 JUMP JUMPDEST SWAP3 SWAP2 POP POP JUMP JUMPDEST PUSH32 0x4F776E61626C653A206E6577206F776E657220697320746865207A65726F2061 PUSH1 0x0 DUP3 ADD MSTORE PUSH32 0x6464726573730000000000000000000000000000000000000000000000000000 PUSH1 0x20 DUP3 ADD MSTORE POP JUMP JUMPDEST PUSH1 0x0 PUSH2 0x1D46 PUSH1 0x26 DUP4 PUSH2 0x12B5 JUMP JUMPDEST SWAP2 POP PUSH2 0x1D51 DUP3 PUSH2 0x1CEA JUMP JUMPDEST PUSH1 0x40 DUP3 ADD SWAP1 POP SWAP2 SWAP1 POP JUMP JUMPDEST PUSH1 0x0 PUSH1 0x20 DUP3 ADD SWAP1 POP DUP2 DUP2 SUB PUSH1 0x0 DUP4 ADD MSTORE PUSH2 0x1D75 DUP2 PUSH2 0x1D39 JUMP JUMPDEST SWAP1 POP SWAP2 SWAP1 POP JUMP JUMPDEST PUSH32 0x4F776E61626C653A2063616C6C6572206973206E6F7420746865206F776E6572 PUSH1 0x0 DUP3 ADD MSTORE POP JUMP JUMPDEST PUSH1 0x0 PUSH2 0x1DB2 PUSH1 0x20 DUP4 PUSH2 0x12B5 JUMP JUMPDEST SWAP2 POP PUSH2 0x1DBD DUP3 PUSH2 0x1D7C JUMP JUMPDEST PUSH1 0x20 DUP3 ADD SWAP1 POP SWAP2 SWAP1 POP JUMP JUMPDEST PUSH1 0x0 PUSH1 0x20 DUP3 ADD SWAP1 POP DUP2 DUP2 SUB PUSH1 0x0 DUP4 ADD MSTORE PUSH2 0x1DE1 DUP2 PUSH2 0x1DA5 JUMP JUMPDEST SWAP1 POP SWAP2 SWAP1 POP JUMP JUMPDEST PUSH32 0x496E697469616C697A61626C653A20636F6E7472616374206973206E6F742069 PUSH1 0x0 DUP3 ADD MSTORE PUSH32 0x6E697469616C697A696E67000000000000000000000000000000000000000000 PUSH1 0x20 DUP3 ADD MSTORE POP JUMP JUMPDEST PUSH1 0x0 PUSH2 0x1E44 PUSH1 0x2B DUP4 PUSH2 0x12B5 JUMP JUMPDEST SWAP2 POP PUSH2 0x1E4F DUP3 PUSH2 0x1DE8 JUMP JUMPDEST PUSH1 0x40 DUP3 ADD SWAP1 POP SWAP2 SWAP1 POP JUMP JUMPDEST PUSH1 0x0 PUSH1 0x20 DUP3 ADD SWAP1 POP DUP2 DUP2 SUB PUSH1 0x0 DUP4 ADD MSTORE PUSH2 0x1E73 DUP2 PUSH2 0x1E37 JUMP JUMPDEST SWAP1 POP SWAP2 SWAP1 POP JUMP INVALID LOG2 PUSH5 0x6970667358 0x22 SLT KECCAK256 0xD5 MULMOD MSIZE EXTCODESIZE BALANCE CALLDATACOPY MSTORE DUP10 GT CALLER 0x24 0xA6 0xCB 0xC3 EQ 0xA9 SLOAD 0x2A PUSH13 0xF25C7F232016A4F467B68FB143 PUSH5 0x736F6C6343 STOP ADDMOD GT STOP CALLER "},"gasEstimates":{"creation":{"codeDepositCost":"1571200","executionCost":"infinite","totalCost":"infinite"},"external":{"attachL1BitcoinDepositor(address)":"29215","initialize(address,address,uint16)":"infinite","initializeDeposit((bytes4,bytes,bytes,bytes4),(uint32,bytes8,bytes20,bytes20,bytes4,address),address)":"infinite","l1BitcoinDepositor()":"2602","l1ChainId()":"2522","l2WormholeGateway()":"infinite","owner()":"2544","receiveWormholeMessages(bytes,bytes[],bytes32,uint16,bytes32)":"infinite","renounceOwnership()":"30487","transferOwnership(address)":"30854","wormholeRelayer()":"infinite"}},"methodIdentifiers":{"attachL1BitcoinDepositor(address)":"31446c46","initialize(address,address,uint16)":"7ebef529","initializeDeposit((bytes4,bytes,bytes,bytes4),(uint32,bytes8,bytes20,bytes20,bytes4,address),address)":"642dc033","l1BitcoinDepositor()":"e1551fc9","l1ChainId()":"12622e5b","l2WormholeGateway()":"aa82e33b","owner()":"8da5cb5b","receiveWormholeMessages(bytes,bytes[],bytes32,uint16,bytes32)":"529dca32","renounceOwnership()":"715018a6","transferOwnership(address)":"f2fde38b","wormholeRelayer()":"da25b725"}},"storageLayout":{"storage":[{"astId":3139,"contract":"contracts/l2/L2BitcoinDepositor.sol:L2BitcoinDepositor","label":"_initialized","offset":0,"slot":"0","type":"t_uint8"},{"astId":3142,"contract":"contracts/l2/L2BitcoinDepositor.sol:L2BitcoinDepositor","label":"_initializing","offset":1,"slot":"0","type":"t_bool"},{"astId":4171,"contract":"contracts/l2/L2BitcoinDepositor.sol:L2BitcoinDepositor","label":"__gap","offset":0,"slot":"1","type":"t_array(t_uint256)50_storage"},{"astId":3011,"contract":"contracts/l2/L2BitcoinDepositor.sol:L2BitcoinDepositor","label":"_owner","offset":0,"slot":"51","type":"t_address"},{"astId":3131,"contract":"contracts/l2/L2BitcoinDepositor.sol:L2BitcoinDepositor","label":"__gap","offset":0,"slot":"52","type":"t_array(t_uint256)49_storage"},{"astId":5667,"contract":"contracts/l2/L2BitcoinDepositor.sol:L2BitcoinDepositor","label":"wormholeRelayer","offset":0,"slot":"101","type":"t_contract(IWormholeRelayer)5928"},{"astId":5671,"contract":"contracts/l2/L2BitcoinDepositor.sol:L2BitcoinDepositor","label":"l2WormholeGateway","offset":0,"slot":"102","type":"t_contract(IL2WormholeGateway)5658"},{"astId":5674,"contract":"contracts/l2/L2BitcoinDepositor.sol:L2BitcoinDepositor","label":"l1ChainId","offset":20,"slot":"102","type":"t_uint16"},{"astId":5677,"contract":"contracts/l2/L2BitcoinDepositor.sol:L2BitcoinDepositor","label":"l1BitcoinDepositor","offset":0,"slot":"103","type":"t_address"}],"types":{"t_address":{"encoding":"inplace","label":"address","numberOfBytes":"20"},"t_array(t_uint256)49_storage":{"base":"t_uint256","encoding":"inplace","label":"uint256[49]","numberOfBytes":"1568"},"t_array(t_uint256)50_storage":{"base":"t_uint256","encoding":"inplace","label":"uint256[50]","numberOfBytes":"1600"},"t_bool":{"encoding":"inplace","label":"bool","numberOfBytes":"1"},"t_contract(IL2WormholeGateway)5658":{"encoding":"inplace","label":"contract IL2WormholeGateway","numberOfBytes":"20"},"t_contract(IWormholeRelayer)5928":{"encoding":"inplace","label":"contract IWormholeRelayer","numberOfBytes":"20"},"t_uint16":{"encoding":"inplace","label":"uint16","numberOfBytes":"2"},"t_uint256":{"encoding":"inplace","label":"uint256","numberOfBytes":"32"},"t_uint8":{"encoding":"inplace","label":"uint8","numberOfBytes":"1"}}},"userdoc":{"kind":"user","methods":{"attachL1BitcoinDepositor(address)":{"notice":"Sets the address of the `L1BitcoinDepositor` contract on the         corresponding L1 chain. This function solves the chicken-and-egg         problem of setting the `L1BitcoinDepositor` contract address         on the `L2BitcoinDepositor` contract and vice versa."},"initializeDeposit((bytes4,bytes,bytes,bytes4),(uint32,bytes8,bytes20,bytes20,bytes4,address),address)":{"notice":"Initializes the deposit process on L2 by emitting an event         containing the deposit data (funding transaction and         components of the P2(W)SH deposit address). The event is         supposed to be picked up by the relayer and used to initialize         the deposit on L1 through the `L1BitcoinDepositor` contract."},"l1BitcoinDepositor()":{"notice":"tBTC `L1BitcoinDepositor` contract on the corresponding L1 chain."},"l1ChainId()":{"notice":"Wormhole chain ID of the corresponding L1 chain."},"l2WormholeGateway()":{"notice":"tBTC `L2WormholeGateway` contract on L2."},"receiveWormholeMessages(bytes,bytes[],bytes32,uint16,bytes32)":{"notice":"Receives Wormhole messages originating from the corresponding         `L1BitcoinDepositor` contract that lives on the L1 chain.         Messages are issued upon deposit finalization on L1 and         are supposed to carry the VAA of the Wormhole token transfer of         ERC20 L1 TBTC to the L2 chain. This contract performs some basic         checks and forwards the VAA to the `L2WormholeGateway` contract         that is authorized to withdraw the Wormhole-wrapped L2 TBTC         from the Wormhole Token Bridge (representing the ERC20 TBTC         locked on L1) and use it to mint the canonical L2 TBTC for the         deposit owner."},"wormholeRelayer()":{"notice":"`WormholeRelayer` contract on L2."}},"notice":"This contract is part of the direct bridging mechanism allowing         users to obtain ERC20 TBTC on supported L2 chains, without the need         to interact with the L1 tBTC ledger chain where minting occurs.         `L2BitcoinDepositor` is deployed on the L2 chain and interacts with         their L1 counterpart, the `L1BitcoinDepositor`, deployed on the         L1 tBTC ledger chain. Each `L1BitcoinDepositor` & `L2BitcoinDepositor`         pair is responsible for a specific L2 chain.         Please consult the `L1BitcoinDepositor` docstring for an         outline of the direct bridging mechanism","version":1}}}}