{"contracts/l2/L1BitcoinDepositor.sol":{"L1BitcoinDepositor":{"abi":[{"inputs":[],"stateMutability":"nonpayable","type":"constructor"},{"anonymous":false,"inputs":[{"indexed":true,"internalType":"uint256","name":"depositKey","type":"uint256"},{"indexed":true,"internalType":"address","name":"l2DepositOwner","type":"address"},{"indexed":true,"internalType":"address","name":"l1Sender","type":"address"},{"indexed":false,"internalType":"uint256","name":"initialAmount","type":"uint256"},{"indexed":false,"internalType":"uint256","name":"tbtcAmount","type":"uint256"}],"name":"DepositFinalized","type":"event"},{"anonymous":false,"inputs":[{"indexed":true,"internalType":"uint256","name":"depositKey","type":"uint256"},{"indexed":true,"internalType":"address","name":"l2DepositOwner","type":"address"},{"indexed":true,"internalType":"address","name":"l1Sender","type":"address"}],"name":"DepositInitialized","type":"event"},{"anonymous":false,"inputs":[{"indexed":false,"internalType":"uint256","name":"initializeDepositGasOffset","type":"uint256"},{"indexed":false,"internalType":"uint256","name":"finalizeDepositGasOffset","type":"uint256"}],"name":"GasOffsetParametersUpdated","type":"event"},{"anonymous":false,"inputs":[{"indexed":false,"internalType":"uint8","name":"version","type":"uint8"}],"name":"Initialized","type":"event"},{"anonymous":false,"inputs":[{"indexed":false,"internalType":"uint256","name":"l2FinalizeDepositGasLimit","type":"uint256"}],"name":"L2FinalizeDepositGasLimitUpdated","type":"event"},{"anonymous":false,"inputs":[{"indexed":true,"internalType":"address","name":"previousOwner","type":"address"},{"indexed":true,"internalType":"address","name":"newOwner","type":"address"}],"name":"OwnershipTransferred","type":"event"},{"anonymous":false,"inputs":[{"indexed":true,"internalType":"address","name":"_address","type":"address"},{"indexed":false,"internalType":"bool","name":"authorization","type":"bool"}],"name":"ReimbursementAuthorizationUpdated","type":"event"},{"anonymous":false,"inputs":[{"indexed":false,"internalType":"address","name":"newReimbursementPool","type":"address"}],"name":"ReimbursementPoolUpdated","type":"event"},{"inputs":[],"name":"SATOSHI_MULTIPLIER","outputs":[{"internalType":"uint256","name":"","type":"uint256"}],"stateMutability":"view","type":"function"},{"inputs":[{"internalType":"address","name":"_l2BitcoinDepositor","type":"address"}],"name":"attachL2BitcoinDepositor","outputs":[],"stateMutability":"nonpayable","type":"function"},{"inputs":[],"name":"bridge","outputs":[{"internalType":"contract IBridge","name":"","type":"address"}],"stateMutability":"view","type":"function"},{"inputs":[{"internalType":"uint256","name":"","type":"uint256"}],"name":"deposits","outputs":[{"internalType":"enum L1BitcoinDepositor.DepositState","name":"","type":"uint8"}],"stateMutability":"view","type":"function"},{"inputs":[{"internalType":"uint256","name":"depositKey","type":"uint256"}],"name":"finalizeDeposit","outputs":[],"stateMutability":"payable","type":"function"},{"inputs":[],"name":"finalizeDepositGasOffset","outputs":[{"internalType":"uint256","name":"","type":"uint256"}],"stateMutability":"view","type":"function"},{"inputs":[{"internalType":"uint256","name":"","type":"uint256"}],"name":"gasReimbursements","outputs":[{"internalType":"address","name":"receiver","type":"address"},{"internalType":"uint96","name":"gasSpent","type":"uint96"}],"stateMutability":"view","type":"function"},{"inputs":[{"internalType":"address","name":"_tbtcBridge","type":"address"},{"internalType":"address","name":"_tbtcVault","type":"address"},{"internalType":"address","name":"_wormhole","type":"address"},{"internalType":"address","name":"_wormholeRelayer","type":"address"},{"internalType":"address","name":"_wormholeTokenBridge","type":"address"},{"internalType":"address","name":"_l2WormholeGateway","type":"address"},{"internalType":"uint16","name":"_l2ChainId","type":"uint16"}],"name":"initialize","outputs":[],"stateMutability":"nonpayable","type":"function"},{"inputs":[{"components":[{"internalType":"bytes4","name":"version","type":"bytes4"},{"internalType":"bytes","name":"inputVector","type":"bytes"},{"internalType":"bytes","name":"outputVector","type":"bytes"},{"internalType":"bytes4","name":"locktime","type":"bytes4"}],"internalType":"struct IBridgeTypes.BitcoinTxInfo","name":"fundingTx","type":"tuple"},{"components":[{"internalType":"uint32","name":"fundingOutputIndex","type":"uint32"},{"internalType":"bytes8","name":"blindingFactor","type":"bytes8"},{"internalType":"bytes20","name":"walletPubKeyHash","type":"bytes20"},{"internalType":"bytes20","name":"refundPubKeyHash","type":"bytes20"},{"internalType":"bytes4","name":"refundLocktime","type":"bytes4"},{"internalType":"address","name":"vault","type":"address"}],"internalType":"struct IBridgeTypes.DepositRevealInfo","name":"reveal","type":"tuple"},{"internalType":"address","name":"l2DepositOwner","type":"address"}],"name":"initializeDeposit","outputs":[],"stateMutability":"nonpayable","type":"function"},{"inputs":[],"name":"initializeDepositGasOffset","outputs":[{"internalType":"uint256","name":"","type":"uint256"}],"stateMutability":"view","type":"function"},{"inputs":[],"name":"l2BitcoinDepositor","outputs":[{"internalType":"address","name":"","type":"address"}],"stateMutability":"view","type":"function"},{"inputs":[],"name":"l2ChainId","outputs":[{"internalType":"uint16","name":"","type":"uint16"}],"stateMutability":"view","type":"function"},{"inputs":[],"name":"l2FinalizeDepositGasLimit","outputs":[{"internalType":"uint256","name":"","type":"uint256"}],"stateMutability":"view","type":"function"},{"inputs":[],"name":"l2WormholeGateway","outputs":[{"internalType":"address","name":"","type":"address"}],"stateMutability":"view","type":"function"},{"inputs":[],"name":"owner","outputs":[{"internalType":"address","name":"","type":"address"}],"stateMutability":"view","type":"function"},{"inputs":[],"name":"quoteFinalizeDeposit","outputs":[{"internalType":"uint256","name":"cost","type":"uint256"}],"stateMutability":"view","type":"function"},{"inputs":[{"internalType":"address","name":"","type":"address"}],"name":"reimbursementAuthorizations","outputs":[{"internalType":"bool","name":"","type":"bool"}],"stateMutability":"view","type":"function"},{"inputs":[],"name":"reimbursementPool","outputs":[{"internalType":"contract ReimbursementPool","name":"","type":"address"}],"stateMutability":"view","type":"function"},{"inputs":[],"name":"renounceOwnership","outputs":[],"stateMutability":"nonpayable","type":"function"},{"inputs":[],"name":"tbtcToken","outputs":[{"internalType":"contract IERC20Upgradeable","name":"","type":"address"}],"stateMutability":"view","type":"function"},{"inputs":[],"name":"tbtcVault","outputs":[{"internalType":"contract ITBTCVault","name":"","type":"address"}],"stateMutability":"view","type":"function"},{"inputs":[{"internalType":"address","name":"newOwner","type":"address"}],"name":"transferOwnership","outputs":[],"stateMutability":"nonpayable","type":"function"},{"inputs":[{"internalType":"uint256","name":"_initializeDepositGasOffset","type":"uint256"},{"internalType":"uint256","name":"_finalizeDepositGasOffset","type":"uint256"}],"name":"updateGasOffsetParameters","outputs":[],"stateMutability":"nonpayable","type":"function"},{"inputs":[{"internalType":"uint256","name":"_l2FinalizeDepositGasLimit","type":"uint256"}],"name":"updateL2FinalizeDepositGasLimit","outputs":[],"stateMutability":"nonpayable","type":"function"},{"inputs":[{"internalType":"address","name":"_address","type":"address"},{"internalType":"bool","name":"authorization","type":"bool"}],"name":"updateReimbursementAuthorization","outputs":[],"stateMutability":"nonpayable","type":"function"},{"inputs":[{"internalType":"contract ReimbursementPool","name":"_reimbursementPool","type":"address"}],"name":"updateReimbursementPool","outputs":[],"stateMutability":"nonpayable","type":"function"},{"inputs":[],"name":"wormhole","outputs":[{"internalType":"contract IWormhole","name":"","type":"address"}],"stateMutability":"view","type":"function"},{"inputs":[],"name":"wormholeRelayer","outputs":[{"internalType":"contract IWormholeRelayer","name":"","type":"address"}],"stateMutability":"view","type":"function"},{"inputs":[],"name":"wormholeTokenBridge","outputs":[{"internalType":"contract IWormholeTokenBridge","name":"","type":"address"}],"stateMutability":"view","type":"function"}],"devdoc":{"kind":"dev","methods":{"attachL2BitcoinDepositor(address)":{"details":"Requirements:      - Can be called only by the contract owner,      - The address must not be set yet,      - The new address must not be 0x0.","params":{"_l2BitcoinDepositor":"Address of the `L2BitcoinDepositor` contract."}},"constructor":{"custom:oz-upgrades-unsafe-allow":"constructor"},"finalizeDeposit(uint256)":{"details":"Requirements:      - `initializeDeposit` was called for the given deposit before,      - ERC20 L1 TBTC was minted by tBTC Bridge to this contract,      - The function was not called for the given deposit before,      - The call must carry a payment for the Wormhole Relayer that        is responsible for executing the deposit finalization on the        corresponding L2 chain. The payment must be equal to the        value returned by the `quoteFinalizeDeposit` function.","params":{"depositKey":"The deposit key, as emitted in the `DepositInitialized`        event emitted by the `initializeDeposit` function for the deposit."}},"initializeDeposit((bytes4,bytes,bytes,bytes4),(uint32,bytes8,bytes20,bytes20,bytes4,address),address)":{"details":"Requirements:      - The L2 deposit owner address must not be 0x0,      - The function can be called only one time for the given Bitcoin        funding transaction,      - The L2 deposit owner must be embedded in the Bitcoin P2(W)SH        deposit script as the <depositor-extra-data> field. The 20-byte        address must be expressed as a 32-byte value left-padded with 0.        If the value in the Bitcoin script and the value passed as        parameter do not match, the function will revert,      - All the requirements of tBTC Bridge.revealDepositWithExtraData        must be met.","params":{"fundingTx":"Bitcoin funding transaction data.","l2DepositOwner":"Address of the L2 deposit owner.","reveal":"Deposit reveal data."}},"owner()":{"details":"Returns the address of the current owner."},"quoteFinalizeDeposit()":{"returns":{"cost":"The cost of the `finalizeDeposit` function call in WEI."}},"renounceOwnership()":{"details":"Leaves the contract without owner. It will not be possible to call `onlyOwner` functions. Can only be called by the current owner. NOTE: Renouncing ownership will leave the contract without an owner, thereby disabling any functionality that is only available to the owner."},"transferOwnership(address)":{"details":"Transfers ownership of the contract to a new account (`newOwner`). Can only be called by the current owner."},"updateGasOffsetParameters(uint256,uint256)":{"details":"Can be called only by the contract owner. The caller is responsible      for validating parameters.","params":{"_finalizeDepositGasOffset":"New finalize deposit gas offset.","_initializeDepositGasOffset":"New initialize deposit gas offset."}},"updateL2FinalizeDepositGasLimit(uint256)":{"details":"Requirements:      - Can be called only by the contract owner.","params":{"_l2FinalizeDepositGasLimit":"New gas limit."}},"updateReimbursementAuthorization(address,bool)":{"details":"Requirements:      - Can be called only by the contract owner.","params":{"_address":"Address to update the authorization for.","authorization":"New authorization status."}}},"title":"L1BitcoinDepositor","version":1},"evm":{"bytecode":{"linkReferences":{},"object":"60806040523480156200001157600080fd5b50620000226200002860201b60201c565b620001d2565b600060019054906101000a900460ff16156200007b576040517f08c379a0000000000000000000000000000000000000000000000000000000008152600401620000729062000175565b60405180910390fd5b60ff801660008054906101000a900460ff1660ff1614620000ec5760ff6000806101000a81548160ff021916908360ff1602179055507f7f26b83ff96e1f2b6a682f133852f6798a09c465da95921460cefb384740249860ff604051620000e39190620001b5565b60405180910390a15b565b600082825260208201905092915050565b7f496e697469616c697a61626c653a20636f6e747261637420697320696e69746960008201527f616c697a696e6700000000000000000000000000000000000000000000000000602082015250565b60006200015d602783620000ee565b91506200016a82620000ff565b604082019050919050565b6000602082019050818103600083015262000190816200014e565b9050919050565b600060ff82169050919050565b620001af8162000197565b82525050565b6000602082019050620001cc6000830184620001a4565b92915050565b6156b180620001e26000396000f3fe6080604052600436106101c25760003560e01c80637c9e9ffb116100f7578063c7ba034711610095578063e5d3d71411610064578063e5d3d71414610600578063e78cea921461062b578063f11df69d14610656578063f2fde38b14610681576101c2565b8063c7ba034714610554578063c81ef1681461057f578063d6ae3cd5146105aa578063da25b725146105d5576101c2565b80639e0e4e2f116100d15780639e0e4e2f14610498578063aa82e33b146104c1578063b02c43d0146104ec578063c09975cd14610529576101c2565b80637c9e9ffb1461040457806384acd1bb146104425780638da5cb5b1461046d576101c2565b806360ec23dd11610164578063715018a61161013e578063715018a614610370578063715468311461038757806371c654ee146103b25780637b35b4e6146103db576101c2565b806360ec23dd146102e1578063642dc0331461030a57806366b58a0114610333576101c2565b80631159bef0116101a05780631159bef01461024657806313b38cce1461026f57806327ce36c61461029a57806346d9d49a146102c5576101c2565b80630515f0c1146101c75780630f36403a146101f05780630fa1ba441461021b575b600080fd5b3480156101d357600080fd5b506101ee60048036038101906101e99190613218565b6106aa565b005b3480156101fc57600080fd5b506102056107f6565b60405161021291906132a4565b60405180910390f35b34801561022757600080fd5b5061023061081c565b60405161023d91906132d8565b60405180910390f35b34801561025257600080fd5b5061026d6004803603810190610268919061331f565b610822565b005b34801561027b57600080fd5b5061028461086b565b60405161029191906132d8565b60405180910390f35b3480156102a657600080fd5b506102af61090b565b6040516102bc91906132d8565b60405180910390f35b6102df60048036038101906102da919061331f565b610911565b005b3480156102ed57600080fd5b5061030860048036038101906103039190613384565b610dbb565b005b34801561031657600080fd5b50610331600480360381019061032c9190613407565b610e6c565b005b34801561033f57600080fd5b5061035a60048036038101906103559190613218565b6111f5565b6040516103679190613486565b60405180910390f35b34801561037c57600080fd5b50610385611215565b005b34801561039357600080fd5b5061039c611229565b6040516103a991906132d8565b60405180910390f35b3480156103be57600080fd5b506103d960048036038101906103d491906134db565b61122f565b005b3480156103e757600080fd5b5061040260048036038101906103fd91906135cd565b611726565b005b34801561041057600080fd5b5061042b6004803603810190610426919061331f565b611816565b604051610439929190613630565b60405180910390f35b34801561044e57600080fd5b50610457611872565b604051610464919061367a565b60405180910390f35b34801561047957600080fd5b50610482611898565b60405161048f9190613695565b60405180910390f35b3480156104a457600080fd5b506104bf60048036038101906104ba91906136b0565b6118c2565b005b3480156104cd57600080fd5b506104d6611915565b6040516104e39190613695565b60405180910390f35b3480156104f857600080fd5b50610513600480360381019061050e919061331f565b61193b565b6040516105209190613767565b60405180910390f35b34801561053557600080fd5b5061053e61195b565b60405161054b91906137b5565b60405180910390f35b34801561056057600080fd5b50610569611981565b60405161057691906132d8565b60405180910390f35b34801561058b57600080fd5b5061059461198a565b6040516105a19190613695565b60405180910390f35b3480156105b657600080fd5b506105bf6119b0565b6040516105cc91906137df565b60405180910390f35b3480156105e157600080fd5b506105ea6119c4565b6040516105f7919061381b565b60405180910390f35b34801561060c57600080fd5b506106156119ea565b6040516106229190613857565b60405180910390f35b34801561063757600080fd5b50610640611a10565b60405161064d9190613893565b60405180910390f35b34801561066257600080fd5b5061066b611a36565b60405161067891906138cf565b60405180910390f35b34801561068d57600080fd5b506106a860048036038101906106a39190613218565b611a5c565b005b6106b2611adf565b600073ffffffffffffffffffffffffffffffffffffffff1660cd60009054906101000a900473ffffffffffffffffffffffffffffffffffffffff1673ffffffffffffffffffffffffffffffffffffffff1614610743576040517f08c379a000000000000000000000000000000000000000000000000000000000815260040161073a90613947565b60405180910390fd5b600073ffffffffffffffffffffffffffffffffffffffff168173ffffffffffffffffffffffffffffffffffffffff16036107b2576040517f08c379a00000000000000000000000000000000000000000000000000000000081526004016107a9906139d9565b60405180910390fd5b8060cd60006101000a81548173ffffffffffffffffffffffffffffffffffffffff021916908373ffffffffffffffffffffffffffffffffffffffff16021790555050565b600160009054906101000a900473ffffffffffffffffffffffffffffffffffffffff1681565b60d15481565b61082a611adf565b8060ce819055507f6ed5a3ddedc64e149e68b8bbc09d35489452528ae70487ee4f8832837c5c01058160405161086091906132d8565b60405180910390a150565b600061090660c960009054906101000a900473ffffffffffffffffffffffffffffffffffffffff1673ffffffffffffffffffffffffffffffffffffffff16631a90a2196040518163ffffffff1660e01b8152600401602060405180830381865afa1580156108dd573d6000803e3d6000fd5b505050506040513d601f19601f820116820180604052508101906109019190613a0e565b611b5d565b905090565b60d05481565b60005a90506001600281111561092a576109296136f0565b5b60c7600084815260200190815260200160002060009054906101000a900460ff16600281111561095d5761095c6136f0565b5b1461099d576040517f08c379a000000000000000000000000000000000000000000000000000000000815260040161099490613a87565b60405180910390fd5b600260c7600084815260200190815260200160002060006101000a81548160ff021916908360028111156109d4576109d36136f0565b5b021790555060008060006109e785611c29565b9250925092503373ffffffffffffffffffffffffffffffffffffffff16610a0d82611e65565b73ffffffffffffffffffffffffffffffffffffffff16867f94d36bc0d9bf5adbd2dec8bd125b7bf12eecc6e5539fc8f2bd57a831d9995af78686604051610a55929190613aa7565b60405180910390a4610a678282611e72565b600073ffffffffffffffffffffffffffffffffffffffff16609560009054906101000a900473ffffffffffffffffffffffffffffffffffffffff1673ffffffffffffffffffffffffffffffffffffffff1614610db457600060cf60008781526020019081526020016000206040518060400160405290816000820160009054906101000a900473ffffffffffffffffffffffffffffffffffffffff1673ffffffffffffffffffffffffffffffffffffffff1673ffffffffffffffffffffffffffffffffffffffff1681526020016000820160149054906101000a90046bffffffffffffffffffffffff166bffffffffffffffffffffffff166bffffffffffffffffffffffff16815250509050600073ffffffffffffffffffffffffffffffffffffffff16816000015173ffffffffffffffffffffffffffffffffffffffff1614610c9f5760cf6000878152602001908152602001600020600080820160006101000a81549073ffffffffffffffffffffffffffffffffffffffff02191690556000820160146101000a8154906bffffffffffffffffffffffff02191690555050609560009054906101000a900473ffffffffffffffffffffffffffffffffffffffff1673ffffffffffffffffffffffffffffffffffffffff16637ad226dc826020015183600001516040518363ffffffff1660e01b8152600401610c6c929190613b01565b600060405180830381600087803b158015610c8657600080fd5b505af1158015610c9a573d6000803e3d6000fd5b505050505b60d260003373ffffffffffffffffffffffffffffffffffffffff1673ffffffffffffffffffffffffffffffffffffffff16815260200190815260200160002060009054906101000a900460ff1615610db2576000610cfc346123ac565b9050609560009054906101000a900473ffffffffffffffffffffffffffffffffffffffff1673ffffffffffffffffffffffffffffffffffffffff16637ad226dc60d154835a8a610d4c9190613b59565b610d569190613b8d565b610d609190613b8d565b336040518363ffffffff1660e01b8152600401610d7e929190613bc1565b600060405180830381600087803b158015610d9857600080fd5b505af1158015610dac573d6000803e3d6000fd5b50505050505b505b5050505050565b610dc3611adf565b8173ffffffffffffffffffffffffffffffffffffffff167f1fff4aae494aaedff71ff8b04de50a56543bb83ce05b033c3fb4a93e065c05fc82604051610e099190613486565b60405180910390a28060d260008473ffffffffffffffffffffffffffffffffffffffff1673ffffffffffffffffffffffffffffffffffffffff16815260200190815260200160002060006101000a81548160ff0219169083151502179055505050565b60005a9050600073ffffffffffffffffffffffffffffffffffffffff168273ffffffffffffffffffffffffffffffffffffffff1603610ee0576040517f08c379a0000000000000000000000000000000000000000000000000000000008152600401610ed790613c36565b60405180910390fd5b6000610eeb8361253b565b90506000610f1386610efc90613eae565b86803603810190610f0d919061404d565b8461255e565b50905060006002811115610f2a57610f296136f0565b5b60c7600083815260200190815260200160002060009054906101000a900460ff166002811115610f5d57610f5c6136f0565b5b14610f9d576040517f08c379a0000000000000000000000000000000000000000000000000000000008152600401610f9490613a87565b60405180910390fd5b600160c7600083815260200190815260200160002060006101000a81548160ff02191690836002811115610fd457610fd36136f0565b5b02179055503373ffffffffffffffffffffffffffffffffffffffff168473ffffffffffffffffffffffffffffffffffffffff16827f04870363995d5b750bccca9d95e57044d630524aec2ef09ebdb820ac11d866b460405160405180910390a4600073ffffffffffffffffffffffffffffffffffffffff16609560009054906101000a900473ffffffffffffffffffffffffffffffffffffffff1673ffffffffffffffffffffffffffffffffffffffff16141580156110dc575060d260003373ffffffffffffffffffffffffffffffffffffffff1673ffffffffffffffffffffffffffffffffffffffff16815260200190815260200160002060009054906101000a900460ff165b156111ec57600060d0545a856110f29190613b59565b6110fc9190613b8d565b90506bffffffffffffffffffffffff801681111561111d57505050506111f0565b60405180604001604052803373ffffffffffffffffffffffffffffffffffffffff168152602001826bffffffffffffffffffffffff1681525060cf600084815260200190815260200160002060008201518160000160006101000a81548173ffffffffffffffffffffffffffffffffffffffff021916908373ffffffffffffffffffffffffffffffffffffffff16021790555060208201518160000160146101000a8154816bffffffffffffffffffffffff02191690836bffffffffffffffffffffffff160217905550905050505b5050505b505050565b60d26020528060005260406000206000915054906101000a900460ff1681565b61121d611adf565b6112276000612762565b565b60ce5481565b60008060019054906101000a900460ff161590508080156112605750600160008054906101000a900460ff1660ff16105b8061128d575061126f30612828565b15801561128c5750600160008054906101000a900460ff1660ff16145b5b6112cc576040517f08c379a00000000000000000000000000000000000000000000000000000000081526004016112c3906140ec565b60405180910390fd5b60016000806101000a81548160ff021916908360ff1602179055508015611309576001600060016101000a81548160ff0219169083151502179055505b611313888861284b565b61131b612a9a565b600073ffffffffffffffffffffffffffffffffffffffff168673ffffffffffffffffffffffffffffffffffffffff160361138a576040517f08c379a000000000000000000000000000000000000000000000000000000000815260040161138190614158565b60405180910390fd5b600073ffffffffffffffffffffffffffffffffffffffff168573ffffffffffffffffffffffffffffffffffffffff16036113f9576040517f08c379a00000000000000000000000000000000000000000000000000000000081526004016113f0906141ea565b60405180910390fd5b600073ffffffffffffffffffffffffffffffffffffffff168473ffffffffffffffffffffffffffffffffffffffff1603611468576040517f08c379a000000000000000000000000000000000000000000000000000000000815260040161145f9061427c565b60405180910390fd5b600073ffffffffffffffffffffffffffffffffffffffff168373ffffffffffffffffffffffffffffffffffffffff16036114d7576040517f08c379a00000000000000000000000000000000000000000000000000000000081526004016114ce9061430e565b60405180910390fd5b8673ffffffffffffffffffffffffffffffffffffffff1663e5d3d7146040518163ffffffff1660e01b8152600401602060405180830381865afa158015611522573d6000803e3d6000fd5b505050506040513d601f19601f820116820180604052508101906115469190614343565b60c860006101000a81548173ffffffffffffffffffffffffffffffffffffffff021916908373ffffffffffffffffffffffffffffffffffffffff1602179055508560c960006101000a81548173ffffffffffffffffffffffffffffffffffffffff021916908373ffffffffffffffffffffffffffffffffffffffff1602179055508460ca60006101000a81548173ffffffffffffffffffffffffffffffffffffffff021916908373ffffffffffffffffffffffffffffffffffffffff1602179055508360cb60006101000a81548173ffffffffffffffffffffffffffffffffffffffff021916908373ffffffffffffffffffffffffffffffffffffffff1602179055508260cc60006101000a81548173ffffffffffffffffffffffffffffffffffffffff021916908373ffffffffffffffffffffffffffffffffffffffff1602179055508160cc60146101000a81548161ffff021916908361ffff1602179055506207a12060ce8190555061ea6060d081905550614e2060d181905550801561171c5760008060016101000a81548160ff0219169083151502179055507f7f26b83ff96e1f2b6a682f133852f6798a09c465da95921460cefb3847402498600160405161171391906143b8565b60405180910390a15b5050505050505050565b61172e611898565b73ffffffffffffffffffffffffffffffffffffffff163373ffffffffffffffffffffffffffffffffffffffff161461179b576040517f08c379a00000000000000000000000000000000000000000000000000000000081526004016117929061441f565b60405180910390fd5b7f0e2d2343d31b085b7c4e56d1c8a6ec79f7ab07460386f1c9a1756239fe2533ac816040516117ca9190613695565b60405180910390a180609560006101000a81548173ffffffffffffffffffffffffffffffffffffffff021916908373ffffffffffffffffffffffffffffffffffffffff16021790555050565b60cf6020528060005260406000206000915090508060000160009054906101000a900473ffffffffffffffffffffffffffffffffffffffff16908060000160149054906101000a90046bffffffffffffffffffffffff16905082565b60c960009054906101000a900473ffffffffffffffffffffffffffffffffffffffff1681565b6000606360009054906101000a900473ffffffffffffffffffffffffffffffffffffffff16905090565b6118ca611adf565b8160d0819055508060d1819055507fb8df1fba472926f296225c210e366f62b21fec23b8e1b6b0a375724798ca9c0a8282604051611909929190613aa7565b60405180910390a15050565b60cc60009054906101000a900473ffffffffffffffffffffffffffffffffffffffff1681565b60c76020528060005260406000206000915054906101000a900460ff1681565b609560009054906101000a900473ffffffffffffffffffffffffffffffffffffffff1681565b6402540be40081565b60cd60009054906101000a900473ffffffffffffffffffffffffffffffffffffffff1681565b60cc60149054906101000a900461ffff1681565b60ca60009054906101000a900473ffffffffffffffffffffffffffffffffffffffff1681565b60c860009054906101000a900473ffffffffffffffffffffffffffffffffffffffff1681565b600060029054906101000a900473ffffffffffffffffffffffffffffffffffffffff1681565b60cb60009054906101000a900473ffffffffffffffffffffffffffffffffffffffff1681565b611a64611adf565b600073ffffffffffffffffffffffffffffffffffffffff168173ffffffffffffffffffffffffffffffffffffffff1603611ad3576040517f08c379a0000000000000000000000000000000000000000000000000000000008152600401611aca906144b1565b60405180910390fd5b611adc81612762565b50565b611ae7612af3565b73ffffffffffffffffffffffffffffffffffffffff16611b05611898565b73ffffffffffffffffffffffffffffffffffffffff1614611b5b576040517f08c379a0000000000000000000000000000000000000000000000000000000008152600401611b529061451d565b60405180910390fd5b565b60008060ca60009054906101000a900473ffffffffffffffffffffffffffffffffffffffff1673ffffffffffffffffffffffffffffffffffffffff1663c23ee3c360cc60149054906101000a900461ffff16600060ce546040518463ffffffff1660e01b8152600401611bd293929190614578565b6040805180830381865afa158015611bee573d6000803e3d6000fd5b505050506040513d601f19601f82011682018060405250810190611c1291906145af565b5090508281611c219190613b8d565b915050919050565b600080600080600060029054906101000a900473ffffffffffffffffffffffffffffffffffffffff1673ffffffffffffffffffffffffffffffffffffffff1663b02c43d0866040518263ffffffff1660e01b8152600401611c8a91906132d8565b60e060405180830381865afa158015611ca7573d6000803e3d6000fd5b505050506040513d601f19601f82011682018060405250810190611ccb919061472e565b90506000816040015163ffffffff1603611d1a576040517f08c379a0000000000000000000000000000000000000000000000000000000008152600401611d11906147a7565b60405180910390fd5b6000600160009054906101000a900473ffffffffffffffffffffffffffffffffffffffff1673ffffffffffffffffffffffffffffffffffffffff16636c626aa4876040518263ffffffff1660e01b8152600401611d7791906132d8565b60408051808303816000875af1158015611d95573d6000803e3d6000fd5b505050506040513d601f19601f82011682018060405250810190611db991906147c7565b91505060008260a0015163ffffffff16141580611de1575060008167ffffffffffffffff1614155b611e20576040517f08c379a0000000000000000000000000000000000000000000000000000000008152600401611e1790614879565b60405180910390fd5b6402540be400826020015167ffffffffffffffff16611e3f9190614899565b9450611e5382602001518360800151612afb565b93508160c00151925050509193909250565b60008160001c9050919050565b611e7b82612cba565b915060008211611ec0576040517f08c379a0000000000000000000000000000000000000000000000000000000008152600401611eb790614927565b60405180910390fd5b600060c960009054906101000a900473ffffffffffffffffffffffffffffffffffffffff1673ffffffffffffffffffffffffffffffffffffffff16631a90a2196040518163ffffffff1660e01b8152600401602060405180830381865afa158015611f2f573d6000803e3d6000fd5b505050506040513d601f19601f82011682018060405250810190611f539190613a0e565b90506000611f6082611b5d565b9050803414611fa4576040517f08c379a0000000000000000000000000000000000000000000000000000000008152600401611f9b906149b9565b60405180910390fd5b61201360cb60009054906101000a900473ffffffffffffffffffffffffffffffffffffffff168560c860009054906101000a900473ffffffffffffffffffffffffffffffffffffffff1673ffffffffffffffffffffffffffffffffffffffff16612cea9092919063ffffffff16565b600060cb60009054906101000a900473ffffffffffffffffffffffffffffffffffffffff1673ffffffffffffffffffffffffffffffffffffffff1663c5a5ebda8460c860009054906101000a900473ffffffffffffffffffffffffffffffffffffffff168860cc60149054906101000a900461ffff166120b460cc60009054906101000a900473ffffffffffffffffffffffffffffffffffffffff1661253b565b60008b6040516020016120c791906149e8565b6040516020818303038152906040526040518863ffffffff1660e01b81526004016120f796959493929190614ab3565b60206040518083038185885af1158015612115573d6000803e3d6000fd5b50505050506040513d601f19601f8201168201806040525081019061213a9190614b1b565b90506000600167ffffffffffffffff81111561215957612158613c6c565b5b60405190808252806020026020018201604052801561219257816020015b61217f613174565b8152602001906001900390816121775790505b509050604051806060016040528060c960009054906101000a900473ffffffffffffffffffffffffffffffffffffffff1673ffffffffffffffffffffffffffffffffffffffff16639a8a05926040518163ffffffff1660e01b8152600401602060405180830381865afa15801561220d573d6000803e3d6000fd5b505050506040513d601f19601f820116820180604052508101906122319190614b5d565b61ffff16815260200161226560cb60009054906101000a900473ffffffffffffffffffffffffffffffffffffffff1661253b565b81526020018367ffffffffffffffff168152508160008151811061228c5761228b614b8a565b5b602002602001018190525060ca60009054906101000a900473ffffffffffffffffffffffffffffffffffffffff1673ffffffffffffffffffffffffffffffffffffffff166332b2fc0e85856122e19190613b59565b60cc60149054906101000a900461ffff1660cd60009054906101000a900473ffffffffffffffffffffffffffffffffffffffff1660405180602001604052806000815250600060ce548860cc60149054906101000a900461ffff16336040518a63ffffffff1660e01b8152600401612360989796959493929190614cd7565b60206040518083038185885af115801561237e573d6000803e3d6000fd5b50505050506040513d601f19601f820116820180604052508101906123a39190614b1b565b50505050505050565b600080609560009054906101000a900473ffffffffffffffffffffffffffffffffffffffff1673ffffffffffffffffffffffffffffffffffffffff16633de39c116040518163ffffffff1660e01b8152600401602060405180830381865afa15801561241c573d6000803e3d6000fd5b505050506040513d601f19601f820116820180604052508101906124409190613a0e565b90506000609560009054906101000a900473ffffffffffffffffffffffffffffffffffffffff1673ffffffffffffffffffffffffffffffffffffffff1663e25b53456040518163ffffffff1660e01b8152600401602060405180830381865afa1580156124b1573d6000803e3d6000fd5b505050506040513d601f19601f820116820180604052508101906124d59190613a0e565b90506000823a106124e657826124e8565b3a5b9050600081036124fe5760009350505050612536565b6000818661250c9190614d92565b905080831115612523576000945050505050612536565b828161252f9190613b59565b9450505050505b919050565b60008173ffffffffffffffffffffffffffffffffffffffff1660001b9050919050565b600080600160009054906101000a900473ffffffffffffffffffffffffffffffffffffffff1673ffffffffffffffffffffffffffffffffffffffff168460a0015173ffffffffffffffffffffffffffffffffffffffff16146125f5576040517f08c379a00000000000000000000000000000000000000000000000000000000081526004016125ec90614e0f565b60405180910390fd5b61260b61260186612dfc565b8560000151612e43565b9150600060029054906101000a900473ffffffffffffffffffffffffffffffffffffffff1673ffffffffffffffffffffffffffffffffffffffff166386f014398686866040518463ffffffff1660e01b815260040161266c93929190614fa9565b600060405180830381600087803b15801561268657600080fd5b505af115801561269a573d6000803e3d6000fd5b505050506402540be400600060029054906101000a900473ffffffffffffffffffffffffffffffffffffffff1673ffffffffffffffffffffffffffffffffffffffff1663b02c43d0846040518263ffffffff1660e01b81526004016126ff91906132d8565b60e060405180830381865afa15801561271c573d6000803e3d6000fd5b505050506040513d601f19601f82011682018060405250810190612740919061472e565b6020015167ffffffffffffffff166127589190614899565b9050935093915050565b6000606360009054906101000a900473ffffffffffffffffffffffffffffffffffffffff16905081606360006101000a81548173ffffffffffffffffffffffffffffffffffffffff021916908373ffffffffffffffffffffffffffffffffffffffff1602179055508173ffffffffffffffffffffffffffffffffffffffff168173ffffffffffffffffffffffffffffffffffffffff167f8be0079c531659141344cd1fd0a4f28419497f9722a3daafe3b4186f6b6457e060405160405180910390a35050565b6000808273ffffffffffffffffffffffffffffffffffffffff163b119050919050565b600073ffffffffffffffffffffffffffffffffffffffff16600060029054906101000a900473ffffffffffffffffffffffffffffffffffffffff1673ffffffffffffffffffffffffffffffffffffffff161480156128f75750600073ffffffffffffffffffffffffffffffffffffffff16600160009054906101000a900473ffffffffffffffffffffffffffffffffffffffff1673ffffffffffffffffffffffffffffffffffffffff16145b612936576040517f08c379a000000000000000000000000000000000000000000000000000000000815260040161292d9061505a565b60405180910390fd5b600073ffffffffffffffffffffffffffffffffffffffff168273ffffffffffffffffffffffffffffffffffffffff16036129a5576040517f08c379a000000000000000000000000000000000000000000000000000000000815260040161299c906150c6565b60405180910390fd5b600073ffffffffffffffffffffffffffffffffffffffff168173ffffffffffffffffffffffffffffffffffffffff1603612a14576040517f08c379a0000000000000000000000000000000000000000000000000000000008152600401612a0b90615132565b60405180910390fd5b81600060026101000a81548173ffffffffffffffffffffffffffffffffffffffff021916908373ffffffffffffffffffffffffffffffffffffffff16021790555080600160006101000a81548173ffffffffffffffffffffffffffffffffffffffff021916908373ffffffffffffffffffffffffffffffffffffffff1602179055505050565b600060019054906101000a900460ff16612ae9576040517f08c379a0000000000000000000000000000000000000000000000000000000008152600401612ae0906151c4565b60405180910390fd5b612af1612e79565b565b600033905090565b6000806402540be4008385612b1091906151e4565b67ffffffffffffffff16612b249190614899565b90506000600160009054906101000a900473ffffffffffffffffffffffffffffffffffffffff1673ffffffffffffffffffffffffffffffffffffffff166309b53f516040518163ffffffff1660e01b8152600401602060405180830381865afa158015612b95573d6000803e3d6000fd5b505050506040513d601f19601f82011682018060405250810190612bb99190615220565b63ffffffff1690506000808211612bd1576000612bde565b8183612bdd9190614d92565b5b905060008060029054906101000a900473ffffffffffffffffffffffffffffffffffffffff1673ffffffffffffffffffffffffffffffffffffffff1663c42b64d06040518163ffffffff1660e01b8152600401608060405180830381865afa158015612c4e573d6000803e3d6000fd5b505050506040513d601f19601f82011682018060405250810190612c72919061524d565b509250505060006402540be4008267ffffffffffffffff16612c949190614899565b9050808386612ca39190613b59565b612cad9190613b59565b9550505050505092915050565b60006402540be40082612ccd9190614d92565b91506402540be40082612ce09190614899565b9150819050919050565b60008373ffffffffffffffffffffffffffffffffffffffff1663dd62ed3e30856040518363ffffffff1660e01b8152600401612d279291906152b4565b602060405180830381865afa158015612d44573d6000803e3d6000fd5b505050506040513d601f19601f82011682018060405250810190612d689190613a0e565b9050612df68463095ea7b360e01b858585612d839190613b8d565b604051602401612d949291906152dd565b604051602081830303815290604052907bffffffffffffffffffffffffffffffffffffffffffffffffffffffff19166020820180517bffffffffffffffffffffffffffffffffffffffffffffffffffffffff8381831617835250505050612eda565b50505050565b6000612e3c8260000151836020015184604001518560600151604051602001612e289493929190615363565b604051602081830303815290604052612fa2565b9050919050565b60008282604051602001612e58929190615400565b6040516020818303038152906040528051906020012060001c905092915050565b600060019054906101000a900460ff16612ec8576040517f08c379a0000000000000000000000000000000000000000000000000000000008152600401612ebf906151c4565b60405180910390fd5b612ed8612ed3612af3565b612762565b565b6000612f3c826040518060400160405280602081526020017f5361666545524332303a206c6f772d6c6576656c2063616c6c206661696c65648152508573ffffffffffffffffffffffffffffffffffffffff16612fca9092919063ffffffff16565b9050600081511480612f5e575080806020019051810190612f5d9190615441565b5b612f9d576040517f08c379a0000000000000000000000000000000000000000000000000000000008152600401612f94906154e0565b60405180910390fd5b505050565b60006020600083516020850160025afa50602060006020600060025afa506000519050919050565b6060612fd98484600085612fe2565b90509392505050565b606082471015613027576040517f08c379a000000000000000000000000000000000000000000000000000000000815260040161301e90615572565b60405180910390fd5b6000808673ffffffffffffffffffffffffffffffffffffffff1685876040516130509190615592565b60006040518083038185875af1925050503d806000811461308d576040519150601f19603f3d011682016040523d82523d6000602084013e613092565b606091505b50915091506130a3878383876130af565b92505050949350505050565b60608315613111576000835103613109576130c985612828565b613108576040517f08c379a00000000000000000000000000000000000000000000000000000000081526004016130ff906155f5565b60405180910390fd5b5b82905061311c565b61311b8383613124565b5b949350505050565b6000825111156131375781518083602001fd5b806040517f08c379a000000000000000000000000000000000000000000000000000000000815260040161316b9190615659565b60405180910390fd5b6040518060600160405280600061ffff16815260200160008019168152602001600067ffffffffffffffff1681525090565b6000604051905090565b600080fd5b600080fd5b600073ffffffffffffffffffffffffffffffffffffffff82169050919050565b60006131e5826131ba565b9050919050565b6131f5816131da565b811461320057600080fd5b50565b600081359050613212816131ec565b92915050565b60006020828403121561322e5761322d6131b0565b5b600061323c84828501613203565b91505092915050565b6000819050919050565b600061326a613265613260846131ba565b613245565b6131ba565b9050919050565b600061327c8261324f565b9050919050565b600061328e82613271565b9050919050565b61329e81613283565b82525050565b60006020820190506132b96000830184613295565b92915050565b6000819050919050565b6132d2816132bf565b82525050565b60006020820190506132ed60008301846132c9565b92915050565b6132fc816132bf565b811461330757600080fd5b50565b600081359050613319816132f3565b92915050565b600060208284031215613335576133346131b0565b5b60006133438482850161330a565b91505092915050565b60008115159050919050565b6133618161334c565b811461336c57600080fd5b50565b60008135905061337e81613358565b92915050565b6000806040838503121561339b5761339a6131b0565b5b60006133a985828601613203565b92505060206133ba8582860161336f565b9150509250929050565b600080fd5b6000608082840312156133df576133de6133c4565b5b81905092915050565b600060c082840312156133fe576133fd6133c4565b5b81905092915050565b60008060006101008486031215613421576134206131b0565b5b600084013567ffffffffffffffff81111561343f5761343e6131b5565b5b61344b868287016133c9565b935050602061345c868287016133e8565b92505060e061346d86828701613203565b9150509250925092565b6134808161334c565b82525050565b600060208201905061349b6000830184613477565b92915050565b600061ffff82169050919050565b6134b8816134a1565b81146134c357600080fd5b50565b6000813590506134d5816134af565b92915050565b600080600080600080600060e0888a0312156134fa576134f96131b0565b5b60006135088a828b01613203565b97505060206135198a828b01613203565b965050604061352a8a828b01613203565b955050606061353b8a828b01613203565b945050608061354c8a828b01613203565b93505060a061355d8a828b01613203565b92505060c061356e8a828b016134c6565b91505092959891949750929550565b6000613588826131ba565b9050919050565b600061359a8261357d565b9050919050565b6135aa8161358f565b81146135b557600080fd5b50565b6000813590506135c7816135a1565b92915050565b6000602082840312156135e3576135e26131b0565b5b60006135f1848285016135b8565b91505092915050565b613603816131da565b82525050565b60006bffffffffffffffffffffffff82169050919050565b61362a81613609565b82525050565b600060408201905061364560008301856135fa565b6136526020830184613621565b9392505050565b600061366482613271565b9050919050565b61367481613659565b82525050565b600060208201905061368f600083018461366b565b92915050565b60006020820190506136aa60008301846135fa565b92915050565b600080604083850312156136c7576136c66131b0565b5b60006136d58582860161330a565b92505060206136e68582860161330a565b9150509250929050565b7f4e487b7100000000000000000000000000000000000000000000000000000000600052602160045260246000fd5b600381106137305761372f6136f0565b5b50565b60008190506137418261371f565b919050565b600061375182613733565b9050919050565b61376181613746565b82525050565b600060208201905061377c6000830184613758565b92915050565b600061378d8261324f565b9050919050565b600061379f82613782565b9050919050565b6137af81613794565b82525050565b60006020820190506137ca60008301846137a6565b92915050565b6137d9816134a1565b82525050565b60006020820190506137f460008301846137d0565b92915050565b600061380582613271565b9050919050565b613815816137fa565b82525050565b6000602082019050613830600083018461380c565b92915050565b600061384182613271565b9050919050565b61385181613836565b82525050565b600060208201905061386c6000830184613848565b92915050565b600061387d82613271565b9050919050565b61388d81613872565b82525050565b60006020820190506138a86000830184613884565b92915050565b60006138b982613271565b9050919050565b6138c9816138ae565b82525050565b60006020820190506138e460008301846138c0565b92915050565b600082825260208201905092915050565b7f4c3220426974636f696e204465706f7369746f7220616c726561647920736574600082015250565b60006139316020836138ea565b915061393c826138fb565b602082019050919050565b6000602082019050818103600083015261396081613924565b9050919050565b7f4c3220426974636f696e204465706f7369746f72206d757374206e6f7420626560008201527f2030783000000000000000000000000000000000000000000000000000000000602082015250565b60006139c36024836138ea565b91506139ce82613967565b604082019050919050565b600060208201905081810360008301526139f2816139b6565b9050919050565b600081519050613a08816132f3565b92915050565b600060208284031215613a2457613a236131b0565b5b6000613a32848285016139f9565b91505092915050565b7f57726f6e67206465706f73697420737461746500000000000000000000000000600082015250565b6000613a716013836138ea565b9150613a7c82613a3b565b602082019050919050565b60006020820190508181036000830152613aa081613a64565b9050919050565b6000604082019050613abc60008301856132c9565b613ac960208301846132c9565b9392505050565b6000613aeb613ae6613ae184613609565b613245565b6132bf565b9050919050565b613afb81613ad0565b82525050565b6000604082019050613b166000830185613af2565b613b2360208301846135fa565b9392505050565b7f4e487b7100000000000000000000000000000000000000000000000000000000600052601160045260246000fd5b6000613b64826132bf565b9150613b6f836132bf565b9250828203905081811115613b8757613b86613b2a565b5b92915050565b6000613b98826132bf565b9150613ba3836132bf565b9250828201905080821115613bbb57613bba613b2a565b5b92915050565b6000604082019050613bd660008301856132c9565b613be360208301846135fa565b9392505050565b7f4c32206465706f736974206f776e6572206d757374206e6f7420626520307830600082015250565b6000613c206020836138ea565b9150613c2b82613bea565b602082019050919050565b60006020820190508181036000830152613c4f81613c13565b9050919050565b600080fd5b6000601f19601f8301169050919050565b7f4e487b7100000000000000000000000000000000000000000000000000000000600052604160045260246000fd5b613ca482613c5b565b810181811067ffffffffffffffff82111715613cc357613cc2613c6c565b5b80604052505050565b6000613cd66131a6565b9050613ce28282613c9b565b919050565b600080fd5b60007fffffffff0000000000000000000000000000000000000000000000000000000082169050919050565b613d2181613cec565b8114613d2c57600080fd5b50565b600081359050613d3e81613d18565b92915050565b600080fd5b600080fd5b600067ffffffffffffffff821115613d6957613d68613c6c565b5b613d7282613c5b565b9050602081019050919050565b82818337600083830152505050565b6000613da1613d9c84613d4e565b613ccc565b905082815260208101848484011115613dbd57613dbc613d49565b5b613dc8848285613d7f565b509392505050565b600082601f830112613de557613de4613d44565b5b8135613df5848260208601613d8e565b91505092915050565b600060808284031215613e1457613e13613c56565b5b613e1e6080613ccc565b90506000613e2e84828501613d2f565b600083015250602082013567ffffffffffffffff811115613e5257613e51613ce7565b5b613e5e84828501613dd0565b602083015250604082013567ffffffffffffffff811115613e8257613e81613ce7565b5b613e8e84828501613dd0565b6040830152506060613ea284828501613d2f565b60608301525092915050565b6000613eba3683613dfe565b9050919050565b600063ffffffff82169050919050565b613eda81613ec1565b8114613ee557600080fd5b50565b600081359050613ef781613ed1565b92915050565b60007fffffffffffffffff00000000000000000000000000000000000000000000000082169050919050565b613f3281613efd565b8114613f3d57600080fd5b50565b600081359050613f4f81613f29565b92915050565b60007fffffffffffffffffffffffffffffffffffffffff00000000000000000000000082169050919050565b613f8a81613f55565b8114613f9557600080fd5b50565b600081359050613fa781613f81565b92915050565b600060c08284031215613fc357613fc2613c56565b5b613fcd60c0613ccc565b90506000613fdd84828501613ee8565b6000830152506020613ff184828501613f40565b602083015250604061400584828501613f98565b604083015250606061401984828501613f98565b606083015250608061402d84828501613d2f565b60808301525060a061404184828501613203565b60a08301525092915050565b600060c08284031215614063576140626131b0565b5b600061407184828501613fad565b91505092915050565b7f496e697469616c697a61626c653a20636f6e747261637420697320616c72656160008201527f647920696e697469616c697a6564000000000000000000000000000000000000602082015250565b60006140d6602e836138ea565b91506140e18261407a565b604082019050919050565b60006020820190508181036000830152614105816140c9565b9050919050565b7f576f726d686f6c6520616464726573732063616e6e6f74206265207a65726f00600082015250565b6000614142601f836138ea565b915061414d8261410c565b602082019050919050565b6000602082019050818103600083015261417181614135565b9050919050565b7f576f726d686f6c6552656c6179657220616464726573732063616e6e6f74206260008201527f65207a65726f0000000000000000000000000000000000000000000000000000602082015250565b60006141d46026836138ea565b91506141df82614178565b604082019050919050565b60006020820190508181036000830152614203816141c7565b9050919050565b7f576f726d686f6c65546f6b656e42726964676520616464726573732063616e6e60008201527f6f74206265207a65726f00000000000000000000000000000000000000000000602082015250565b6000614266602a836138ea565b91506142718261420a565b604082019050919050565b6000602082019050818103600083015261429581614259565b9050919050565b7f4c32576f726d686f6c654761746577617920616464726573732063616e6e6f7460008201527f206265207a65726f000000000000000000000000000000000000000000000000602082015250565b60006142f86028836138ea565b91506143038261429c565b604082019050919050565b60006020820190508181036000830152614327816142eb565b9050919050565b60008151905061433d816131ec565b92915050565b600060208284031215614359576143586131b0565b5b60006143678482850161432e565b91505092915050565b6000819050919050565b600060ff82169050919050565b60006143a261439d61439884614370565b613245565b61437a565b9050919050565b6143b281614387565b82525050565b60006020820190506143cd60008301846143a9565b92915050565b7f43616c6c6572206973206e6f7420746865206f776e6572000000000000000000600082015250565b60006144096017836138ea565b9150614414826143d3565b602082019050919050565b60006020820190508181036000830152614438816143fc565b9050919050565b7f4f776e61626c653a206e6577206f776e657220697320746865207a65726f206160008201527f6464726573730000000000000000000000000000000000000000000000000000602082015250565b600061449b6026836138ea565b91506144a68261443f565b604082019050919050565b600060208201905081810360008301526144ca8161448e565b9050919050565b7f4f776e61626c653a2063616c6c6572206973206e6f7420746865206f776e6572600082015250565b60006145076020836138ea565b9150614512826144d1565b602082019050919050565b60006020820190508181036000830152614536816144fa565b9050919050565b6000819050919050565b600061456261455d6145588461453d565b613245565b6132bf565b9050919050565b61457281614547565b82525050565b600060608201905061458d60008301866137d0565b61459a6020830185614569565b6145a760408301846132c9565b949350505050565b600080604083850312156145c6576145c56131b0565b5b60006145d4858286016139f9565b92505060206145e5858286016139f9565b9150509250929050565b600067ffffffffffffffff82169050919050565b61460c816145ef565b811461461757600080fd5b50565b60008151905061462981614603565b92915050565b60008151905061463e81613ed1565b92915050565b6000819050919050565b61465781614644565b811461466257600080fd5b50565b6000815190506146748161464e565b92915050565b600060e082840312156146905761468f613c56565b5b61469a60e0613ccc565b905060006146aa8482850161432e565b60008301525060206146be8482850161461a565b60208301525060406146d28482850161462f565b60408301525060606146e68482850161432e565b60608301525060806146fa8482850161461a565b60808301525060a061470e8482850161462f565b60a08301525060c061472284828501614665565b60c08301525092915050565b600060e08284031215614744576147436131b0565b5b60006147528482850161467a565b91505092915050565b7f4465706f736974206e6f7420696e697469616c697a6564000000000000000000600082015250565b60006147916017836138ea565b915061479c8261475b565b602082019050919050565b600060208201905081810360008301526147c081614784565b9050919050565b600080604083850312156147de576147dd6131b0565b5b60006147ec8582860161461a565b92505060206147fd8582860161461a565b9150509250929050565b7f4465706f736974206e6f742066696e616c697a6564206279207468652062726960008201527f6467650000000000000000000000000000000000000000000000000000000000602082015250565b60006148636023836138ea565b915061486e82614807565b604082019050919050565b6000602082019050818103600083015261489281614856565b9050919050565b60006148a4826132bf565b91506148af836132bf565b92508282026148bd816132bf565b915082820484148315176148d4576148d3613b2a565b5b5092915050565b7f416d6f756e7420746f6f206c6f7720746f206272696467650000000000000000600082015250565b60006149116018836138ea565b915061491c826148db565b602082019050919050565b6000602082019050818103600083015261494081614904565b9050919050565b7f5061796d656e7420666f7220576f726d686f6c652052656c617965722069732060008201527f746f6f206c6f7700000000000000000000000000000000000000000000000000602082015250565b60006149a36027836138ea565b91506149ae82614947565b604082019050919050565b600060208201905081810360008301526149d281614996565b9050919050565b6149e281614644565b82525050565b60006020820190506149fd60008301846149d9565b92915050565b6000614a1e614a19614a148461453d565b613245565b613ec1565b9050919050565b614a2e81614a03565b82525050565b600081519050919050565b600082825260208201905092915050565b60005b83811015614a6e578082015181840152602081019050614a53565b60008484015250505050565b6000614a8582614a34565b614a8f8185614a3f565b9350614a9f818560208601614a50565b614aa881613c5b565b840191505092915050565b600060c082019050614ac860008301896135fa565b614ad560208301886132c9565b614ae260408301876137d0565b614aef60608301866149d9565b614afc6080830185614a25565b81810360a0830152614b0e8184614a7a565b9050979650505050505050565b600060208284031215614b3157614b306131b0565b5b6000614b3f8482850161461a565b91505092915050565b600081519050614b57816134af565b92915050565b600060208284031215614b7357614b726131b0565b5b6000614b8184828501614b48565b91505092915050565b7f4e487b7100000000000000000000000000000000000000000000000000000000600052603260045260246000fd5b600081519050919050565b600082825260208201905092915050565b6000819050602082019050919050565b614bee816134a1565b82525050565b614bfd81614644565b82525050565b614c0c816145ef565b82525050565b606082016000820151614c286000850182614be5565b506020820151614c3b6020850182614bf4565b506040820151614c4e6040850182614c03565b50505050565b6000614c608383614c12565b60608301905092915050565b6000602082019050919050565b6000614c8482614bb9565b614c8e8185614bc4565b9350614c9983614bd5565b8060005b83811015614cca578151614cb18882614c54565b9750614cbc83614c6c565b925050600181019050614c9d565b5085935050505092915050565b600061010082019050614ced600083018b6137d0565b614cfa602083018a6135fa565b8181036040830152614d0c8189614a7a565b9050614d1b6060830188614569565b614d2860808301876132c9565b81810360a0830152614d3a8186614c79565b9050614d4960c08301856137d0565b614d5660e08301846135fa565b9998505050505050505050565b7f4e487b7100000000000000000000000000000000000000000000000000000000600052601260045260246000fd5b6000614d9d826132bf565b9150614da8836132bf565b925082614db857614db7614d63565b5b828204905092915050565b7f5661756c742061646472657373206d69736d6174636800000000000000000000600082015250565b6000614df96016836138ea565b9150614e0482614dc3565b602082019050919050565b60006020820190508181036000830152614e2881614dec565b9050919050565b614e3881613cec565b82525050565b600082825260208201905092915050565b6000614e5a82614a34565b614e648185614e3e565b9350614e74818560208601614a50565b614e7d81613c5b565b840191505092915050565b6000608083016000830151614ea06000860182614e2f565b5060208301518482036020860152614eb88282614e4f565b91505060408301518482036040860152614ed28282614e4f565b9150506060830151614ee76060860182614e2f565b508091505092915050565b614efb81613ec1565b82525050565b614f0a81613efd565b82525050565b614f1981613f55565b82525050565b614f28816131da565b82525050565b60c082016000820151614f446000850182614ef2565b506020820151614f576020850182614f01565b506040820151614f6a6040850182614f10565b506060820151614f7d6060850182614f10565b506080820151614f906080850182614e2f565b5060a0820151614fa360a0850182614f1f565b50505050565b6000610100820190508181036000830152614fc48186614e88565b9050614fd36020830185614f2e565b614fe060e08301846149d9565b949350505050565b7f4162737472616374544254434465706f7369746f7220616c726561647920696e60008201527f697469616c697a65640000000000000000000000000000000000000000000000602082015250565b60006150446029836138ea565b915061504f82614fe8565b604082019050919050565b6000602082019050818103600083015261507381615037565b9050919050565b7f42726964676520616464726573732063616e6e6f74206265207a65726f000000600082015250565b60006150b0601d836138ea565b91506150bb8261507a565b602082019050919050565b600060208201905081810360008301526150df816150a3565b9050919050565b7f544254435661756c7420616464726573732063616e6e6f74206265207a65726f600082015250565b600061511c6020836138ea565b9150615127826150e6565b602082019050919050565b6000602082019050818103600083015261514b8161510f565b9050919050565b7f496e697469616c697a61626c653a20636f6e7472616374206973206e6f74206960008201527f6e697469616c697a696e67000000000000000000000000000000000000000000602082015250565b60006151ae602b836138ea565b91506151b982615152565b604082019050919050565b600060208201905081810360008301526151dd816151a1565b9050919050565b60006151ef826145ef565b91506151fa836145ef565b9250828203905067ffffffffffffffff81111561521a57615219613b2a565b5b92915050565b600060208284031215615236576152356131b0565b5b60006152448482850161462f565b91505092915050565b60008060008060808587031215615267576152666131b0565b5b60006152758782880161461a565b94505060206152868782880161461a565b93505060406152978782880161461a565b92505060606152a88782880161462f565b91505092959194509250565b60006040820190506152c960008301856135fa565b6152d660208301846135fa565b9392505050565b60006040820190506152f260008301856135fa565b6152ff60208301846132c9565b9392505050565b6000819050919050565b61532161531c82613cec565b615306565b82525050565b600081905092915050565b600061533d82614a34565b6153478185615327565b9350615357818560208601614a50565b80840191505092915050565b600061536f8287615310565b60048201915061537f8286615332565b915061538b8285615332565b91506153978284615310565b60048201915081905095945050505050565b6000819050919050565b6153c46153bf82614644565b6153a9565b82525050565b60008160e01b9050919050565b60006153e2826153ca565b9050919050565b6153fa6153f582613ec1565b6153d7565b82525050565b600061540c82856153b3565b60208201915061541c82846153e9565b6004820191508190509392505050565b60008151905061543b81613358565b92915050565b600060208284031215615457576154566131b0565b5b60006154658482850161542c565b91505092915050565b7f5361666545524332303a204552433230206f7065726174696f6e20646964206e60008201527f6f74207375636365656400000000000000000000000000000000000000000000602082015250565b60006154ca602a836138ea565b91506154d58261546e565b604082019050919050565b600060208201905081810360008301526154f9816154bd565b9050919050565b7f416464726573733a20696e73756666696369656e742062616c616e636520666f60008201527f722063616c6c0000000000000000000000000000000000000000000000000000602082015250565b600061555c6026836138ea565b915061556782615500565b604082019050919050565b6000602082019050818103600083015261558b8161554f565b9050919050565b600061559e8284615332565b915081905092915050565b7f416464726573733a2063616c6c20746f206e6f6e2d636f6e7472616374000000600082015250565b60006155df601d836138ea565b91506155ea826155a9565b602082019050919050565b6000602082019050818103600083015261560e816155d2565b9050919050565b600081519050919050565b600061562b82615615565b61563581856138ea565b9350615645818560208601614a50565b61564e81613c5b565b840191505092915050565b600060208201905081810360008301526156738184615620565b90509291505056fea2646970667358221220c7b9a6d1c3adbf3895240b6a0f7a30681fa41f5d6f89a5a7c0c3d0a084bde36864736f6c63430008110033","opcodes":"PUSH1 0x80 PUSH1 0x40 MSTORE CALLVALUE DUP1 ISZERO PUSH3 0x11 JUMPI PUSH1 0x0 DUP1 REVERT JUMPDEST POP PUSH3 0x22 PUSH3 0x28 PUSH1 0x20 SHL PUSH1 0x20 SHR JUMP JUMPDEST PUSH3 0x1D2 JUMP JUMPDEST PUSH1 0x0 PUSH1 0x1 SWAP1 SLOAD SWAP1 PUSH2 0x100 EXP SWAP1 DIV PUSH1 0xFF AND ISZERO PUSH3 0x7B JUMPI PUSH1 0x40 MLOAD PUSH32 0x8C379A000000000000000000000000000000000000000000000000000000000 DUP2 MSTORE PUSH1 0x4 ADD PUSH3 0x72 SWAP1 PUSH3 0x175 JUMP JUMPDEST PUSH1 0x40 MLOAD DUP1 SWAP2 SUB SWAP1 REVERT JUMPDEST PUSH1 0xFF DUP1 AND PUSH1 0x0 DUP1 SLOAD SWAP1 PUSH2 0x100 EXP SWAP1 DIV PUSH1 0xFF AND PUSH1 0xFF AND EQ PUSH3 0xEC JUMPI PUSH1 0xFF PUSH1 0x0 DUP1 PUSH2 0x100 EXP DUP2 SLOAD DUP2 PUSH1 0xFF MUL NOT AND SWAP1 DUP4 PUSH1 0xFF AND MUL OR SWAP1 SSTORE POP PUSH32 0x7F26B83FF96E1F2B6A682F133852F6798A09C465DA95921460CEFB3847402498 PUSH1 0xFF PUSH1 0x40 MLOAD PUSH3 0xE3 SWAP2 SWAP1 PUSH3 0x1B5 JUMP JUMPDEST PUSH1 0x40 MLOAD DUP1 SWAP2 SUB SWAP1 LOG1 JUMPDEST JUMP JUMPDEST PUSH1 0x0 DUP3 DUP3 MSTORE PUSH1 0x20 DUP3 ADD SWAP1 POP SWAP3 SWAP2 POP POP JUMP JUMPDEST PUSH32 0x496E697469616C697A61626C653A20636F6E747261637420697320696E697469 PUSH1 0x0 DUP3 ADD MSTORE PUSH32 0x616C697A696E6700000000000000000000000000000000000000000000000000 PUSH1 0x20 DUP3 ADD MSTORE POP JUMP JUMPDEST PUSH1 0x0 PUSH3 0x15D PUSH1 0x27 DUP4 PUSH3 0xEE JUMP JUMPDEST SWAP2 POP PUSH3 0x16A DUP3 PUSH3 0xFF JUMP JUMPDEST PUSH1 0x40 DUP3 ADD SWAP1 POP SWAP2 SWAP1 POP JUMP JUMPDEST PUSH1 0x0 PUSH1 0x20 DUP3 ADD SWAP1 POP DUP2 DUP2 SUB PUSH1 0x0 DUP4 ADD MSTORE PUSH3 0x190 DUP2 PUSH3 0x14E JUMP JUMPDEST SWAP1 POP SWAP2 SWAP1 POP JUMP JUMPDEST PUSH1 0x0 PUSH1 0xFF DUP3 AND SWAP1 POP SWAP2 SWAP1 POP JUMP JUMPDEST PUSH3 0x1AF DUP2 PUSH3 0x197 JUMP JUMPDEST DUP3 MSTORE POP POP JUMP JUMPDEST PUSH1 0x0 PUSH1 0x20 DUP3 ADD SWAP1 POP PUSH3 0x1CC PUSH1 0x0 DUP4 ADD DUP5 PUSH3 0x1A4 JUMP JUMPDEST SWAP3 SWAP2 POP POP JUMP JUMPDEST PUSH2 0x56B1 DUP1 PUSH3 0x1E2 PUSH1 0x0 CODECOPY PUSH1 0x0 RETURN INVALID PUSH1 0x80 PUSH1 0x40 MSTORE PUSH1 0x4 CALLDATASIZE LT PUSH2 0x1C2 JUMPI PUSH1 0x0 CALLDATALOAD PUSH1 0xE0 SHR DUP1 PUSH4 0x7C9E9FFB GT PUSH2 0xF7 JUMPI DUP1 PUSH4 0xC7BA0347 GT PUSH2 0x95 JUMPI DUP1 PUSH4 0xE5D3D714 GT PUSH2 0x64 JUMPI DUP1 PUSH4 0xE5D3D714 EQ PUSH2 0x600 JUMPI DUP1 PUSH4 0xE78CEA92 EQ PUSH2 0x62B JUMPI DUP1 PUSH4 0xF11DF69D EQ PUSH2 0x656 JUMPI DUP1 PUSH4 0xF2FDE38B EQ PUSH2 0x681 JUMPI PUSH2 0x1C2 JUMP JUMPDEST DUP1 PUSH4 0xC7BA0347 EQ PUSH2 0x554 JUMPI DUP1 PUSH4 0xC81EF168 EQ PUSH2 0x57F JUMPI DUP1 PUSH4 0xD6AE3CD5 EQ PUSH2 0x5AA JUMPI DUP1 PUSH4 0xDA25B725 EQ PUSH2 0x5D5 JUMPI PUSH2 0x1C2 JUMP JUMPDEST DUP1 PUSH4 0x9E0E4E2F GT PUSH2 0xD1 JUMPI DUP1 PUSH4 0x9E0E4E2F EQ PUSH2 0x498 JUMPI DUP1 PUSH4 0xAA82E33B EQ PUSH2 0x4C1 JUMPI DUP1 PUSH4 0xB02C43D0 EQ PUSH2 0x4EC JUMPI DUP1 PUSH4 0xC09975CD EQ PUSH2 0x529 JUMPI PUSH2 0x1C2 JUMP JUMPDEST DUP1 PUSH4 0x7C9E9FFB EQ PUSH2 0x404 JUMPI DUP1 PUSH4 0x84ACD1BB EQ PUSH2 0x442 JUMPI DUP1 PUSH4 0x8DA5CB5B EQ PUSH2 0x46D JUMPI PUSH2 0x1C2 JUMP JUMPDEST DUP1 PUSH4 0x60EC23DD GT PUSH2 0x164 JUMPI DUP1 PUSH4 0x715018A6 GT PUSH2 0x13E JUMPI DUP1 PUSH4 0x715018A6 EQ PUSH2 0x370 JUMPI DUP1 PUSH4 0x71546831 EQ PUSH2 0x387 JUMPI DUP1 PUSH4 0x71C654EE EQ PUSH2 0x3B2 JUMPI DUP1 PUSH4 0x7B35B4E6 EQ PUSH2 0x3DB JUMPI PUSH2 0x1C2 JUMP JUMPDEST DUP1 PUSH4 0x60EC23DD EQ PUSH2 0x2E1 JUMPI DUP1 PUSH4 0x642DC033 EQ PUSH2 0x30A JUMPI DUP1 PUSH4 0x66B58A01 EQ PUSH2 0x333 JUMPI PUSH2 0x1C2 JUMP JUMPDEST DUP1 PUSH4 0x1159BEF0 GT PUSH2 0x1A0 JUMPI DUP1 PUSH4 0x1159BEF0 EQ PUSH2 0x246 JUMPI DUP1 PUSH4 0x13B38CCE EQ PUSH2 0x26F JUMPI DUP1 PUSH4 0x27CE36C6 EQ PUSH2 0x29A JUMPI DUP1 PUSH4 0x46D9D49A EQ PUSH2 0x2C5 JUMPI PUSH2 0x1C2 JUMP JUMPDEST DUP1 PUSH4 0x515F0C1 EQ PUSH2 0x1C7 JUMPI DUP1 PUSH4 0xF36403A EQ PUSH2 0x1F0 JUMPI DUP1 PUSH4 0xFA1BA44 EQ PUSH2 0x21B JUMPI JUMPDEST PUSH1 0x0 DUP1 REVERT JUMPDEST CALLVALUE DUP1 ISZERO PUSH2 0x1D3 JUMPI PUSH1 0x0 DUP1 REVERT JUMPDEST POP PUSH2 0x1EE PUSH1 0x4 DUP1 CALLDATASIZE SUB DUP2 ADD SWAP1 PUSH2 0x1E9 SWAP2 SWAP1 PUSH2 0x3218 JUMP JUMPDEST PUSH2 0x6AA JUMP JUMPDEST STOP JUMPDEST CALLVALUE DUP1 ISZERO PUSH2 0x1FC JUMPI PUSH1 0x0 DUP1 REVERT JUMPDEST POP PUSH2 0x205 PUSH2 0x7F6 JUMP JUMPDEST PUSH1 0x40 MLOAD PUSH2 0x212 SWAP2 SWAP1 PUSH2 0x32A4 JUMP JUMPDEST PUSH1 0x40 MLOAD DUP1 SWAP2 SUB SWAP1 RETURN JUMPDEST CALLVALUE DUP1 ISZERO PUSH2 0x227 JUMPI PUSH1 0x0 DUP1 REVERT JUMPDEST POP PUSH2 0x230 PUSH2 0x81C JUMP JUMPDEST PUSH1 0x40 MLOAD PUSH2 0x23D SWAP2 SWAP1 PUSH2 0x32D8 JUMP JUMPDEST PUSH1 0x40 MLOAD DUP1 SWAP2 SUB SWAP1 RETURN JUMPDEST CALLVALUE DUP1 ISZERO PUSH2 0x252 JUMPI PUSH1 0x0 DUP1 REVERT JUMPDEST POP PUSH2 0x26D PUSH1 0x4 DUP1 CALLDATASIZE SUB DUP2 ADD SWAP1 PUSH2 0x268 SWAP2 SWAP1 PUSH2 0x331F JUMP JUMPDEST PUSH2 0x822 JUMP JUMPDEST STOP JUMPDEST CALLVALUE DUP1 ISZERO PUSH2 0x27B JUMPI PUSH1 0x0 DUP1 REVERT JUMPDEST POP PUSH2 0x284 PUSH2 0x86B JUMP JUMPDEST PUSH1 0x40 MLOAD PUSH2 0x291 SWAP2 SWAP1 PUSH2 0x32D8 JUMP JUMPDEST PUSH1 0x40 MLOAD DUP1 SWAP2 SUB SWAP1 RETURN JUMPDEST CALLVALUE DUP1 ISZERO PUSH2 0x2A6 JUMPI PUSH1 0x0 DUP1 REVERT JUMPDEST POP PUSH2 0x2AF PUSH2 0x90B JUMP JUMPDEST PUSH1 0x40 MLOAD PUSH2 0x2BC SWAP2 SWAP1 PUSH2 0x32D8 JUMP JUMPDEST PUSH1 0x40 MLOAD DUP1 SWAP2 SUB SWAP1 RETURN JUMPDEST PUSH2 0x2DF PUSH1 0x4 DUP1 CALLDATASIZE SUB DUP2 ADD SWAP1 PUSH2 0x2DA SWAP2 SWAP1 PUSH2 0x331F JUMP JUMPDEST PUSH2 0x911 JUMP JUMPDEST STOP JUMPDEST CALLVALUE DUP1 ISZERO PUSH2 0x2ED JUMPI PUSH1 0x0 DUP1 REVERT JUMPDEST POP PUSH2 0x308 PUSH1 0x4 DUP1 CALLDATASIZE SUB DUP2 ADD SWAP1 PUSH2 0x303 SWAP2 SWAP1 PUSH2 0x3384 JUMP JUMPDEST PUSH2 0xDBB JUMP JUMPDEST STOP JUMPDEST CALLVALUE DUP1 ISZERO PUSH2 0x316 JUMPI PUSH1 0x0 DUP1 REVERT JUMPDEST POP PUSH2 0x331 PUSH1 0x4 DUP1 CALLDATASIZE SUB DUP2 ADD SWAP1 PUSH2 0x32C SWAP2 SWAP1 PUSH2 0x3407 JUMP JUMPDEST PUSH2 0xE6C JUMP JUMPDEST STOP JUMPDEST CALLVALUE DUP1 ISZERO PUSH2 0x33F JUMPI PUSH1 0x0 DUP1 REVERT JUMPDEST POP PUSH2 0x35A PUSH1 0x4 DUP1 CALLDATASIZE SUB DUP2 ADD SWAP1 PUSH2 0x355 SWAP2 SWAP1 PUSH2 0x3218 JUMP JUMPDEST PUSH2 0x11F5 JUMP JUMPDEST PUSH1 0x40 MLOAD PUSH2 0x367 SWAP2 SWAP1 PUSH2 0x3486 JUMP JUMPDEST PUSH1 0x40 MLOAD DUP1 SWAP2 SUB SWAP1 RETURN JUMPDEST CALLVALUE DUP1 ISZERO PUSH2 0x37C JUMPI PUSH1 0x0 DUP1 REVERT JUMPDEST POP PUSH2 0x385 PUSH2 0x1215 JUMP JUMPDEST STOP JUMPDEST CALLVALUE DUP1 ISZERO PUSH2 0x393 JUMPI PUSH1 0x0 DUP1 REVERT JUMPDEST POP PUSH2 0x39C PUSH2 0x1229 JUMP JUMPDEST PUSH1 0x40 MLOAD PUSH2 0x3A9 SWAP2 SWAP1 PUSH2 0x32D8 JUMP JUMPDEST PUSH1 0x40 MLOAD DUP1 SWAP2 SUB SWAP1 RETURN JUMPDEST CALLVALUE DUP1 ISZERO PUSH2 0x3BE JUMPI PUSH1 0x0 DUP1 REVERT JUMPDEST POP PUSH2 0x3D9 PUSH1 0x4 DUP1 CALLDATASIZE SUB DUP2 ADD SWAP1 PUSH2 0x3D4 SWAP2 SWAP1 PUSH2 0x34DB JUMP JUMPDEST PUSH2 0x122F JUMP JUMPDEST STOP JUMPDEST CALLVALUE DUP1 ISZERO PUSH2 0x3E7 JUMPI PUSH1 0x0 DUP1 REVERT JUMPDEST POP PUSH2 0x402 PUSH1 0x4 DUP1 CALLDATASIZE SUB DUP2 ADD SWAP1 PUSH2 0x3FD SWAP2 SWAP1 PUSH2 0x35CD JUMP JUMPDEST PUSH2 0x1726 JUMP JUMPDEST STOP JUMPDEST CALLVALUE DUP1 ISZERO PUSH2 0x410 JUMPI PUSH1 0x0 DUP1 REVERT JUMPDEST POP PUSH2 0x42B PUSH1 0x4 DUP1 CALLDATASIZE SUB DUP2 ADD SWAP1 PUSH2 0x426 SWAP2 SWAP1 PUSH2 0x331F JUMP JUMPDEST PUSH2 0x1816 JUMP JUMPDEST PUSH1 0x40 MLOAD PUSH2 0x439 SWAP3 SWAP2 SWAP1 PUSH2 0x3630 JUMP JUMPDEST PUSH1 0x40 MLOAD DUP1 SWAP2 SUB SWAP1 RETURN JUMPDEST CALLVALUE DUP1 ISZERO PUSH2 0x44E JUMPI PUSH1 0x0 DUP1 REVERT JUMPDEST POP PUSH2 0x457 PUSH2 0x1872 JUMP JUMPDEST PUSH1 0x40 MLOAD PUSH2 0x464 SWAP2 SWAP1 PUSH2 0x367A JUMP JUMPDEST PUSH1 0x40 MLOAD DUP1 SWAP2 SUB SWAP1 RETURN JUMPDEST CALLVALUE DUP1 ISZERO PUSH2 0x479 JUMPI PUSH1 0x0 DUP1 REVERT JUMPDEST POP PUSH2 0x482 PUSH2 0x1898 JUMP JUMPDEST PUSH1 0x40 MLOAD PUSH2 0x48F SWAP2 SWAP1 PUSH2 0x3695 JUMP JUMPDEST PUSH1 0x40 MLOAD DUP1 SWAP2 SUB SWAP1 RETURN JUMPDEST CALLVALUE DUP1 ISZERO PUSH2 0x4A4 JUMPI PUSH1 0x0 DUP1 REVERT JUMPDEST POP PUSH2 0x4BF PUSH1 0x4 DUP1 CALLDATASIZE SUB DUP2 ADD SWAP1 PUSH2 0x4BA SWAP2 SWAP1 PUSH2 0x36B0 JUMP JUMPDEST PUSH2 0x18C2 JUMP JUMPDEST STOP JUMPDEST CALLVALUE DUP1 ISZERO PUSH2 0x4CD JUMPI PUSH1 0x0 DUP1 REVERT JUMPDEST POP PUSH2 0x4D6 PUSH2 0x1915 JUMP JUMPDEST PUSH1 0x40 MLOAD PUSH2 0x4E3 SWAP2 SWAP1 PUSH2 0x3695 JUMP JUMPDEST PUSH1 0x40 MLOAD DUP1 SWAP2 SUB SWAP1 RETURN JUMPDEST CALLVALUE DUP1 ISZERO PUSH2 0x4F8 JUMPI PUSH1 0x0 DUP1 REVERT JUMPDEST POP PUSH2 0x513 PUSH1 0x4 DUP1 CALLDATASIZE SUB DUP2 ADD SWAP1 PUSH2 0x50E SWAP2 SWAP1 PUSH2 0x331F JUMP JUMPDEST PUSH2 0x193B JUMP JUMPDEST PUSH1 0x40 MLOAD PUSH2 0x520 SWAP2 SWAP1 PUSH2 0x3767 JUMP JUMPDEST PUSH1 0x40 MLOAD DUP1 SWAP2 SUB SWAP1 RETURN JUMPDEST CALLVALUE DUP1 ISZERO PUSH2 0x535 JUMPI PUSH1 0x0 DUP1 REVERT JUMPDEST POP PUSH2 0x53E PUSH2 0x195B JUMP JUMPDEST PUSH1 0x40 MLOAD PUSH2 0x54B SWAP2 SWAP1 PUSH2 0x37B5 JUMP JUMPDEST PUSH1 0x40 MLOAD DUP1 SWAP2 SUB SWAP1 RETURN JUMPDEST CALLVALUE DUP1 ISZERO PUSH2 0x560 JUMPI PUSH1 0x0 DUP1 REVERT JUMPDEST POP PUSH2 0x569 PUSH2 0x1981 JUMP JUMPDEST PUSH1 0x40 MLOAD PUSH2 0x576 SWAP2 SWAP1 PUSH2 0x32D8 JUMP JUMPDEST PUSH1 0x40 MLOAD DUP1 SWAP2 SUB SWAP1 RETURN JUMPDEST CALLVALUE DUP1 ISZERO PUSH2 0x58B JUMPI PUSH1 0x0 DUP1 REVERT JUMPDEST POP PUSH2 0x594 PUSH2 0x198A JUMP JUMPDEST PUSH1 0x40 MLOAD PUSH2 0x5A1 SWAP2 SWAP1 PUSH2 0x3695 JUMP JUMPDEST PUSH1 0x40 MLOAD DUP1 SWAP2 SUB SWAP1 RETURN JUMPDEST CALLVALUE DUP1 ISZERO PUSH2 0x5B6 JUMPI PUSH1 0x0 DUP1 REVERT JUMPDEST POP PUSH2 0x5BF PUSH2 0x19B0 JUMP JUMPDEST PUSH1 0x40 MLOAD PUSH2 0x5CC SWAP2 SWAP1 PUSH2 0x37DF JUMP JUMPDEST PUSH1 0x40 MLOAD DUP1 SWAP2 SUB SWAP1 RETURN JUMPDEST CALLVALUE DUP1 ISZERO PUSH2 0x5E1 JUMPI PUSH1 0x0 DUP1 REVERT JUMPDEST POP PUSH2 0x5EA PUSH2 0x19C4 JUMP JUMPDEST PUSH1 0x40 MLOAD PUSH2 0x5F7 SWAP2 SWAP1 PUSH2 0x381B JUMP JUMPDEST PUSH1 0x40 MLOAD DUP1 SWAP2 SUB SWAP1 RETURN JUMPDEST CALLVALUE DUP1 ISZERO PUSH2 0x60C JUMPI PUSH1 0x0 DUP1 REVERT JUMPDEST POP PUSH2 0x615 PUSH2 0x19EA JUMP JUMPDEST PUSH1 0x40 MLOAD PUSH2 0x622 SWAP2 SWAP1 PUSH2 0x3857 JUMP JUMPDEST PUSH1 0x40 MLOAD DUP1 SWAP2 SUB SWAP1 RETURN JUMPDEST CALLVALUE DUP1 ISZERO PUSH2 0x637 JUMPI PUSH1 0x0 DUP1 REVERT JUMPDEST POP PUSH2 0x640 PUSH2 0x1A10 JUMP JUMPDEST PUSH1 0x40 MLOAD PUSH2 0x64D SWAP2 SWAP1 PUSH2 0x3893 JUMP JUMPDEST PUSH1 0x40 MLOAD DUP1 SWAP2 SUB SWAP1 RETURN JUMPDEST CALLVALUE DUP1 ISZERO PUSH2 0x662 JUMPI PUSH1 0x0 DUP1 REVERT JUMPDEST POP PUSH2 0x66B PUSH2 0x1A36 JUMP JUMPDEST PUSH1 0x40 MLOAD PUSH2 0x678 SWAP2 SWAP1 PUSH2 0x38CF JUMP JUMPDEST PUSH1 0x40 MLOAD DUP1 SWAP2 SUB SWAP1 RETURN JUMPDEST CALLVALUE DUP1 ISZERO PUSH2 0x68D JUMPI PUSH1 0x0 DUP1 REVERT JUMPDEST POP PUSH2 0x6A8 PUSH1 0x4 DUP1 CALLDATASIZE SUB DUP2 ADD SWAP1 PUSH2 0x6A3 SWAP2 SWAP1 PUSH2 0x3218 JUMP JUMPDEST PUSH2 0x1A5C JUMP JUMPDEST STOP JUMPDEST PUSH2 0x6B2 PUSH2 0x1ADF JUMP JUMPDEST PUSH1 0x0 PUSH20 0xFFFFFFFFFFFFFFFFFFFFFFFFFFFFFFFFFFFFFFFF AND PUSH1 0xCD PUSH1 0x0 SWAP1 SLOAD SWAP1 PUSH2 0x100 EXP SWAP1 DIV PUSH20 0xFFFFFFFFFFFFFFFFFFFFFFFFFFFFFFFFFFFFFFFF AND PUSH20 0xFFFFFFFFFFFFFFFFFFFFFFFFFFFFFFFFFFFFFFFF AND EQ PUSH2 0x743 JUMPI PUSH1 0x40 MLOAD PUSH32 0x8C379A000000000000000000000000000000000000000000000000000000000 DUP2 MSTORE PUSH1 0x4 ADD PUSH2 0x73A SWAP1 PUSH2 0x3947 JUMP JUMPDEST PUSH1 0x40 MLOAD DUP1 SWAP2 SUB SWAP1 REVERT JUMPDEST PUSH1 0x0 PUSH20 0xFFFFFFFFFFFFFFFFFFFFFFFFFFFFFFFFFFFFFFFF AND DUP2 PUSH20 0xFFFFFFFFFFFFFFFFFFFFFFFFFFFFFFFFFFFFFFFF AND SUB PUSH2 0x7B2 JUMPI PUSH1 0x40 MLOAD PUSH32 0x8C379A000000000000000000000000000000000000000000000000000000000 DUP2 MSTORE PUSH1 0x4 ADD PUSH2 0x7A9 SWAP1 PUSH2 0x39D9 JUMP JUMPDEST PUSH1 0x40 MLOAD DUP1 SWAP2 SUB SWAP1 REVERT JUMPDEST DUP1 PUSH1 0xCD PUSH1 0x0 PUSH2 0x100 EXP DUP2 SLOAD DUP2 PUSH20 0xFFFFFFFFFFFFFFFFFFFFFFFFFFFFFFFFFFFFFFFF MUL NOT AND SWAP1 DUP4 PUSH20 0xFFFFFFFFFFFFFFFFFFFFFFFFFFFFFFFFFFFFFFFF AND MUL OR SWAP1 SSTORE POP POP JUMP JUMPDEST PUSH1 0x1 PUSH1 0x0 SWAP1 SLOAD SWAP1 PUSH2 0x100 EXP SWAP1 DIV PUSH20 0xFFFFFFFFFFFFFFFFFFFFFFFFFFFFFFFFFFFFFFFF AND DUP2 JUMP JUMPDEST PUSH1 0xD1 SLOAD DUP2 JUMP JUMPDEST PUSH2 0x82A PUSH2 0x1ADF JUMP JUMPDEST DUP1 PUSH1 0xCE DUP2 SWAP1 SSTORE POP PUSH32 0x6ED5A3DDEDC64E149E68B8BBC09D35489452528AE70487EE4F8832837C5C0105 DUP2 PUSH1 0x40 MLOAD PUSH2 0x860 SWAP2 SWAP1 PUSH2 0x32D8 JUMP JUMPDEST PUSH1 0x40 MLOAD DUP1 SWAP2 SUB SWAP1 LOG1 POP JUMP JUMPDEST PUSH1 0x0 PUSH2 0x906 PUSH1 0xC9 PUSH1 0x0 SWAP1 SLOAD SWAP1 PUSH2 0x100 EXP SWAP1 DIV PUSH20 0xFFFFFFFFFFFFFFFFFFFFFFFFFFFFFFFFFFFFFFFF AND PUSH20 0xFFFFFFFFFFFFFFFFFFFFFFFFFFFFFFFFFFFFFFFF AND PUSH4 0x1A90A219 PUSH1 0x40 MLOAD DUP2 PUSH4 0xFFFFFFFF AND PUSH1 0xE0 SHL DUP2 MSTORE PUSH1 0x4 ADD PUSH1 0x20 PUSH1 0x40 MLOAD DUP1 DUP4 SUB DUP2 DUP7 GAS STATICCALL ISZERO DUP1 ISZERO PUSH2 0x8DD JUMPI RETURNDATASIZE PUSH1 0x0 DUP1 RETURNDATACOPY RETURNDATASIZE PUSH1 0x0 REVERT JUMPDEST POP POP POP POP PUSH1 0x40 MLOAD RETURNDATASIZE PUSH1 0x1F NOT PUSH1 0x1F DUP3 ADD AND DUP3 ADD DUP1 PUSH1 0x40 MSTORE POP DUP2 ADD SWAP1 PUSH2 0x901 SWAP2 SWAP1 PUSH2 0x3A0E JUMP JUMPDEST PUSH2 0x1B5D JUMP JUMPDEST SWAP1 POP SWAP1 JUMP JUMPDEST PUSH1 0xD0 SLOAD DUP2 JUMP JUMPDEST PUSH1 0x0 GAS SWAP1 POP PUSH1 0x1 PUSH1 0x2 DUP2 GT ISZERO PUSH2 0x92A JUMPI PUSH2 0x929 PUSH2 0x36F0 JUMP JUMPDEST JUMPDEST PUSH1 0xC7 PUSH1 0x0 DUP5 DUP2 MSTORE PUSH1 0x20 ADD SWAP1 DUP2 MSTORE PUSH1 0x20 ADD PUSH1 0x0 KECCAK256 PUSH1 0x0 SWAP1 SLOAD SWAP1 PUSH2 0x100 EXP SWAP1 DIV PUSH1 0xFF AND PUSH1 0x2 DUP2 GT ISZERO PUSH2 0x95D JUMPI PUSH2 0x95C PUSH2 0x36F0 JUMP JUMPDEST JUMPDEST EQ PUSH2 0x99D JUMPI PUSH1 0x40 MLOAD PUSH32 0x8C379A000000000000000000000000000000000000000000000000000000000 DUP2 MSTORE PUSH1 0x4 ADD PUSH2 0x994 SWAP1 PUSH2 0x3A87 JUMP JUMPDEST PUSH1 0x40 MLOAD DUP1 SWAP2 SUB SWAP1 REVERT JUMPDEST PUSH1 0x2 PUSH1 0xC7 PUSH1 0x0 DUP5 DUP2 MSTORE PUSH1 0x20 ADD SWAP1 DUP2 MSTORE PUSH1 0x20 ADD PUSH1 0x0 KECCAK256 PUSH1 0x0 PUSH2 0x100 EXP DUP2 SLOAD DUP2 PUSH1 0xFF MUL NOT AND SWAP1 DUP4 PUSH1 0x2 DUP2 GT ISZERO PUSH2 0x9D4 JUMPI PUSH2 0x9D3 PUSH2 0x36F0 JUMP JUMPDEST JUMPDEST MUL OR SWAP1 SSTORE POP PUSH1 0x0 DUP1 PUSH1 0x0 PUSH2 0x9E7 DUP6 PUSH2 0x1C29 JUMP JUMPDEST SWAP3 POP SWAP3 POP SWAP3 POP CALLER PUSH20 0xFFFFFFFFFFFFFFFFFFFFFFFFFFFFFFFFFFFFFFFF AND PUSH2 0xA0D DUP3 PUSH2 0x1E65 JUMP JUMPDEST PUSH20 0xFFFFFFFFFFFFFFFFFFFFFFFFFFFFFFFFFFFFFFFF AND DUP7 PUSH32 0x94D36BC0D9BF5ADBD2DEC8BD125B7BF12EECC6E5539FC8F2BD57A831D9995AF7 DUP7 DUP7 PUSH1 0x40 MLOAD PUSH2 0xA55 SWAP3 SWAP2 SWAP1 PUSH2 0x3AA7 JUMP JUMPDEST PUSH1 0x40 MLOAD DUP1 SWAP2 SUB SWAP1 LOG4 PUSH2 0xA67 DUP3 DUP3 PUSH2 0x1E72 JUMP JUMPDEST PUSH1 0x0 PUSH20 0xFFFFFFFFFFFFFFFFFFFFFFFFFFFFFFFFFFFFFFFF AND PUSH1 0x95 PUSH1 0x0 SWAP1 SLOAD SWAP1 PUSH2 0x100 EXP SWAP1 DIV PUSH20 0xFFFFFFFFFFFFFFFFFFFFFFFFFFFFFFFFFFFFFFFF AND PUSH20 0xFFFFFFFFFFFFFFFFFFFFFFFFFFFFFFFFFFFFFFFF AND EQ PUSH2 0xDB4 JUMPI PUSH1 0x0 PUSH1 0xCF PUSH1 0x0 DUP8 DUP2 MSTORE PUSH1 0x20 ADD SWAP1 DUP2 MSTORE PUSH1 0x20 ADD PUSH1 0x0 KECCAK256 PUSH1 0x40 MLOAD DUP1 PUSH1 0x40 ADD PUSH1 0x40 MSTORE SWAP1 DUP2 PUSH1 0x0 DUP3 ADD PUSH1 0x0 SWAP1 SLOAD SWAP1 PUSH2 0x100 EXP SWAP1 DIV PUSH20 0xFFFFFFFFFFFFFFFFFFFFFFFFFFFFFFFFFFFFFFFF AND PUSH20 0xFFFFFFFFFFFFFFFFFFFFFFFFFFFFFFFFFFFFFFFF AND PUSH20 0xFFFFFFFFFFFFFFFFFFFFFFFFFFFFFFFFFFFFFFFF AND DUP2 MSTORE PUSH1 0x20 ADD PUSH1 0x0 DUP3 ADD PUSH1 0x14 SWAP1 SLOAD SWAP1 PUSH2 0x100 EXP SWAP1 DIV PUSH12 0xFFFFFFFFFFFFFFFFFFFFFFFF AND PUSH12 0xFFFFFFFFFFFFFFFFFFFFFFFF AND PUSH12 0xFFFFFFFFFFFFFFFFFFFFFFFF AND DUP2 MSTORE POP POP SWAP1 POP PUSH1 0x0 PUSH20 0xFFFFFFFFFFFFFFFFFFFFFFFFFFFFFFFFFFFFFFFF AND DUP2 PUSH1 0x0 ADD MLOAD PUSH20 0xFFFFFFFFFFFFFFFFFFFFFFFFFFFFFFFFFFFFFFFF AND EQ PUSH2 0xC9F JUMPI PUSH1 0xCF PUSH1 0x0 DUP8 DUP2 MSTORE PUSH1 0x20 ADD SWAP1 DUP2 MSTORE PUSH1 0x20 ADD PUSH1 0x0 KECCAK256 PUSH1 0x0 DUP1 DUP3 ADD PUSH1 0x0 PUSH2 0x100 EXP DUP2 SLOAD SWAP1 PUSH20 0xFFFFFFFFFFFFFFFFFFFFFFFFFFFFFFFFFFFFFFFF MUL NOT AND SWAP1 SSTORE PUSH1 0x0 DUP3 ADD PUSH1 0x14 PUSH2 0x100 EXP DUP2 SLOAD SWAP1 PUSH12 0xFFFFFFFFFFFFFFFFFFFFFFFF MUL NOT AND SWAP1 SSTORE POP POP PUSH1 0x95 PUSH1 0x0 SWAP1 SLOAD SWAP1 PUSH2 0x100 EXP SWAP1 DIV PUSH20 0xFFFFFFFFFFFFFFFFFFFFFFFFFFFFFFFFFFFFFFFF AND PUSH20 0xFFFFFFFFFFFFFFFFFFFFFFFFFFFFFFFFFFFFFFFF AND PUSH4 0x7AD226DC DUP3 PUSH1 0x20 ADD MLOAD DUP4 PUSH1 0x0 ADD MLOAD PUSH1 0x40 MLOAD DUP4 PUSH4 0xFFFFFFFF AND PUSH1 0xE0 SHL DUP2 MSTORE PUSH1 0x4 ADD PUSH2 0xC6C SWAP3 SWAP2 SWAP1 PUSH2 0x3B01 JUMP JUMPDEST PUSH1 0x0 PUSH1 0x40 MLOAD DUP1 DUP4 SUB DUP2 PUSH1 0x0 DUP8 DUP1 EXTCODESIZE ISZERO DUP1 ISZERO PUSH2 0xC86 JUMPI PUSH1 0x0 DUP1 REVERT JUMPDEST POP GAS CALL ISZERO DUP1 ISZERO PUSH2 0xC9A JUMPI RETURNDATASIZE PUSH1 0x0 DUP1 RETURNDATACOPY RETURNDATASIZE PUSH1 0x0 REVERT JUMPDEST POP POP POP POP JUMPDEST PUSH1 0xD2 PUSH1 0x0 CALLER PUSH20 0xFFFFFFFFFFFFFFFFFFFFFFFFFFFFFFFFFFFFFFFF AND PUSH20 0xFFFFFFFFFFFFFFFFFFFFFFFFFFFFFFFFFFFFFFFF AND DUP2 MSTORE PUSH1 0x20 ADD SWAP1 DUP2 MSTORE PUSH1 0x20 ADD PUSH1 0x0 KECCAK256 PUSH1 0x0 SWAP1 SLOAD SWAP1 PUSH2 0x100 EXP SWAP1 DIV PUSH1 0xFF AND ISZERO PUSH2 0xDB2 JUMPI PUSH1 0x0 PUSH2 0xCFC CALLVALUE PUSH2 0x23AC JUMP JUMPDEST SWAP1 POP PUSH1 0x95 PUSH1 0x0 SWAP1 SLOAD SWAP1 PUSH2 0x100 EXP SWAP1 DIV PUSH20 0xFFFFFFFFFFFFFFFFFFFFFFFFFFFFFFFFFFFFFFFF AND PUSH20 0xFFFFFFFFFFFFFFFFFFFFFFFFFFFFFFFFFFFFFFFF AND PUSH4 0x7AD226DC PUSH1 0xD1 SLOAD DUP4 GAS DUP11 PUSH2 0xD4C SWAP2 SWAP1 PUSH2 0x3B59 JUMP JUMPDEST PUSH2 0xD56 SWAP2 SWAP1 PUSH2 0x3B8D JUMP JUMPDEST PUSH2 0xD60 SWAP2 SWAP1 PUSH2 0x3B8D JUMP JUMPDEST CALLER PUSH1 0x40 MLOAD DUP4 PUSH4 0xFFFFFFFF AND PUSH1 0xE0 SHL DUP2 MSTORE PUSH1 0x4 ADD PUSH2 0xD7E SWAP3 SWAP2 SWAP1 PUSH2 0x3BC1 JUMP JUMPDEST PUSH1 0x0 PUSH1 0x40 MLOAD DUP1 DUP4 SUB DUP2 PUSH1 0x0 DUP8 DUP1 EXTCODESIZE ISZERO DUP1 ISZERO PUSH2 0xD98 JUMPI PUSH1 0x0 DUP1 REVERT JUMPDEST POP GAS CALL ISZERO DUP1 ISZERO PUSH2 0xDAC JUMPI RETURNDATASIZE PUSH1 0x0 DUP1 RETURNDATACOPY RETURNDATASIZE PUSH1 0x0 REVERT JUMPDEST POP POP POP POP POP JUMPDEST POP JUMPDEST POP POP POP POP POP JUMP JUMPDEST PUSH2 0xDC3 PUSH2 0x1ADF JUMP JUMPDEST DUP2 PUSH20 0xFFFFFFFFFFFFFFFFFFFFFFFFFFFFFFFFFFFFFFFF AND PUSH32 0x1FFF4AAE494AAEDFF71FF8B04DE50A56543BB83CE05B033C3FB4A93E065C05FC DUP3 PUSH1 0x40 MLOAD PUSH2 0xE09 SWAP2 SWAP1 PUSH2 0x3486 JUMP JUMPDEST PUSH1 0x40 MLOAD DUP1 SWAP2 SUB SWAP1 LOG2 DUP1 PUSH1 0xD2 PUSH1 0x0 DUP5 PUSH20 0xFFFFFFFFFFFFFFFFFFFFFFFFFFFFFFFFFFFFFFFF AND PUSH20 0xFFFFFFFFFFFFFFFFFFFFFFFFFFFFFFFFFFFFFFFF AND DUP2 MSTORE PUSH1 0x20 ADD SWAP1 DUP2 MSTORE PUSH1 0x20 ADD PUSH1 0x0 KECCAK256 PUSH1 0x0 PUSH2 0x100 EXP DUP2 SLOAD DUP2 PUSH1 0xFF MUL NOT AND SWAP1 DUP4 ISZERO ISZERO MUL OR SWAP1 SSTORE POP POP POP JUMP JUMPDEST PUSH1 0x0 GAS SWAP1 POP PUSH1 0x0 PUSH20 0xFFFFFFFFFFFFFFFFFFFFFFFFFFFFFFFFFFFFFFFF AND DUP3 PUSH20 0xFFFFFFFFFFFFFFFFFFFFFFFFFFFFFFFFFFFFFFFF AND SUB PUSH2 0xEE0 JUMPI PUSH1 0x40 MLOAD PUSH32 0x8C379A000000000000000000000000000000000000000000000000000000000 DUP2 MSTORE PUSH1 0x4 ADD PUSH2 0xED7 SWAP1 PUSH2 0x3C36 JUMP JUMPDEST PUSH1 0x40 MLOAD DUP1 SWAP2 SUB SWAP1 REVERT JUMPDEST PUSH1 0x0 PUSH2 0xEEB DUP4 PUSH2 0x253B JUMP JUMPDEST SWAP1 POP PUSH1 0x0 PUSH2 0xF13 DUP7 PUSH2 0xEFC SWAP1 PUSH2 0x3EAE JUMP JUMPDEST DUP7 DUP1 CALLDATASIZE SUB DUP2 ADD SWAP1 PUSH2 0xF0D SWAP2 SWAP1 PUSH2 0x404D JUMP JUMPDEST DUP5 PUSH2 0x255E JUMP JUMPDEST POP SWAP1 POP PUSH1 0x0 PUSH1 0x2 DUP2 GT ISZERO PUSH2 0xF2A JUMPI PUSH2 0xF29 PUSH2 0x36F0 JUMP JUMPDEST JUMPDEST PUSH1 0xC7 PUSH1 0x0 DUP4 DUP2 MSTORE PUSH1 0x20 ADD SWAP1 DUP2 MSTORE PUSH1 0x20 ADD PUSH1 0x0 KECCAK256 PUSH1 0x0 SWAP1 SLOAD SWAP1 PUSH2 0x100 EXP SWAP1 DIV PUSH1 0xFF AND PUSH1 0x2 DUP2 GT ISZERO PUSH2 0xF5D JUMPI PUSH2 0xF5C PUSH2 0x36F0 JUMP JUMPDEST JUMPDEST EQ PUSH2 0xF9D JUMPI PUSH1 0x40 MLOAD PUSH32 0x8C379A000000000000000000000000000000000000000000000000000000000 DUP2 MSTORE PUSH1 0x4 ADD PUSH2 0xF94 SWAP1 PUSH2 0x3A87 JUMP JUMPDEST PUSH1 0x40 MLOAD DUP1 SWAP2 SUB SWAP1 REVERT JUMPDEST PUSH1 0x1 PUSH1 0xC7 PUSH1 0x0 DUP4 DUP2 MSTORE PUSH1 0x20 ADD SWAP1 DUP2 MSTORE PUSH1 0x20 ADD PUSH1 0x0 KECCAK256 PUSH1 0x0 PUSH2 0x100 EXP DUP2 SLOAD DUP2 PUSH1 0xFF MUL NOT AND SWAP1 DUP4 PUSH1 0x2 DUP2 GT ISZERO PUSH2 0xFD4 JUMPI PUSH2 0xFD3 PUSH2 0x36F0 JUMP JUMPDEST JUMPDEST MUL OR SWAP1 SSTORE POP CALLER PUSH20 0xFFFFFFFFFFFFFFFFFFFFFFFFFFFFFFFFFFFFFFFF AND DUP5 PUSH20 0xFFFFFFFFFFFFFFFFFFFFFFFFFFFFFFFFFFFFFFFF AND DUP3 PUSH32 0x4870363995D5B750BCCCA9D95E57044D630524AEC2EF09EBDB820AC11D866B4 PUSH1 0x40 MLOAD PUSH1 0x40 MLOAD DUP1 SWAP2 SUB SWAP1 LOG4 PUSH1 0x0 PUSH20 0xFFFFFFFFFFFFFFFFFFFFFFFFFFFFFFFFFFFFFFFF AND PUSH1 0x95 PUSH1 0x0 SWAP1 SLOAD SWAP1 PUSH2 0x100 EXP SWAP1 DIV PUSH20 0xFFFFFFFFFFFFFFFFFFFFFFFFFFFFFFFFFFFFFFFF AND PUSH20 0xFFFFFFFFFFFFFFFFFFFFFFFFFFFFFFFFFFFFFFFF AND EQ ISZERO DUP1 ISZERO PUSH2 0x10DC JUMPI POP PUSH1 0xD2 PUSH1 0x0 CALLER PUSH20 0xFFFFFFFFFFFFFFFFFFFFFFFFFFFFFFFFFFFFFFFF AND PUSH20 0xFFFFFFFFFFFFFFFFFFFFFFFFFFFFFFFFFFFFFFFF AND DUP2 MSTORE PUSH1 0x20 ADD SWAP1 DUP2 MSTORE PUSH1 0x20 ADD PUSH1 0x0 KECCAK256 PUSH1 0x0 SWAP1 SLOAD SWAP1 PUSH2 0x100 EXP SWAP1 DIV PUSH1 0xFF AND JUMPDEST ISZERO PUSH2 0x11EC JUMPI PUSH1 0x0 PUSH1 0xD0 SLOAD GAS DUP6 PUSH2 0x10F2 SWAP2 SWAP1 PUSH2 0x3B59 JUMP JUMPDEST PUSH2 0x10FC SWAP2 SWAP1 PUSH2 0x3B8D JUMP JUMPDEST SWAP1 POP PUSH12 0xFFFFFFFFFFFFFFFFFFFFFFFF DUP1 AND DUP2 GT ISZERO PUSH2 0x111D JUMPI POP POP POP POP PUSH2 0x11F0 JUMP JUMPDEST PUSH1 0x40 MLOAD DUP1 PUSH1 0x40 ADD PUSH1 0x40 MSTORE DUP1 CALLER PUSH20 0xFFFFFFFFFFFFFFFFFFFFFFFFFFFFFFFFFFFFFFFF AND DUP2 MSTORE PUSH1 0x20 ADD DUP3 PUSH12 0xFFFFFFFFFFFFFFFFFFFFFFFF AND DUP2 MSTORE POP PUSH1 0xCF PUSH1 0x0 DUP5 DUP2 MSTORE PUSH1 0x20 ADD SWAP1 DUP2 MSTORE PUSH1 0x20 ADD PUSH1 0x0 KECCAK256 PUSH1 0x0 DUP3 ADD MLOAD DUP2 PUSH1 0x0 ADD PUSH1 0x0 PUSH2 0x100 EXP DUP2 SLOAD DUP2 PUSH20 0xFFFFFFFFFFFFFFFFFFFFFFFFFFFFFFFFFFFFFFFF MUL NOT AND SWAP1 DUP4 PUSH20 0xFFFFFFFFFFFFFFFFFFFFFFFFFFFFFFFFFFFFFFFF AND MUL OR SWAP1 SSTORE POP PUSH1 0x20 DUP3 ADD MLOAD DUP2 PUSH1 0x0 ADD PUSH1 0x14 PUSH2 0x100 EXP DUP2 SLOAD DUP2 PUSH12 0xFFFFFFFFFFFFFFFFFFFFFFFF MUL NOT AND SWAP1 DUP4 PUSH12 0xFFFFFFFFFFFFFFFFFFFFFFFF AND MUL OR SWAP1 SSTORE POP SWAP1 POP POP POP JUMPDEST POP POP POP JUMPDEST POP POP POP JUMP JUMPDEST PUSH1 0xD2 PUSH1 0x20 MSTORE DUP1 PUSH1 0x0 MSTORE PUSH1 0x40 PUSH1 0x0 KECCAK256 PUSH1 0x0 SWAP2 POP SLOAD SWAP1 PUSH2 0x100 EXP SWAP1 DIV PUSH1 0xFF AND DUP2 JUMP JUMPDEST PUSH2 0x121D PUSH2 0x1ADF JUMP JUMPDEST PUSH2 0x1227 PUSH1 0x0 PUSH2 0x2762 JUMP JUMPDEST JUMP JUMPDEST PUSH1 0xCE SLOAD DUP2 JUMP JUMPDEST PUSH1 0x0 DUP1 PUSH1 0x1 SWAP1 SLOAD SWAP1 PUSH2 0x100 EXP SWAP1 DIV PUSH1 0xFF AND ISZERO SWAP1 POP DUP1 DUP1 ISZERO PUSH2 0x1260 JUMPI POP PUSH1 0x1 PUSH1 0x0 DUP1 SLOAD SWAP1 PUSH2 0x100 EXP SWAP1 DIV PUSH1 0xFF AND PUSH1 0xFF AND LT JUMPDEST DUP1 PUSH2 0x128D JUMPI POP PUSH2 0x126F ADDRESS PUSH2 0x2828 JUMP JUMPDEST ISZERO DUP1 ISZERO PUSH2 0x128C JUMPI POP PUSH1 0x1 PUSH1 0x0 DUP1 SLOAD SWAP1 PUSH2 0x100 EXP SWAP1 DIV PUSH1 0xFF AND PUSH1 0xFF AND EQ JUMPDEST JUMPDEST PUSH2 0x12CC JUMPI PUSH1 0x40 MLOAD PUSH32 0x8C379A000000000000000000000000000000000000000000000000000000000 DUP2 MSTORE PUSH1 0x4 ADD PUSH2 0x12C3 SWAP1 PUSH2 0x40EC JUMP JUMPDEST PUSH1 0x40 MLOAD DUP1 SWAP2 SUB SWAP1 REVERT JUMPDEST PUSH1 0x1 PUSH1 0x0 DUP1 PUSH2 0x100 EXP DUP2 SLOAD DUP2 PUSH1 0xFF MUL NOT AND SWAP1 DUP4 PUSH1 0xFF AND MUL OR SWAP1 SSTORE POP DUP1 ISZERO PUSH2 0x1309 JUMPI PUSH1 0x1 PUSH1 0x0 PUSH1 0x1 PUSH2 0x100 EXP DUP2 SLOAD DUP2 PUSH1 0xFF MUL NOT AND SWAP1 DUP4 ISZERO ISZERO MUL OR SWAP1 SSTORE POP JUMPDEST PUSH2 0x1313 DUP9 DUP9 PUSH2 0x284B JUMP JUMPDEST PUSH2 0x131B PUSH2 0x2A9A JUMP JUMPDEST PUSH1 0x0 PUSH20 0xFFFFFFFFFFFFFFFFFFFFFFFFFFFFFFFFFFFFFFFF AND DUP7 PUSH20 0xFFFFFFFFFFFFFFFFFFFFFFFFFFFFFFFFFFFFFFFF AND SUB PUSH2 0x138A JUMPI PUSH1 0x40 MLOAD PUSH32 0x8C379A000000000000000000000000000000000000000000000000000000000 DUP2 MSTORE PUSH1 0x4 ADD PUSH2 0x1381 SWAP1 PUSH2 0x4158 JUMP JUMPDEST PUSH1 0x40 MLOAD DUP1 SWAP2 SUB SWAP1 REVERT JUMPDEST PUSH1 0x0 PUSH20 0xFFFFFFFFFFFFFFFFFFFFFFFFFFFFFFFFFFFFFFFF AND DUP6 PUSH20 0xFFFFFFFFFFFFFFFFFFFFFFFFFFFFFFFFFFFFFFFF AND SUB PUSH2 0x13F9 JUMPI PUSH1 0x40 MLOAD PUSH32 0x8C379A000000000000000000000000000000000000000000000000000000000 DUP2 MSTORE PUSH1 0x4 ADD PUSH2 0x13F0 SWAP1 PUSH2 0x41EA JUMP JUMPDEST PUSH1 0x40 MLOAD DUP1 SWAP2 SUB SWAP1 REVERT JUMPDEST PUSH1 0x0 PUSH20 0xFFFFFFFFFFFFFFFFFFFFFFFFFFFFFFFFFFFFFFFF AND DUP5 PUSH20 0xFFFFFFFFFFFFFFFFFFFFFFFFFFFFFFFFFFFFFFFF AND SUB PUSH2 0x1468 JUMPI PUSH1 0x40 MLOAD PUSH32 0x8C379A000000000000000000000000000000000000000000000000000000000 DUP2 MSTORE PUSH1 0x4 ADD PUSH2 0x145F SWAP1 PUSH2 0x427C JUMP JUMPDEST PUSH1 0x40 MLOAD DUP1 SWAP2 SUB SWAP1 REVERT JUMPDEST PUSH1 0x0 PUSH20 0xFFFFFFFFFFFFFFFFFFFFFFFFFFFFFFFFFFFFFFFF AND DUP4 PUSH20 0xFFFFFFFFFFFFFFFFFFFFFFFFFFFFFFFFFFFFFFFF AND SUB PUSH2 0x14D7 JUMPI PUSH1 0x40 MLOAD PUSH32 0x8C379A000000000000000000000000000000000000000000000000000000000 DUP2 MSTORE PUSH1 0x4 ADD PUSH2 0x14CE SWAP1 PUSH2 0x430E JUMP JUMPDEST PUSH1 0x40 MLOAD DUP1 SWAP2 SUB SWAP1 REVERT JUMPDEST DUP7 PUSH20 0xFFFFFFFFFFFFFFFFFFFFFFFFFFFFFFFFFFFFFFFF AND PUSH4 0xE5D3D714 PUSH1 0x40 MLOAD DUP2 PUSH4 0xFFFFFFFF AND PUSH1 0xE0 SHL DUP2 MSTORE PUSH1 0x4 ADD PUSH1 0x20 PUSH1 0x40 MLOAD DUP1 DUP4 SUB DUP2 DUP7 GAS STATICCALL ISZERO DUP1 ISZERO PUSH2 0x1522 JUMPI RETURNDATASIZE PUSH1 0x0 DUP1 RETURNDATACOPY RETURNDATASIZE PUSH1 0x0 REVERT JUMPDEST POP POP POP POP PUSH1 0x40 MLOAD RETURNDATASIZE PUSH1 0x1F NOT PUSH1 0x1F DUP3 ADD AND DUP3 ADD DUP1 PUSH1 0x40 MSTORE POP DUP2 ADD SWAP1 PUSH2 0x1546 SWAP2 SWAP1 PUSH2 0x4343 JUMP JUMPDEST PUSH1 0xC8 PUSH1 0x0 PUSH2 0x100 EXP DUP2 SLOAD DUP2 PUSH20 0xFFFFFFFFFFFFFFFFFFFFFFFFFFFFFFFFFFFFFFFF MUL NOT AND SWAP1 DUP4 PUSH20 0xFFFFFFFFFFFFFFFFFFFFFFFFFFFFFFFFFFFFFFFF AND MUL OR SWAP1 SSTORE POP DUP6 PUSH1 0xC9 PUSH1 0x0 PUSH2 0x100 EXP DUP2 SLOAD DUP2 PUSH20 0xFFFFFFFFFFFFFFFFFFFFFFFFFFFFFFFFFFFFFFFF MUL NOT AND SWAP1 DUP4 PUSH20 0xFFFFFFFFFFFFFFFFFFFFFFFFFFFFFFFFFFFFFFFF AND MUL OR SWAP1 SSTORE POP DUP5 PUSH1 0xCA PUSH1 0x0 PUSH2 0x100 EXP DUP2 SLOAD DUP2 PUSH20 0xFFFFFFFFFFFFFFFFFFFFFFFFFFFFFFFFFFFFFFFF MUL NOT AND SWAP1 DUP4 PUSH20 0xFFFFFFFFFFFFFFFFFFFFFFFFFFFFFFFFFFFFFFFF AND MUL OR SWAP1 SSTORE POP DUP4 PUSH1 0xCB PUSH1 0x0 PUSH2 0x100 EXP DUP2 SLOAD DUP2 PUSH20 0xFFFFFFFFFFFFFFFFFFFFFFFFFFFFFFFFFFFFFFFF MUL NOT AND SWAP1 DUP4 PUSH20 0xFFFFFFFFFFFFFFFFFFFFFFFFFFFFFFFFFFFFFFFF AND MUL OR SWAP1 SSTORE POP DUP3 PUSH1 0xCC PUSH1 0x0 PUSH2 0x100 EXP DUP2 SLOAD DUP2 PUSH20 0xFFFFFFFFFFFFFFFFFFFFFFFFFFFFFFFFFFFFFFFF MUL NOT AND SWAP1 DUP4 PUSH20 0xFFFFFFFFFFFFFFFFFFFFFFFFFFFFFFFFFFFFFFFF AND MUL OR SWAP1 SSTORE POP DUP2 PUSH1 0xCC PUSH1 0x14 PUSH2 0x100 EXP DUP2 SLOAD DUP2 PUSH2 0xFFFF MUL NOT AND SWAP1 DUP4 PUSH2 0xFFFF AND MUL OR SWAP1 SSTORE POP PUSH3 0x7A120 PUSH1 0xCE DUP2 SWAP1 SSTORE POP PUSH2 0xEA60 PUSH1 0xD0 DUP2 SWAP1 SSTORE POP PUSH2 0x4E20 PUSH1 0xD1 DUP2 SWAP1 SSTORE POP DUP1 ISZERO PUSH2 0x171C JUMPI PUSH1 0x0 DUP1 PUSH1 0x1 PUSH2 0x100 EXP DUP2 SLOAD DUP2 PUSH1 0xFF MUL NOT AND SWAP1 DUP4 ISZERO ISZERO MUL OR SWAP1 SSTORE POP PUSH32 0x7F26B83FF96E1F2B6A682F133852F6798A09C465DA95921460CEFB3847402498 PUSH1 0x1 PUSH1 0x40 MLOAD PUSH2 0x1713 SWAP2 SWAP1 PUSH2 0x43B8 JUMP JUMPDEST PUSH1 0x40 MLOAD DUP1 SWAP2 SUB SWAP1 LOG1 JUMPDEST POP POP POP POP POP POP POP POP JUMP JUMPDEST PUSH2 0x172E PUSH2 0x1898 JUMP JUMPDEST PUSH20 0xFFFFFFFFFFFFFFFFFFFFFFFFFFFFFFFFFFFFFFFF AND CALLER PUSH20 0xFFFFFFFFFFFFFFFFFFFFFFFFFFFFFFFFFFFFFFFF AND EQ PUSH2 0x179B JUMPI PUSH1 0x40 MLOAD PUSH32 0x8C379A000000000000000000000000000000000000000000000000000000000 DUP2 MSTORE PUSH1 0x4 ADD PUSH2 0x1792 SWAP1 PUSH2 0x441F JUMP JUMPDEST PUSH1 0x40 MLOAD DUP1 SWAP2 SUB SWAP1 REVERT JUMPDEST PUSH32 0xE2D2343D31B085B7C4E56D1C8A6EC79F7AB07460386F1C9A1756239FE2533AC DUP2 PUSH1 0x40 MLOAD PUSH2 0x17CA SWAP2 SWAP1 PUSH2 0x3695 JUMP JUMPDEST PUSH1 0x40 MLOAD DUP1 SWAP2 SUB SWAP1 LOG1 DUP1 PUSH1 0x95 PUSH1 0x0 PUSH2 0x100 EXP DUP2 SLOAD DUP2 PUSH20 0xFFFFFFFFFFFFFFFFFFFFFFFFFFFFFFFFFFFFFFFF MUL NOT AND SWAP1 DUP4 PUSH20 0xFFFFFFFFFFFFFFFFFFFFFFFFFFFFFFFFFFFFFFFF AND MUL OR SWAP1 SSTORE POP POP JUMP JUMPDEST PUSH1 0xCF PUSH1 0x20 MSTORE DUP1 PUSH1 0x0 MSTORE PUSH1 0x40 PUSH1 0x0 KECCAK256 PUSH1 0x0 SWAP2 POP SWAP1 POP DUP1 PUSH1 0x0 ADD PUSH1 0x0 SWAP1 SLOAD SWAP1 PUSH2 0x100 EXP SWAP1 DIV PUSH20 0xFFFFFFFFFFFFFFFFFFFFFFFFFFFFFFFFFFFFFFFF AND SWAP1 DUP1 PUSH1 0x0 ADD PUSH1 0x14 SWAP1 SLOAD SWAP1 PUSH2 0x100 EXP SWAP1 DIV PUSH12 0xFFFFFFFFFFFFFFFFFFFFFFFF AND SWAP1 POP DUP3 JUMP JUMPDEST PUSH1 0xC9 PUSH1 0x0 SWAP1 SLOAD SWAP1 PUSH2 0x100 EXP SWAP1 DIV PUSH20 0xFFFFFFFFFFFFFFFFFFFFFFFFFFFFFFFFFFFFFFFF AND DUP2 JUMP JUMPDEST PUSH1 0x0 PUSH1 0x63 PUSH1 0x0 SWAP1 SLOAD SWAP1 PUSH2 0x100 EXP SWAP1 DIV PUSH20 0xFFFFFFFFFFFFFFFFFFFFFFFFFFFFFFFFFFFFFFFF AND SWAP1 POP SWAP1 JUMP JUMPDEST PUSH2 0x18CA PUSH2 0x1ADF JUMP JUMPDEST DUP2 PUSH1 0xD0 DUP2 SWAP1 SSTORE POP DUP1 PUSH1 0xD1 DUP2 SWAP1 SSTORE POP PUSH32 0xB8DF1FBA472926F296225C210E366F62B21FEC23B8E1B6B0A375724798CA9C0A DUP3 DUP3 PUSH1 0x40 MLOAD PUSH2 0x1909 SWAP3 SWAP2 SWAP1 PUSH2 0x3AA7 JUMP JUMPDEST PUSH1 0x40 MLOAD DUP1 SWAP2 SUB SWAP1 LOG1 POP POP JUMP JUMPDEST PUSH1 0xCC PUSH1 0x0 SWAP1 SLOAD SWAP1 PUSH2 0x100 EXP SWAP1 DIV PUSH20 0xFFFFFFFFFFFFFFFFFFFFFFFFFFFFFFFFFFFFFFFF AND DUP2 JUMP JUMPDEST PUSH1 0xC7 PUSH1 0x20 MSTORE DUP1 PUSH1 0x0 MSTORE PUSH1 0x40 PUSH1 0x0 KECCAK256 PUSH1 0x0 SWAP2 POP SLOAD SWAP1 PUSH2 0x100 EXP SWAP1 DIV PUSH1 0xFF AND DUP2 JUMP JUMPDEST PUSH1 0x95 PUSH1 0x0 SWAP1 SLOAD SWAP1 PUSH2 0x100 EXP SWAP1 DIV PUSH20 0xFFFFFFFFFFFFFFFFFFFFFFFFFFFFFFFFFFFFFFFF AND DUP2 JUMP JUMPDEST PUSH5 0x2540BE400 DUP2 JUMP JUMPDEST PUSH1 0xCD PUSH1 0x0 SWAP1 SLOAD SWAP1 PUSH2 0x100 EXP SWAP1 DIV PUSH20 0xFFFFFFFFFFFFFFFFFFFFFFFFFFFFFFFFFFFFFFFF AND DUP2 JUMP JUMPDEST PUSH1 0xCC PUSH1 0x14 SWAP1 SLOAD SWAP1 PUSH2 0x100 EXP SWAP1 DIV PUSH2 0xFFFF AND DUP2 JUMP JUMPDEST PUSH1 0xCA PUSH1 0x0 SWAP1 SLOAD SWAP1 PUSH2 0x100 EXP SWAP1 DIV PUSH20 0xFFFFFFFFFFFFFFFFFFFFFFFFFFFFFFFFFFFFFFFF AND DUP2 JUMP JUMPDEST PUSH1 0xC8 PUSH1 0x0 SWAP1 SLOAD SWAP1 PUSH2 0x100 EXP SWAP1 DIV PUSH20 0xFFFFFFFFFFFFFFFFFFFFFFFFFFFFFFFFFFFFFFFF AND DUP2 JUMP JUMPDEST PUSH1 0x0 PUSH1 0x2 SWAP1 SLOAD SWAP1 PUSH2 0x100 EXP SWAP1 DIV PUSH20 0xFFFFFFFFFFFFFFFFFFFFFFFFFFFFFFFFFFFFFFFF AND DUP2 JUMP JUMPDEST PUSH1 0xCB PUSH1 0x0 SWAP1 SLOAD SWAP1 PUSH2 0x100 EXP SWAP1 DIV PUSH20 0xFFFFFFFFFFFFFFFFFFFFFFFFFFFFFFFFFFFFFFFF AND DUP2 JUMP JUMPDEST PUSH2 0x1A64 PUSH2 0x1ADF JUMP JUMPDEST PUSH1 0x0 PUSH20 0xFFFFFFFFFFFFFFFFFFFFFFFFFFFFFFFFFFFFFFFF AND DUP2 PUSH20 0xFFFFFFFFFFFFFFFFFFFFFFFFFFFFFFFFFFFFFFFF AND SUB PUSH2 0x1AD3 JUMPI PUSH1 0x40 MLOAD PUSH32 0x8C379A000000000000000000000000000000000000000000000000000000000 DUP2 MSTORE PUSH1 0x4 ADD PUSH2 0x1ACA SWAP1 PUSH2 0x44B1 JUMP JUMPDEST PUSH1 0x40 MLOAD DUP1 SWAP2 SUB SWAP1 REVERT JUMPDEST PUSH2 0x1ADC DUP2 PUSH2 0x2762 JUMP JUMPDEST POP JUMP JUMPDEST PUSH2 0x1AE7 PUSH2 0x2AF3 JUMP JUMPDEST PUSH20 0xFFFFFFFFFFFFFFFFFFFFFFFFFFFFFFFFFFFFFFFF AND PUSH2 0x1B05 PUSH2 0x1898 JUMP JUMPDEST PUSH20 0xFFFFFFFFFFFFFFFFFFFFFFFFFFFFFFFFFFFFFFFF AND EQ PUSH2 0x1B5B JUMPI PUSH1 0x40 MLOAD PUSH32 0x8C379A000000000000000000000000000000000000000000000000000000000 DUP2 MSTORE PUSH1 0x4 ADD PUSH2 0x1B52 SWAP1 PUSH2 0x451D JUMP JUMPDEST PUSH1 0x40 MLOAD DUP1 SWAP2 SUB SWAP1 REVERT JUMPDEST JUMP JUMPDEST PUSH1 0x0 DUP1 PUSH1 0xCA PUSH1 0x0 SWAP1 SLOAD SWAP1 PUSH2 0x100 EXP SWAP1 DIV PUSH20 0xFFFFFFFFFFFFFFFFFFFFFFFFFFFFFFFFFFFFFFFF AND PUSH20 0xFFFFFFFFFFFFFFFFFFFFFFFFFFFFFFFFFFFFFFFF AND PUSH4 0xC23EE3C3 PUSH1 0xCC PUSH1 0x14 SWAP1 SLOAD SWAP1 PUSH2 0x100 EXP SWAP1 DIV PUSH2 0xFFFF AND PUSH1 0x0 PUSH1 0xCE SLOAD PUSH1 0x40 MLOAD DUP5 PUSH4 0xFFFFFFFF AND PUSH1 0xE0 SHL DUP2 MSTORE PUSH1 0x4 ADD PUSH2 0x1BD2 SWAP4 SWAP3 SWAP2 SWAP1 PUSH2 0x4578 JUMP JUMPDEST PUSH1 0x40 DUP1 MLOAD DUP1 DUP4 SUB DUP2 DUP7 GAS STATICCALL ISZERO DUP1 ISZERO PUSH2 0x1BEE JUMPI RETURNDATASIZE PUSH1 0x0 DUP1 RETURNDATACOPY RETURNDATASIZE PUSH1 0x0 REVERT JUMPDEST POP POP POP POP PUSH1 0x40 MLOAD RETURNDATASIZE PUSH1 0x1F NOT PUSH1 0x1F DUP3 ADD AND DUP3 ADD DUP1 PUSH1 0x40 MSTORE POP DUP2 ADD SWAP1 PUSH2 0x1C12 SWAP2 SWAP1 PUSH2 0x45AF JUMP JUMPDEST POP SWAP1 POP DUP3 DUP2 PUSH2 0x1C21 SWAP2 SWAP1 PUSH2 0x3B8D JUMP JUMPDEST SWAP2 POP POP SWAP2 SWAP1 POP JUMP JUMPDEST PUSH1 0x0 DUP1 PUSH1 0x0 DUP1 PUSH1 0x0 PUSH1 0x2 SWAP1 SLOAD SWAP1 PUSH2 0x100 EXP SWAP1 DIV PUSH20 0xFFFFFFFFFFFFFFFFFFFFFFFFFFFFFFFFFFFFFFFF AND PUSH20 0xFFFFFFFFFFFFFFFFFFFFFFFFFFFFFFFFFFFFFFFF AND PUSH4 0xB02C43D0 DUP7 PUSH1 0x40 MLOAD DUP3 PUSH4 0xFFFFFFFF AND PUSH1 0xE0 SHL DUP2 MSTORE PUSH1 0x4 ADD PUSH2 0x1C8A SWAP2 SWAP1 PUSH2 0x32D8 JUMP JUMPDEST PUSH1 0xE0 PUSH1 0x40 MLOAD DUP1 DUP4 SUB DUP2 DUP7 GAS STATICCALL ISZERO DUP1 ISZERO PUSH2 0x1CA7 JUMPI RETURNDATASIZE PUSH1 0x0 DUP1 RETURNDATACOPY RETURNDATASIZE PUSH1 0x0 REVERT JUMPDEST POP POP POP POP PUSH1 0x40 MLOAD RETURNDATASIZE PUSH1 0x1F NOT PUSH1 0x1F DUP3 ADD AND DUP3 ADD DUP1 PUSH1 0x40 MSTORE POP DUP2 ADD SWAP1 PUSH2 0x1CCB SWAP2 SWAP1 PUSH2 0x472E JUMP JUMPDEST SWAP1 POP PUSH1 0x0 DUP2 PUSH1 0x40 ADD MLOAD PUSH4 0xFFFFFFFF AND SUB PUSH2 0x1D1A JUMPI PUSH1 0x40 MLOAD PUSH32 0x8C379A000000000000000000000000000000000000000000000000000000000 DUP2 MSTORE PUSH1 0x4 ADD PUSH2 0x1D11 SWAP1 PUSH2 0x47A7 JUMP JUMPDEST PUSH1 0x40 MLOAD DUP1 SWAP2 SUB SWAP1 REVERT JUMPDEST PUSH1 0x0 PUSH1 0x1 PUSH1 0x0 SWAP1 SLOAD SWAP1 PUSH2 0x100 EXP SWAP1 DIV PUSH20 0xFFFFFFFFFFFFFFFFFFFFFFFFFFFFFFFFFFFFFFFF AND PUSH20 0xFFFFFFFFFFFFFFFFFFFFFFFFFFFFFFFFFFFFFFFF AND PUSH4 0x6C626AA4 DUP8 PUSH1 0x40 MLOAD DUP3 PUSH4 0xFFFFFFFF AND PUSH1 0xE0 SHL DUP2 MSTORE PUSH1 0x4 ADD PUSH2 0x1D77 SWAP2 SWAP1 PUSH2 0x32D8 JUMP JUMPDEST PUSH1 0x40 DUP1 MLOAD DUP1 DUP4 SUB DUP2 PUSH1 0x0 DUP8 GAS CALL ISZERO DUP1 ISZERO PUSH2 0x1D95 JUMPI RETURNDATASIZE PUSH1 0x0 DUP1 RETURNDATACOPY RETURNDATASIZE PUSH1 0x0 REVERT JUMPDEST POP POP POP POP PUSH1 0x40 MLOAD RETURNDATASIZE PUSH1 0x1F NOT PUSH1 0x1F DUP3 ADD AND DUP3 ADD DUP1 PUSH1 0x40 MSTORE POP DUP2 ADD SWAP1 PUSH2 0x1DB9 SWAP2 SWAP1 PUSH2 0x47C7 JUMP JUMPDEST SWAP2 POP POP PUSH1 0x0 DUP3 PUSH1 0xA0 ADD MLOAD PUSH4 0xFFFFFFFF AND EQ ISZERO DUP1 PUSH2 0x1DE1 JUMPI POP PUSH1 0x0 DUP2 PUSH8 0xFFFFFFFFFFFFFFFF AND EQ ISZERO JUMPDEST PUSH2 0x1E20 JUMPI PUSH1 0x40 MLOAD PUSH32 0x8C379A000000000000000000000000000000000000000000000000000000000 DUP2 MSTORE PUSH1 0x4 ADD PUSH2 0x1E17 SWAP1 PUSH2 0x4879 JUMP JUMPDEST PUSH1 0x40 MLOAD DUP1 SWAP2 SUB SWAP1 REVERT JUMPDEST PUSH5 0x2540BE400 DUP3 PUSH1 0x20 ADD MLOAD PUSH8 0xFFFFFFFFFFFFFFFF AND PUSH2 0x1E3F SWAP2 SWAP1 PUSH2 0x4899 JUMP JUMPDEST SWAP5 POP PUSH2 0x1E53 DUP3 PUSH1 0x20 ADD MLOAD DUP4 PUSH1 0x80 ADD MLOAD PUSH2 0x2AFB JUMP JUMPDEST SWAP4 POP DUP2 PUSH1 0xC0 ADD MLOAD SWAP3 POP POP POP SWAP2 SWAP4 SWAP1 SWAP3 POP JUMP JUMPDEST PUSH1 0x0 DUP2 PUSH1 0x0 SHR SWAP1 POP SWAP2 SWAP1 POP JUMP JUMPDEST PUSH2 0x1E7B DUP3 PUSH2 0x2CBA JUMP JUMPDEST SWAP2 POP PUSH1 0x0 DUP3 GT PUSH2 0x1EC0 JUMPI PUSH1 0x40 MLOAD PUSH32 0x8C379A000000000000000000000000000000000000000000000000000000000 DUP2 MSTORE PUSH1 0x4 ADD PUSH2 0x1EB7 SWAP1 PUSH2 0x4927 JUMP JUMPDEST PUSH1 0x40 MLOAD DUP1 SWAP2 SUB SWAP1 REVERT JUMPDEST PUSH1 0x0 PUSH1 0xC9 PUSH1 0x0 SWAP1 SLOAD SWAP1 PUSH2 0x100 EXP SWAP1 DIV PUSH20 0xFFFFFFFFFFFFFFFFFFFFFFFFFFFFFFFFFFFFFFFF AND PUSH20 0xFFFFFFFFFFFFFFFFFFFFFFFFFFFFFFFFFFFFFFFF AND PUSH4 0x1A90A219 PUSH1 0x40 MLOAD DUP2 PUSH4 0xFFFFFFFF AND PUSH1 0xE0 SHL DUP2 MSTORE PUSH1 0x4 ADD PUSH1 0x20 PUSH1 0x40 MLOAD DUP1 DUP4 SUB DUP2 DUP7 GAS STATICCALL ISZERO DUP1 ISZERO PUSH2 0x1F2F JUMPI RETURNDATASIZE PUSH1 0x0 DUP1 RETURNDATACOPY RETURNDATASIZE PUSH1 0x0 REVERT JUMPDEST POP POP POP POP PUSH1 0x40 MLOAD RETURNDATASIZE PUSH1 0x1F NOT PUSH1 0x1F DUP3 ADD AND DUP3 ADD DUP1 PUSH1 0x40 MSTORE POP DUP2 ADD SWAP1 PUSH2 0x1F53 SWAP2 SWAP1 PUSH2 0x3A0E JUMP JUMPDEST SWAP1 POP PUSH1 0x0 PUSH2 0x1F60 DUP3 PUSH2 0x1B5D JUMP JUMPDEST SWAP1 POP DUP1 CALLVALUE EQ PUSH2 0x1FA4 JUMPI PUSH1 0x40 MLOAD PUSH32 0x8C379A000000000000000000000000000000000000000000000000000000000 DUP2 MSTORE PUSH1 0x4 ADD PUSH2 0x1F9B SWAP1 PUSH2 0x49B9 JUMP JUMPDEST PUSH1 0x40 MLOAD DUP1 SWAP2 SUB SWAP1 REVERT JUMPDEST PUSH2 0x2013 PUSH1 0xCB PUSH1 0x0 SWAP1 SLOAD SWAP1 PUSH2 0x100 EXP SWAP1 DIV PUSH20 0xFFFFFFFFFFFFFFFFFFFFFFFFFFFFFFFFFFFFFFFF AND DUP6 PUSH1 0xC8 PUSH1 0x0 SWAP1 SLOAD SWAP1 PUSH2 0x100 EXP SWAP1 DIV PUSH20 0xFFFFFFFFFFFFFFFFFFFFFFFFFFFFFFFFFFFFFFFF AND PUSH20 0xFFFFFFFFFFFFFFFFFFFFFFFFFFFFFFFFFFFFFFFF AND PUSH2 0x2CEA SWAP1 SWAP3 SWAP2 SWAP1 PUSH4 0xFFFFFFFF AND JUMP JUMPDEST PUSH1 0x0 PUSH1 0xCB PUSH1 0x0 SWAP1 SLOAD SWAP1 PUSH2 0x100 EXP SWAP1 DIV PUSH20 0xFFFFFFFFFFFFFFFFFFFFFFFFFFFFFFFFFFFFFFFF AND PUSH20 0xFFFFFFFFFFFFFFFFFFFFFFFFFFFFFFFFFFFFFFFF AND PUSH4 0xC5A5EBDA DUP5 PUSH1 0xC8 PUSH1 0x0 SWAP1 SLOAD SWAP1 PUSH2 0x100 EXP SWAP1 DIV PUSH20 0xFFFFFFFFFFFFFFFFFFFFFFFFFFFFFFFFFFFFFFFF AND DUP9 PUSH1 0xCC PUSH1 0x14 SWAP1 SLOAD SWAP1 PUSH2 0x100 EXP SWAP1 DIV PUSH2 0xFFFF AND PUSH2 0x20B4 PUSH1 0xCC PUSH1 0x0 SWAP1 SLOAD SWAP1 PUSH2 0x100 EXP SWAP1 DIV PUSH20 0xFFFFFFFFFFFFFFFFFFFFFFFFFFFFFFFFFFFFFFFF AND PUSH2 0x253B JUMP JUMPDEST PUSH1 0x0 DUP12 PUSH1 0x40 MLOAD PUSH1 0x20 ADD PUSH2 0x20C7 SWAP2 SWAP1 PUSH2 0x49E8 JUMP JUMPDEST PUSH1 0x40 MLOAD PUSH1 0x20 DUP2 DUP4 SUB SUB DUP2 MSTORE SWAP1 PUSH1 0x40 MSTORE PUSH1 0x40 MLOAD DUP9 PUSH4 0xFFFFFFFF AND PUSH1 0xE0 SHL DUP2 MSTORE PUSH1 0x4 ADD PUSH2 0x20F7 SWAP7 SWAP6 SWAP5 SWAP4 SWAP3 SWAP2 SWAP1 PUSH2 0x4AB3 JUMP JUMPDEST PUSH1 0x20 PUSH1 0x40 MLOAD DUP1 DUP4 SUB DUP2 DUP6 DUP9 GAS CALL ISZERO DUP1 ISZERO PUSH2 0x2115 JUMPI RETURNDATASIZE PUSH1 0x0 DUP1 RETURNDATACOPY RETURNDATASIZE PUSH1 0x0 REVERT JUMPDEST POP POP POP POP POP PUSH1 0x40 MLOAD RETURNDATASIZE PUSH1 0x1F NOT PUSH1 0x1F DUP3 ADD AND DUP3 ADD DUP1 PUSH1 0x40 MSTORE POP DUP2 ADD SWAP1 PUSH2 0x213A SWAP2 SWAP1 PUSH2 0x4B1B JUMP JUMPDEST SWAP1 POP PUSH1 0x0 PUSH1 0x1 PUSH8 0xFFFFFFFFFFFFFFFF DUP2 GT ISZERO PUSH2 0x2159 JUMPI PUSH2 0x2158 PUSH2 0x3C6C JUMP JUMPDEST JUMPDEST PUSH1 0x40 MLOAD SWAP1 DUP1 DUP3 MSTORE DUP1 PUSH1 0x20 MUL PUSH1 0x20 ADD DUP3 ADD PUSH1 0x40 MSTORE DUP1 ISZERO PUSH2 0x2192 JUMPI DUP2 PUSH1 0x20 ADD JUMPDEST PUSH2 0x217F PUSH2 0x3174 JUMP JUMPDEST DUP2 MSTORE PUSH1 0x20 ADD SWAP1 PUSH1 0x1 SWAP1 SUB SWAP1 DUP2 PUSH2 0x2177 JUMPI SWAP1 POP JUMPDEST POP SWAP1 POP PUSH1 0x40 MLOAD DUP1 PUSH1 0x60 ADD PUSH1 0x40 MSTORE DUP1 PUSH1 0xC9 PUSH1 0x0 SWAP1 SLOAD SWAP1 PUSH2 0x100 EXP SWAP1 DIV PUSH20 0xFFFFFFFFFFFFFFFFFFFFFFFFFFFFFFFFFFFFFFFF AND PUSH20 0xFFFFFFFFFFFFFFFFFFFFFFFFFFFFFFFFFFFFFFFF AND PUSH4 0x9A8A0592 PUSH1 0x40 MLOAD DUP2 PUSH4 0xFFFFFFFF AND PUSH1 0xE0 SHL DUP2 MSTORE PUSH1 0x4 ADD PUSH1 0x20 PUSH1 0x40 MLOAD DUP1 DUP4 SUB DUP2 DUP7 GAS STATICCALL ISZERO DUP1 ISZERO PUSH2 0x220D JUMPI RETURNDATASIZE PUSH1 0x0 DUP1 RETURNDATACOPY RETURNDATASIZE PUSH1 0x0 REVERT JUMPDEST POP POP POP POP PUSH1 0x40 MLOAD RETURNDATASIZE PUSH1 0x1F NOT PUSH1 0x1F DUP3 ADD AND DUP3 ADD DUP1 PUSH1 0x40 MSTORE POP DUP2 ADD SWAP1 PUSH2 0x2231 SWAP2 SWAP1 PUSH2 0x4B5D JUMP JUMPDEST PUSH2 0xFFFF AND DUP2 MSTORE PUSH1 0x20 ADD PUSH2 0x2265 PUSH1 0xCB PUSH1 0x0 SWAP1 SLOAD SWAP1 PUSH2 0x100 EXP SWAP1 DIV PUSH20 0xFFFFFFFFFFFFFFFFFFFFFFFFFFFFFFFFFFFFFFFF AND PUSH2 0x253B JUMP JUMPDEST DUP2 MSTORE PUSH1 0x20 ADD DUP4 PUSH8 0xFFFFFFFFFFFFFFFF AND DUP2 MSTORE POP DUP2 PUSH1 0x0 DUP2 MLOAD DUP2 LT PUSH2 0x228C JUMPI PUSH2 0x228B PUSH2 0x4B8A JUMP JUMPDEST JUMPDEST PUSH1 0x20 MUL PUSH1 0x20 ADD ADD DUP2 SWAP1 MSTORE POP PUSH1 0xCA PUSH1 0x0 SWAP1 SLOAD SWAP1 PUSH2 0x100 EXP SWAP1 DIV PUSH20 0xFFFFFFFFFFFFFFFFFFFFFFFFFFFFFFFFFFFFFFFF AND PUSH20 0xFFFFFFFFFFFFFFFFFFFFFFFFFFFFFFFFFFFFFFFF AND PUSH4 0x32B2FC0E DUP6 DUP6 PUSH2 0x22E1 SWAP2 SWAP1 PUSH2 0x3B59 JUMP JUMPDEST PUSH1 0xCC PUSH1 0x14 SWAP1 SLOAD SWAP1 PUSH2 0x100 EXP SWAP1 DIV PUSH2 0xFFFF AND PUSH1 0xCD PUSH1 0x0 SWAP1 SLOAD SWAP1 PUSH2 0x100 EXP SWAP1 DIV PUSH20 0xFFFFFFFFFFFFFFFFFFFFFFFFFFFFFFFFFFFFFFFF AND PUSH1 0x40 MLOAD DUP1 PUSH1 0x20 ADD PUSH1 0x40 MSTORE DUP1 PUSH1 0x0 DUP2 MSTORE POP PUSH1 0x0 PUSH1 0xCE SLOAD DUP9 PUSH1 0xCC PUSH1 0x14 SWAP1 SLOAD SWAP1 PUSH2 0x100 EXP SWAP1 DIV PUSH2 0xFFFF AND CALLER PUSH1 0x40 MLOAD DUP11 PUSH4 0xFFFFFFFF AND PUSH1 0xE0 SHL DUP2 MSTORE PUSH1 0x4 ADD PUSH2 0x2360 SWAP9 SWAP8 SWAP7 SWAP6 SWAP5 SWAP4 SWAP3 SWAP2 SWAP1 PUSH2 0x4CD7 JUMP JUMPDEST PUSH1 0x20 PUSH1 0x40 MLOAD DUP1 DUP4 SUB DUP2 DUP6 DUP9 GAS CALL ISZERO DUP1 ISZERO PUSH2 0x237E JUMPI RETURNDATASIZE PUSH1 0x0 DUP1 RETURNDATACOPY RETURNDATASIZE PUSH1 0x0 REVERT JUMPDEST POP POP POP POP POP PUSH1 0x40 MLOAD RETURNDATASIZE PUSH1 0x1F NOT PUSH1 0x1F DUP3 ADD AND DUP3 ADD DUP1 PUSH1 0x40 MSTORE POP DUP2 ADD SWAP1 PUSH2 0x23A3 SWAP2 SWAP1 PUSH2 0x4B1B JUMP JUMPDEST POP POP POP POP POP POP POP JUMP JUMPDEST PUSH1 0x0 DUP1 PUSH1 0x95 PUSH1 0x0 SWAP1 SLOAD SWAP1 PUSH2 0x100 EXP SWAP1 DIV PUSH20 0xFFFFFFFFFFFFFFFFFFFFFFFFFFFFFFFFFFFFFFFF AND PUSH20 0xFFFFFFFFFFFFFFFFFFFFFFFFFFFFFFFFFFFFFFFF AND PUSH4 0x3DE39C11 PUSH1 0x40 MLOAD DUP2 PUSH4 0xFFFFFFFF AND PUSH1 0xE0 SHL DUP2 MSTORE PUSH1 0x4 ADD PUSH1 0x20 PUSH1 0x40 MLOAD DUP1 DUP4 SUB DUP2 DUP7 GAS STATICCALL ISZERO DUP1 ISZERO PUSH2 0x241C JUMPI RETURNDATASIZE PUSH1 0x0 DUP1 RETURNDATACOPY RETURNDATASIZE PUSH1 0x0 REVERT JUMPDEST POP POP POP POP PUSH1 0x40 MLOAD RETURNDATASIZE PUSH1 0x1F NOT PUSH1 0x1F DUP3 ADD AND DUP3 ADD DUP1 PUSH1 0x40 MSTORE POP DUP2 ADD SWAP1 PUSH2 0x2440 SWAP2 SWAP1 PUSH2 0x3A0E JUMP JUMPDEST SWAP1 POP PUSH1 0x0 PUSH1 0x95 PUSH1 0x0 SWAP1 SLOAD SWAP1 PUSH2 0x100 EXP SWAP1 DIV PUSH20 0xFFFFFFFFFFFFFFFFFFFFFFFFFFFFFFFFFFFFFFFF AND PUSH20 0xFFFFFFFFFFFFFFFFFFFFFFFFFFFFFFFFFFFFFFFF AND PUSH4 0xE25B5345 PUSH1 0x40 MLOAD DUP2 PUSH4 0xFFFFFFFF AND PUSH1 0xE0 SHL DUP2 MSTORE PUSH1 0x4 ADD PUSH1 0x20 PUSH1 0x40 MLOAD DUP1 DUP4 SUB DUP2 DUP7 GAS STATICCALL ISZERO DUP1 ISZERO PUSH2 0x24B1 JUMPI RETURNDATASIZE PUSH1 0x0 DUP1 RETURNDATACOPY RETURNDATASIZE PUSH1 0x0 REVERT JUMPDEST POP POP POP POP PUSH1 0x40 MLOAD RETURNDATASIZE PUSH1 0x1F NOT PUSH1 0x1F DUP3 ADD AND DUP3 ADD DUP1 PUSH1 0x40 MSTORE POP DUP2 ADD SWAP1 PUSH2 0x24D5 SWAP2 SWAP1 PUSH2 0x3A0E JUMP JUMPDEST SWAP1 POP PUSH1 0x0 DUP3 GASPRICE LT PUSH2 0x24E6 JUMPI DUP3 PUSH2 0x24E8 JUMP JUMPDEST GASPRICE JUMPDEST SWAP1 POP PUSH1 0x0 DUP2 SUB PUSH2 0x24FE JUMPI PUSH1 0x0 SWAP4 POP POP POP POP PUSH2 0x2536 JUMP JUMPDEST PUSH1 0x0 DUP2 DUP7 PUSH2 0x250C SWAP2 SWAP1 PUSH2 0x4D92 JUMP JUMPDEST SWAP1 POP DUP1 DUP4 GT ISZERO PUSH2 0x2523 JUMPI PUSH1 0x0 SWAP5 POP POP POP POP POP PUSH2 0x2536 JUMP JUMPDEST DUP3 DUP2 PUSH2 0x252F SWAP2 SWAP1 PUSH2 0x3B59 JUMP JUMPDEST SWAP5 POP POP POP POP POP JUMPDEST SWAP2 SWAP1 POP JUMP JUMPDEST PUSH1 0x0 DUP2 PUSH20 0xFFFFFFFFFFFFFFFFFFFFFFFFFFFFFFFFFFFFFFFF AND PUSH1 0x0 SHL SWAP1 POP SWAP2 SWAP1 POP JUMP JUMPDEST PUSH1 0x0 DUP1 PUSH1 0x1 PUSH1 0x0 SWAP1 SLOAD SWAP1 PUSH2 0x100 EXP SWAP1 DIV PUSH20 0xFFFFFFFFFFFFFFFFFFFFFFFFFFFFFFFFFFFFFFFF AND PUSH20 0xFFFFFFFFFFFFFFFFFFFFFFFFFFFFFFFFFFFFFFFF AND DUP5 PUSH1 0xA0 ADD MLOAD PUSH20 0xFFFFFFFFFFFFFFFFFFFFFFFFFFFFFFFFFFFFFFFF AND EQ PUSH2 0x25F5 JUMPI PUSH1 0x40 MLOAD PUSH32 0x8C379A000000000000000000000000000000000000000000000000000000000 DUP2 MSTORE PUSH1 0x4 ADD PUSH2 0x25EC SWAP1 PUSH2 0x4E0F JUMP JUMPDEST PUSH1 0x40 MLOAD DUP1 SWAP2 SUB SWAP1 REVERT JUMPDEST PUSH2 0x260B PUSH2 0x2601 DUP7 PUSH2 0x2DFC JUMP JUMPDEST DUP6 PUSH1 0x0 ADD MLOAD PUSH2 0x2E43 JUMP JUMPDEST SWAP2 POP PUSH1 0x0 PUSH1 0x2 SWAP1 SLOAD SWAP1 PUSH2 0x100 EXP SWAP1 DIV PUSH20 0xFFFFFFFFFFFFFFFFFFFFFFFFFFFFFFFFFFFFFFFF AND PUSH20 0xFFFFFFFFFFFFFFFFFFFFFFFFFFFFFFFFFFFFFFFF AND PUSH4 0x86F01439 DUP7 DUP7 DUP7 PUSH1 0x40 MLOAD DUP5 PUSH4 0xFFFFFFFF AND PUSH1 0xE0 SHL DUP2 MSTORE PUSH1 0x4 ADD PUSH2 0x266C SWAP4 SWAP3 SWAP2 SWAP1 PUSH2 0x4FA9 JUMP JUMPDEST PUSH1 0x0 PUSH1 0x40 MLOAD DUP1 DUP4 SUB DUP2 PUSH1 0x0 DUP8 DUP1 EXTCODESIZE ISZERO DUP1 ISZERO PUSH2 0x2686 JUMPI PUSH1 0x0 DUP1 REVERT JUMPDEST POP GAS CALL ISZERO DUP1 ISZERO PUSH2 0x269A JUMPI RETURNDATASIZE PUSH1 0x0 DUP1 RETURNDATACOPY RETURNDATASIZE PUSH1 0x0 REVERT JUMPDEST POP POP POP POP PUSH5 0x2540BE400 PUSH1 0x0 PUSH1 0x2 SWAP1 SLOAD SWAP1 PUSH2 0x100 EXP SWAP1 DIV PUSH20 0xFFFFFFFFFFFFFFFFFFFFFFFFFFFFFFFFFFFFFFFF AND PUSH20 0xFFFFFFFFFFFFFFFFFFFFFFFFFFFFFFFFFFFFFFFF AND PUSH4 0xB02C43D0 DUP5 PUSH1 0x40 MLOAD DUP3 PUSH4 0xFFFFFFFF AND PUSH1 0xE0 SHL DUP2 MSTORE PUSH1 0x4 ADD PUSH2 0x26FF SWAP2 SWAP1 PUSH2 0x32D8 JUMP JUMPDEST PUSH1 0xE0 PUSH1 0x40 MLOAD DUP1 DUP4 SUB DUP2 DUP7 GAS STATICCALL ISZERO DUP1 ISZERO PUSH2 0x271C JUMPI RETURNDATASIZE PUSH1 0x0 DUP1 RETURNDATACOPY RETURNDATASIZE PUSH1 0x0 REVERT JUMPDEST POP POP POP POP PUSH1 0x40 MLOAD RETURNDATASIZE PUSH1 0x1F NOT PUSH1 0x1F DUP3 ADD AND DUP3 ADD DUP1 PUSH1 0x40 MSTORE POP DUP2 ADD SWAP1 PUSH2 0x2740 SWAP2 SWAP1 PUSH2 0x472E JUMP JUMPDEST PUSH1 0x20 ADD MLOAD PUSH8 0xFFFFFFFFFFFFFFFF AND PUSH2 0x2758 SWAP2 SWAP1 PUSH2 0x4899 JUMP JUMPDEST SWAP1 POP SWAP4 POP SWAP4 SWAP2 POP POP JUMP JUMPDEST PUSH1 0x0 PUSH1 0x63 PUSH1 0x0 SWAP1 SLOAD SWAP1 PUSH2 0x100 EXP SWAP1 DIV PUSH20 0xFFFFFFFFFFFFFFFFFFFFFFFFFFFFFFFFFFFFFFFF AND SWAP1 POP DUP2 PUSH1 0x63 PUSH1 0x0 PUSH2 0x100 EXP DUP2 SLOAD DUP2 PUSH20 0xFFFFFFFFFFFFFFFFFFFFFFFFFFFFFFFFFFFFFFFF MUL NOT AND SWAP1 DUP4 PUSH20 0xFFFFFFFFFFFFFFFFFFFFFFFFFFFFFFFFFFFFFFFF AND MUL OR SWAP1 SSTORE POP DUP2 PUSH20 0xFFFFFFFFFFFFFFFFFFFFFFFFFFFFFFFFFFFFFFFF AND DUP2 PUSH20 0xFFFFFFFFFFFFFFFFFFFFFFFFFFFFFFFFFFFFFFFF AND PUSH32 0x8BE0079C531659141344CD1FD0A4F28419497F9722A3DAAFE3B4186F6B6457E0 PUSH1 0x40 MLOAD PUSH1 0x40 MLOAD DUP1 SWAP2 SUB SWAP1 LOG3 POP POP JUMP JUMPDEST PUSH1 0x0 DUP1 DUP3 PUSH20 0xFFFFFFFFFFFFFFFFFFFFFFFFFFFFFFFFFFFFFFFF AND EXTCODESIZE GT SWAP1 POP SWAP2 SWAP1 POP JUMP JUMPDEST PUSH1 0x0 PUSH20 0xFFFFFFFFFFFFFFFFFFFFFFFFFFFFFFFFFFFFFFFF AND PUSH1 0x0 PUSH1 0x2 SWAP1 SLOAD SWAP1 PUSH2 0x100 EXP SWAP1 DIV PUSH20 0xFFFFFFFFFFFFFFFFFFFFFFFFFFFFFFFFFFFFFFFF AND PUSH20 0xFFFFFFFFFFFFFFFFFFFFFFFFFFFFFFFFFFFFFFFF AND EQ DUP1 ISZERO PUSH2 0x28F7 JUMPI POP PUSH1 0x0 PUSH20 0xFFFFFFFFFFFFFFFFFFFFFFFFFFFFFFFFFFFFFFFF AND PUSH1 0x1 PUSH1 0x0 SWAP1 SLOAD SWAP1 PUSH2 0x100 EXP SWAP1 DIV PUSH20 0xFFFFFFFFFFFFFFFFFFFFFFFFFFFFFFFFFFFFFFFF AND PUSH20 0xFFFFFFFFFFFFFFFFFFFFFFFFFFFFFFFFFFFFFFFF AND EQ JUMPDEST PUSH2 0x2936 JUMPI PUSH1 0x40 MLOAD PUSH32 0x8C379A000000000000000000000000000000000000000000000000000000000 DUP2 MSTORE PUSH1 0x4 ADD PUSH2 0x292D SWAP1 PUSH2 0x505A JUMP JUMPDEST PUSH1 0x40 MLOAD DUP1 SWAP2 SUB SWAP1 REVERT JUMPDEST PUSH1 0x0 PUSH20 0xFFFFFFFFFFFFFFFFFFFFFFFFFFFFFFFFFFFFFFFF AND DUP3 PUSH20 0xFFFFFFFFFFFFFFFFFFFFFFFFFFFFFFFFFFFFFFFF AND SUB PUSH2 0x29A5 JUMPI PUSH1 0x40 MLOAD PUSH32 0x8C379A000000000000000000000000000000000000000000000000000000000 DUP2 MSTORE PUSH1 0x4 ADD PUSH2 0x299C SWAP1 PUSH2 0x50C6 JUMP JUMPDEST PUSH1 0x40 MLOAD DUP1 SWAP2 SUB SWAP1 REVERT JUMPDEST PUSH1 0x0 PUSH20 0xFFFFFFFFFFFFFFFFFFFFFFFFFFFFFFFFFFFFFFFF AND DUP2 PUSH20 0xFFFFFFFFFFFFFFFFFFFFFFFFFFFFFFFFFFFFFFFF AND SUB PUSH2 0x2A14 JUMPI PUSH1 0x40 MLOAD PUSH32 0x8C379A000000000000000000000000000000000000000000000000000000000 DUP2 MSTORE PUSH1 0x4 ADD PUSH2 0x2A0B SWAP1 PUSH2 0x5132 JUMP JUMPDEST PUSH1 0x40 MLOAD DUP1 SWAP2 SUB SWAP1 REVERT JUMPDEST DUP2 PUSH1 0x0 PUSH1 0x2 PUSH2 0x100 EXP DUP2 SLOAD DUP2 PUSH20 0xFFFFFFFFFFFFFFFFFFFFFFFFFFFFFFFFFFFFFFFF MUL NOT AND SWAP1 DUP4 PUSH20 0xFFFFFFFFFFFFFFFFFFFFFFFFFFFFFFFFFFFFFFFF AND MUL OR SWAP1 SSTORE POP DUP1 PUSH1 0x1 PUSH1 0x0 PUSH2 0x100 EXP DUP2 SLOAD DUP2 PUSH20 0xFFFFFFFFFFFFFFFFFFFFFFFFFFFFFFFFFFFFFFFF MUL NOT AND SWAP1 DUP4 PUSH20 0xFFFFFFFFFFFFFFFFFFFFFFFFFFFFFFFFFFFFFFFF AND MUL OR SWAP1 SSTORE POP POP POP JUMP JUMPDEST PUSH1 0x0 PUSH1 0x1 SWAP1 SLOAD SWAP1 PUSH2 0x100 EXP SWAP1 DIV PUSH1 0xFF AND PUSH2 0x2AE9 JUMPI PUSH1 0x40 MLOAD PUSH32 0x8C379A000000000000000000000000000000000000000000000000000000000 DUP2 MSTORE PUSH1 0x4 ADD PUSH2 0x2AE0 SWAP1 PUSH2 0x51C4 JUMP JUMPDEST PUSH1 0x40 MLOAD DUP1 SWAP2 SUB SWAP1 REVERT JUMPDEST PUSH2 0x2AF1 PUSH2 0x2E79 JUMP JUMPDEST JUMP JUMPDEST PUSH1 0x0 CALLER SWAP1 POP SWAP1 JUMP JUMPDEST PUSH1 0x0 DUP1 PUSH5 0x2540BE400 DUP4 DUP6 PUSH2 0x2B10 SWAP2 SWAP1 PUSH2 0x51E4 JUMP JUMPDEST PUSH8 0xFFFFFFFFFFFFFFFF AND PUSH2 0x2B24 SWAP2 SWAP1 PUSH2 0x4899 JUMP JUMPDEST SWAP1 POP PUSH1 0x0 PUSH1 0x1 PUSH1 0x0 SWAP1 SLOAD SWAP1 PUSH2 0x100 EXP SWAP1 DIV PUSH20 0xFFFFFFFFFFFFFFFFFFFFFFFFFFFFFFFFFFFFFFFF AND PUSH20 0xFFFFFFFFFFFFFFFFFFFFFFFFFFFFFFFFFFFFFFFF AND PUSH4 0x9B53F51 PUSH1 0x40 MLOAD DUP2 PUSH4 0xFFFFFFFF AND PUSH1 0xE0 SHL DUP2 MSTORE PUSH1 0x4 ADD PUSH1 0x20 PUSH1 0x40 MLOAD DUP1 DUP4 SUB DUP2 DUP7 GAS STATICCALL ISZERO DUP1 ISZERO PUSH2 0x2B95 JUMPI RETURNDATASIZE PUSH1 0x0 DUP1 RETURNDATACOPY RETURNDATASIZE PUSH1 0x0 REVERT JUMPDEST POP POP POP POP PUSH1 0x40 MLOAD RETURNDATASIZE PUSH1 0x1F NOT PUSH1 0x1F DUP3 ADD AND DUP3 ADD DUP1 PUSH1 0x40 MSTORE POP DUP2 ADD SWAP1 PUSH2 0x2BB9 SWAP2 SWAP1 PUSH2 0x5220 JUMP JUMPDEST PUSH4 0xFFFFFFFF AND SWAP1 POP PUSH1 0x0 DUP1 DUP3 GT PUSH2 0x2BD1 JUMPI PUSH1 0x0 PUSH2 0x2BDE JUMP JUMPDEST DUP2 DUP4 PUSH2 0x2BDD SWAP2 SWAP1 PUSH2 0x4D92 JUMP JUMPDEST JUMPDEST SWAP1 POP PUSH1 0x0 DUP1 PUSH1 0x2 SWAP1 SLOAD SWAP1 PUSH2 0x100 EXP SWAP1 DIV PUSH20 0xFFFFFFFFFFFFFFFFFFFFFFFFFFFFFFFFFFFFFFFF AND PUSH20 0xFFFFFFFFFFFFFFFFFFFFFFFFFFFFFFFFFFFFFFFF AND PUSH4 0xC42B64D0 PUSH1 0x40 MLOAD DUP2 PUSH4 0xFFFFFFFF AND PUSH1 0xE0 SHL DUP2 MSTORE PUSH1 0x4 ADD PUSH1 0x80 PUSH1 0x40 MLOAD DUP1 DUP4 SUB DUP2 DUP7 GAS STATICCALL ISZERO DUP1 ISZERO PUSH2 0x2C4E JUMPI RETURNDATASIZE PUSH1 0x0 DUP1 RETURNDATACOPY RETURNDATASIZE PUSH1 0x0 REVERT JUMPDEST POP POP POP POP PUSH1 0x40 MLOAD RETURNDATASIZE PUSH1 0x1F NOT PUSH1 0x1F DUP3 ADD AND DUP3 ADD DUP1 PUSH1 0x40 MSTORE POP DUP2 ADD SWAP1 PUSH2 0x2C72 SWAP2 SWAP1 PUSH2 0x524D JUMP JUMPDEST POP SWAP3 POP POP POP PUSH1 0x0 PUSH5 0x2540BE400 DUP3 PUSH8 0xFFFFFFFFFFFFFFFF AND PUSH2 0x2C94 SWAP2 SWAP1 PUSH2 0x4899 JUMP JUMPDEST SWAP1 POP DUP1 DUP4 DUP7 PUSH2 0x2CA3 SWAP2 SWAP1 PUSH2 0x3B59 JUMP JUMPDEST PUSH2 0x2CAD SWAP2 SWAP1 PUSH2 0x3B59 JUMP JUMPDEST SWAP6 POP POP POP POP POP POP SWAP3 SWAP2 POP POP JUMP JUMPDEST PUSH1 0x0 PUSH5 0x2540BE400 DUP3 PUSH2 0x2CCD SWAP2 SWAP1 PUSH2 0x4D92 JUMP JUMPDEST SWAP2 POP PUSH5 0x2540BE400 DUP3 PUSH2 0x2CE0 SWAP2 SWAP1 PUSH2 0x4899 JUMP JUMPDEST SWAP2 POP DUP2 SWAP1 POP SWAP2 SWAP1 POP JUMP JUMPDEST PUSH1 0x0 DUP4 PUSH20 0xFFFFFFFFFFFFFFFFFFFFFFFFFFFFFFFFFFFFFFFF AND PUSH4 0xDD62ED3E ADDRESS DUP6 PUSH1 0x40 MLOAD DUP4 PUSH4 0xFFFFFFFF AND PUSH1 0xE0 SHL DUP2 MSTORE PUSH1 0x4 ADD PUSH2 0x2D27 SWAP3 SWAP2 SWAP1 PUSH2 0x52B4 JUMP JUMPDEST PUSH1 0x20 PUSH1 0x40 MLOAD DUP1 DUP4 SUB DUP2 DUP7 GAS STATICCALL ISZERO DUP1 ISZERO PUSH2 0x2D44 JUMPI RETURNDATASIZE PUSH1 0x0 DUP1 RETURNDATACOPY RETURNDATASIZE PUSH1 0x0 REVERT JUMPDEST POP POP POP POP PUSH1 0x40 MLOAD RETURNDATASIZE PUSH1 0x1F NOT PUSH1 0x1F DUP3 ADD AND DUP3 ADD DUP1 PUSH1 0x40 MSTORE POP DUP2 ADD SWAP1 PUSH2 0x2D68 SWAP2 SWAP1 PUSH2 0x3A0E JUMP JUMPDEST SWAP1 POP PUSH2 0x2DF6 DUP5 PUSH4 0x95EA7B3 PUSH1 0xE0 SHL DUP6 DUP6 DUP6 PUSH2 0x2D83 SWAP2 SWAP1 PUSH2 0x3B8D JUMP JUMPDEST PUSH1 0x40 MLOAD PUSH1 0x24 ADD PUSH2 0x2D94 SWAP3 SWAP2 SWAP1 PUSH2 0x52DD JUMP JUMPDEST PUSH1 0x40 MLOAD PUSH1 0x20 DUP2 DUP4 SUB SUB DUP2 MSTORE SWAP1 PUSH1 0x40 MSTORE SWAP1 PUSH28 0xFFFFFFFFFFFFFFFFFFFFFFFFFFFFFFFFFFFFFFFFFFFFFFFFFFFFFFFF NOT AND PUSH1 0x20 DUP3 ADD DUP1 MLOAD PUSH28 0xFFFFFFFFFFFFFFFFFFFFFFFFFFFFFFFFFFFFFFFFFFFFFFFFFFFFFFFF DUP4 DUP2 DUP4 AND OR DUP4 MSTORE POP POP POP POP PUSH2 0x2EDA JUMP JUMPDEST POP POP POP POP JUMP JUMPDEST PUSH1 0x0 PUSH2 0x2E3C DUP3 PUSH1 0x0 ADD MLOAD DUP4 PUSH1 0x20 ADD MLOAD DUP5 PUSH1 0x40 ADD MLOAD DUP6 PUSH1 0x60 ADD MLOAD PUSH1 0x40 MLOAD PUSH1 0x20 ADD PUSH2 0x2E28 SWAP5 SWAP4 SWAP3 SWAP2 SWAP1 PUSH2 0x5363 JUMP JUMPDEST PUSH1 0x40 MLOAD PUSH1 0x20 DUP2 DUP4 SUB SUB DUP2 MSTORE SWAP1 PUSH1 0x40 MSTORE PUSH2 0x2FA2 JUMP JUMPDEST SWAP1 POP SWAP2 SWAP1 POP JUMP JUMPDEST PUSH1 0x0 DUP3 DUP3 PUSH1 0x40 MLOAD PUSH1 0x20 ADD PUSH2 0x2E58 SWAP3 SWAP2 SWAP1 PUSH2 0x5400 JUMP JUMPDEST PUSH1 0x40 MLOAD PUSH1 0x20 DUP2 DUP4 SUB SUB DUP2 MSTORE SWAP1 PUSH1 0x40 MSTORE DUP1 MLOAD SWAP1 PUSH1 0x20 ADD KECCAK256 PUSH1 0x0 SHR SWAP1 POP SWAP3 SWAP2 POP POP JUMP JUMPDEST PUSH1 0x0 PUSH1 0x1 SWAP1 SLOAD SWAP1 PUSH2 0x100 EXP SWAP1 DIV PUSH1 0xFF AND PUSH2 0x2EC8 JUMPI PUSH1 0x40 MLOAD PUSH32 0x8C379A000000000000000000000000000000000000000000000000000000000 DUP2 MSTORE PUSH1 0x4 ADD PUSH2 0x2EBF SWAP1 PUSH2 0x51C4 JUMP JUMPDEST PUSH1 0x40 MLOAD DUP1 SWAP2 SUB SWAP1 REVERT JUMPDEST PUSH2 0x2ED8 PUSH2 0x2ED3 PUSH2 0x2AF3 JUMP JUMPDEST PUSH2 0x2762 JUMP JUMPDEST JUMP JUMPDEST PUSH1 0x0 PUSH2 0x2F3C DUP3 PUSH1 0x40 MLOAD DUP1 PUSH1 0x40 ADD PUSH1 0x40 MSTORE DUP1 PUSH1 0x20 DUP2 MSTORE PUSH1 0x20 ADD PUSH32 0x5361666545524332303A206C6F772D6C6576656C2063616C6C206661696C6564 DUP2 MSTORE POP DUP6 PUSH20 0xFFFFFFFFFFFFFFFFFFFFFFFFFFFFFFFFFFFFFFFF AND PUSH2 0x2FCA SWAP1 SWAP3 SWAP2 SWAP1 PUSH4 0xFFFFFFFF AND JUMP JUMPDEST SWAP1 POP PUSH1 0x0 DUP2 MLOAD EQ DUP1 PUSH2 0x2F5E JUMPI POP DUP1 DUP1 PUSH1 0x20 ADD SWAP1 MLOAD DUP2 ADD SWAP1 PUSH2 0x2F5D SWAP2 SWAP1 PUSH2 0x5441 JUMP JUMPDEST JUMPDEST PUSH2 0x2F9D JUMPI PUSH1 0x40 MLOAD PUSH32 0x8C379A000000000000000000000000000000000000000000000000000000000 DUP2 MSTORE PUSH1 0x4 ADD PUSH2 0x2F94 SWAP1 PUSH2 0x54E0 JUMP JUMPDEST PUSH1 0x40 MLOAD DUP1 SWAP2 SUB SWAP1 REVERT JUMPDEST POP POP POP JUMP JUMPDEST PUSH1 0x0 PUSH1 0x20 PUSH1 0x0 DUP4 MLOAD PUSH1 0x20 DUP6 ADD PUSH1 0x2 GAS STATICCALL POP PUSH1 0x20 PUSH1 0x0 PUSH1 0x20 PUSH1 0x0 PUSH1 0x2 GAS STATICCALL POP PUSH1 0x0 MLOAD SWAP1 POP SWAP2 SWAP1 POP JUMP JUMPDEST PUSH1 0x60 PUSH2 0x2FD9 DUP5 DUP5 PUSH1 0x0 DUP6 PUSH2 0x2FE2 JUMP JUMPDEST SWAP1 POP SWAP4 SWAP3 POP POP POP JUMP JUMPDEST PUSH1 0x60 DUP3 SELFBALANCE LT ISZERO PUSH2 0x3027 JUMPI PUSH1 0x40 MLOAD PUSH32 0x8C379A000000000000000000000000000000000000000000000000000000000 DUP2 MSTORE PUSH1 0x4 ADD PUSH2 0x301E SWAP1 PUSH2 0x5572 JUMP JUMPDEST PUSH1 0x40 MLOAD DUP1 SWAP2 SUB SWAP1 REVERT JUMPDEST PUSH1 0x0 DUP1 DUP7 PUSH20 0xFFFFFFFFFFFFFFFFFFFFFFFFFFFFFFFFFFFFFFFF AND DUP6 DUP8 PUSH1 0x40 MLOAD PUSH2 0x3050 SWAP2 SWAP1 PUSH2 0x5592 JUMP JUMPDEST PUSH1 0x0 PUSH1 0x40 MLOAD DUP1 DUP4 SUB DUP2 DUP6 DUP8 GAS CALL SWAP3 POP POP POP RETURNDATASIZE DUP1 PUSH1 0x0 DUP2 EQ PUSH2 0x308D JUMPI PUSH1 0x40 MLOAD SWAP2 POP PUSH1 0x1F NOT PUSH1 0x3F RETURNDATASIZE ADD AND DUP3 ADD PUSH1 0x40 MSTORE RETURNDATASIZE DUP3 MSTORE RETURNDATASIZE PUSH1 0x0 PUSH1 0x20 DUP5 ADD RETURNDATACOPY PUSH2 0x3092 JUMP JUMPDEST PUSH1 0x60 SWAP2 POP JUMPDEST POP SWAP2 POP SWAP2 POP PUSH2 0x30A3 DUP8 DUP4 DUP4 DUP8 PUSH2 0x30AF JUMP JUMPDEST SWAP3 POP POP POP SWAP5 SWAP4 POP POP POP POP JUMP JUMPDEST PUSH1 0x60 DUP4 ISZERO PUSH2 0x3111 JUMPI PUSH1 0x0 DUP4 MLOAD SUB PUSH2 0x3109 JUMPI PUSH2 0x30C9 DUP6 PUSH2 0x2828 JUMP JUMPDEST PUSH2 0x3108 JUMPI PUSH1 0x40 MLOAD PUSH32 0x8C379A000000000000000000000000000000000000000000000000000000000 DUP2 MSTORE PUSH1 0x4 ADD PUSH2 0x30FF SWAP1 PUSH2 0x55F5 JUMP JUMPDEST PUSH1 0x40 MLOAD DUP1 SWAP2 SUB SWAP1 REVERT JUMPDEST JUMPDEST DUP3 SWAP1 POP PUSH2 0x311C JUMP JUMPDEST PUSH2 0x311B DUP4 DUP4 PUSH2 0x3124 JUMP JUMPDEST JUMPDEST SWAP5 SWAP4 POP POP POP POP JUMP JUMPDEST PUSH1 0x0 DUP3 MLOAD GT ISZERO PUSH2 0x3137 JUMPI DUP2 MLOAD DUP1 DUP4 PUSH1 0x20 ADD REVERT JUMPDEST DUP1 PUSH1 0x40 MLOAD PUSH32 0x8C379A000000000000000000000000000000000000000000000000000000000 DUP2 MSTORE PUSH1 0x4 ADD PUSH2 0x316B SWAP2 SWAP1 PUSH2 0x5659 JUMP JUMPDEST PUSH1 0x40 MLOAD DUP1 SWAP2 SUB SWAP1 REVERT JUMPDEST PUSH1 0x40 MLOAD DUP1 PUSH1 0x60 ADD PUSH1 0x40 MSTORE DUP1 PUSH1 0x0 PUSH2 0xFFFF AND DUP2 MSTORE PUSH1 0x20 ADD PUSH1 0x0 DUP1 NOT AND DUP2 MSTORE PUSH1 0x20 ADD PUSH1 0x0 PUSH8 0xFFFFFFFFFFFFFFFF AND DUP2 MSTORE POP SWAP1 JUMP JUMPDEST PUSH1 0x0 PUSH1 0x40 MLOAD SWAP1 POP SWAP1 JUMP JUMPDEST PUSH1 0x0 DUP1 REVERT JUMPDEST PUSH1 0x0 DUP1 REVERT JUMPDEST PUSH1 0x0 PUSH20 0xFFFFFFFFFFFFFFFFFFFFFFFFFFFFFFFFFFFFFFFF DUP3 AND SWAP1 POP SWAP2 SWAP1 POP JUMP JUMPDEST PUSH1 0x0 PUSH2 0x31E5 DUP3 PUSH2 0x31BA JUMP JUMPDEST SWAP1 POP SWAP2 SWAP1 POP JUMP JUMPDEST PUSH2 0x31F5 DUP2 PUSH2 0x31DA JUMP JUMPDEST DUP2 EQ PUSH2 0x3200 JUMPI PUSH1 0x0 DUP1 REVERT JUMPDEST POP JUMP JUMPDEST PUSH1 0x0 DUP2 CALLDATALOAD SWAP1 POP PUSH2 0x3212 DUP2 PUSH2 0x31EC JUMP JUMPDEST SWAP3 SWAP2 POP POP JUMP JUMPDEST PUSH1 0x0 PUSH1 0x20 DUP3 DUP5 SUB SLT ISZERO PUSH2 0x322E JUMPI PUSH2 0x322D PUSH2 0x31B0 JUMP JUMPDEST JUMPDEST PUSH1 0x0 PUSH2 0x323C DUP5 DUP3 DUP6 ADD PUSH2 0x3203 JUMP JUMPDEST SWAP2 POP POP SWAP3 SWAP2 POP POP JUMP JUMPDEST PUSH1 0x0 DUP2 SWAP1 POP SWAP2 SWAP1 POP JUMP JUMPDEST PUSH1 0x0 PUSH2 0x326A PUSH2 0x3265 PUSH2 0x3260 DUP5 PUSH2 0x31BA JUMP JUMPDEST PUSH2 0x3245 JUMP JUMPDEST PUSH2 0x31BA JUMP JUMPDEST SWAP1 POP SWAP2 SWAP1 POP JUMP JUMPDEST PUSH1 0x0 PUSH2 0x327C DUP3 PUSH2 0x324F JUMP JUMPDEST SWAP1 POP SWAP2 SWAP1 POP JUMP JUMPDEST PUSH1 0x0 PUSH2 0x328E DUP3 PUSH2 0x3271 JUMP JUMPDEST SWAP1 POP SWAP2 SWAP1 POP JUMP JUMPDEST PUSH2 0x329E DUP2 PUSH2 0x3283 JUMP JUMPDEST DUP3 MSTORE POP POP JUMP JUMPDEST PUSH1 0x0 PUSH1 0x20 DUP3 ADD SWAP1 POP PUSH2 0x32B9 PUSH1 0x0 DUP4 ADD DUP5 PUSH2 0x3295 JUMP JUMPDEST SWAP3 SWAP2 POP POP JUMP JUMPDEST PUSH1 0x0 DUP2 SWAP1 POP SWAP2 SWAP1 POP JUMP JUMPDEST PUSH2 0x32D2 DUP2 PUSH2 0x32BF JUMP JUMPDEST DUP3 MSTORE POP POP JUMP JUMPDEST PUSH1 0x0 PUSH1 0x20 DUP3 ADD SWAP1 POP PUSH2 0x32ED PUSH1 0x0 DUP4 ADD DUP5 PUSH2 0x32C9 JUMP JUMPDEST SWAP3 SWAP2 POP POP JUMP JUMPDEST PUSH2 0x32FC DUP2 PUSH2 0x32BF JUMP JUMPDEST DUP2 EQ PUSH2 0x3307 JUMPI PUSH1 0x0 DUP1 REVERT JUMPDEST POP JUMP JUMPDEST PUSH1 0x0 DUP2 CALLDATALOAD SWAP1 POP PUSH2 0x3319 DUP2 PUSH2 0x32F3 JUMP JUMPDEST SWAP3 SWAP2 POP POP JUMP JUMPDEST PUSH1 0x0 PUSH1 0x20 DUP3 DUP5 SUB SLT ISZERO PUSH2 0x3335 JUMPI PUSH2 0x3334 PUSH2 0x31B0 JUMP JUMPDEST JUMPDEST PUSH1 0x0 PUSH2 0x3343 DUP5 DUP3 DUP6 ADD PUSH2 0x330A JUMP JUMPDEST SWAP2 POP POP SWAP3 SWAP2 POP POP JUMP JUMPDEST PUSH1 0x0 DUP2 ISZERO ISZERO SWAP1 POP SWAP2 SWAP1 POP JUMP JUMPDEST PUSH2 0x3361 DUP2 PUSH2 0x334C JUMP JUMPDEST DUP2 EQ PUSH2 0x336C JUMPI PUSH1 0x0 DUP1 REVERT JUMPDEST POP JUMP JUMPDEST PUSH1 0x0 DUP2 CALLDATALOAD SWAP1 POP PUSH2 0x337E DUP2 PUSH2 0x3358 JUMP JUMPDEST SWAP3 SWAP2 POP POP JUMP JUMPDEST PUSH1 0x0 DUP1 PUSH1 0x40 DUP4 DUP6 SUB SLT ISZERO PUSH2 0x339B JUMPI PUSH2 0x339A PUSH2 0x31B0 JUMP JUMPDEST JUMPDEST PUSH1 0x0 PUSH2 0x33A9 DUP6 DUP3 DUP7 ADD PUSH2 0x3203 JUMP JUMPDEST SWAP3 POP POP PUSH1 0x20 PUSH2 0x33BA DUP6 DUP3 DUP7 ADD PUSH2 0x336F JUMP JUMPDEST SWAP2 POP POP SWAP3 POP SWAP3 SWAP1 POP JUMP JUMPDEST PUSH1 0x0 DUP1 REVERT JUMPDEST PUSH1 0x0 PUSH1 0x80 DUP3 DUP5 SUB SLT ISZERO PUSH2 0x33DF JUMPI PUSH2 0x33DE PUSH2 0x33C4 JUMP JUMPDEST JUMPDEST DUP2 SWAP1 POP SWAP3 SWAP2 POP POP JUMP JUMPDEST PUSH1 0x0 PUSH1 0xC0 DUP3 DUP5 SUB SLT ISZERO PUSH2 0x33FE JUMPI PUSH2 0x33FD PUSH2 0x33C4 JUMP JUMPDEST JUMPDEST DUP2 SWAP1 POP SWAP3 SWAP2 POP POP JUMP JUMPDEST PUSH1 0x0 DUP1 PUSH1 0x0 PUSH2 0x100 DUP5 DUP7 SUB SLT ISZERO PUSH2 0x3421 JUMPI PUSH2 0x3420 PUSH2 0x31B0 JUMP JUMPDEST JUMPDEST PUSH1 0x0 DUP5 ADD CALLDATALOAD PUSH8 0xFFFFFFFFFFFFFFFF DUP2 GT ISZERO PUSH2 0x343F JUMPI PUSH2 0x343E PUSH2 0x31B5 JUMP JUMPDEST JUMPDEST PUSH2 0x344B DUP7 DUP3 DUP8 ADD PUSH2 0x33C9 JUMP JUMPDEST SWAP4 POP POP PUSH1 0x20 PUSH2 0x345C DUP7 DUP3 DUP8 ADD PUSH2 0x33E8 JUMP JUMPDEST SWAP3 POP POP PUSH1 0xE0 PUSH2 0x346D DUP7 DUP3 DUP8 ADD PUSH2 0x3203 JUMP JUMPDEST SWAP2 POP POP SWAP3 POP SWAP3 POP SWAP3 JUMP JUMPDEST PUSH2 0x3480 DUP2 PUSH2 0x334C JUMP JUMPDEST DUP3 MSTORE POP POP JUMP JUMPDEST PUSH1 0x0 PUSH1 0x20 DUP3 ADD SWAP1 POP PUSH2 0x349B PUSH1 0x0 DUP4 ADD DUP5 PUSH2 0x3477 JUMP JUMPDEST SWAP3 SWAP2 POP POP JUMP JUMPDEST PUSH1 0x0 PUSH2 0xFFFF DUP3 AND SWAP1 POP SWAP2 SWAP1 POP JUMP JUMPDEST PUSH2 0x34B8 DUP2 PUSH2 0x34A1 JUMP JUMPDEST DUP2 EQ PUSH2 0x34C3 JUMPI PUSH1 0x0 DUP1 REVERT JUMPDEST POP JUMP JUMPDEST PUSH1 0x0 DUP2 CALLDATALOAD SWAP1 POP PUSH2 0x34D5 DUP2 PUSH2 0x34AF JUMP JUMPDEST SWAP3 SWAP2 POP POP JUMP JUMPDEST PUSH1 0x0 DUP1 PUSH1 0x0 DUP1 PUSH1 0x0 DUP1 PUSH1 0x0 PUSH1 0xE0 DUP9 DUP11 SUB SLT ISZERO PUSH2 0x34FA JUMPI PUSH2 0x34F9 PUSH2 0x31B0 JUMP JUMPDEST JUMPDEST PUSH1 0x0 PUSH2 0x3508 DUP11 DUP3 DUP12 ADD PUSH2 0x3203 JUMP JUMPDEST SWAP8 POP POP PUSH1 0x20 PUSH2 0x3519 DUP11 DUP3 DUP12 ADD PUSH2 0x3203 JUMP JUMPDEST SWAP7 POP POP PUSH1 0x40 PUSH2 0x352A DUP11 DUP3 DUP12 ADD PUSH2 0x3203 JUMP JUMPDEST SWAP6 POP POP PUSH1 0x60 PUSH2 0x353B DUP11 DUP3 DUP12 ADD PUSH2 0x3203 JUMP JUMPDEST SWAP5 POP POP PUSH1 0x80 PUSH2 0x354C DUP11 DUP3 DUP12 ADD PUSH2 0x3203 JUMP JUMPDEST SWAP4 POP POP PUSH1 0xA0 PUSH2 0x355D DUP11 DUP3 DUP12 ADD PUSH2 0x3203 JUMP JUMPDEST SWAP3 POP POP PUSH1 0xC0 PUSH2 0x356E DUP11 DUP3 DUP12 ADD PUSH2 0x34C6 JUMP JUMPDEST SWAP2 POP POP SWAP3 SWAP6 SWAP9 SWAP2 SWAP5 SWAP8 POP SWAP3 SWAP6 POP JUMP JUMPDEST PUSH1 0x0 PUSH2 0x3588 DUP3 PUSH2 0x31BA JUMP JUMPDEST SWAP1 POP SWAP2 SWAP1 POP JUMP JUMPDEST PUSH1 0x0 PUSH2 0x359A DUP3 PUSH2 0x357D JUMP JUMPDEST SWAP1 POP SWAP2 SWAP1 POP JUMP JUMPDEST PUSH2 0x35AA DUP2 PUSH2 0x358F JUMP JUMPDEST DUP2 EQ PUSH2 0x35B5 JUMPI PUSH1 0x0 DUP1 REVERT JUMPDEST POP JUMP JUMPDEST PUSH1 0x0 DUP2 CALLDATALOAD SWAP1 POP PUSH2 0x35C7 DUP2 PUSH2 0x35A1 JUMP JUMPDEST SWAP3 SWAP2 POP POP JUMP JUMPDEST PUSH1 0x0 PUSH1 0x20 DUP3 DUP5 SUB SLT ISZERO PUSH2 0x35E3 JUMPI PUSH2 0x35E2 PUSH2 0x31B0 JUMP JUMPDEST JUMPDEST PUSH1 0x0 PUSH2 0x35F1 DUP5 DUP3 DUP6 ADD PUSH2 0x35B8 JUMP JUMPDEST SWAP2 POP POP SWAP3 SWAP2 POP POP JUMP JUMPDEST PUSH2 0x3603 DUP2 PUSH2 0x31DA JUMP JUMPDEST DUP3 MSTORE POP POP JUMP JUMPDEST PUSH1 0x0 PUSH12 0xFFFFFFFFFFFFFFFFFFFFFFFF DUP3 AND SWAP1 POP SWAP2 SWAP1 POP JUMP JUMPDEST PUSH2 0x362A DUP2 PUSH2 0x3609 JUMP JUMPDEST DUP3 MSTORE POP POP JUMP JUMPDEST PUSH1 0x0 PUSH1 0x40 DUP3 ADD SWAP1 POP PUSH2 0x3645 PUSH1 0x0 DUP4 ADD DUP6 PUSH2 0x35FA JUMP JUMPDEST PUSH2 0x3652 PUSH1 0x20 DUP4 ADD DUP5 PUSH2 0x3621 JUMP JUMPDEST SWAP4 SWAP3 POP POP POP JUMP JUMPDEST PUSH1 0x0 PUSH2 0x3664 DUP3 PUSH2 0x3271 JUMP JUMPDEST SWAP1 POP SWAP2 SWAP1 POP JUMP JUMPDEST PUSH2 0x3674 DUP2 PUSH2 0x3659 JUMP JUMPDEST DUP3 MSTORE POP POP JUMP JUMPDEST PUSH1 0x0 PUSH1 0x20 DUP3 ADD SWAP1 POP PUSH2 0x368F PUSH1 0x0 DUP4 ADD DUP5 PUSH2 0x366B JUMP JUMPDEST SWAP3 SWAP2 POP POP JUMP JUMPDEST PUSH1 0x0 PUSH1 0x20 DUP3 ADD SWAP1 POP PUSH2 0x36AA PUSH1 0x0 DUP4 ADD DUP5 PUSH2 0x35FA JUMP JUMPDEST SWAP3 SWAP2 POP POP JUMP JUMPDEST PUSH1 0x0 DUP1 PUSH1 0x40 DUP4 DUP6 SUB SLT ISZERO PUSH2 0x36C7 JUMPI PUSH2 0x36C6 PUSH2 0x31B0 JUMP JUMPDEST JUMPDEST PUSH1 0x0 PUSH2 0x36D5 DUP6 DUP3 DUP7 ADD PUSH2 0x330A JUMP JUMPDEST SWAP3 POP POP PUSH1 0x20 PUSH2 0x36E6 DUP6 DUP3 DUP7 ADD PUSH2 0x330A JUMP JUMPDEST SWAP2 POP POP SWAP3 POP SWAP3 SWAP1 POP JUMP JUMPDEST PUSH32 0x4E487B7100000000000000000000000000000000000000000000000000000000 PUSH1 0x0 MSTORE PUSH1 0x21 PUSH1 0x4 MSTORE PUSH1 0x24 PUSH1 0x0 REVERT JUMPDEST PUSH1 0x3 DUP2 LT PUSH2 0x3730 JUMPI PUSH2 0x372F PUSH2 0x36F0 JUMP JUMPDEST JUMPDEST POP JUMP JUMPDEST PUSH1 0x0 DUP2 SWAP1 POP PUSH2 0x3741 DUP3 PUSH2 0x371F JUMP JUMPDEST SWAP2 SWAP1 POP JUMP JUMPDEST PUSH1 0x0 PUSH2 0x3751 DUP3 PUSH2 0x3733 JUMP JUMPDEST SWAP1 POP SWAP2 SWAP1 POP JUMP JUMPDEST PUSH2 0x3761 DUP2 PUSH2 0x3746 JUMP JUMPDEST DUP3 MSTORE POP POP JUMP JUMPDEST PUSH1 0x0 PUSH1 0x20 DUP3 ADD SWAP1 POP PUSH2 0x377C PUSH1 0x0 DUP4 ADD DUP5 PUSH2 0x3758 JUMP JUMPDEST SWAP3 SWAP2 POP POP JUMP JUMPDEST PUSH1 0x0 PUSH2 0x378D DUP3 PUSH2 0x324F JUMP JUMPDEST SWAP1 POP SWAP2 SWAP1 POP JUMP JUMPDEST PUSH1 0x0 PUSH2 0x379F DUP3 PUSH2 0x3782 JUMP JUMPDEST SWAP1 POP SWAP2 SWAP1 POP JUMP JUMPDEST PUSH2 0x37AF DUP2 PUSH2 0x3794 JUMP JUMPDEST DUP3 MSTORE POP POP JUMP JUMPDEST PUSH1 0x0 PUSH1 0x20 DUP3 ADD SWAP1 POP PUSH2 0x37CA PUSH1 0x0 DUP4 ADD DUP5 PUSH2 0x37A6 JUMP JUMPDEST SWAP3 SWAP2 POP POP JUMP JUMPDEST PUSH2 0x37D9 DUP2 PUSH2 0x34A1 JUMP JUMPDEST DUP3 MSTORE POP POP JUMP JUMPDEST PUSH1 0x0 PUSH1 0x20 DUP3 ADD SWAP1 POP PUSH2 0x37F4 PUSH1 0x0 DUP4 ADD DUP5 PUSH2 0x37D0 JUMP JUMPDEST SWAP3 SWAP2 POP POP JUMP JUMPDEST PUSH1 0x0 PUSH2 0x3805 DUP3 PUSH2 0x3271 JUMP JUMPDEST SWAP1 POP SWAP2 SWAP1 POP JUMP JUMPDEST PUSH2 0x3815 DUP2 PUSH2 0x37FA JUMP JUMPDEST DUP3 MSTORE POP POP JUMP JUMPDEST PUSH1 0x0 PUSH1 0x20 DUP3 ADD SWAP1 POP PUSH2 0x3830 PUSH1 0x0 DUP4 ADD DUP5 PUSH2 0x380C JUMP JUMPDEST SWAP3 SWAP2 POP POP JUMP JUMPDEST PUSH1 0x0 PUSH2 0x3841 DUP3 PUSH2 0x3271 JUMP JUMPDEST SWAP1 POP SWAP2 SWAP1 POP JUMP JUMPDEST PUSH2 0x3851 DUP2 PUSH2 0x3836 JUMP JUMPDEST DUP3 MSTORE POP POP JUMP JUMPDEST PUSH1 0x0 PUSH1 0x20 DUP3 ADD SWAP1 POP PUSH2 0x386C PUSH1 0x0 DUP4 ADD DUP5 PUSH2 0x3848 JUMP JUMPDEST SWAP3 SWAP2 POP POP JUMP JUMPDEST PUSH1 0x0 PUSH2 0x387D DUP3 PUSH2 0x3271 JUMP JUMPDEST SWAP1 POP SWAP2 SWAP1 POP JUMP JUMPDEST PUSH2 0x388D DUP2 PUSH2 0x3872 JUMP JUMPDEST DUP3 MSTORE POP POP JUMP JUMPDEST PUSH1 0x0 PUSH1 0x20 DUP3 ADD SWAP1 POP PUSH2 0x38A8 PUSH1 0x0 DUP4 ADD DUP5 PUSH2 0x3884 JUMP JUMPDEST SWAP3 SWAP2 POP POP JUMP JUMPDEST PUSH1 0x0 PUSH2 0x38B9 DUP3 PUSH2 0x3271 JUMP JUMPDEST SWAP1 POP SWAP2 SWAP1 POP JUMP JUMPDEST PUSH2 0x38C9 DUP2 PUSH2 0x38AE JUMP JUMPDEST DUP3 MSTORE POP POP JUMP JUMPDEST PUSH1 0x0 PUSH1 0x20 DUP3 ADD SWAP1 POP PUSH2 0x38E4 PUSH1 0x0 DUP4 ADD DUP5 PUSH2 0x38C0 JUMP JUMPDEST SWAP3 SWAP2 POP POP JUMP JUMPDEST PUSH1 0x0 DUP3 DUP3 MSTORE PUSH1 0x20 DUP3 ADD SWAP1 POP SWAP3 SWAP2 POP POP JUMP JUMPDEST PUSH32 0x4C3220426974636F696E204465706F7369746F7220616C726561647920736574 PUSH1 0x0 DUP3 ADD MSTORE POP JUMP JUMPDEST PUSH1 0x0 PUSH2 0x3931 PUSH1 0x20 DUP4 PUSH2 0x38EA JUMP JUMPDEST SWAP2 POP PUSH2 0x393C DUP3 PUSH2 0x38FB JUMP JUMPDEST PUSH1 0x20 DUP3 ADD SWAP1 POP SWAP2 SWAP1 POP JUMP JUMPDEST PUSH1 0x0 PUSH1 0x20 DUP3 ADD SWAP1 POP DUP2 DUP2 SUB PUSH1 0x0 DUP4 ADD MSTORE PUSH2 0x3960 DUP2 PUSH2 0x3924 JUMP JUMPDEST SWAP1 POP SWAP2 SWAP1 POP JUMP JUMPDEST PUSH32 0x4C3220426974636F696E204465706F7369746F72206D757374206E6F74206265 PUSH1 0x0 DUP3 ADD MSTORE PUSH32 0x2030783000000000000000000000000000000000000000000000000000000000 PUSH1 0x20 DUP3 ADD MSTORE POP JUMP JUMPDEST PUSH1 0x0 PUSH2 0x39C3 PUSH1 0x24 DUP4 PUSH2 0x38EA JUMP JUMPDEST SWAP2 POP PUSH2 0x39CE DUP3 PUSH2 0x3967 JUMP JUMPDEST PUSH1 0x40 DUP3 ADD SWAP1 POP SWAP2 SWAP1 POP JUMP JUMPDEST PUSH1 0x0 PUSH1 0x20 DUP3 ADD SWAP1 POP DUP2 DUP2 SUB PUSH1 0x0 DUP4 ADD MSTORE PUSH2 0x39F2 DUP2 PUSH2 0x39B6 JUMP JUMPDEST SWAP1 POP SWAP2 SWAP1 POP JUMP JUMPDEST PUSH1 0x0 DUP2 MLOAD SWAP1 POP PUSH2 0x3A08 DUP2 PUSH2 0x32F3 JUMP JUMPDEST SWAP3 SWAP2 POP POP JUMP JUMPDEST PUSH1 0x0 PUSH1 0x20 DUP3 DUP5 SUB SLT ISZERO PUSH2 0x3A24 JUMPI PUSH2 0x3A23 PUSH2 0x31B0 JUMP JUMPDEST JUMPDEST PUSH1 0x0 PUSH2 0x3A32 DUP5 DUP3 DUP6 ADD PUSH2 0x39F9 JUMP JUMPDEST SWAP2 POP POP SWAP3 SWAP2 POP POP JUMP JUMPDEST PUSH32 0x57726F6E67206465706F73697420737461746500000000000000000000000000 PUSH1 0x0 DUP3 ADD MSTORE POP JUMP JUMPDEST PUSH1 0x0 PUSH2 0x3A71 PUSH1 0x13 DUP4 PUSH2 0x38EA JUMP JUMPDEST SWAP2 POP PUSH2 0x3A7C DUP3 PUSH2 0x3A3B JUMP JUMPDEST PUSH1 0x20 DUP3 ADD SWAP1 POP SWAP2 SWAP1 POP JUMP JUMPDEST PUSH1 0x0 PUSH1 0x20 DUP3 ADD SWAP1 POP DUP2 DUP2 SUB PUSH1 0x0 DUP4 ADD MSTORE PUSH2 0x3AA0 DUP2 PUSH2 0x3A64 JUMP JUMPDEST SWAP1 POP SWAP2 SWAP1 POP JUMP JUMPDEST PUSH1 0x0 PUSH1 0x40 DUP3 ADD SWAP1 POP PUSH2 0x3ABC PUSH1 0x0 DUP4 ADD DUP6 PUSH2 0x32C9 JUMP JUMPDEST PUSH2 0x3AC9 PUSH1 0x20 DUP4 ADD DUP5 PUSH2 0x32C9 JUMP JUMPDEST SWAP4 SWAP3 POP POP POP JUMP JUMPDEST PUSH1 0x0 PUSH2 0x3AEB PUSH2 0x3AE6 PUSH2 0x3AE1 DUP5 PUSH2 0x3609 JUMP JUMPDEST PUSH2 0x3245 JUMP JUMPDEST PUSH2 0x32BF JUMP JUMPDEST SWAP1 POP SWAP2 SWAP1 POP JUMP JUMPDEST PUSH2 0x3AFB DUP2 PUSH2 0x3AD0 JUMP JUMPDEST DUP3 MSTORE POP POP JUMP JUMPDEST PUSH1 0x0 PUSH1 0x40 DUP3 ADD SWAP1 POP PUSH2 0x3B16 PUSH1 0x0 DUP4 ADD DUP6 PUSH2 0x3AF2 JUMP JUMPDEST PUSH2 0x3B23 PUSH1 0x20 DUP4 ADD DUP5 PUSH2 0x35FA JUMP JUMPDEST SWAP4 SWAP3 POP POP POP JUMP JUMPDEST PUSH32 0x4E487B7100000000000000000000000000000000000000000000000000000000 PUSH1 0x0 MSTORE PUSH1 0x11 PUSH1 0x4 MSTORE PUSH1 0x24 PUSH1 0x0 REVERT JUMPDEST PUSH1 0x0 PUSH2 0x3B64 DUP3 PUSH2 0x32BF JUMP JUMPDEST SWAP2 POP PUSH2 0x3B6F DUP4 PUSH2 0x32BF JUMP JUMPDEST SWAP3 POP DUP3 DUP3 SUB SWAP1 POP DUP2 DUP2 GT ISZERO PUSH2 0x3B87 JUMPI PUSH2 0x3B86 PUSH2 0x3B2A JUMP JUMPDEST JUMPDEST SWAP3 SWAP2 POP POP JUMP JUMPDEST PUSH1 0x0 PUSH2 0x3B98 DUP3 PUSH2 0x32BF JUMP JUMPDEST SWAP2 POP PUSH2 0x3BA3 DUP4 PUSH2 0x32BF JUMP JUMPDEST SWAP3 POP DUP3 DUP3 ADD SWAP1 POP DUP1 DUP3 GT ISZERO PUSH2 0x3BBB JUMPI PUSH2 0x3BBA PUSH2 0x3B2A JUMP JUMPDEST JUMPDEST SWAP3 SWAP2 POP POP JUMP JUMPDEST PUSH1 0x0 PUSH1 0x40 DUP3 ADD SWAP1 POP PUSH2 0x3BD6 PUSH1 0x0 DUP4 ADD DUP6 PUSH2 0x32C9 JUMP JUMPDEST PUSH2 0x3BE3 PUSH1 0x20 DUP4 ADD DUP5 PUSH2 0x35FA JUMP JUMPDEST SWAP4 SWAP3 POP POP POP JUMP JUMPDEST PUSH32 0x4C32206465706F736974206F776E6572206D757374206E6F7420626520307830 PUSH1 0x0 DUP3 ADD MSTORE POP JUMP JUMPDEST PUSH1 0x0 PUSH2 0x3C20 PUSH1 0x20 DUP4 PUSH2 0x38EA JUMP JUMPDEST SWAP2 POP PUSH2 0x3C2B DUP3 PUSH2 0x3BEA JUMP JUMPDEST PUSH1 0x20 DUP3 ADD SWAP1 POP SWAP2 SWAP1 POP JUMP JUMPDEST PUSH1 0x0 PUSH1 0x20 DUP3 ADD SWAP1 POP DUP2 DUP2 SUB PUSH1 0x0 DUP4 ADD MSTORE PUSH2 0x3C4F DUP2 PUSH2 0x3C13 JUMP JUMPDEST SWAP1 POP SWAP2 SWAP1 POP JUMP JUMPDEST PUSH1 0x0 DUP1 REVERT JUMPDEST PUSH1 0x0 PUSH1 0x1F NOT PUSH1 0x1F DUP4 ADD AND SWAP1 POP SWAP2 SWAP1 POP JUMP JUMPDEST PUSH32 0x4E487B7100000000000000000000000000000000000000000000000000000000 PUSH1 0x0 MSTORE PUSH1 0x41 PUSH1 0x4 MSTORE PUSH1 0x24 PUSH1 0x0 REVERT JUMPDEST PUSH2 0x3CA4 DUP3 PUSH2 0x3C5B JUMP JUMPDEST DUP2 ADD DUP2 DUP2 LT PUSH8 0xFFFFFFFFFFFFFFFF DUP3 GT OR ISZERO PUSH2 0x3CC3 JUMPI PUSH2 0x3CC2 PUSH2 0x3C6C JUMP JUMPDEST JUMPDEST DUP1 PUSH1 0x40 MSTORE POP POP POP JUMP JUMPDEST PUSH1 0x0 PUSH2 0x3CD6 PUSH2 0x31A6 JUMP JUMPDEST SWAP1 POP PUSH2 0x3CE2 DUP3 DUP3 PUSH2 0x3C9B JUMP JUMPDEST SWAP2 SWAP1 POP JUMP JUMPDEST PUSH1 0x0 DUP1 REVERT JUMPDEST PUSH1 0x0 PUSH32 0xFFFFFFFF00000000000000000000000000000000000000000000000000000000 DUP3 AND SWAP1 POP SWAP2 SWAP1 POP JUMP JUMPDEST PUSH2 0x3D21 DUP2 PUSH2 0x3CEC JUMP JUMPDEST DUP2 EQ PUSH2 0x3D2C JUMPI PUSH1 0x0 DUP1 REVERT JUMPDEST POP JUMP JUMPDEST PUSH1 0x0 DUP2 CALLDATALOAD SWAP1 POP PUSH2 0x3D3E DUP2 PUSH2 0x3D18 JUMP JUMPDEST SWAP3 SWAP2 POP POP JUMP JUMPDEST PUSH1 0x0 DUP1 REVERT JUMPDEST PUSH1 0x0 DUP1 REVERT JUMPDEST PUSH1 0x0 PUSH8 0xFFFFFFFFFFFFFFFF DUP3 GT ISZERO PUSH2 0x3D69 JUMPI PUSH2 0x3D68 PUSH2 0x3C6C JUMP JUMPDEST JUMPDEST PUSH2 0x3D72 DUP3 PUSH2 0x3C5B JUMP JUMPDEST SWAP1 POP PUSH1 0x20 DUP2 ADD SWAP1 POP SWAP2 SWAP1 POP JUMP JUMPDEST DUP3 DUP2 DUP4 CALLDATACOPY PUSH1 0x0 DUP4 DUP4 ADD MSTORE POP POP POP JUMP JUMPDEST PUSH1 0x0 PUSH2 0x3DA1 PUSH2 0x3D9C DUP5 PUSH2 0x3D4E JUMP JUMPDEST PUSH2 0x3CCC JUMP JUMPDEST SWAP1 POP DUP3 DUP2 MSTORE PUSH1 0x20 DUP2 ADD DUP5 DUP5 DUP5 ADD GT ISZERO PUSH2 0x3DBD JUMPI PUSH2 0x3DBC PUSH2 0x3D49 JUMP JUMPDEST JUMPDEST PUSH2 0x3DC8 DUP5 DUP3 DUP6 PUSH2 0x3D7F JUMP JUMPDEST POP SWAP4 SWAP3 POP POP POP JUMP JUMPDEST PUSH1 0x0 DUP3 PUSH1 0x1F DUP4 ADD SLT PUSH2 0x3DE5 JUMPI PUSH2 0x3DE4 PUSH2 0x3D44 JUMP JUMPDEST JUMPDEST DUP2 CALLDATALOAD PUSH2 0x3DF5 DUP5 DUP3 PUSH1 0x20 DUP7 ADD PUSH2 0x3D8E JUMP JUMPDEST SWAP2 POP POP SWAP3 SWAP2 POP POP JUMP JUMPDEST PUSH1 0x0 PUSH1 0x80 DUP3 DUP5 SUB SLT ISZERO PUSH2 0x3E14 JUMPI PUSH2 0x3E13 PUSH2 0x3C56 JUMP JUMPDEST JUMPDEST PUSH2 0x3E1E PUSH1 0x80 PUSH2 0x3CCC JUMP JUMPDEST SWAP1 POP PUSH1 0x0 PUSH2 0x3E2E DUP5 DUP3 DUP6 ADD PUSH2 0x3D2F JUMP JUMPDEST PUSH1 0x0 DUP4 ADD MSTORE POP PUSH1 0x20 DUP3 ADD CALLDATALOAD PUSH8 0xFFFFFFFFFFFFFFFF DUP2 GT ISZERO PUSH2 0x3E52 JUMPI PUSH2 0x3E51 PUSH2 0x3CE7 JUMP JUMPDEST JUMPDEST PUSH2 0x3E5E DUP5 DUP3 DUP6 ADD PUSH2 0x3DD0 JUMP JUMPDEST PUSH1 0x20 DUP4 ADD MSTORE POP PUSH1 0x40 DUP3 ADD CALLDATALOAD PUSH8 0xFFFFFFFFFFFFFFFF DUP2 GT ISZERO PUSH2 0x3E82 JUMPI PUSH2 0x3E81 PUSH2 0x3CE7 JUMP JUMPDEST JUMPDEST PUSH2 0x3E8E DUP5 DUP3 DUP6 ADD PUSH2 0x3DD0 JUMP JUMPDEST PUSH1 0x40 DUP4 ADD MSTORE POP PUSH1 0x60 PUSH2 0x3EA2 DUP5 DUP3 DUP6 ADD PUSH2 0x3D2F JUMP JUMPDEST PUSH1 0x60 DUP4 ADD MSTORE POP SWAP3 SWAP2 POP POP JUMP JUMPDEST PUSH1 0x0 PUSH2 0x3EBA CALLDATASIZE DUP4 PUSH2 0x3DFE JUMP JUMPDEST SWAP1 POP SWAP2 SWAP1 POP JUMP JUMPDEST PUSH1 0x0 PUSH4 0xFFFFFFFF DUP3 AND SWAP1 POP SWAP2 SWAP1 POP JUMP JUMPDEST PUSH2 0x3EDA DUP2 PUSH2 0x3EC1 JUMP JUMPDEST DUP2 EQ PUSH2 0x3EE5 JUMPI PUSH1 0x0 DUP1 REVERT JUMPDEST POP JUMP JUMPDEST PUSH1 0x0 DUP2 CALLDATALOAD SWAP1 POP PUSH2 0x3EF7 DUP2 PUSH2 0x3ED1 JUMP JUMPDEST SWAP3 SWAP2 POP POP JUMP JUMPDEST PUSH1 0x0 PUSH32 0xFFFFFFFFFFFFFFFF000000000000000000000000000000000000000000000000 DUP3 AND SWAP1 POP SWAP2 SWAP1 POP JUMP JUMPDEST PUSH2 0x3F32 DUP2 PUSH2 0x3EFD JUMP JUMPDEST DUP2 EQ PUSH2 0x3F3D JUMPI PUSH1 0x0 DUP1 REVERT JUMPDEST POP JUMP JUMPDEST PUSH1 0x0 DUP2 CALLDATALOAD SWAP1 POP PUSH2 0x3F4F DUP2 PUSH2 0x3F29 JUMP JUMPDEST SWAP3 SWAP2 POP POP JUMP JUMPDEST PUSH1 0x0 PUSH32 0xFFFFFFFFFFFFFFFFFFFFFFFFFFFFFFFFFFFFFFFF000000000000000000000000 DUP3 AND SWAP1 POP SWAP2 SWAP1 POP JUMP JUMPDEST PUSH2 0x3F8A DUP2 PUSH2 0x3F55 JUMP JUMPDEST DUP2 EQ PUSH2 0x3F95 JUMPI PUSH1 0x0 DUP1 REVERT JUMPDEST POP JUMP JUMPDEST PUSH1 0x0 DUP2 CALLDATALOAD SWAP1 POP PUSH2 0x3FA7 DUP2 PUSH2 0x3F81 JUMP JUMPDEST SWAP3 SWAP2 POP POP JUMP JUMPDEST PUSH1 0x0 PUSH1 0xC0 DUP3 DUP5 SUB SLT ISZERO PUSH2 0x3FC3 JUMPI PUSH2 0x3FC2 PUSH2 0x3C56 JUMP JUMPDEST JUMPDEST PUSH2 0x3FCD PUSH1 0xC0 PUSH2 0x3CCC JUMP JUMPDEST SWAP1 POP PUSH1 0x0 PUSH2 0x3FDD DUP5 DUP3 DUP6 ADD PUSH2 0x3EE8 JUMP JUMPDEST PUSH1 0x0 DUP4 ADD MSTORE POP PUSH1 0x20 PUSH2 0x3FF1 DUP5 DUP3 DUP6 ADD PUSH2 0x3F40 JUMP JUMPDEST PUSH1 0x20 DUP4 ADD MSTORE POP PUSH1 0x40 PUSH2 0x4005 DUP5 DUP3 DUP6 ADD PUSH2 0x3F98 JUMP JUMPDEST PUSH1 0x40 DUP4 ADD MSTORE POP PUSH1 0x60 PUSH2 0x4019 DUP5 DUP3 DUP6 ADD PUSH2 0x3F98 JUMP JUMPDEST PUSH1 0x60 DUP4 ADD MSTORE POP PUSH1 0x80 PUSH2 0x402D DUP5 DUP3 DUP6 ADD PUSH2 0x3D2F JUMP JUMPDEST PUSH1 0x80 DUP4 ADD MSTORE POP PUSH1 0xA0 PUSH2 0x4041 DUP5 DUP3 DUP6 ADD PUSH2 0x3203 JUMP JUMPDEST PUSH1 0xA0 DUP4 ADD MSTORE POP SWAP3 SWAP2 POP POP JUMP JUMPDEST PUSH1 0x0 PUSH1 0xC0 DUP3 DUP5 SUB SLT ISZERO PUSH2 0x4063 JUMPI PUSH2 0x4062 PUSH2 0x31B0 JUMP JUMPDEST JUMPDEST PUSH1 0x0 PUSH2 0x4071 DUP5 DUP3 DUP6 ADD PUSH2 0x3FAD JUMP JUMPDEST SWAP2 POP POP SWAP3 SWAP2 POP POP JUMP JUMPDEST PUSH32 0x496E697469616C697A61626C653A20636F6E747261637420697320616C726561 PUSH1 0x0 DUP3 ADD MSTORE PUSH32 0x647920696E697469616C697A6564000000000000000000000000000000000000 PUSH1 0x20 DUP3 ADD MSTORE POP JUMP JUMPDEST PUSH1 0x0 PUSH2 0x40D6 PUSH1 0x2E DUP4 PUSH2 0x38EA JUMP JUMPDEST SWAP2 POP PUSH2 0x40E1 DUP3 PUSH2 0x407A JUMP JUMPDEST PUSH1 0x40 DUP3 ADD SWAP1 POP SWAP2 SWAP1 POP JUMP JUMPDEST PUSH1 0x0 PUSH1 0x20 DUP3 ADD SWAP1 POP DUP2 DUP2 SUB PUSH1 0x0 DUP4 ADD MSTORE PUSH2 0x4105 DUP2 PUSH2 0x40C9 JUMP JUMPDEST SWAP1 POP SWAP2 SWAP1 POP JUMP JUMPDEST PUSH32 0x576F726D686F6C6520616464726573732063616E6E6F74206265207A65726F00 PUSH1 0x0 DUP3 ADD MSTORE POP JUMP JUMPDEST PUSH1 0x0 PUSH2 0x4142 PUSH1 0x1F DUP4 PUSH2 0x38EA JUMP JUMPDEST SWAP2 POP PUSH2 0x414D DUP3 PUSH2 0x410C JUMP JUMPDEST PUSH1 0x20 DUP3 ADD SWAP1 POP SWAP2 SWAP1 POP JUMP JUMPDEST PUSH1 0x0 PUSH1 0x20 DUP3 ADD SWAP1 POP DUP2 DUP2 SUB PUSH1 0x0 DUP4 ADD MSTORE PUSH2 0x4171 DUP2 PUSH2 0x4135 JUMP JUMPDEST SWAP1 POP SWAP2 SWAP1 POP JUMP JUMPDEST PUSH32 0x576F726D686F6C6552656C6179657220616464726573732063616E6E6F742062 PUSH1 0x0 DUP3 ADD MSTORE PUSH32 0x65207A65726F0000000000000000000000000000000000000000000000000000 PUSH1 0x20 DUP3 ADD MSTORE POP JUMP JUMPDEST PUSH1 0x0 PUSH2 0x41D4 PUSH1 0x26 DUP4 PUSH2 0x38EA JUMP JUMPDEST SWAP2 POP PUSH2 0x41DF DUP3 PUSH2 0x4178 JUMP JUMPDEST PUSH1 0x40 DUP3 ADD SWAP1 POP SWAP2 SWAP1 POP JUMP JUMPDEST PUSH1 0x0 PUSH1 0x20 DUP3 ADD SWAP1 POP DUP2 DUP2 SUB PUSH1 0x0 DUP4 ADD MSTORE PUSH2 0x4203 DUP2 PUSH2 0x41C7 JUMP JUMPDEST SWAP1 POP SWAP2 SWAP1 POP JUMP JUMPDEST PUSH32 0x576F726D686F6C65546F6B656E42726964676520616464726573732063616E6E PUSH1 0x0 DUP3 ADD MSTORE PUSH32 0x6F74206265207A65726F00000000000000000000000000000000000000000000 PUSH1 0x20 DUP3 ADD MSTORE POP JUMP JUMPDEST PUSH1 0x0 PUSH2 0x4266 PUSH1 0x2A DUP4 PUSH2 0x38EA JUMP JUMPDEST SWAP2 POP PUSH2 0x4271 DUP3 PUSH2 0x420A JUMP JUMPDEST PUSH1 0x40 DUP3 ADD SWAP1 POP SWAP2 SWAP1 POP JUMP JUMPDEST PUSH1 0x0 PUSH1 0x20 DUP3 ADD SWAP1 POP DUP2 DUP2 SUB PUSH1 0x0 DUP4 ADD MSTORE PUSH2 0x4295 DUP2 PUSH2 0x4259 JUMP JUMPDEST SWAP1 POP SWAP2 SWAP1 POP JUMP JUMPDEST PUSH32 0x4C32576F726D686F6C654761746577617920616464726573732063616E6E6F74 PUSH1 0x0 DUP3 ADD MSTORE PUSH32 0x206265207A65726F000000000000000000000000000000000000000000000000 PUSH1 0x20 DUP3 ADD MSTORE POP JUMP JUMPDEST PUSH1 0x0 PUSH2 0x42F8 PUSH1 0x28 DUP4 PUSH2 0x38EA JUMP JUMPDEST SWAP2 POP PUSH2 0x4303 DUP3 PUSH2 0x429C JUMP JUMPDEST PUSH1 0x40 DUP3 ADD SWAP1 POP SWAP2 SWAP1 POP JUMP JUMPDEST PUSH1 0x0 PUSH1 0x20 DUP3 ADD SWAP1 POP DUP2 DUP2 SUB PUSH1 0x0 DUP4 ADD MSTORE PUSH2 0x4327 DUP2 PUSH2 0x42EB JUMP JUMPDEST SWAP1 POP SWAP2 SWAP1 POP JUMP JUMPDEST PUSH1 0x0 DUP2 MLOAD SWAP1 POP PUSH2 0x433D DUP2 PUSH2 0x31EC JUMP JUMPDEST SWAP3 SWAP2 POP POP JUMP JUMPDEST PUSH1 0x0 PUSH1 0x20 DUP3 DUP5 SUB SLT ISZERO PUSH2 0x4359 JUMPI PUSH2 0x4358 PUSH2 0x31B0 JUMP JUMPDEST JUMPDEST PUSH1 0x0 PUSH2 0x4367 DUP5 DUP3 DUP6 ADD PUSH2 0x432E JUMP JUMPDEST SWAP2 POP POP SWAP3 SWAP2 POP POP JUMP JUMPDEST PUSH1 0x0 DUP2 SWAP1 POP SWAP2 SWAP1 POP JUMP JUMPDEST PUSH1 0x0 PUSH1 0xFF DUP3 AND SWAP1 POP SWAP2 SWAP1 POP JUMP JUMPDEST PUSH1 0x0 PUSH2 0x43A2 PUSH2 0x439D PUSH2 0x4398 DUP5 PUSH2 0x4370 JUMP JUMPDEST PUSH2 0x3245 JUMP JUMPDEST PUSH2 0x437A JUMP JUMPDEST SWAP1 POP SWAP2 SWAP1 POP JUMP JUMPDEST PUSH2 0x43B2 DUP2 PUSH2 0x4387 JUMP JUMPDEST DUP3 MSTORE POP POP JUMP JUMPDEST PUSH1 0x0 PUSH1 0x20 DUP3 ADD SWAP1 POP PUSH2 0x43CD PUSH1 0x0 DUP4 ADD DUP5 PUSH2 0x43A9 JUMP JUMPDEST SWAP3 SWAP2 POP POP JUMP JUMPDEST PUSH32 0x43616C6C6572206973206E6F7420746865206F776E6572000000000000000000 PUSH1 0x0 DUP3 ADD MSTORE POP JUMP JUMPDEST PUSH1 0x0 PUSH2 0x4409 PUSH1 0x17 DUP4 PUSH2 0x38EA JUMP JUMPDEST SWAP2 POP PUSH2 0x4414 DUP3 PUSH2 0x43D3 JUMP JUMPDEST PUSH1 0x20 DUP3 ADD SWAP1 POP SWAP2 SWAP1 POP JUMP JUMPDEST PUSH1 0x0 PUSH1 0x20 DUP3 ADD SWAP1 POP DUP2 DUP2 SUB PUSH1 0x0 DUP4 ADD MSTORE PUSH2 0x4438 DUP2 PUSH2 0x43FC JUMP JUMPDEST SWAP1 POP SWAP2 SWAP1 POP JUMP JUMPDEST PUSH32 0x4F776E61626C653A206E6577206F776E657220697320746865207A65726F2061 PUSH1 0x0 DUP3 ADD MSTORE PUSH32 0x6464726573730000000000000000000000000000000000000000000000000000 PUSH1 0x20 DUP3 ADD MSTORE POP JUMP JUMPDEST PUSH1 0x0 PUSH2 0x449B PUSH1 0x26 DUP4 PUSH2 0x38EA JUMP JUMPDEST SWAP2 POP PUSH2 0x44A6 DUP3 PUSH2 0x443F JUMP JUMPDEST PUSH1 0x40 DUP3 ADD SWAP1 POP SWAP2 SWAP1 POP JUMP JUMPDEST PUSH1 0x0 PUSH1 0x20 DUP3 ADD SWAP1 POP DUP2 DUP2 SUB PUSH1 0x0 DUP4 ADD MSTORE PUSH2 0x44CA DUP2 PUSH2 0x448E JUMP JUMPDEST SWAP1 POP SWAP2 SWAP1 POP JUMP JUMPDEST PUSH32 0x4F776E61626C653A2063616C6C6572206973206E6F7420746865206F776E6572 PUSH1 0x0 DUP3 ADD MSTORE POP JUMP JUMPDEST PUSH1 0x0 PUSH2 0x4507 PUSH1 0x20 DUP4 PUSH2 0x38EA JUMP JUMPDEST SWAP2 POP PUSH2 0x4512 DUP3 PUSH2 0x44D1 JUMP JUMPDEST PUSH1 0x20 DUP3 ADD SWAP1 POP SWAP2 SWAP1 POP JUMP JUMPDEST PUSH1 0x0 PUSH1 0x20 DUP3 ADD SWAP1 POP DUP2 DUP2 SUB PUSH1 0x0 DUP4 ADD MSTORE PUSH2 0x4536 DUP2 PUSH2 0x44FA JUMP JUMPDEST SWAP1 POP SWAP2 SWAP1 POP JUMP JUMPDEST PUSH1 0x0 DUP2 SWAP1 POP SWAP2 SWAP1 POP JUMP JUMPDEST PUSH1 0x0 PUSH2 0x4562 PUSH2 0x455D PUSH2 0x4558 DUP5 PUSH2 0x453D JUMP JUMPDEST PUSH2 0x3245 JUMP JUMPDEST PUSH2 0x32BF JUMP JUMPDEST SWAP1 POP SWAP2 SWAP1 POP JUMP JUMPDEST PUSH2 0x4572 DUP2 PUSH2 0x4547 JUMP JUMPDEST DUP3 MSTORE POP POP JUMP JUMPDEST PUSH1 0x0 PUSH1 0x60 DUP3 ADD SWAP1 POP PUSH2 0x458D PUSH1 0x0 DUP4 ADD DUP7 PUSH2 0x37D0 JUMP JUMPDEST PUSH2 0x459A PUSH1 0x20 DUP4 ADD DUP6 PUSH2 0x4569 JUMP JUMPDEST PUSH2 0x45A7 PUSH1 0x40 DUP4 ADD DUP5 PUSH2 0x32C9 JUMP JUMPDEST SWAP5 SWAP4 POP POP POP POP JUMP JUMPDEST PUSH1 0x0 DUP1 PUSH1 0x40 DUP4 DUP6 SUB SLT ISZERO PUSH2 0x45C6 JUMPI PUSH2 0x45C5 PUSH2 0x31B0 JUMP JUMPDEST JUMPDEST PUSH1 0x0 PUSH2 0x45D4 DUP6 DUP3 DUP7 ADD PUSH2 0x39F9 JUMP JUMPDEST SWAP3 POP POP PUSH1 0x20 PUSH2 0x45E5 DUP6 DUP3 DUP7 ADD PUSH2 0x39F9 JUMP JUMPDEST SWAP2 POP POP SWAP3 POP SWAP3 SWAP1 POP JUMP JUMPDEST PUSH1 0x0 PUSH8 0xFFFFFFFFFFFFFFFF DUP3 AND SWAP1 POP SWAP2 SWAP1 POP JUMP JUMPDEST PUSH2 0x460C DUP2 PUSH2 0x45EF JUMP JUMPDEST DUP2 EQ PUSH2 0x4617 JUMPI PUSH1 0x0 DUP1 REVERT JUMPDEST POP JUMP JUMPDEST PUSH1 0x0 DUP2 MLOAD SWAP1 POP PUSH2 0x4629 DUP2 PUSH2 0x4603 JUMP JUMPDEST SWAP3 SWAP2 POP POP JUMP JUMPDEST PUSH1 0x0 DUP2 MLOAD SWAP1 POP PUSH2 0x463E DUP2 PUSH2 0x3ED1 JUMP JUMPDEST SWAP3 SWAP2 POP POP JUMP JUMPDEST PUSH1 0x0 DUP2 SWAP1 POP SWAP2 SWAP1 POP JUMP JUMPDEST PUSH2 0x4657 DUP2 PUSH2 0x4644 JUMP JUMPDEST DUP2 EQ PUSH2 0x4662 JUMPI PUSH1 0x0 DUP1 REVERT JUMPDEST POP JUMP JUMPDEST PUSH1 0x0 DUP2 MLOAD SWAP1 POP PUSH2 0x4674 DUP2 PUSH2 0x464E JUMP JUMPDEST SWAP3 SWAP2 POP POP JUMP JUMPDEST PUSH1 0x0 PUSH1 0xE0 DUP3 DUP5 SUB SLT ISZERO PUSH2 0x4690 JUMPI PUSH2 0x468F PUSH2 0x3C56 JUMP JUMPDEST JUMPDEST PUSH2 0x469A PUSH1 0xE0 PUSH2 0x3CCC JUMP JUMPDEST SWAP1 POP PUSH1 0x0 PUSH2 0x46AA DUP5 DUP3 DUP6 ADD PUSH2 0x432E JUMP JUMPDEST PUSH1 0x0 DUP4 ADD MSTORE POP PUSH1 0x20 PUSH2 0x46BE DUP5 DUP3 DUP6 ADD PUSH2 0x461A JUMP JUMPDEST PUSH1 0x20 DUP4 ADD MSTORE POP PUSH1 0x40 PUSH2 0x46D2 DUP5 DUP3 DUP6 ADD PUSH2 0x462F JUMP JUMPDEST PUSH1 0x40 DUP4 ADD MSTORE POP PUSH1 0x60 PUSH2 0x46E6 DUP5 DUP3 DUP6 ADD PUSH2 0x432E JUMP JUMPDEST PUSH1 0x60 DUP4 ADD MSTORE POP PUSH1 0x80 PUSH2 0x46FA DUP5 DUP3 DUP6 ADD PUSH2 0x461A JUMP JUMPDEST PUSH1 0x80 DUP4 ADD MSTORE POP PUSH1 0xA0 PUSH2 0x470E DUP5 DUP3 DUP6 ADD PUSH2 0x462F JUMP JUMPDEST PUSH1 0xA0 DUP4 ADD MSTORE POP PUSH1 0xC0 PUSH2 0x4722 DUP5 DUP3 DUP6 ADD PUSH2 0x4665 JUMP JUMPDEST PUSH1 0xC0 DUP4 ADD MSTORE POP SWAP3 SWAP2 POP POP JUMP JUMPDEST PUSH1 0x0 PUSH1 0xE0 DUP3 DUP5 SUB SLT ISZERO PUSH2 0x4744 JUMPI PUSH2 0x4743 PUSH2 0x31B0 JUMP JUMPDEST JUMPDEST PUSH1 0x0 PUSH2 0x4752 DUP5 DUP3 DUP6 ADD PUSH2 0x467A JUMP JUMPDEST SWAP2 POP POP SWAP3 SWAP2 POP POP JUMP JUMPDEST PUSH32 0x4465706F736974206E6F7420696E697469616C697A6564000000000000000000 PUSH1 0x0 DUP3 ADD MSTORE POP JUMP JUMPDEST PUSH1 0x0 PUSH2 0x4791 PUSH1 0x17 DUP4 PUSH2 0x38EA JUMP JUMPDEST SWAP2 POP PUSH2 0x479C DUP3 PUSH2 0x475B JUMP JUMPDEST PUSH1 0x20 DUP3 ADD SWAP1 POP SWAP2 SWAP1 POP JUMP JUMPDEST PUSH1 0x0 PUSH1 0x20 DUP3 ADD SWAP1 POP DUP2 DUP2 SUB PUSH1 0x0 DUP4 ADD MSTORE PUSH2 0x47C0 DUP2 PUSH2 0x4784 JUMP JUMPDEST SWAP1 POP SWAP2 SWAP1 POP JUMP JUMPDEST PUSH1 0x0 DUP1 PUSH1 0x40 DUP4 DUP6 SUB SLT ISZERO PUSH2 0x47DE JUMPI PUSH2 0x47DD PUSH2 0x31B0 JUMP JUMPDEST JUMPDEST PUSH1 0x0 PUSH2 0x47EC DUP6 DUP3 DUP7 ADD PUSH2 0x461A JUMP JUMPDEST SWAP3 POP POP PUSH1 0x20 PUSH2 0x47FD DUP6 DUP3 DUP7 ADD PUSH2 0x461A JUMP JUMPDEST SWAP2 POP POP SWAP3 POP SWAP3 SWAP1 POP JUMP JUMPDEST PUSH32 0x4465706F736974206E6F742066696E616C697A65642062792074686520627269 PUSH1 0x0 DUP3 ADD MSTORE PUSH32 0x6467650000000000000000000000000000000000000000000000000000000000 PUSH1 0x20 DUP3 ADD MSTORE POP JUMP JUMPDEST PUSH1 0x0 PUSH2 0x4863 PUSH1 0x23 DUP4 PUSH2 0x38EA JUMP JUMPDEST SWAP2 POP PUSH2 0x486E DUP3 PUSH2 0x4807 JUMP JUMPDEST PUSH1 0x40 DUP3 ADD SWAP1 POP SWAP2 SWAP1 POP JUMP JUMPDEST PUSH1 0x0 PUSH1 0x20 DUP3 ADD SWAP1 POP DUP2 DUP2 SUB PUSH1 0x0 DUP4 ADD MSTORE PUSH2 0x4892 DUP2 PUSH2 0x4856 JUMP JUMPDEST SWAP1 POP SWAP2 SWAP1 POP JUMP JUMPDEST PUSH1 0x0 PUSH2 0x48A4 DUP3 PUSH2 0x32BF JUMP JUMPDEST SWAP2 POP PUSH2 0x48AF DUP4 PUSH2 0x32BF JUMP JUMPDEST SWAP3 POP DUP3 DUP3 MUL PUSH2 0x48BD DUP2 PUSH2 0x32BF JUMP JUMPDEST SWAP2 POP DUP3 DUP3 DIV DUP5 EQ DUP4 ISZERO OR PUSH2 0x48D4 JUMPI PUSH2 0x48D3 PUSH2 0x3B2A JUMP JUMPDEST JUMPDEST POP SWAP3 SWAP2 POP POP JUMP JUMPDEST PUSH32 0x416D6F756E7420746F6F206C6F7720746F206272696467650000000000000000 PUSH1 0x0 DUP3 ADD MSTORE POP JUMP JUMPDEST PUSH1 0x0 PUSH2 0x4911 PUSH1 0x18 DUP4 PUSH2 0x38EA JUMP JUMPDEST SWAP2 POP PUSH2 0x491C DUP3 PUSH2 0x48DB JUMP JUMPDEST PUSH1 0x20 DUP3 ADD SWAP1 POP SWAP2 SWAP1 POP JUMP JUMPDEST PUSH1 0x0 PUSH1 0x20 DUP3 ADD SWAP1 POP DUP2 DUP2 SUB PUSH1 0x0 DUP4 ADD MSTORE PUSH2 0x4940 DUP2 PUSH2 0x4904 JUMP JUMPDEST SWAP1 POP SWAP2 SWAP1 POP JUMP JUMPDEST PUSH32 0x5061796D656E7420666F7220576F726D686F6C652052656C6179657220697320 PUSH1 0x0 DUP3 ADD MSTORE PUSH32 0x746F6F206C6F7700000000000000000000000000000000000000000000000000 PUSH1 0x20 DUP3 ADD MSTORE POP JUMP JUMPDEST PUSH1 0x0 PUSH2 0x49A3 PUSH1 0x27 DUP4 PUSH2 0x38EA JUMP JUMPDEST SWAP2 POP PUSH2 0x49AE DUP3 PUSH2 0x4947 JUMP JUMPDEST PUSH1 0x40 DUP3 ADD SWAP1 POP SWAP2 SWAP1 POP JUMP JUMPDEST PUSH1 0x0 PUSH1 0x20 DUP3 ADD SWAP1 POP DUP2 DUP2 SUB PUSH1 0x0 DUP4 ADD MSTORE PUSH2 0x49D2 DUP2 PUSH2 0x4996 JUMP JUMPDEST SWAP1 POP SWAP2 SWAP1 POP JUMP JUMPDEST PUSH2 0x49E2 DUP2 PUSH2 0x4644 JUMP JUMPDEST DUP3 MSTORE POP POP JUMP JUMPDEST PUSH1 0x0 PUSH1 0x20 DUP3 ADD SWAP1 POP PUSH2 0x49FD PUSH1 0x0 DUP4 ADD DUP5 PUSH2 0x49D9 JUMP JUMPDEST SWAP3 SWAP2 POP POP JUMP JUMPDEST PUSH1 0x0 PUSH2 0x4A1E PUSH2 0x4A19 PUSH2 0x4A14 DUP5 PUSH2 0x453D JUMP JUMPDEST PUSH2 0x3245 JUMP JUMPDEST PUSH2 0x3EC1 JUMP JUMPDEST SWAP1 POP SWAP2 SWAP1 POP JUMP JUMPDEST PUSH2 0x4A2E DUP2 PUSH2 0x4A03 JUMP JUMPDEST DUP3 MSTORE POP POP JUMP JUMPDEST PUSH1 0x0 DUP2 MLOAD SWAP1 POP SWAP2 SWAP1 POP JUMP JUMPDEST PUSH1 0x0 DUP3 DUP3 MSTORE PUSH1 0x20 DUP3 ADD SWAP1 POP SWAP3 SWAP2 POP POP JUMP JUMPDEST PUSH1 0x0 JUMPDEST DUP4 DUP2 LT ISZERO PUSH2 0x4A6E JUMPI DUP1 DUP3 ADD MLOAD DUP2 DUP5 ADD MSTORE PUSH1 0x20 DUP2 ADD SWAP1 POP PUSH2 0x4A53 JUMP JUMPDEST PUSH1 0x0 DUP5 DUP5 ADD MSTORE POP POP POP POP JUMP JUMPDEST PUSH1 0x0 PUSH2 0x4A85 DUP3 PUSH2 0x4A34 JUMP JUMPDEST PUSH2 0x4A8F DUP2 DUP6 PUSH2 0x4A3F JUMP JUMPDEST SWAP4 POP PUSH2 0x4A9F DUP2 DUP6 PUSH1 0x20 DUP7 ADD PUSH2 0x4A50 JUMP JUMPDEST PUSH2 0x4AA8 DUP2 PUSH2 0x3C5B JUMP JUMPDEST DUP5 ADD SWAP2 POP POP SWAP3 SWAP2 POP POP JUMP JUMPDEST PUSH1 0x0 PUSH1 0xC0 DUP3 ADD SWAP1 POP PUSH2 0x4AC8 PUSH1 0x0 DUP4 ADD DUP10 PUSH2 0x35FA JUMP JUMPDEST PUSH2 0x4AD5 PUSH1 0x20 DUP4 ADD DUP9 PUSH2 0x32C9 JUMP JUMPDEST PUSH2 0x4AE2 PUSH1 0x40 DUP4 ADD DUP8 PUSH2 0x37D0 JUMP JUMPDEST PUSH2 0x4AEF PUSH1 0x60 DUP4 ADD DUP7 PUSH2 0x49D9 JUMP JUMPDEST PUSH2 0x4AFC PUSH1 0x80 DUP4 ADD DUP6 PUSH2 0x4A25 JUMP JUMPDEST DUP2 DUP2 SUB PUSH1 0xA0 DUP4 ADD MSTORE PUSH2 0x4B0E DUP2 DUP5 PUSH2 0x4A7A JUMP JUMPDEST SWAP1 POP SWAP8 SWAP7 POP POP POP POP POP POP POP JUMP JUMPDEST PUSH1 0x0 PUSH1 0x20 DUP3 DUP5 SUB SLT ISZERO PUSH2 0x4B31 JUMPI PUSH2 0x4B30 PUSH2 0x31B0 JUMP JUMPDEST JUMPDEST PUSH1 0x0 PUSH2 0x4B3F DUP5 DUP3 DUP6 ADD PUSH2 0x461A JUMP JUMPDEST SWAP2 POP POP SWAP3 SWAP2 POP POP JUMP JUMPDEST PUSH1 0x0 DUP2 MLOAD SWAP1 POP PUSH2 0x4B57 DUP2 PUSH2 0x34AF JUMP JUMPDEST SWAP3 SWAP2 POP POP JUMP JUMPDEST PUSH1 0x0 PUSH1 0x20 DUP3 DUP5 SUB SLT ISZERO PUSH2 0x4B73 JUMPI PUSH2 0x4B72 PUSH2 0x31B0 JUMP JUMPDEST JUMPDEST PUSH1 0x0 PUSH2 0x4B81 DUP5 DUP3 DUP6 ADD PUSH2 0x4B48 JUMP JUMPDEST SWAP2 POP POP SWAP3 SWAP2 POP POP JUMP JUMPDEST PUSH32 0x4E487B7100000000000000000000000000000000000000000000000000000000 PUSH1 0x0 MSTORE PUSH1 0x32 PUSH1 0x4 MSTORE PUSH1 0x24 PUSH1 0x0 REVERT JUMPDEST PUSH1 0x0 DUP2 MLOAD SWAP1 POP SWAP2 SWAP1 POP JUMP JUMPDEST PUSH1 0x0 DUP3 DUP3 MSTORE PUSH1 0x20 DUP3 ADD SWAP1 POP SWAP3 SWAP2 POP POP JUMP JUMPDEST PUSH1 0x0 DUP2 SWAP1 POP PUSH1 0x20 DUP3 ADD SWAP1 POP SWAP2 SWAP1 POP JUMP JUMPDEST PUSH2 0x4BEE DUP2 PUSH2 0x34A1 JUMP JUMPDEST DUP3 MSTORE POP POP JUMP JUMPDEST PUSH2 0x4BFD DUP2 PUSH2 0x4644 JUMP JUMPDEST DUP3 MSTORE POP POP JUMP JUMPDEST PUSH2 0x4C0C DUP2 PUSH2 0x45EF JUMP JUMPDEST DUP3 MSTORE POP POP JUMP JUMPDEST PUSH1 0x60 DUP3 ADD PUSH1 0x0 DUP3 ADD MLOAD PUSH2 0x4C28 PUSH1 0x0 DUP6 ADD DUP3 PUSH2 0x4BE5 JUMP JUMPDEST POP PUSH1 0x20 DUP3 ADD MLOAD PUSH2 0x4C3B PUSH1 0x20 DUP6 ADD DUP3 PUSH2 0x4BF4 JUMP JUMPDEST POP PUSH1 0x40 DUP3 ADD MLOAD PUSH2 0x4C4E PUSH1 0x40 DUP6 ADD DUP3 PUSH2 0x4C03 JUMP JUMPDEST POP POP POP POP JUMP JUMPDEST PUSH1 0x0 PUSH2 0x4C60 DUP4 DUP4 PUSH2 0x4C12 JUMP JUMPDEST PUSH1 0x60 DUP4 ADD SWAP1 POP SWAP3 SWAP2 POP POP JUMP JUMPDEST PUSH1 0x0 PUSH1 0x20 DUP3 ADD SWAP1 POP SWAP2 SWAP1 POP JUMP JUMPDEST PUSH1 0x0 PUSH2 0x4C84 DUP3 PUSH2 0x4BB9 JUMP JUMPDEST PUSH2 0x4C8E DUP2 DUP6 PUSH2 0x4BC4 JUMP JUMPDEST SWAP4 POP PUSH2 0x4C99 DUP4 PUSH2 0x4BD5 JUMP JUMPDEST DUP1 PUSH1 0x0 JUMPDEST DUP4 DUP2 LT ISZERO PUSH2 0x4CCA JUMPI DUP2 MLOAD PUSH2 0x4CB1 DUP9 DUP3 PUSH2 0x4C54 JUMP JUMPDEST SWAP8 POP PUSH2 0x4CBC DUP4 PUSH2 0x4C6C JUMP JUMPDEST SWAP3 POP POP PUSH1 0x1 DUP2 ADD SWAP1 POP PUSH2 0x4C9D JUMP JUMPDEST POP DUP6 SWAP4 POP POP POP POP SWAP3 SWAP2 POP POP JUMP JUMPDEST PUSH1 0x0 PUSH2 0x100 DUP3 ADD SWAP1 POP PUSH2 0x4CED PUSH1 0x0 DUP4 ADD DUP12 PUSH2 0x37D0 JUMP JUMPDEST PUSH2 0x4CFA PUSH1 0x20 DUP4 ADD DUP11 PUSH2 0x35FA JUMP JUMPDEST DUP2 DUP2 SUB PUSH1 0x40 DUP4 ADD MSTORE PUSH2 0x4D0C DUP2 DUP10 PUSH2 0x4A7A JUMP JUMPDEST SWAP1 POP PUSH2 0x4D1B PUSH1 0x60 DUP4 ADD DUP9 PUSH2 0x4569 JUMP JUMPDEST PUSH2 0x4D28 PUSH1 0x80 DUP4 ADD DUP8 PUSH2 0x32C9 JUMP JUMPDEST DUP2 DUP2 SUB PUSH1 0xA0 DUP4 ADD MSTORE PUSH2 0x4D3A DUP2 DUP7 PUSH2 0x4C79 JUMP JUMPDEST SWAP1 POP PUSH2 0x4D49 PUSH1 0xC0 DUP4 ADD DUP6 PUSH2 0x37D0 JUMP JUMPDEST PUSH2 0x4D56 PUSH1 0xE0 DUP4 ADD DUP5 PUSH2 0x35FA JUMP JUMPDEST SWAP10 SWAP9 POP POP POP POP POP POP POP POP POP JUMP JUMPDEST PUSH32 0x4E487B7100000000000000000000000000000000000000000000000000000000 PUSH1 0x0 MSTORE PUSH1 0x12 PUSH1 0x4 MSTORE PUSH1 0x24 PUSH1 0x0 REVERT JUMPDEST PUSH1 0x0 PUSH2 0x4D9D DUP3 PUSH2 0x32BF JUMP JUMPDEST SWAP2 POP PUSH2 0x4DA8 DUP4 PUSH2 0x32BF JUMP JUMPDEST SWAP3 POP DUP3 PUSH2 0x4DB8 JUMPI PUSH2 0x4DB7 PUSH2 0x4D63 JUMP JUMPDEST JUMPDEST DUP3 DUP3 DIV SWAP1 POP SWAP3 SWAP2 POP POP JUMP JUMPDEST PUSH32 0x5661756C742061646472657373206D69736D6174636800000000000000000000 PUSH1 0x0 DUP3 ADD MSTORE POP JUMP JUMPDEST PUSH1 0x0 PUSH2 0x4DF9 PUSH1 0x16 DUP4 PUSH2 0x38EA JUMP JUMPDEST SWAP2 POP PUSH2 0x4E04 DUP3 PUSH2 0x4DC3 JUMP JUMPDEST PUSH1 0x20 DUP3 ADD SWAP1 POP SWAP2 SWAP1 POP JUMP JUMPDEST PUSH1 0x0 PUSH1 0x20 DUP3 ADD SWAP1 POP DUP2 DUP2 SUB PUSH1 0x0 DUP4 ADD MSTORE PUSH2 0x4E28 DUP2 PUSH2 0x4DEC JUMP JUMPDEST SWAP1 POP SWAP2 SWAP1 POP JUMP JUMPDEST PUSH2 0x4E38 DUP2 PUSH2 0x3CEC JUMP JUMPDEST DUP3 MSTORE POP POP JUMP JUMPDEST PUSH1 0x0 DUP3 DUP3 MSTORE PUSH1 0x20 DUP3 ADD SWAP1 POP SWAP3 SWAP2 POP POP JUMP JUMPDEST PUSH1 0x0 PUSH2 0x4E5A DUP3 PUSH2 0x4A34 JUMP JUMPDEST PUSH2 0x4E64 DUP2 DUP6 PUSH2 0x4E3E JUMP JUMPDEST SWAP4 POP PUSH2 0x4E74 DUP2 DUP6 PUSH1 0x20 DUP7 ADD PUSH2 0x4A50 JUMP JUMPDEST PUSH2 0x4E7D DUP2 PUSH2 0x3C5B JUMP JUMPDEST DUP5 ADD SWAP2 POP POP SWAP3 SWAP2 POP POP JUMP JUMPDEST PUSH1 0x0 PUSH1 0x80 DUP4 ADD PUSH1 0x0 DUP4 ADD MLOAD PUSH2 0x4EA0 PUSH1 0x0 DUP7 ADD DUP3 PUSH2 0x4E2F JUMP JUMPDEST POP PUSH1 0x20 DUP4 ADD MLOAD DUP5 DUP3 SUB PUSH1 0x20 DUP7 ADD MSTORE PUSH2 0x4EB8 DUP3 DUP3 PUSH2 0x4E4F JUMP JUMPDEST SWAP2 POP POP PUSH1 0x40 DUP4 ADD MLOAD DUP5 DUP3 SUB PUSH1 0x40 DUP7 ADD MSTORE PUSH2 0x4ED2 DUP3 DUP3 PUSH2 0x4E4F JUMP JUMPDEST SWAP2 POP POP PUSH1 0x60 DUP4 ADD MLOAD PUSH2 0x4EE7 PUSH1 0x60 DUP7 ADD DUP3 PUSH2 0x4E2F JUMP JUMPDEST POP DUP1 SWAP2 POP POP SWAP3 SWAP2 POP POP JUMP JUMPDEST PUSH2 0x4EFB DUP2 PUSH2 0x3EC1 JUMP JUMPDEST DUP3 MSTORE POP POP JUMP JUMPDEST PUSH2 0x4F0A DUP2 PUSH2 0x3EFD JUMP JUMPDEST DUP3 MSTORE POP POP JUMP JUMPDEST PUSH2 0x4F19 DUP2 PUSH2 0x3F55 JUMP JUMPDEST DUP3 MSTORE POP POP JUMP JUMPDEST PUSH2 0x4F28 DUP2 PUSH2 0x31DA JUMP JUMPDEST DUP3 MSTORE POP POP JUMP JUMPDEST PUSH1 0xC0 DUP3 ADD PUSH1 0x0 DUP3 ADD MLOAD PUSH2 0x4F44 PUSH1 0x0 DUP6 ADD DUP3 PUSH2 0x4EF2 JUMP JUMPDEST POP PUSH1 0x20 DUP3 ADD MLOAD PUSH2 0x4F57 PUSH1 0x20 DUP6 ADD DUP3 PUSH2 0x4F01 JUMP JUMPDEST POP PUSH1 0x40 DUP3 ADD MLOAD PUSH2 0x4F6A PUSH1 0x40 DUP6 ADD DUP3 PUSH2 0x4F10 JUMP JUMPDEST POP PUSH1 0x60 DUP3 ADD MLOAD PUSH2 0x4F7D PUSH1 0x60 DUP6 ADD DUP3 PUSH2 0x4F10 JUMP JUMPDEST POP PUSH1 0x80 DUP3 ADD MLOAD PUSH2 0x4F90 PUSH1 0x80 DUP6 ADD DUP3 PUSH2 0x4E2F JUMP JUMPDEST POP PUSH1 0xA0 DUP3 ADD MLOAD PUSH2 0x4FA3 PUSH1 0xA0 DUP6 ADD DUP3 PUSH2 0x4F1F JUMP JUMPDEST POP POP POP POP JUMP JUMPDEST PUSH1 0x0 PUSH2 0x100 DUP3 ADD SWAP1 POP DUP2 DUP2 SUB PUSH1 0x0 DUP4 ADD MSTORE PUSH2 0x4FC4 DUP2 DUP7 PUSH2 0x4E88 JUMP JUMPDEST SWAP1 POP PUSH2 0x4FD3 PUSH1 0x20 DUP4 ADD DUP6 PUSH2 0x4F2E JUMP JUMPDEST PUSH2 0x4FE0 PUSH1 0xE0 DUP4 ADD DUP5 PUSH2 0x49D9 JUMP JUMPDEST SWAP5 SWAP4 POP POP POP POP JUMP JUMPDEST PUSH32 0x4162737472616374544254434465706F7369746F7220616C726561647920696E PUSH1 0x0 DUP3 ADD MSTORE PUSH32 0x697469616C697A65640000000000000000000000000000000000000000000000 PUSH1 0x20 DUP3 ADD MSTORE POP JUMP JUMPDEST PUSH1 0x0 PUSH2 0x5044 PUSH1 0x29 DUP4 PUSH2 0x38EA JUMP JUMPDEST SWAP2 POP PUSH2 0x504F DUP3 PUSH2 0x4FE8 JUMP JUMPDEST PUSH1 0x40 DUP3 ADD SWAP1 POP SWAP2 SWAP1 POP JUMP JUMPDEST PUSH1 0x0 PUSH1 0x20 DUP3 ADD SWAP1 POP DUP2 DUP2 SUB PUSH1 0x0 DUP4 ADD MSTORE PUSH2 0x5073 DUP2 PUSH2 0x5037 JUMP JUMPDEST SWAP1 POP SWAP2 SWAP1 POP JUMP JUMPDEST PUSH32 0x42726964676520616464726573732063616E6E6F74206265207A65726F000000 PUSH1 0x0 DUP3 ADD MSTORE POP JUMP JUMPDEST PUSH1 0x0 PUSH2 0x50B0 PUSH1 0x1D DUP4 PUSH2 0x38EA JUMP JUMPDEST SWAP2 POP PUSH2 0x50BB DUP3 PUSH2 0x507A JUMP JUMPDEST PUSH1 0x20 DUP3 ADD SWAP1 POP SWAP2 SWAP1 POP JUMP JUMPDEST PUSH1 0x0 PUSH1 0x20 DUP3 ADD SWAP1 POP DUP2 DUP2 SUB PUSH1 0x0 DUP4 ADD MSTORE PUSH2 0x50DF DUP2 PUSH2 0x50A3 JUMP JUMPDEST SWAP1 POP SWAP2 SWAP1 POP JUMP JUMPDEST PUSH32 0x544254435661756C7420616464726573732063616E6E6F74206265207A65726F PUSH1 0x0 DUP3 ADD MSTORE POP JUMP JUMPDEST PUSH1 0x0 PUSH2 0x511C PUSH1 0x20 DUP4 PUSH2 0x38EA JUMP JUMPDEST SWAP2 POP PUSH2 0x5127 DUP3 PUSH2 0x50E6 JUMP JUMPDEST PUSH1 0x20 DUP3 ADD SWAP1 POP SWAP2 SWAP1 POP JUMP JUMPDEST PUSH1 0x0 PUSH1 0x20 DUP3 ADD SWAP1 POP DUP2 DUP2 SUB PUSH1 0x0 DUP4 ADD MSTORE PUSH2 0x514B DUP2 PUSH2 0x510F JUMP JUMPDEST SWAP1 POP SWAP2 SWAP1 POP JUMP JUMPDEST PUSH32 0x496E697469616C697A61626C653A20636F6E7472616374206973206E6F742069 PUSH1 0x0 DUP3 ADD MSTORE PUSH32 0x6E697469616C697A696E67000000000000000000000000000000000000000000 PUSH1 0x20 DUP3 ADD MSTORE POP JUMP JUMPDEST PUSH1 0x0 PUSH2 0x51AE PUSH1 0x2B DUP4 PUSH2 0x38EA JUMP JUMPDEST SWAP2 POP PUSH2 0x51B9 DUP3 PUSH2 0x5152 JUMP JUMPDEST PUSH1 0x40 DUP3 ADD SWAP1 POP SWAP2 SWAP1 POP JUMP JUMPDEST PUSH1 0x0 PUSH1 0x20 DUP3 ADD SWAP1 POP DUP2 DUP2 SUB PUSH1 0x0 DUP4 ADD MSTORE PUSH2 0x51DD DUP2 PUSH2 0x51A1 JUMP JUMPDEST SWAP1 POP SWAP2 SWAP1 POP JUMP JUMPDEST PUSH1 0x0 PUSH2 0x51EF DUP3 PUSH2 0x45EF JUMP JUMPDEST SWAP2 POP PUSH2 0x51FA DUP4 PUSH2 0x45EF JUMP JUMPDEST SWAP3 POP DUP3 DUP3 SUB SWAP1 POP PUSH8 0xFFFFFFFFFFFFFFFF DUP2 GT ISZERO PUSH2 0x521A JUMPI PUSH2 0x5219 PUSH2 0x3B2A JUMP JUMPDEST JUMPDEST SWAP3 SWAP2 POP POP JUMP JUMPDEST PUSH1 0x0 PUSH1 0x20 DUP3 DUP5 SUB SLT ISZERO PUSH2 0x5236 JUMPI PUSH2 0x5235 PUSH2 0x31B0 JUMP JUMPDEST JUMPDEST PUSH1 0x0 PUSH2 0x5244 DUP5 DUP3 DUP6 ADD PUSH2 0x462F JUMP JUMPDEST SWAP2 POP POP SWAP3 SWAP2 POP POP JUMP JUMPDEST PUSH1 0x0 DUP1 PUSH1 0x0 DUP1 PUSH1 0x80 DUP6 DUP8 SUB SLT ISZERO PUSH2 0x5267 JUMPI PUSH2 0x5266 PUSH2 0x31B0 JUMP JUMPDEST JUMPDEST PUSH1 0x0 PUSH2 0x5275 DUP8 DUP3 DUP9 ADD PUSH2 0x461A JUMP JUMPDEST SWAP5 POP POP PUSH1 0x20 PUSH2 0x5286 DUP8 DUP3 DUP9 ADD PUSH2 0x461A JUMP JUMPDEST SWAP4 POP POP PUSH1 0x40 PUSH2 0x5297 DUP8 DUP3 DUP9 ADD PUSH2 0x461A JUMP JUMPDEST SWAP3 POP POP PUSH1 0x60 PUSH2 0x52A8 DUP8 DUP3 DUP9 ADD PUSH2 0x462F JUMP JUMPDEST SWAP2 POP POP SWAP3 SWAP6 SWAP2 SWAP5 POP SWAP3 POP JUMP JUMPDEST PUSH1 0x0 PUSH1 0x40 DUP3 ADD SWAP1 POP PUSH2 0x52C9 PUSH1 0x0 DUP4 ADD DUP6 PUSH2 0x35FA JUMP JUMPDEST PUSH2 0x52D6 PUSH1 0x20 DUP4 ADD DUP5 PUSH2 0x35FA JUMP JUMPDEST SWAP4 SWAP3 POP POP POP JUMP JUMPDEST PUSH1 0x0 PUSH1 0x40 DUP3 ADD SWAP1 POP PUSH2 0x52F2 PUSH1 0x0 DUP4 ADD DUP6 PUSH2 0x35FA JUMP JUMPDEST PUSH2 0x52FF PUSH1 0x20 DUP4 ADD DUP5 PUSH2 0x32C9 JUMP JUMPDEST SWAP4 SWAP3 POP POP POP JUMP JUMPDEST PUSH1 0x0 DUP2 SWAP1 POP SWAP2 SWAP1 POP JUMP JUMPDEST PUSH2 0x5321 PUSH2 0x531C DUP3 PUSH2 0x3CEC JUMP JUMPDEST PUSH2 0x5306 JUMP JUMPDEST DUP3 MSTORE POP POP JUMP JUMPDEST PUSH1 0x0 DUP2 SWAP1 POP SWAP3 SWAP2 POP POP JUMP JUMPDEST PUSH1 0x0 PUSH2 0x533D DUP3 PUSH2 0x4A34 JUMP JUMPDEST PUSH2 0x5347 DUP2 DUP6 PUSH2 0x5327 JUMP JUMPDEST SWAP4 POP PUSH2 0x5357 DUP2 DUP6 PUSH1 0x20 DUP7 ADD PUSH2 0x4A50 JUMP JUMPDEST DUP1 DUP5 ADD SWAP2 POP POP SWAP3 SWAP2 POP POP JUMP JUMPDEST PUSH1 0x0 PUSH2 0x536F DUP3 DUP8 PUSH2 0x5310 JUMP JUMPDEST PUSH1 0x4 DUP3 ADD SWAP2 POP PUSH2 0x537F DUP3 DUP7 PUSH2 0x5332 JUMP JUMPDEST SWAP2 POP PUSH2 0x538B DUP3 DUP6 PUSH2 0x5332 JUMP JUMPDEST SWAP2 POP PUSH2 0x5397 DUP3 DUP5 PUSH2 0x5310 JUMP JUMPDEST PUSH1 0x4 DUP3 ADD SWAP2 POP DUP2 SWAP1 POP SWAP6 SWAP5 POP POP POP POP POP JUMP JUMPDEST PUSH1 0x0 DUP2 SWAP1 POP SWAP2 SWAP1 POP JUMP JUMPDEST PUSH2 0x53C4 PUSH2 0x53BF DUP3 PUSH2 0x4644 JUMP JUMPDEST PUSH2 0x53A9 JUMP JUMPDEST DUP3 MSTORE POP POP JUMP JUMPDEST PUSH1 0x0 DUP2 PUSH1 0xE0 SHL SWAP1 POP SWAP2 SWAP1 POP JUMP JUMPDEST PUSH1 0x0 PUSH2 0x53E2 DUP3 PUSH2 0x53CA JUMP JUMPDEST SWAP1 POP SWAP2 SWAP1 POP JUMP JUMPDEST PUSH2 0x53FA PUSH2 0x53F5 DUP3 PUSH2 0x3EC1 JUMP JUMPDEST PUSH2 0x53D7 JUMP JUMPDEST DUP3 MSTORE POP POP JUMP JUMPDEST PUSH1 0x0 PUSH2 0x540C DUP3 DUP6 PUSH2 0x53B3 JUMP JUMPDEST PUSH1 0x20 DUP3 ADD SWAP2 POP PUSH2 0x541C DUP3 DUP5 PUSH2 0x53E9 JUMP JUMPDEST PUSH1 0x4 DUP3 ADD SWAP2 POP DUP2 SWAP1 POP SWAP4 SWAP3 POP POP POP JUMP JUMPDEST PUSH1 0x0 DUP2 MLOAD SWAP1 POP PUSH2 0x543B DUP2 PUSH2 0x3358 JUMP JUMPDEST SWAP3 SWAP2 POP POP JUMP JUMPDEST PUSH1 0x0 PUSH1 0x20 DUP3 DUP5 SUB SLT ISZERO PUSH2 0x5457 JUMPI PUSH2 0x5456 PUSH2 0x31B0 JUMP JUMPDEST JUMPDEST PUSH1 0x0 PUSH2 0x5465 DUP5 DUP3 DUP6 ADD PUSH2 0x542C JUMP JUMPDEST SWAP2 POP POP SWAP3 SWAP2 POP POP JUMP JUMPDEST PUSH32 0x5361666545524332303A204552433230206F7065726174696F6E20646964206E PUSH1 0x0 DUP3 ADD MSTORE PUSH32 0x6F74207375636365656400000000000000000000000000000000000000000000 PUSH1 0x20 DUP3 ADD MSTORE POP JUMP JUMPDEST PUSH1 0x0 PUSH2 0x54CA PUSH1 0x2A DUP4 PUSH2 0x38EA JUMP JUMPDEST SWAP2 POP PUSH2 0x54D5 DUP3 PUSH2 0x546E JUMP JUMPDEST PUSH1 0x40 DUP3 ADD SWAP1 POP SWAP2 SWAP1 POP JUMP JUMPDEST PUSH1 0x0 PUSH1 0x20 DUP3 ADD SWAP1 POP DUP2 DUP2 SUB PUSH1 0x0 DUP4 ADD MSTORE PUSH2 0x54F9 DUP2 PUSH2 0x54BD JUMP JUMPDEST SWAP1 POP SWAP2 SWAP1 POP JUMP JUMPDEST PUSH32 0x416464726573733A20696E73756666696369656E742062616C616E636520666F PUSH1 0x0 DUP3 ADD MSTORE PUSH32 0x722063616C6C0000000000000000000000000000000000000000000000000000 PUSH1 0x20 DUP3 ADD MSTORE POP JUMP JUMPDEST PUSH1 0x0 PUSH2 0x555C PUSH1 0x26 DUP4 PUSH2 0x38EA JUMP JUMPDEST SWAP2 POP PUSH2 0x5567 DUP3 PUSH2 0x5500 JUMP JUMPDEST PUSH1 0x40 DUP3 ADD SWAP1 POP SWAP2 SWAP1 POP JUMP JUMPDEST PUSH1 0x0 PUSH1 0x20 DUP3 ADD SWAP1 POP DUP2 DUP2 SUB PUSH1 0x0 DUP4 ADD MSTORE PUSH2 0x558B DUP2 PUSH2 0x554F JUMP JUMPDEST SWAP1 POP SWAP2 SWAP1 POP JUMP JUMPDEST PUSH1 0x0 PUSH2 0x559E DUP3 DUP5 PUSH2 0x5332 JUMP JUMPDEST SWAP2 POP DUP2 SWAP1 POP SWAP3 SWAP2 POP POP JUMP JUMPDEST PUSH32 0x416464726573733A2063616C6C20746F206E6F6E2D636F6E7472616374000000 PUSH1 0x0 DUP3 ADD MSTORE POP JUMP JUMPDEST PUSH1 0x0 PUSH2 0x55DF PUSH1 0x1D DUP4 PUSH2 0x38EA JUMP JUMPDEST SWAP2 POP PUSH2 0x55EA DUP3 PUSH2 0x55A9 JUMP JUMPDEST PUSH1 0x20 DUP3 ADD SWAP1 POP SWAP2 SWAP1 POP JUMP JUMPDEST PUSH1 0x0 PUSH1 0x20 DUP3 ADD SWAP1 POP DUP2 DUP2 SUB PUSH1 0x0 DUP4 ADD MSTORE PUSH2 0x560E DUP2 PUSH2 0x55D2 JUMP JUMPDEST SWAP1 POP SWAP2 SWAP1 POP JUMP JUMPDEST PUSH1 0x0 DUP2 MLOAD SWAP1 POP SWAP2 SWAP1 POP JUMP JUMPDEST PUSH1 0x0 PUSH2 0x562B DUP3 PUSH2 0x5615 JUMP JUMPDEST PUSH2 0x5635 DUP2 DUP6 PUSH2 0x38EA JUMP JUMPDEST SWAP4 POP PUSH2 0x5645 DUP2 DUP6 PUSH1 0x20 DUP7 ADD PUSH2 0x4A50 JUMP JUMPDEST PUSH2 0x564E DUP2 PUSH2 0x3C5B JUMP JUMPDEST DUP5 ADD SWAP2 POP POP SWAP3 SWAP2 POP POP JUMP JUMPDEST PUSH1 0x0 PUSH1 0x20 DUP3 ADD SWAP1 POP DUP2 DUP2 SUB PUSH1 0x0 DUP4 ADD MSTORE PUSH2 0x5673 DUP2 DUP5 PUSH2 0x5620 JUMP JUMPDEST SWAP1 POP SWAP3 SWAP2 POP POP JUMP INVALID LOG2 PUSH5 0x6970667358 0x22 SLT KECCAK256 0xC7 0xB9 0xA6 0xD1 0xC3 0xAD 0xBF CODESIZE SWAP6 0x24 SIGNEXTEND PUSH11 0xF7A30681FA41F5D6F89A5 0xA7 0xC0 0xC3 0xD0 LOG0 DUP5 0xBD 0xE3 PUSH9 0x64736F6C6343000811 STOP CALLER "},"gasEstimates":{"creation":{"codeDepositCost":"4438600","executionCost":"infinite","totalCost":"infinite"},"external":{"SATOSHI_MULTIPLIER()":"374","attachL2BitcoinDepositor(address)":"29239","bridge()":"infinite","deposits(uint256)":"2974","finalizeDeposit(uint256)":"infinite","finalizeDepositGasOffset()":"2520","gasReimbursements(uint256)":"5214","initialize(address,address,address,address,address,address,uint16)":"infinite","initializeDeposit((bytes4,bytes,bytes,bytes4),(uint32,bytes8,bytes20,bytes20,bytes4,address),address)":"infinite","initializeDepositGasOffset()":"2519","l2BitcoinDepositor()":"2581","l2ChainId()":"2610","l2FinalizeDepositGasLimit()":"2496","l2WormholeGateway()":"2581","owner()":"2612","quoteFinalizeDeposit()":"infinite","reimbursementAuthorizations(address)":"2935","reimbursementPool()":"infinite","renounceOwnership()":"30443","tbtcToken()":"infinite","tbtcVault()":"infinite","transferOwnership(address)":"30854","updateGasOffsetParameters(uint256,uint256)":"infinite","updateL2FinalizeDepositGasLimit(uint256)":"infinite","updateReimbursementAuthorization(address,bool)":"infinite","updateReimbursementPool(address)":"infinite","wormhole()":"infinite","wormholeRelayer()":"infinite","wormholeTokenBridge()":"infinite"},"internal":{"_quoteFinalizeDeposit(uint256)":"infinite","_refundToGasSpent(uint256)":"infinite","_transferTbtc(uint256,bytes32)":"infinite"}},"methodIdentifiers":{"SATOSHI_MULTIPLIER()":"c7ba0347","attachL2BitcoinDepositor(address)":"0515f0c1","bridge()":"e78cea92","deposits(uint256)":"b02c43d0","finalizeDeposit(uint256)":"46d9d49a","finalizeDepositGasOffset()":"0fa1ba44","gasReimbursements(uint256)":"7c9e9ffb","initialize(address,address,address,address,address,address,uint16)":"71c654ee","initializeDeposit((bytes4,bytes,bytes,bytes4),(uint32,bytes8,bytes20,bytes20,bytes4,address),address)":"642dc033","initializeDepositGasOffset()":"27ce36c6","l2BitcoinDepositor()":"c81ef168","l2ChainId()":"d6ae3cd5","l2FinalizeDepositGasLimit()":"71546831","l2WormholeGateway()":"aa82e33b","owner()":"8da5cb5b","quoteFinalizeDeposit()":"13b38cce","reimbursementAuthorizations(address)":"66b58a01","reimbursementPool()":"c09975cd","renounceOwnership()":"715018a6","tbtcToken()":"e5d3d714","tbtcVault()":"0f36403a","transferOwnership(address)":"f2fde38b","updateGasOffsetParameters(uint256,uint256)":"9e0e4e2f","updateL2FinalizeDepositGasLimit(uint256)":"1159bef0","updateReimbursementAuthorization(address,bool)":"60ec23dd","updateReimbursementPool(address)":"7b35b4e6","wormhole()":"84acd1bb","wormholeRelayer()":"da25b725","wormholeTokenBridge()":"f11df69d"}},"storageLayout":{"storage":[{"astId":3139,"contract":"contracts/l2/L1BitcoinDepositor.sol:L1BitcoinDepositor","label":"_initialized","offset":0,"slot":"0","type":"t_uint8"},{"astId":3142,"contract":"contracts/l2/L1BitcoinDepositor.sol:L1BitcoinDepositor","label":"_initializing","offset":1,"slot":"0","type":"t_bool"},{"astId":4400,"contract":"contracts/l2/L1BitcoinDepositor.sol:L1BitcoinDepositor","label":"bridge","offset":2,"slot":"0","type":"t_contract(IBridge)4795"},{"astId":4404,"contract":"contracts/l2/L1BitcoinDepositor.sol:L1BitcoinDepositor","label":"tbtcVault","offset":0,"slot":"1","type":"t_contract(ITBTCVault)4821"},{"astId":4408,"contract":"contracts/l2/L1BitcoinDepositor.sol:L1BitcoinDepositor","label":"__gap","offset":0,"slot":"2","type":"t_array(t_uint256)47_storage"},{"astId":4171,"contract":"contracts/l2/L1BitcoinDepositor.sol:L1BitcoinDepositor","label":"__gap","offset":0,"slot":"49","type":"t_array(t_uint256)50_storage"},{"astId":3011,"contract":"contracts/l2/L1BitcoinDepositor.sol:L1BitcoinDepositor","label":"_owner","offset":0,"slot":"99","type":"t_address"},{"astId":3131,"contract":"contracts/l2/L1BitcoinDepositor.sol:L1BitcoinDepositor","label":"__gap","offset":0,"slot":"100","type":"t_array(t_uint256)49_storage"},{"astId":2669,"contract":"contracts/l2/L1BitcoinDepositor.sol:L1BitcoinDepositor","label":"reimbursementPool","offset":0,"slot":"149","type":"t_contract(ReimbursementPool)2999"},{"astId":2673,"contract":"contracts/l2/L1BitcoinDepositor.sol:L1BitcoinDepositor","label":"__gap","offset":0,"slot":"150","type":"t_array(t_uint256)49_storage"},{"astId":4861,"contract":"contracts/l2/L1BitcoinDepositor.sol:L1BitcoinDepositor","label":"deposits","offset":0,"slot":"199","type":"t_mapping(t_uint256,t_enum(DepositState)4848)"},{"astId":4865,"contract":"contracts/l2/L1BitcoinDepositor.sol:L1BitcoinDepositor","label":"tbtcToken","offset":0,"slot":"200","type":"t_contract(IERC20Upgradeable)3379"},{"astId":4869,"contract":"contracts/l2/L1BitcoinDepositor.sol:L1BitcoinDepositor","label":"wormhole","offset":0,"slot":"201","type":"t_contract(IWormhole)5888"},{"astId":4873,"contract":"contracts/l2/L1BitcoinDepositor.sol:L1BitcoinDepositor","label":"wormholeRelayer","offset":0,"slot":"202","type":"t_contract(IWormholeRelayer)5928"},{"astId":4877,"contract":"contracts/l2/L1BitcoinDepositor.sol:L1BitcoinDepositor","label":"wormholeTokenBridge","offset":0,"slot":"203","type":"t_contract(IWormholeTokenBridge)6013"},{"astId":4880,"contract":"contracts/l2/L1BitcoinDepositor.sol:L1BitcoinDepositor","label":"l2WormholeGateway","offset":0,"slot":"204","type":"t_address"},{"astId":4883,"contract":"contracts/l2/L1BitcoinDepositor.sol:L1BitcoinDepositor","label":"l2ChainId","offset":20,"slot":"204","type":"t_uint16"},{"astId":4886,"contract":"contracts/l2/L1BitcoinDepositor.sol:L1BitcoinDepositor","label":"l2BitcoinDepositor","offset":0,"slot":"205","type":"t_address"},{"astId":4889,"contract":"contracts/l2/L1BitcoinDepositor.sol:L1BitcoinDepositor","label":"l2FinalizeDepositGasLimit","offset":0,"slot":"206","type":"t_uint256"},{"astId":4895,"contract":"contracts/l2/L1BitcoinDepositor.sol:L1BitcoinDepositor","label":"gasReimbursements","offset":0,"slot":"207","type":"t_mapping(t_uint256,t_struct(GasReimbursement)4855_storage)"},{"astId":4898,"contract":"contracts/l2/L1BitcoinDepositor.sol:L1BitcoinDepositor","label":"initializeDepositGasOffset","offset":0,"slot":"208","type":"t_uint256"},{"astId":4901,"contract":"contracts/l2/L1BitcoinDepositor.sol:L1BitcoinDepositor","label":"finalizeDepositGasOffset","offset":0,"slot":"209","type":"t_uint256"},{"astId":4906,"contract":"contracts/l2/L1BitcoinDepositor.sol:L1BitcoinDepositor","label":"reimbursementAuthorizations","offset":0,"slot":"210","type":"t_mapping(t_address,t_bool)"}],"types":{"t_address":{"encoding":"inplace","label":"address","numberOfBytes":"20"},"t_array(t_uint256)47_storage":{"base":"t_uint256","encoding":"inplace","label":"uint256[47]","numberOfBytes":"1504"},"t_array(t_uint256)49_storage":{"base":"t_uint256","encoding":"inplace","label":"uint256[49]","numberOfBytes":"1568"},"t_array(t_uint256)50_storage":{"base":"t_uint256","encoding":"inplace","label":"uint256[50]","numberOfBytes":"1600"},"t_bool":{"encoding":"inplace","label":"bool","numberOfBytes":"1"},"t_contract(IBridge)4795":{"encoding":"inplace","label":"contract IBridge","numberOfBytes":"20"},"t_contract(IERC20Upgradeable)3379":{"encoding":"inplace","label":"contract IERC20Upgradeable","numberOfBytes":"20"},"t_contract(ITBTCVault)4821":{"encoding":"inplace","label":"contract ITBTCVault","numberOfBytes":"20"},"t_contract(IWormhole)5888":{"encoding":"inplace","label":"contract IWormhole","numberOfBytes":"20"},"t_contract(IWormholeRelayer)5928":{"encoding":"inplace","label":"contract IWormholeRelayer","numberOfBytes":"20"},"t_contract(IWormholeTokenBridge)6013":{"encoding":"inplace","label":"contract IWormholeTokenBridge","numberOfBytes":"20"},"t_contract(ReimbursementPool)2999":{"encoding":"inplace","label":"contract ReimbursementPool","numberOfBytes":"20"},"t_enum(DepositState)4848":{"encoding":"inplace","label":"enum L1BitcoinDepositor.DepositState","numberOfBytes":"1"},"t_mapping(t_address,t_bool)":{"encoding":"mapping","key":"t_address","label":"mapping(address => bool)","numberOfBytes":"32","value":"t_bool"},"t_mapping(t_uint256,t_enum(DepositState)4848)":{"encoding":"mapping","key":"t_uint256","label":"mapping(uint256 => enum L1BitcoinDepositor.DepositState)","numberOfBytes":"32","value":"t_enum(DepositState)4848"},"t_mapping(t_uint256,t_struct(GasReimbursement)4855_storage)":{"encoding":"mapping","key":"t_uint256","label":"mapping(uint256 => struct L1BitcoinDepositor.GasReimbursement)","numberOfBytes":"32","value":"t_struct(GasReimbursement)4855_storage"},"t_struct(GasReimbursement)4855_storage":{"encoding":"inplace","label":"struct L1BitcoinDepositor.GasReimbursement","members":[{"astId":4851,"contract":"contracts/l2/L1BitcoinDepositor.sol:L1BitcoinDepositor","label":"receiver","offset":0,"slot":"0","type":"t_address"},{"astId":4854,"contract":"contracts/l2/L1BitcoinDepositor.sol:L1BitcoinDepositor","label":"gasSpent","offset":20,"slot":"0","type":"t_uint96"}],"numberOfBytes":"32"},"t_uint16":{"encoding":"inplace","label":"uint16","numberOfBytes":"2"},"t_uint256":{"encoding":"inplace","label":"uint256","numberOfBytes":"32"},"t_uint8":{"encoding":"inplace","label":"uint8","numberOfBytes":"1"},"t_uint96":{"encoding":"inplace","label":"uint96","numberOfBytes":"12"}}},"userdoc":{"kind":"user","methods":{"SATOSHI_MULTIPLIER()":{"notice":"Multiplier to convert satoshi to TBTC token units."},"attachL2BitcoinDepositor(address)":{"notice":"Sets the address of the `L2BitcoinDepositor` contract on the         corresponding L2 chain. This function solves the chicken-and-egg         problem of setting the `L2BitcoinDepositor` contract address         on the `L1BitcoinDepositor` contract and vice versa."},"bridge()":{"notice":"Bridge contract address."},"deposits(uint256)":{"notice":"Holds the deposit state, keyed by the deposit key calculated for         the individual deposit during the call to `initializeDeposit`         function."},"finalizeDeposit(uint256)":{"notice":"Finalizes the deposit process by transferring ERC20 L1 TBTC         to the L2 deposit owner. This function should be called after         the deposit was initialized with a call to `initializeDeposit`         function and after ERC20 L1 TBTC was minted by the tBTC Bridge         to the `L1BitcoinDepositor` contract. Please note several hours         may pass between `initializeDeposit`and `finalizeDeposit`.         If the reimbursement pool is attached, the function pays out         a gas and call's value refund to the caller (if the given         caller is authorized for refunds) as well as the deferred gas         refund to the caller of `initializeDeposit` corresponding to         the finalized deposit."},"finalizeDepositGasOffset()":{"notice":"Gas that is meant to balance the overall cost of deposit finalization.         Can be updated by the owner based on the current market conditions."},"gasReimbursements(uint256)":{"notice":"Holds deferred gas reimbursements for deposit initialization         (indexed by deposit key). Reimbursement for deposit         initialization is paid out upon deposit finalization. This is         because the tBTC Bridge accepts all (even invalid) deposits but         mints ERC20 TBTC only for the valid ones. Paying out the         reimbursement directly upon initialization would make the         reimbursement pool vulnerable to malicious actors that could         drain it by initializing invalid deposits."},"initializeDeposit((bytes4,bytes,bytes,bytes4),(uint32,bytes8,bytes20,bytes20,bytes4,address),address)":{"notice":"Initializes the deposit process on L1 by revealing the deposit         data (funding transaction and components of the P2(W)SH deposit         address) to the tBTC Bridge. Once tBTC minting is completed,         this call should be followed by a call to `finalizeDeposit`.         Callers of `initializeDeposit` are eligible for a gas refund         that is paid out upon deposit finalization (only if the         reimbursement pool is attached and the given caller is         authorized for refunds).         The Bitcoin funding transaction must transfer funds to a P2(W)SH         deposit address whose underlying script is built from the         following components:         <depositor-address> DROP         <depositor-extra-data> DROP         <blinding-factor> DROP         DUP HASH160 <signingGroupPubkeyHash> EQUAL         IF           CHECKSIG         ELSE           DUP HASH160 <refundPubkeyHash> EQUALVERIFY           <locktime> CHECKLOCKTIMEVERIFY DROP           CHECKSIG         ENDIF         Where:         <depositor-address> 20-byte L1 address of the         `L1BitcoinDepositor` contract.         <depositor-extra-data> L2 deposit owner address in the Wormhole         format, i.e. 32-byte value left-padded with 0.         <blinding-factor> 8-byte deposit blinding factor, as used in the         tBTC bridge.         <signingGroupPubkeyHash> The compressed Bitcoin public key (33         bytes and 02 or 03 prefix) of the deposit's wallet hashed in the         HASH160 Bitcoin opcode style. This must point to the active tBTC         bridge wallet.         <refundPubkeyHash> The compressed Bitcoin public key (33 bytes         and 02 or 03 prefix) that can be used to make the deposit refund         after the tBTC bridge refund locktime passed. Hashed in the         HASH160 Bitcoin opcode style. This is needed only as a security         measure protecting the user in case tBTC bridge completely stops         functioning.         <locktime> The Bitcoin script refund locktime (4-byte LE),         according to tBTC bridge rules.         Please consult tBTC `Bridge.revealDepositWithExtraData` function         documentation for more information."},"initializeDepositGasOffset()":{"notice":"Gas that is meant to balance the overall cost of deposit initialization.         Can be updated by the owner based on the current market conditions."},"l2BitcoinDepositor()":{"notice":"tBTC `L2BitcoinDepositor` contract on the corresponding L2 chain."},"l2ChainId()":{"notice":"Wormhole chain ID of the corresponding L2 chain."},"l2FinalizeDepositGasLimit()":{"notice":"Gas limit necessary to execute the L2 part of the deposit         finalization. This value is used to calculate the payment for         the Wormhole Relayer that is responsible to execute the         deposit finalization on the corresponding L2 chain. Can be         updated by the owner."},"l2WormholeGateway()":{"notice":"tBTC `L2WormholeGateway` contract on the corresponding L2 chain."},"quoteFinalizeDeposit()":{"notice":"Quotes the payment that must be attached to the `finalizeDeposit`         function call. The payment is necessary to cover the cost of         the Wormhole Relayer that is responsible for executing the         deposit finalization on the corresponding L2 chain."},"reimbursementAuthorizations(address)":{"notice":"Set of addresses that are authorized to receive gas reimbursements         for deposit initialization and finalization. The authorization is         granted by the contract owner."},"tbtcToken()":{"notice":"ERC20 L1 TBTC token contract."},"tbtcVault()":{"notice":"TBTCVault contract address."},"updateGasOffsetParameters(uint256,uint256)":{"notice":"Updates the values of gas offset parameters."},"updateL2FinalizeDepositGasLimit(uint256)":{"notice":"Updates the gas limit necessary to execute the L2 part of the         deposit finalization."},"updateReimbursementAuthorization(address,bool)":{"notice":"Updates the reimbursement authorization for the given address."},"wormhole()":{"notice":"`Wormhole` core contract on L1."},"wormholeRelayer()":{"notice":"`WormholeRelayer` contract on L1."},"wormholeTokenBridge()":{"notice":"Wormhole `TokenBridge` contract on L1."}},"notice":"This contract is part of the direct bridging mechanism allowing         users to obtain ERC20 TBTC on supported L2 chains, without the need         to interact with the L1 tBTC ledger chain where minting occurs.         `L1BitcoinDepositor` is deployed on the L1 chain and interacts with         their L2 counterpart, the `L2BitcoinDepositor`, deployed on the given         L2 chain. Each `L1BitcoinDepositor` & `L2BitcoinDepositor` pair is         responsible for a specific L2 chain.         The outline of the direct bridging mechanism is as follows:         1. An L2 user issues a Bitcoin funding transaction to a P2(W)SH            deposit address that embeds the `L1BitcoinDepositor` contract            and L2 user addresses. The `L1BitcoinDepositor` contract serves            as the actual depositor on the L1 chain while the L2 user            address is set as the deposit owner who will receive the            minted ERC20 TBTC.         2. The data about the Bitcoin funding transaction and deposit            address are passed to the relayer. In the first iteration of            the direct bridging mechanism, this is achieved using an            on-chain event emitted by the `L2BitcoinDepositor` contract.            Further iterations assumes those data are passed off-chain, e.g.            through a REST API exposed by the relayer.         3. The relayer uses the data to initialize a deposit on the L1            chain by calling the `initializeDeposit` function of the            `L1BitcoinDepositor` contract. The `initializeDeposit` function            reveals the deposit to the tBTC Bridge so minting of ERC20 L1 TBTC            can occur.         4. Once minting is complete, the `L1BitcoinDepositor` contract            receives minted ERC20 L1 TBTC. The relayer then calls the            `finalizeDeposit` function of the `L1BitcoinDepositor` contract            to transfer the minted ERC20 L1 TBTC to the L2 user address. This            is achieved using the Wormhole protocol. First, the `finalizeDeposit`            function initiates a Wormhole token transfer that locks the ERC20            L1 TBTC within the Wormhole Token Bridge contract and assigns            Wormhole-wrapped L2 TBTC to the corresponding `L2WormholeGateway`            contract. Then, `finalizeDeposit` notifies the `L2BitcoinDepositor`            contract by sending a Wormhole message containing the VAA            of the Wormhole token transfer. The `L2BitcoinDepositor` contract            receives the Wormhole message, and calls the `L2WormholeGateway`            contract that redeems Wormhole-wrapped L2 TBTC from the Wormhole            Token Bridge and uses it to mint canonical L2 TBTC to the L2 user            address.","version":1}}}}