{"@keep-network/bitcoin-spv-sol/contracts/BTCUtils.sol":{"BTCUtils":{"abi":[{"inputs":[],"name":"DIFF1_TARGET","outputs":[{"internalType":"uint256","name":"","type":"uint256"}],"stateMutability":"view","type":"function"},{"inputs":[],"name":"ERR_BAD_ARG","outputs":[{"internalType":"uint256","name":"","type":"uint256"}],"stateMutability":"view","type":"function"},{"inputs":[],"name":"RETARGET_PERIOD","outputs":[{"internalType":"uint256","name":"","type":"uint256"}],"stateMutability":"view","type":"function"},{"inputs":[],"name":"RETARGET_PERIOD_BLOCKS","outputs":[{"internalType":"uint256","name":"","type":"uint256"}],"stateMutability":"view","type":"function"}],"devdoc":{"kind":"dev","methods":{},"version":1},"evm":{"bytecode":{"linkReferences":{},"object":"60d9610039600b82828239805160001a60731461002c57634e487b7160e01b600052600060045260246000fd5b30600052607381538281f3fe730000000000000000000000000000000000000000301460806040526004361060515760003560e01c8063056e04ec1460565780638cc715691460715780638db69e60146079578063d4258ca7146081575b600080fd5b605f6212750081565b60405190815260200160405180910390f35b605f6107e081565b605f60001981565b605f7bffff00000000000000000000000000000000000000000000000000008156fea264697066735822122021d85f11f64ed44ffba59bfc6b4a327f00d51e8e91ca784a048d3729db01b37f64736f6c63430008110033","opcodes":"PUSH1 0xD9 PUSH2 0x39 PUSH1 0xB DUP3 DUP3 DUP3 CODECOPY DUP1 MLOAD PUSH1 0x0 BYTE PUSH1 0x73 EQ PUSH2 0x2C JUMPI PUSH4 0x4E487B71 PUSH1 0xE0 SHL PUSH1 0x0 MSTORE PUSH1 0x0 PUSH1 0x4 MSTORE PUSH1 0x24 PUSH1 0x0 REVERT JUMPDEST ADDRESS PUSH1 0x0 MSTORE PUSH1 0x73 DUP2 MSTORE8 DUP3 DUP2 RETURN INVALID PUSH20 0x0 ADDRESS EQ PUSH1 0x80 PUSH1 0x40 MSTORE PUSH1 0x4 CALLDATASIZE LT PUSH1 0x51 JUMPI PUSH1 0x0 CALLDATALOAD PUSH1 0xE0 SHR DUP1 PUSH4 0x56E04EC EQ PUSH1 0x56 JUMPI DUP1 PUSH4 0x8CC71569 EQ PUSH1 0x71 JUMPI DUP1 PUSH4 0x8DB69E60 EQ PUSH1 0x79 JUMPI DUP1 PUSH4 0xD4258CA7 EQ PUSH1 0x81 JUMPI JUMPDEST PUSH1 0x0 DUP1 REVERT JUMPDEST PUSH1 0x5F PUSH3 0x127500 DUP2 JUMP JUMPDEST PUSH1 0x40 MLOAD SWAP1 DUP2 MSTORE PUSH1 0x20 ADD PUSH1 0x40 MLOAD DUP1 SWAP2 SUB SWAP1 RETURN JUMPDEST PUSH1 0x5F PUSH2 0x7E0 DUP2 JUMP JUMPDEST PUSH1 0x5F PUSH1 0x0 NOT DUP2 JUMP JUMPDEST PUSH1 0x5F PUSH28 0xFFFF0000000000000000000000000000000000000000000000000000 DUP2 JUMP INVALID LOG2 PUSH5 0x6970667358 0x22 SLT KECCAK256 0x21 0xD8 0x5F GT 0xF6 0x4E 0xD4 0x4F 0xFB 0xA5 SWAP12 0xFC PUSH12 0x4A327F00D51E8E91CA784A04 DUP14 CALLDATACOPY 0x29 0xDB ADD 0xB3 PUSH32 0x64736F6C63430008110033000000000000000000000000000000000000000000 "},"gasEstimates":{"creation":{"codeDepositCost":"43400","executionCost":"127","totalCost":"43527"},"external":{"DIFF1_TARGET()":"211","ERR_BAD_ARG()":"192","RETARGET_PERIOD()":"145","RETARGET_PERIOD_BLOCKS()":"167"},"internal":{"_hash256MerkleStep(bytes memory,bytes memory)":"infinite","_hash256MerkleStep(bytes32,bytes32)":"infinite","bytesToUint(bytes memory)":"infinite","calculateDifficulty(uint256)":"infinite","determineInputLength(bytes memory)":"infinite","determineInputLengthAt(bytes memory,uint256)":"infinite","determineOutputLength(bytes memory)":"infinite","determineOutputLengthAt(bytes memory,uint256)":"infinite","determineVarIntDataLength(bytes memory)":"infinite","determineVarIntDataLengthAt(bytes memory,uint256)":"infinite","extractDifficulty(bytes memory)":"infinite","extractHash(bytes memory)":"infinite","extractHashAt(bytes memory,uint256,uint256)":"infinite","extractInputAtIndex(bytes memory,uint256)":"infinite","extractInputTxIdLE(bytes memory)":"infinite","extractInputTxIdLeAt(bytes memory,uint256)":"infinite","extractMerkleRootLE(bytes memory)":"infinite","extractOpReturnData(bytes memory)":"infinite","extractOutpoint(bytes memory)":"infinite","extractOutputAtIndex(bytes memory,uint256)":"infinite","extractPrevBlockLE(bytes memory)":"infinite","extractPrevBlockLEAt(bytes memory,uint256)":"infinite","extractScriptSig(bytes memory)":"infinite","extractScriptSigLen(bytes memory)":"infinite","extractScriptSigLenAt(bytes memory,uint256)":"infinite","extractSequenceLELegacy(bytes memory)":"infinite","extractSequenceLEWitness(bytes memory)":"infinite","extractSequenceLegacy(bytes memory)":"infinite","extractSequenceWitness(bytes memory)":"infinite","extractTarget(bytes memory)":"infinite","extractTargetAt(bytes memory,uint256)":"infinite","extractTimestamp(bytes memory)":"infinite","extractTimestampLE(bytes memory)":"infinite","extractTxIndexLE(bytes memory)":"infinite","extractTxIndexLeAt(bytes memory,uint256)":"infinite","extractValue(bytes memory)":"infinite","extractValueAt(bytes memory,uint256)":"infinite","extractValueLE(bytes memory)":"infinite","hash160(bytes memory)":"infinite","hash160View(bytes memory)":"infinite","hash256(bytes memory)":"infinite","hash256Pair(bytes32,bytes32)":"infinite","hash256Slice(bytes memory,uint256,uint256)":"infinite","hash256View(bytes memory)":"infinite","isLegacyInput(bytes memory)":"infinite","lastBytes(bytes memory,uint256)":"infinite","parseVarInt(bytes memory)":"infinite","parseVarIntAt(bytes memory,uint256)":"infinite","retargetAlgorithm(uint256,uint256,uint256)":"infinite","reverseEndianness(bytes memory)":"infinite","reverseUint16(uint16)":"infinite","reverseUint24(uint24)":"infinite","reverseUint256(uint256)":"infinite","reverseUint32(uint32)":"infinite","reverseUint64(uint64)":"infinite","validateVin(bytes memory)":"infinite","validateVout(bytes memory)":"infinite","verifyHash256Merkle(bytes memory,uint256)":"infinite","verifyHash256Merkle(bytes32,bytes memory,bytes32,uint256)":"infinite"}},"methodIdentifiers":{"DIFF1_TARGET()":"d4258ca7","ERR_BAD_ARG()":"8db69e60","RETARGET_PERIOD()":"056e04ec","RETARGET_PERIOD_BLOCKS()":"8cc71569"}},"storageLayout":{"storage":[],"types":null},"userdoc":{"kind":"user","methods":{},"version":1}}}}