{"contracts/l1/L1BitcoinDepositor.sol":{"L1BitcoinDepositor":{"abi":[{"inputs":[],"stateMutability":"nonpayable","type":"constructor"},{"anonymous":false,"inputs":[{"indexed":true,"internalType":"uint256","name":"depositKey","type":"uint256"},{"indexed":true,"internalType":"address","name":"l2DepositOwner","type":"address"},{"indexed":true,"internalType":"address","name":"l1Sender","type":"address"},{"indexed":false,"internalType":"uint256","name":"initialAmount","type":"uint256"},{"indexed":false,"internalType":"uint256","name":"tbtcAmount","type":"uint256"}],"name":"DepositFinalized","type":"event"},{"anonymous":false,"inputs":[{"indexed":true,"internalType":"uint256","name":"depositKey","type":"uint256"},{"indexed":true,"internalType":"address","name":"l2DepositOwner","type":"address"},{"indexed":true,"internalType":"address","name":"l1Sender","type":"address"}],"name":"DepositInitialized","type":"event"},{"anonymous":false,"inputs":[{"indexed":false,"internalType":"uint256","name":"initializeDepositGasOffset","type":"uint256"},{"indexed":false,"internalType":"uint256","name":"finalizeDepositGasOffset","type":"uint256"}],"name":"GasOffsetParametersUpdated","type":"event"},{"anonymous":false,"inputs":[{"indexed":false,"internalType":"uint8","name":"version","type":"uint8"}],"name":"Initialized","type":"event"},{"anonymous":false,"inputs":[{"indexed":false,"internalType":"uint256","name":"l2FinalizeDepositGasLimit","type":"uint256"}],"name":"L2FinalizeDepositGasLimitUpdated","type":"event"},{"anonymous":false,"inputs":[{"indexed":true,"internalType":"address","name":"previousOwner","type":"address"},{"indexed":true,"internalType":"address","name":"newOwner","type":"address"}],"name":"OwnershipTransferred","type":"event"},{"anonymous":false,"inputs":[{"indexed":false,"internalType":"bool","name":"reimburseTxMaxFee","type":"bool"}],"name":"ReimburseTxMaxFeeUpdated","type":"event"},{"anonymous":false,"inputs":[{"indexed":true,"internalType":"address","name":"_address","type":"address"},{"indexed":false,"internalType":"bool","name":"authorization","type":"bool"}],"name":"ReimbursementAuthorizationUpdated","type":"event"},{"anonymous":false,"inputs":[{"indexed":false,"internalType":"address","name":"newReimbursementPool","type":"address"}],"name":"ReimbursementPoolUpdated","type":"event"},{"inputs":[],"name":"SATOSHI_MULTIPLIER","outputs":[{"internalType":"uint256","name":"","type":"uint256"}],"stateMutability":"view","type":"function"},{"inputs":[{"internalType":"address","name":"_l2BitcoinDepositor","type":"address"}],"name":"attachL2BitcoinDepositor","outputs":[],"stateMutability":"nonpayable","type":"function"},{"inputs":[],"name":"bridge","outputs":[{"internalType":"contract IBridge","name":"","type":"address"}],"stateMutability":"view","type":"function"},{"inputs":[{"internalType":"uint256","name":"","type":"uint256"}],"name":"deposits","outputs":[{"internalType":"enum L1BitcoinDepositor.DepositState","name":"","type":"uint8"}],"stateMutability":"view","type":"function"},{"inputs":[{"internalType":"uint256","name":"depositKey","type":"uint256"}],"name":"finalizeDeposit","outputs":[],"stateMutability":"payable","type":"function"},{"inputs":[],"name":"finalizeDepositGasOffset","outputs":[{"internalType":"uint256","name":"","type":"uint256"}],"stateMutability":"view","type":"function"},{"inputs":[{"internalType":"uint256","name":"","type":"uint256"}],"name":"gasReimbursements","outputs":[{"internalType":"address","name":"receiver","type":"address"},{"internalType":"uint96","name":"gasSpent","type":"uint96"}],"stateMutability":"view","type":"function"},{"inputs":[{"internalType":"address","name":"_tbtcBridge","type":"address"},{"internalType":"address","name":"_tbtcVault","type":"address"},{"internalType":"address","name":"_wormhole","type":"address"},{"internalType":"address","name":"_wormholeRelayer","type":"address"},{"internalType":"address","name":"_wormholeTokenBridge","type":"address"},{"internalType":"address","name":"_l2WormholeGateway","type":"address"},{"internalType":"uint16","name":"_l2ChainId","type":"uint16"}],"name":"initialize","outputs":[],"stateMutability":"nonpayable","type":"function"},{"inputs":[{"components":[{"internalType":"bytes4","name":"version","type":"bytes4"},{"internalType":"bytes","name":"inputVector","type":"bytes"},{"internalType":"bytes","name":"outputVector","type":"bytes"},{"internalType":"bytes4","name":"locktime","type":"bytes4"}],"internalType":"struct IBridgeTypes.BitcoinTxInfo","name":"fundingTx","type":"tuple"},{"components":[{"internalType":"uint32","name":"fundingOutputIndex","type":"uint32"},{"internalType":"bytes8","name":"blindingFactor","type":"bytes8"},{"internalType":"bytes20","name":"walletPubKeyHash","type":"bytes20"},{"internalType":"bytes20","name":"refundPubKeyHash","type":"bytes20"},{"internalType":"bytes4","name":"refundLocktime","type":"bytes4"},{"internalType":"address","name":"vault","type":"address"}],"internalType":"struct IBridgeTypes.DepositRevealInfo","name":"reveal","type":"tuple"},{"internalType":"address","name":"l2DepositOwner","type":"address"}],"name":"initializeDeposit","outputs":[],"stateMutability":"nonpayable","type":"function"},{"inputs":[],"name":"initializeDepositGasOffset","outputs":[{"internalType":"uint256","name":"","type":"uint256"}],"stateMutability":"view","type":"function"},{"inputs":[],"name":"l2BitcoinDepositor","outputs":[{"internalType":"address","name":"","type":"address"}],"stateMutability":"view","type":"function"},{"inputs":[],"name":"l2ChainId","outputs":[{"internalType":"uint16","name":"","type":"uint16"}],"stateMutability":"view","type":"function"},{"inputs":[],"name":"l2FinalizeDepositGasLimit","outputs":[{"internalType":"uint256","name":"","type":"uint256"}],"stateMutability":"view","type":"function"},{"inputs":[],"name":"l2WormholeGateway","outputs":[{"internalType":"address","name":"","type":"address"}],"stateMutability":"view","type":"function"},{"inputs":[],"name":"owner","outputs":[{"internalType":"address","name":"","type":"address"}],"stateMutability":"view","type":"function"},{"inputs":[],"name":"quoteFinalizeDeposit","outputs":[{"internalType":"uint256","name":"cost","type":"uint256"}],"stateMutability":"view","type":"function"},{"inputs":[],"name":"reimburseTxMaxFee","outputs":[{"internalType":"bool","name":"","type":"bool"}],"stateMutability":"view","type":"function"},{"inputs":[{"internalType":"address","name":"","type":"address"}],"name":"reimbursementAuthorizations","outputs":[{"internalType":"bool","name":"","type":"bool"}],"stateMutability":"view","type":"function"},{"inputs":[],"name":"reimbursementPool","outputs":[{"internalType":"contract ReimbursementPool","name":"","type":"address"}],"stateMutability":"view","type":"function"},{"inputs":[],"name":"renounceOwnership","outputs":[],"stateMutability":"nonpayable","type":"function"},{"inputs":[{"internalType":"bool","name":"_reimburseTxMaxFee","type":"bool"}],"name":"setReimburseTxMaxFee","outputs":[],"stateMutability":"nonpayable","type":"function"},{"inputs":[],"name":"tbtcToken","outputs":[{"internalType":"contract IERC20Upgradeable","name":"","type":"address"}],"stateMutability":"view","type":"function"},{"inputs":[],"name":"tbtcVault","outputs":[{"internalType":"contract ITBTCVault","name":"","type":"address"}],"stateMutability":"view","type":"function"},{"inputs":[{"internalType":"address","name":"newOwner","type":"address"}],"name":"transferOwnership","outputs":[],"stateMutability":"nonpayable","type":"function"},{"inputs":[{"internalType":"uint256","name":"_initializeDepositGasOffset","type":"uint256"},{"internalType":"uint256","name":"_finalizeDepositGasOffset","type":"uint256"}],"name":"updateGasOffsetParameters","outputs":[],"stateMutability":"nonpayable","type":"function"},{"inputs":[{"internalType":"uint256","name":"_l2FinalizeDepositGasLimit","type":"uint256"}],"name":"updateL2FinalizeDepositGasLimit","outputs":[],"stateMutability":"nonpayable","type":"function"},{"inputs":[{"internalType":"address","name":"_address","type":"address"},{"internalType":"bool","name":"authorization","type":"bool"}],"name":"updateReimbursementAuthorization","outputs":[],"stateMutability":"nonpayable","type":"function"},{"inputs":[{"internalType":"contract ReimbursementPool","name":"_reimbursementPool","type":"address"}],"name":"updateReimbursementPool","outputs":[],"stateMutability":"nonpayable","type":"function"},{"inputs":[],"name":"wormhole","outputs":[{"internalType":"contract IWormhole","name":"","type":"address"}],"stateMutability":"view","type":"function"},{"inputs":[],"name":"wormholeRelayer","outputs":[{"internalType":"contract IWormholeRelayer","name":"","type":"address"}],"stateMutability":"view","type":"function"},{"inputs":[],"name":"wormholeTokenBridge","outputs":[{"internalType":"contract IWormholeTokenBridge","name":"","type":"address"}],"stateMutability":"view","type":"function"}],"devdoc":{"kind":"dev","methods":{"attachL2BitcoinDepositor(address)":{"details":"Requirements:      - Can be called only by the contract owner,      - The address must not be set yet,      - The new address must not be 0x0.","params":{"_l2BitcoinDepositor":"Address of the `L2BitcoinDepositor` contract."}},"constructor":{"custom:oz-upgrades-unsafe-allow":"constructor"},"finalizeDeposit(uint256)":{"details":"Requirements:      - `initializeDeposit` was called for the given deposit before,      - ERC20 L1 TBTC was minted by tBTC Bridge to this contract,      - The function was not called for the given deposit before,      - The call must carry a payment for the Wormhole Relayer that        is responsible for executing the deposit finalization on the        corresponding L2 chain. The payment must be equal to the        value returned by the `quoteFinalizeDeposit` function.","params":{"depositKey":"The deposit key, as emitted in the `DepositInitialized`        event emitted by the `initializeDeposit` function for the deposit."}},"initializeDeposit((bytes4,bytes,bytes,bytes4),(uint32,bytes8,bytes20,bytes20,bytes4,address),address)":{"details":"Requirements:      - The L2 deposit owner address must not be 0x0,      - The function can be called only one time for the given Bitcoin        funding transaction,      - The L2 deposit owner must be embedded in the Bitcoin P2(W)SH        deposit script as the <depositor-extra-data> field. The 20-byte        address must be expressed as a 32-byte value left-padded with 0.        If the value in the Bitcoin script and the value passed as        parameter do not match, the function will revert,      - All the requirements of tBTC Bridge.revealDepositWithExtraData        must be met.","params":{"fundingTx":"Bitcoin funding transaction data.","l2DepositOwner":"Address of the L2 deposit owner.","reveal":"Deposit reveal data."}},"owner()":{"details":"Returns the address of the current owner."},"quoteFinalizeDeposit()":{"returns":{"cost":"The cost of the `finalizeDeposit` function call in WEI."}},"renounceOwnership()":{"details":"Leaves the contract without owner. It will not be possible to call `onlyOwner` functions. Can only be called by the current owner. NOTE: Renouncing ownership will leave the contract without an owner, thereby disabling any functionality that is only available to the owner."},"setReimburseTxMaxFee(bool)":{"params":{"_reimburseTxMaxFee":"`true` => reimburse (add) the deposit tx max fee,                        `false` => deduct the deposit tx max fee."}},"transferOwnership(address)":{"details":"Transfers ownership of the contract to a new account (`newOwner`). Can only be called by the current owner."},"updateGasOffsetParameters(uint256,uint256)":{"details":"Can be called only by the contract owner. The caller is responsible      for validating parameters.","params":{"_finalizeDepositGasOffset":"New finalize deposit gas offset.","_initializeDepositGasOffset":"New initialize deposit gas offset."}},"updateL2FinalizeDepositGasLimit(uint256)":{"details":"Requirements:      - Can be called only by the contract owner.","params":{"_l2FinalizeDepositGasLimit":"New gas limit."}},"updateReimbursementAuthorization(address,bool)":{"details":"Requirements:      - Can be called only by the contract owner.","params":{"_address":"Address to update the authorization for.","authorization":"New authorization status."}}},"title":"L1BitcoinDepositor","version":1},"evm":{"bytecode":{"linkReferences":{},"object":"60806040523480156200001157600080fd5b506200001c62000022565b620000e3565b603154610100900460ff16156200008f5760405162461bcd60e51b815260206004820152602760248201527f496e697469616c697a61626c653a20636f6e747261637420697320696e697469604482015266616c697a696e6760c81b606482015260840160405180910390fd5b60315460ff90811614620000e1576031805460ff191660ff9081179091556040519081527f7f26b83ff96e1f2b6a682f133852f6798a09c465da95921460cefb38474024989060200160405180910390a15b565b61316580620000f36000396000f3fe6080604052600436106101d85760003560e01c80637c9e9ffb11610102578063c81ef16811610095578063e78cea9211610064578063e78cea92146105c5578063f11df69d146105e5578063f2fde38b14610605578063fe012b9b1461062557600080fd5b8063c81ef16814610530578063d6ae3cd514610550578063da25b72514610585578063e5d3d714146105a557600080fd5b8063aa82e33b116100d1578063aa82e33b1461049a578063b02c43d0146104ba578063c09975cd146104f7578063c7ba03471461051757600080fd5b80637c9e9ffb146103c357806384acd1bb1461043c5780638da5cb5b1461045c5780639e0e4e2f1461047a57600080fd5b806360ec23dd1161017a5780637154683111610149578063715468311461035357806371c654ee146103695780637b35b4e6146103895780637be04b6a146103a957600080fd5b806360ec23dd146102be578063642dc033146102de57806366b58a01146102fe578063715018a61461033e57600080fd5b80631159bef0116101b65780631159bef01461026057806313b38cce1461028057806327ce36c61461029557806346d9d49a146102ab57600080fd5b80630515f0c1146101dd5780630f36403a146101ff5780630fa1ba441461023c575b600080fd5b3480156101e957600080fd5b506101fd6101f8366004612704565b610645565b005b34801561020b57600080fd5b5060015461021f906001600160a01b031681565b6040516001600160a01b0390911681526020015b60405180910390f35b34801561024857600080fd5b5061025260d25481565b604051908152602001610233565b34801561026c57600080fd5b506101fd61027b366004612721565b610748565b34801561028c57600080fd5b5061025261078c565b3480156102a157600080fd5b5061025260d15481565b6101fd6102b9366004612721565b610812565b3480156102ca57600080fd5b506101fd6102d9366004612748565b610b83565b3480156102ea57600080fd5b506101fd6102f9366004612781565b610bfb565b34801561030a57600080fd5b5061032e610319366004612704565b60d36020526000908152604090205460ff1681565b6040519015158152602001610233565b34801561034a57600080fd5b506101fd610dfe565b34801561035f57600080fd5b5061025260cf5481565b34801561037557600080fd5b506101fd610384366004612805565b610e12565b34801561039557600080fd5b506101fd6103a4366004612704565b61120d565b3480156103b557600080fd5b5060d45461032e9060ff1681565b3480156103cf57600080fd5b506104106103de366004612721565b60d0602052600090815260409020546001600160a01b03811690600160a01b90046bffffffffffffffffffffffff1682565b604080516001600160a01b0390931683526bffffffffffffffffffffffff909116602083015201610233565b34801561044857600080fd5b5060ca5461021f906001600160a01b031681565b34801561046857600080fd5b506064546001600160a01b031661021f565b34801561048657600080fd5b506101fd61049536600461289b565b6112c5565b3480156104a657600080fd5b5060cd5461021f906001600160a01b031681565b3480156104c657600080fd5b506104ea6104d5366004612721565b60c86020526000908152604090205460ff1681565b60405161023391906128d3565b34801561050357600080fd5b5060965461021f906001600160a01b031681565b34801561052357600080fd5b506102526402540be40081565b34801561053c57600080fd5b5060ce5461021f906001600160a01b031681565b34801561055c57600080fd5b5060cd5461057290600160a01b900461ffff1681565b60405161ffff9091168152602001610233565b34801561059157600080fd5b5060cb5461021f906001600160a01b031681565b3480156105b157600080fd5b5060c95461021f906001600160a01b031681565b3480156105d157600080fd5b5060005461021f906001600160a01b031681565b3480156105f157600080fd5b5060cc5461021f906001600160a01b031681565b34801561061157600080fd5b506101fd610620366004612704565b611314565b34801561063157600080fd5b506101fd6106403660046128fb565b6113a4565b61064d6113ed565b60ce546001600160a01b0316156106ab5760405162461bcd60e51b815260206004820181905260248201527f4c3220426974636f696e204465706f7369746f7220616c72656164792073657460448201526064015b60405180910390fd5b6001600160a01b0381166107265760405162461bcd60e51b8152602060048201526024808201527f4c3220426974636f696e204465706f7369746f72206d757374206e6f7420626560448201527f203078300000000000000000000000000000000000000000000000000000000060648201526084016106a2565b60ce80546001600160a01b0319166001600160a01b0392909216919091179055565b6107506113ed565b60cf8190556040518181527f6ed5a3ddedc64e149e68b8bbc09d35489452528ae70487ee4f8832837c5c0105906020015b60405180910390a150565b600061080d60ca60009054906101000a90046001600160a01b03166001600160a01b0316631a90a2196040518163ffffffff1660e01b8152600401602060405180830381865afa1580156107e4573d6000803e3d6000fd5b505050506040513d601f19601f820116820180604052508101906108089190612918565b611447565b905090565b60005a90506001600083815260c8602052604090205460ff16600281111561083c5761083c6128bd565b146108895760405162461bcd60e51b815260206004820152601360248201527f57726f6e67206465706f7369742073746174650000000000000000000000000060448201526064016106a2565b600082815260c860205260408120805460ff1916600217905580806108ad85611504565b60d454929550909350915060ff161561096b5760008060009054906101000a90046001600160a01b03166001600160a01b031663c42b64d06040518163ffffffff1660e01b8152600401608060405180830381865afa158015610914573d6000803e3d6000fd5b505050506040513d601f19601f820116820180604052508101906109389190612960565b509250505060006402540be4008267ffffffffffffffff1661095a91906129cc565b905061096681856129e3565b935050505b33816001600160a01b0316867f94d36bc0d9bf5adbd2dec8bd125b7bf12eecc6e5539fc8f2bd57a831d9995af786866040516109b1929190918252602082015260400190565b60405180910390a46109c38282611737565b6096546001600160a01b031615610b7c57600085815260d060209081526040918290208251808401909352546001600160a01b038116808452600160a01b9091046bffffffffffffffffffffffff169183019190915215610ac557600086815260d0602090815260408083209290925560965490830151835192517f7ad226dc0000000000000000000000000000000000000000000000000000000081526bffffffffffffffffffffffff90911660048201526001600160a01b039283166024820152911690637ad226dc90604401600060405180830381600087803b158015610aac57600080fd5b505af1158015610ac0573d6000803e3d6000fd5b505050505b33600090815260d3602052604090205460ff1615610b7a576000610ae834611b4d565b60965460d2549192506001600160a01b031690637ad226dc90835a610b0d908b6129f6565b610b1791906129e3565b610b2191906129e3565b6040516001600160e01b031960e084901b1681526004810191909152336024820152604401600060405180830381600087803b158015610b6057600080fd5b505af1158015610b74573d6000803e3d6000fd5b50505050505b505b5050505050565b610b8b6113ed565b816001600160a01b03167f1fff4aae494aaedff71ff8b04de50a56543bb83ce05b033c3fb4a93e065c05fc82604051610bc8911515815260200190565b60405180910390a26001600160a01b0391909116600090815260d360205260409020805460ff1916911515919091179055565b60005a90506001600160a01b038216610c565760405162461bcd60e51b815260206004820181905260248201527f4c32206465706f736974206f776e6572206d757374206e6f742062652030783060448201526064016106a2565b6001600160a01b0382166000610c83610c6e87612ac4565b610c7d36889003880188612b89565b84611ca0565b50905060008082815260c8602052604090205460ff166002811115610caa57610caa6128bd565b14610cf75760405162461bcd60e51b815260206004820152601360248201527f57726f6e67206465706f7369742073746174650000000000000000000000000060448201526064016106a2565b600081815260c86020526040808220805460ff191660011790555133916001600160a01b0387169184917f04870363995d5b750bccca9d95e57044d630524aec2ef09ebdb820ac11d866b491a46096546001600160a01b031615801590610d6d575033600090815260d3602052604090205460ff165b15610b7a57600060d1545a610d8290866129f6565b610d8c91906129e3565b90506bffffffffffffffffffffffff811115610dab5750505050505050565b6040805180820182523381526bffffffffffffffffffffffff9283166020808301918252600095865260d090529190932092519051909116600160a01b026001600160a01b039091161790555050505050565b610e066113ed565b610e106000611e30565b565b603154610100900460ff1615808015610e325750603154600160ff909116105b80610e4c5750303b158015610e4c575060315460ff166001145b610ebe5760405162461bcd60e51b815260206004820152602e60248201527f496e697469616c697a61626c653a20636f6e747261637420697320616c72656160448201527f647920696e697469616c697a656400000000000000000000000000000000000060648201526084016106a2565b6031805460ff191660011790558015610ee1576031805461ff0019166101001790555b610eeb8888611e82565b610ef3611ff0565b6001600160a01b038616610f495760405162461bcd60e51b815260206004820152601f60248201527f576f726d686f6c6520616464726573732063616e6e6f74206265207a65726f0060448201526064016106a2565b6001600160a01b038516610fc55760405162461bcd60e51b815260206004820152602660248201527f576f726d686f6c6552656c6179657220616464726573732063616e6e6f74206260448201527f65207a65726f000000000000000000000000000000000000000000000000000060648201526084016106a2565b6001600160a01b0384166110415760405162461bcd60e51b815260206004820152602a60248201527f576f726d686f6c65546f6b656e42726964676520616464726573732063616e6e60448201527f6f74206265207a65726f0000000000000000000000000000000000000000000060648201526084016106a2565b6001600160a01b0383166110bd5760405162461bcd60e51b815260206004820152602860248201527f4c32576f726d686f6c654761746577617920616464726573732063616e6e6f7460448201527f206265207a65726f00000000000000000000000000000000000000000000000060648201526084016106a2565b866001600160a01b031663e5d3d7146040518163ffffffff1660e01b8152600401602060405180830381865afa1580156110fb573d6000803e3d6000fd5b505050506040513d601f19601f8201168201806040525081019061111f9190612c53565b60c980546001600160a01b03199081166001600160a01b039384161790915560ca8054821689841617905560cb8054821688841617905560cc805490911686831617905560cd80549185167fffffffffffffffffffff0000000000000000000000000000000000000000000090921691909117600160a01b61ffff8516021790556207a12060cf5561ea6060d155614e2060d25560d4805460ff191690558015611203576031805461ff0019169055604051600181527f7f26b83ff96e1f2b6a682f133852f6798a09c465da95921460cefb38474024989060200160405180910390a15b5050505050505050565b6064546001600160a01b031633146112675760405162461bcd60e51b815260206004820152601760248201527f43616c6c6572206973206e6f7420746865206f776e657200000000000000000060448201526064016106a2565b6040516001600160a01b03821681527f0e2d2343d31b085b7c4e56d1c8a6ec79f7ab07460386f1c9a1756239fe2533ac9060200160405180910390a1609680546001600160a01b0319166001600160a01b0392909216919091179055565b6112cd6113ed565b60d182905560d281905560408051838152602081018390527fb8df1fba472926f296225c210e366f62b21fec23b8e1b6b0a375724798ca9c0a910160405180910390a15050565b61131c6113ed565b6001600160a01b0381166113985760405162461bcd60e51b815260206004820152602660248201527f4f776e61626c653a206e6577206f776e657220697320746865207a65726f206160448201527f646472657373000000000000000000000000000000000000000000000000000060648201526084016106a2565b6113a181611e30565b50565b6113ac6113ed565b60d4805460ff19168215159081179091556040519081527f6dcf7dd477751916b5aa15e99f6f3008aa5fa398339c3abd2d92eaaf13b3578790602001610781565b6064546001600160a01b03163314610e105760405162461bcd60e51b815260206004820181905260248201527f4f776e61626c653a2063616c6c6572206973206e6f7420746865206f776e657260448201526064016106a2565b60cb5460cd5460cf546040517fc23ee3c3000000000000000000000000000000000000000000000000000000008152600160a01b90920461ffff16600483015260006024830181905260448301919091529182916001600160a01b039091169063c23ee3c3906064016040805180830381865afa1580156114cc573d6000803e3d6000fd5b505050506040513d601f19601f820116820180604052508101906114f09190612c70565b5090506114fd83826129e3565b9392505050565b60008054604051630b02c43d60e41b8152600481018490528291829182916001600160a01b03169063b02c43d09060240160e060405180830381865afa158015611552573d6000803e3d6000fd5b505050506040513d601f19601f820116820180604052508101906115769190612c94565b9050806040015163ffffffff166000036115d25760405162461bcd60e51b815260206004820152601760248201527f4465706f736974206e6f7420696e697469616c697a656400000000000000000060448201526064016106a2565b6001546040517f6c626aa4000000000000000000000000000000000000000000000000000000008152600481018790526000916001600160a01b031690636c626aa49060240160408051808303816000875af1158015611636573d6000803e3d6000fd5b505050506040513d601f19601f8201168201806040525081019061165a9190612d47565b9150508160a0015163ffffffff166000141580611680575067ffffffffffffffff811615155b6116f25760405162461bcd60e51b815260206004820152602360248201527f4465706f736974206e6f742066696e616c697a6564206279207468652062726960448201527f646765000000000000000000000000000000000000000000000000000000000060648201526084016106a2565b6402540be400826020015167ffffffffffffffff1661171191906129cc565b945061172582602001518360800151612063565b93508160c00151925050509193909250565b611740826121e8565b9150600082116117925760405162461bcd60e51b815260206004820152601860248201527f416d6f756e7420746f6f206c6f7720746f20627269646765000000000000000060448201526064016106a2565b60ca54604080517f1a90a21900000000000000000000000000000000000000000000000000000000815290516000926001600160a01b031691631a90a2199160048083019260209291908290030181865afa1580156117f5573d6000803e3d6000fd5b505050506040513d601f19601f820116820180604052508101906118199190612918565b9050600061182682611447565b905080341461189d5760405162461bcd60e51b815260206004820152602760248201527f5061796d656e7420666f7220576f726d686f6c652052656c617965722069732060448201527f746f6f206c6f770000000000000000000000000000000000000000000000000060648201526084016106a2565b60cc5460c9546118ba916001600160a01b0391821691168661220a565b60cc5460c95460cd546000926001600160a01b039081169263c5a5ebda928792918216918a91600160a01b810461ffff16911660008b60405160200161190291815260200190565b6040516020818303038152906040526040518863ffffffff1660e01b815260040161193296959493929190612dca565b60206040518083038185885af1158015611950573d6000803e3d6000fd5b50505050506040513d601f19601f820116820180604052508101906119759190612e1a565b60408051600180825281830190925291925060009190816020015b6040805160608101825260008082526020808301829052928201528252600019909201910181611990575050604080516060810180835260ca547f9a8a05920000000000000000000000000000000000000000000000000000000090915291519293509182916001600160a01b031690639a8a0592906064808501916020918187030181865afa158015611a28573d6000803e3d6000fd5b505050506040513d601f19601f82011682018060405250810190611a4c9190612e35565b61ffff16815260cc546001600160a01b0316602082015267ffffffffffffffff841660409091015281518290600090611a8757611a87612e52565b602090810291909101015260cb546001600160a01b03166332b2fc0e611aad86866129f6565b60cd5460ce5460408051602081018252600080825260cf54925160e088901b6001600160e01b0319168152611b0195600160a01b900461ffff16946001600160a01b031693908a9086903390600401612e68565b60206040518083038185885af1158015611b1f573d6000803e3d6000fd5b50505050506040513d601f19601f82011682018060405250810190611b449190612e1a565b50505050505050565b600080609660009054906101000a90046001600160a01b03166001600160a01b0316633de39c116040518163ffffffff1660e01b8152600401602060405180830381865afa158015611ba3573d6000803e3d6000fd5b505050506040513d601f19601f82011682018060405250810190611bc79190612918565b90506000609660009054906101000a90046001600160a01b03166001600160a01b031663e25b53456040518163ffffffff1660e01b8152600401602060405180830381865afa158015611c1e573d6000803e3d6000fd5b505050506040513d601f19601f82011682018060405250810190611c429190612918565b90506000823a10611c535782611c55565b3a5b905080600003611c6a57506000949350505050565b6000611c768287612f2f565b905080831115611c8c5750600095945050505050565b611c9683826129f6565b9695505050505050565b60015460a083015160009182916001600160a01b03908116911614611d075760405162461bcd60e51b815260206004820152601660248201527f5661756c742061646472657373206d69736d617463680000000000000000000060448201526064016106a2565b611d1a611d1386612336565b8551612376565b6000546040517f86f014390000000000000000000000000000000000000000000000000000000081529193506001600160a01b0316906386f0143990611d6890889088908890600401612f51565b600060405180830381600087803b158015611d8257600080fd5b505af1158015611d96573d6000803e3d6000fd5b5050600054604051630b02c43d60e41b8152600481018690526402540be40093506001600160a01b03909116915063b02c43d09060240160e060405180830381865afa158015611dea573d6000803e3d6000fd5b505050506040513d601f19601f82011682018060405250810190611e0e9190612c94565b6020015167ffffffffffffffff16611e2691906129cc565b9050935093915050565b606480546001600160a01b038381166001600160a01b0319831681179093556040519116919082907f8be0079c531659141344cd1fd0a4f28419497f9722a3daafe3b4186f6b6457e090600090a35050565b6000546001600160a01b0316158015611ea457506001546001600160a01b0316155b611f165760405162461bcd60e51b815260206004820152602960248201527f4162737472616374544254434465706f7369746f7220616c726561647920696e60448201527f697469616c697a6564000000000000000000000000000000000000000000000060648201526084016106a2565b6001600160a01b038216611f6c5760405162461bcd60e51b815260206004820152601d60248201527f42726964676520616464726573732063616e6e6f74206265207a65726f00000060448201526064016106a2565b6001600160a01b038116611fc25760405162461bcd60e51b815260206004820181905260248201527f544254435661756c7420616464726573732063616e6e6f74206265207a65726f60448201526064016106a2565b600080546001600160a01b039384166001600160a01b03199182161790915560018054929093169116179055565b603154610100900460ff1661205b5760405162461bcd60e51b815260206004820152602b60248201527f496e697469616c697a61626c653a20636f6e7472616374206973206e6f74206960448201526a6e697469616c697a696e6760a81b60648201526084016106a2565b610e106123c0565b6000806402540be400612076848661304a565b67ffffffffffffffff1661208a91906129cc565b90506000600160009054906101000a90046001600160a01b03166001600160a01b03166309b53f516040518163ffffffff1660e01b8152600401602060405180830381865afa1580156120e1573d6000803e3d6000fd5b505050506040513d601f19601f820116820180604052508101906121059190613072565b63ffffffff169050600080821161211d576000612127565b6121278284612f2f565b905060008060009054906101000a90046001600160a01b03166001600160a01b031663c42b64d06040518163ffffffff1660e01b8152600401608060405180830381865afa15801561217d573d6000803e3d6000fd5b505050506040513d601f19601f820116820180604052508101906121a19190612960565b509250505060006402540be4008267ffffffffffffffff166121c391906129cc565b9050806121d084876129f6565b6121da91906129f6565b955050505050505b92915050565b60006121f96402540be40083612f2f565b91506121e26402540be400836129cc565b6040517fdd62ed3e0000000000000000000000000000000000000000000000000000000081523060048201526001600160a01b0383811660248301526000919085169063dd62ed3e90604401602060405180830381865afa158015612273573d6000803e3d6000fd5b505050506040513d601f19601f820116820180604052508101906122979190612918565b9050612330847f095ea7b300000000000000000000000000000000000000000000000000000000856122c986866129e3565b6040516001600160a01b039092166024830152604482015260640160408051601f198184030181529190526020810180517bffffffffffffffffffffffffffffffffffffffffffffffffffffffff166001600160e01b031990931692909217909152612434565b50505050565b60006121e28260000151836020015184604001518560600151604051602001612362949392919061308f565b604051602081830303815290604052612521565b600082826040516020016123a192919091825260e01b6001600160e01b031916602082015260240190565b60408051601f1981840301815291905280516020909101209392505050565b603154610100900460ff1661242b5760405162461bcd60e51b815260206004820152602b60248201527f496e697469616c697a61626c653a20636f6e7472616374206973206e6f74206960448201526a6e697469616c697a696e6760a81b60648201526084016106a2565b610e1033611e30565b6000612489826040518060400160405280602081526020017f5361666545524332303a206c6f772d6c6576656c2063616c6c206661696c6564815250856001600160a01b03166125489092919063ffffffff16565b90508051600014806124aa5750808060200190518101906124aa91906130e3565b61251c5760405162461bcd60e51b815260206004820152602a60248201527f5361666545524332303a204552433230206f7065726174696f6e20646964206e60448201527f6f7420737563636565640000000000000000000000000000000000000000000060648201526084016106a2565b505050565b60006020600083516020850160025afa50602060006020600060025afa5050600051919050565b6060612557848460008561255f565b949350505050565b6060824710156125d75760405162461bcd60e51b815260206004820152602660248201527f416464726573733a20696e73756666696369656e742062616c616e636520666f60448201527f722063616c6c000000000000000000000000000000000000000000000000000060648201526084016106a2565b600080866001600160a01b031685876040516125f39190613100565b60006040518083038185875af1925050503d8060008114612630576040519150601f19603f3d011682016040523d82523d6000602084013e612635565b606091505b509150915061264687838387612651565b979650505050505050565b606083156126c05782516000036126b9576001600160a01b0385163b6126b95760405162461bcd60e51b815260206004820152601d60248201527f416464726573733a2063616c6c20746f206e6f6e2d636f6e747261637400000060448201526064016106a2565b5081612557565b61255783838151156126d55781518083602001fd5b8060405162461bcd60e51b81526004016106a2919061311c565b6001600160a01b03811681146113a157600080fd5b60006020828403121561271657600080fd5b81356114fd816126ef565b60006020828403121561273357600080fd5b5035919050565b80151581146113a157600080fd5b6000806040838503121561275b57600080fd5b8235612766816126ef565b915060208301356127768161273a565b809150509250929050565b600080600083850361010081121561279857600080fd5b843567ffffffffffffffff8111156127af57600080fd5b8501608081880312156127c157600080fd5b935060c0601f19820112156127d557600080fd5b5060208401915060e08401356127ea816126ef565b809150509250925092565b61ffff811681146113a157600080fd5b600080600080600080600060e0888a03121561282057600080fd5b873561282b816126ef565b9650602088013561283b816126ef565b9550604088013561284b816126ef565b9450606088013561285b816126ef565b9350608088013561286b816126ef565b925060a088013561287b816126ef565b915060c088013561288b816127f5565b8091505092959891949750929550565b600080604083850312156128ae57600080fd5b50508035926020909101359150565b634e487b7160e01b600052602160045260246000fd5b60208101600383106128f557634e487b7160e01b600052602160045260246000fd5b91905290565b60006020828403121561290d57600080fd5b81356114fd8161273a565b60006020828403121561292a57600080fd5b5051919050565b805167ffffffffffffffff8116811461294957600080fd5b919050565b63ffffffff811681146113a157600080fd5b6000806000806080858703121561297657600080fd5b61297f85612931565b935061298d60208601612931565b925061299b60408601612931565b915060608501516129ab8161294e565b939692955090935050565b634e487b7160e01b600052601160045260246000fd5b80820281158282048414176121e2576121e26129b6565b808201808211156121e2576121e26129b6565b818103818111156121e2576121e26129b6565b634e487b7160e01b600052604160045260246000fd5b80356001600160e01b03198116811461294957600080fd5b600082601f830112612a4857600080fd5b813567ffffffffffffffff80821115612a6357612a63612a09565b604051601f8301601f19908116603f01168101908282118183101715612a8b57612a8b612a09565b81604052838152866020858801011115612aa457600080fd5b836020870160208301376000602085830101528094505050505092915050565b600060808236031215612ad657600080fd5b6040516080810167ffffffffffffffff8282108183111715612afa57612afa612a09565b81604052612b0785612a1f565b83526020850135915080821115612b1d57600080fd5b612b2936838701612a37565b60208401526040850135915080821115612b4257600080fd5b50612b4f36828601612a37565b604083015250612b6160608401612a1f565b606082015292915050565b80356bffffffffffffffffffffffff198116811461294957600080fd5b600060c08284031215612b9b57600080fd5b60405160c0810181811067ffffffffffffffff82111715612bbe57612bbe612a09565b6040528235612bcc8161294e565b815260208301357fffffffffffffffff00000000000000000000000000000000000000000000000081168114612c0157600080fd5b6020820152612c1260408401612b6c565b6040820152612c2360608401612b6c565b6060820152612c3460808401612a1f565b608082015260a0830135612c47816126ef565b60a08201529392505050565b600060208284031215612c6557600080fd5b81516114fd816126ef565b60008060408385031215612c8357600080fd5b505080516020909101519092909150565b600060e08284031215612ca657600080fd5b60405160e0810181811067ffffffffffffffff82111715612cc957612cc9612a09565b6040528251612cd7816126ef565b8152612ce560208401612931565b60208201526040830151612cf88161294e565b60408201526060830151612d0b816126ef565b6060820152612d1c60808401612931565b608082015260a0830151612d2f8161294e565b60a082015260c0928301519281019290925250919050565b60008060408385031215612d5a57600080fd5b612d6383612931565b9150612d7160208401612931565b90509250929050565b60005b83811015612d95578181015183820152602001612d7d565b50506000910152565b60008151808452612db6816020860160208601612d7a565b601f01601f19169290920160200192915050565b6001600160a01b038716815285602082015261ffff8516604082015283606082015263ffffffff8316608082015260c060a08201526000612e0e60c0830184612d9e565b98975050505050505050565b600060208284031215612e2c57600080fd5b6114fd82612931565b600060208284031215612e4757600080fd5b81516114fd816127f5565b634e487b7160e01b600052603260045260246000fd5b600061010061ffff808c16845260206001600160a01b038c168186015260408381870152612e988487018d612d9e565b60608781018d9052608088018c905287820360a08901528a51808352848c019650909184019060005b81811015612efa578751805188168452868101518785015285015167ffffffffffffffff16858401529685019691830191600101612ec1565b505061ffff8a1660c08901529550612f13945050505050565b6001600160a01b03831660e08301529998505050505050505050565b600082612f4c57634e487b7160e01b600052601260045260246000fd5b500490565b60006101008083526001600160e01b03198087511682850152602087015191506080610120850152612f87610180850183612d9e565b9150604087015160ff1985840301610140860152612fa58382612d9e565b9250508060608801511661016085015281925063ffffffff86511660208501527fffffffffffffffff0000000000000000000000000000000000000000000000006020870151166040850152604086015191506bffffffffffffffffffffffff198083166060860152806060880151166080860152508060808701511660a085015250506001600160a01b0360a08501511660c08301528260e0830152949350505050565b67ffffffffffffffff82811682821603908082111561306b5761306b6129b6565b5092915050565b60006020828403121561308457600080fd5b81516114fd8161294e565b60006001600160e01b0319808716835285516130b2816004860160208a01612d7a565b8551908401906130c9816004840160208a01612d7a565b919094169301600481019390935250506008019392505050565b6000602082840312156130f557600080fd5b81516114fd8161273a565b60008251613112818460208701612d7a565b9190910192915050565b6020815260006114fd6020830184612d9e56fea264697066735822122033a83b3b0b401469486b169a20d3317fa4333afd1247af28c67b989fe599a3c364736f6c63430008110033","opcodes":"PUSH1 0x80 PUSH1 0x40 MSTORE CALLVALUE DUP1 ISZERO PUSH3 0x11 JUMPI PUSH1 0x0 DUP1 REVERT JUMPDEST POP PUSH3 0x1C PUSH3 0x22 JUMP JUMPDEST PUSH3 0xE3 JUMP JUMPDEST PUSH1 0x31 SLOAD PUSH2 0x100 SWAP1 DIV PUSH1 0xFF AND ISZERO PUSH3 0x8F JUMPI PUSH1 0x40 MLOAD PUSH3 0x461BCD PUSH1 0xE5 SHL DUP2 MSTORE PUSH1 0x20 PUSH1 0x4 DUP3 ADD MSTORE PUSH1 0x27 PUSH1 0x24 DUP3 ADD MSTORE PUSH32 0x496E697469616C697A61626C653A20636F6E747261637420697320696E697469 PUSH1 0x44 DUP3 ADD MSTORE PUSH7 0x616C697A696E67 PUSH1 0xC8 SHL PUSH1 0x64 DUP3 ADD MSTORE PUSH1 0x84 ADD PUSH1 0x40 MLOAD DUP1 SWAP2 SUB SWAP1 REVERT JUMPDEST PUSH1 0x31 SLOAD PUSH1 0xFF SWAP1 DUP2 AND EQ PUSH3 0xE1 JUMPI PUSH1 0x31 DUP1 SLOAD PUSH1 0xFF NOT AND PUSH1 0xFF SWAP1 DUP2 OR SWAP1 SWAP2 SSTORE PUSH1 0x40 MLOAD SWAP1 DUP2 MSTORE PUSH32 0x7F26B83FF96E1F2B6A682F133852F6798A09C465DA95921460CEFB3847402498 SWAP1 PUSH1 0x20 ADD PUSH1 0x40 MLOAD DUP1 SWAP2 SUB SWAP1 LOG1 JUMPDEST JUMP JUMPDEST PUSH2 0x3165 DUP1 PUSH3 0xF3 PUSH1 0x0 CODECOPY PUSH1 0x0 RETURN INVALID PUSH1 0x80 PUSH1 0x40 MSTORE PUSH1 0x4 CALLDATASIZE LT PUSH2 0x1D8 JUMPI PUSH1 0x0 CALLDATALOAD PUSH1 0xE0 SHR DUP1 PUSH4 0x7C9E9FFB GT PUSH2 0x102 JUMPI DUP1 PUSH4 0xC81EF168 GT PUSH2 0x95 JUMPI DUP1 PUSH4 0xE78CEA92 GT PUSH2 0x64 JUMPI DUP1 PUSH4 0xE78CEA92 EQ PUSH2 0x5C5 JUMPI DUP1 PUSH4 0xF11DF69D EQ PUSH2 0x5E5 JUMPI DUP1 PUSH4 0xF2FDE38B EQ PUSH2 0x605 JUMPI DUP1 PUSH4 0xFE012B9B EQ PUSH2 0x625 JUMPI PUSH1 0x0 DUP1 REVERT JUMPDEST DUP1 PUSH4 0xC81EF168 EQ PUSH2 0x530 JUMPI DUP1 PUSH4 0xD6AE3CD5 EQ PUSH2 0x550 JUMPI DUP1 PUSH4 0xDA25B725 EQ PUSH2 0x585 JUMPI DUP1 PUSH4 0xE5D3D714 EQ PUSH2 0x5A5 JUMPI PUSH1 0x0 DUP1 REVERT JUMPDEST DUP1 PUSH4 0xAA82E33B GT PUSH2 0xD1 JUMPI DUP1 PUSH4 0xAA82E33B EQ PUSH2 0x49A JUMPI DUP1 PUSH4 0xB02C43D0 EQ PUSH2 0x4BA JUMPI DUP1 PUSH4 0xC09975CD EQ PUSH2 0x4F7 JUMPI DUP1 PUSH4 0xC7BA0347 EQ PUSH2 0x517 JUMPI PUSH1 0x0 DUP1 REVERT JUMPDEST DUP1 PUSH4 0x7C9E9FFB EQ PUSH2 0x3C3 JUMPI DUP1 PUSH4 0x84ACD1BB EQ PUSH2 0x43C JUMPI DUP1 PUSH4 0x8DA5CB5B EQ PUSH2 0x45C JUMPI DUP1 PUSH4 0x9E0E4E2F EQ PUSH2 0x47A JUMPI PUSH1 0x0 DUP1 REVERT JUMPDEST DUP1 PUSH4 0x60EC23DD GT PUSH2 0x17A JUMPI DUP1 PUSH4 0x71546831 GT PUSH2 0x149 JUMPI DUP1 PUSH4 0x71546831 EQ PUSH2 0x353 JUMPI DUP1 PUSH4 0x71C654EE EQ PUSH2 0x369 JUMPI DUP1 PUSH4 0x7B35B4E6 EQ PUSH2 0x389 JUMPI DUP1 PUSH4 0x7BE04B6A EQ PUSH2 0x3A9 JUMPI PUSH1 0x0 DUP1 REVERT JUMPDEST DUP1 PUSH4 0x60EC23DD EQ PUSH2 0x2BE JUMPI DUP1 PUSH4 0x642DC033 EQ PUSH2 0x2DE JUMPI DUP1 PUSH4 0x66B58A01 EQ PUSH2 0x2FE JUMPI DUP1 PUSH4 0x715018A6 EQ PUSH2 0x33E JUMPI PUSH1 0x0 DUP1 REVERT JUMPDEST DUP1 PUSH4 0x1159BEF0 GT PUSH2 0x1B6 JUMPI DUP1 PUSH4 0x1159BEF0 EQ PUSH2 0x260 JUMPI DUP1 PUSH4 0x13B38CCE EQ PUSH2 0x280 JUMPI DUP1 PUSH4 0x27CE36C6 EQ PUSH2 0x295 JUMPI DUP1 PUSH4 0x46D9D49A EQ PUSH2 0x2AB JUMPI PUSH1 0x0 DUP1 REVERT JUMPDEST DUP1 PUSH4 0x515F0C1 EQ PUSH2 0x1DD JUMPI DUP1 PUSH4 0xF36403A EQ PUSH2 0x1FF JUMPI DUP1 PUSH4 0xFA1BA44 EQ PUSH2 0x23C JUMPI JUMPDEST PUSH1 0x0 DUP1 REVERT JUMPDEST CALLVALUE DUP1 ISZERO PUSH2 0x1E9 JUMPI PUSH1 0x0 DUP1 REVERT JUMPDEST POP PUSH2 0x1FD PUSH2 0x1F8 CALLDATASIZE PUSH1 0x4 PUSH2 0x2704 JUMP JUMPDEST PUSH2 0x645 JUMP JUMPDEST STOP JUMPDEST CALLVALUE DUP1 ISZERO PUSH2 0x20B JUMPI PUSH1 0x0 DUP1 REVERT JUMPDEST POP PUSH1 0x1 SLOAD PUSH2 0x21F SWAP1 PUSH1 0x1 PUSH1 0x1 PUSH1 0xA0 SHL SUB AND DUP2 JUMP JUMPDEST PUSH1 0x40 MLOAD PUSH1 0x1 PUSH1 0x1 PUSH1 0xA0 SHL SUB SWAP1 SWAP2 AND DUP2 MSTORE PUSH1 0x20 ADD JUMPDEST PUSH1 0x40 MLOAD DUP1 SWAP2 SUB SWAP1 RETURN JUMPDEST CALLVALUE DUP1 ISZERO PUSH2 0x248 JUMPI PUSH1 0x0 DUP1 REVERT JUMPDEST POP PUSH2 0x252 PUSH1 0xD2 SLOAD DUP2 JUMP JUMPDEST PUSH1 0x40 MLOAD SWAP1 DUP2 MSTORE PUSH1 0x20 ADD PUSH2 0x233 JUMP JUMPDEST CALLVALUE DUP1 ISZERO PUSH2 0x26C JUMPI PUSH1 0x0 DUP1 REVERT JUMPDEST POP PUSH2 0x1FD PUSH2 0x27B CALLDATASIZE PUSH1 0x4 PUSH2 0x2721 JUMP JUMPDEST PUSH2 0x748 JUMP JUMPDEST CALLVALUE DUP1 ISZERO PUSH2 0x28C JUMPI PUSH1 0x0 DUP1 REVERT JUMPDEST POP PUSH2 0x252 PUSH2 0x78C JUMP JUMPDEST CALLVALUE DUP1 ISZERO PUSH2 0x2A1 JUMPI PUSH1 0x0 DUP1 REVERT JUMPDEST POP PUSH2 0x252 PUSH1 0xD1 SLOAD DUP2 JUMP JUMPDEST PUSH2 0x1FD PUSH2 0x2B9 CALLDATASIZE PUSH1 0x4 PUSH2 0x2721 JUMP JUMPDEST PUSH2 0x812 JUMP JUMPDEST CALLVALUE DUP1 ISZERO PUSH2 0x2CA JUMPI PUSH1 0x0 DUP1 REVERT JUMPDEST POP PUSH2 0x1FD PUSH2 0x2D9 CALLDATASIZE PUSH1 0x4 PUSH2 0x2748 JUMP JUMPDEST PUSH2 0xB83 JUMP JUMPDEST CALLVALUE DUP1 ISZERO PUSH2 0x2EA JUMPI PUSH1 0x0 DUP1 REVERT JUMPDEST POP PUSH2 0x1FD PUSH2 0x2F9 CALLDATASIZE PUSH1 0x4 PUSH2 0x2781 JUMP JUMPDEST PUSH2 0xBFB JUMP JUMPDEST CALLVALUE DUP1 ISZERO PUSH2 0x30A JUMPI PUSH1 0x0 DUP1 REVERT JUMPDEST POP PUSH2 0x32E PUSH2 0x319 CALLDATASIZE PUSH1 0x4 PUSH2 0x2704 JUMP JUMPDEST PUSH1 0xD3 PUSH1 0x20 MSTORE PUSH1 0x0 SWAP1 DUP2 MSTORE PUSH1 0x40 SWAP1 KECCAK256 SLOAD PUSH1 0xFF AND DUP2 JUMP JUMPDEST PUSH1 0x40 MLOAD SWAP1 ISZERO ISZERO DUP2 MSTORE PUSH1 0x20 ADD PUSH2 0x233 JUMP JUMPDEST CALLVALUE DUP1 ISZERO PUSH2 0x34A JUMPI PUSH1 0x0 DUP1 REVERT JUMPDEST POP PUSH2 0x1FD PUSH2 0xDFE JUMP JUMPDEST CALLVALUE DUP1 ISZERO PUSH2 0x35F JUMPI PUSH1 0x0 DUP1 REVERT JUMPDEST POP PUSH2 0x252 PUSH1 0xCF SLOAD DUP2 JUMP JUMPDEST CALLVALUE DUP1 ISZERO PUSH2 0x375 JUMPI PUSH1 0x0 DUP1 REVERT JUMPDEST POP PUSH2 0x1FD PUSH2 0x384 CALLDATASIZE PUSH1 0x4 PUSH2 0x2805 JUMP JUMPDEST PUSH2 0xE12 JUMP JUMPDEST CALLVALUE DUP1 ISZERO PUSH2 0x395 JUMPI PUSH1 0x0 DUP1 REVERT JUMPDEST POP PUSH2 0x1FD PUSH2 0x3A4 CALLDATASIZE PUSH1 0x4 PUSH2 0x2704 JUMP JUMPDEST PUSH2 0x120D JUMP JUMPDEST CALLVALUE DUP1 ISZERO PUSH2 0x3B5 JUMPI PUSH1 0x0 DUP1 REVERT JUMPDEST POP PUSH1 0xD4 SLOAD PUSH2 0x32E SWAP1 PUSH1 0xFF AND DUP2 JUMP JUMPDEST CALLVALUE DUP1 ISZERO PUSH2 0x3CF JUMPI PUSH1 0x0 DUP1 REVERT JUMPDEST POP PUSH2 0x410 PUSH2 0x3DE CALLDATASIZE PUSH1 0x4 PUSH2 0x2721 JUMP JUMPDEST PUSH1 0xD0 PUSH1 0x20 MSTORE PUSH1 0x0 SWAP1 DUP2 MSTORE PUSH1 0x40 SWAP1 KECCAK256 SLOAD PUSH1 0x1 PUSH1 0x1 PUSH1 0xA0 SHL SUB DUP2 AND SWAP1 PUSH1 0x1 PUSH1 0xA0 SHL SWAP1 DIV PUSH12 0xFFFFFFFFFFFFFFFFFFFFFFFF AND DUP3 JUMP JUMPDEST PUSH1 0x40 DUP1 MLOAD PUSH1 0x1 PUSH1 0x1 PUSH1 0xA0 SHL SUB SWAP1 SWAP4 AND DUP4 MSTORE PUSH12 0xFFFFFFFFFFFFFFFFFFFFFFFF SWAP1 SWAP2 AND PUSH1 0x20 DUP4 ADD MSTORE ADD PUSH2 0x233 JUMP JUMPDEST CALLVALUE DUP1 ISZERO PUSH2 0x448 JUMPI PUSH1 0x0 DUP1 REVERT JUMPDEST POP PUSH1 0xCA SLOAD PUSH2 0x21F SWAP1 PUSH1 0x1 PUSH1 0x1 PUSH1 0xA0 SHL SUB AND DUP2 JUMP JUMPDEST CALLVALUE DUP1 ISZERO PUSH2 0x468 JUMPI PUSH1 0x0 DUP1 REVERT JUMPDEST POP PUSH1 0x64 SLOAD PUSH1 0x1 PUSH1 0x1 PUSH1 0xA0 SHL SUB AND PUSH2 0x21F JUMP JUMPDEST CALLVALUE DUP1 ISZERO PUSH2 0x486 JUMPI PUSH1 0x0 DUP1 REVERT JUMPDEST POP PUSH2 0x1FD PUSH2 0x495 CALLDATASIZE PUSH1 0x4 PUSH2 0x289B JUMP JUMPDEST PUSH2 0x12C5 JUMP JUMPDEST CALLVALUE DUP1 ISZERO PUSH2 0x4A6 JUMPI PUSH1 0x0 DUP1 REVERT JUMPDEST POP PUSH1 0xCD SLOAD PUSH2 0x21F SWAP1 PUSH1 0x1 PUSH1 0x1 PUSH1 0xA0 SHL SUB AND DUP2 JUMP JUMPDEST CALLVALUE DUP1 ISZERO PUSH2 0x4C6 JUMPI PUSH1 0x0 DUP1 REVERT JUMPDEST POP PUSH2 0x4EA PUSH2 0x4D5 CALLDATASIZE PUSH1 0x4 PUSH2 0x2721 JUMP JUMPDEST PUSH1 0xC8 PUSH1 0x20 MSTORE PUSH1 0x0 SWAP1 DUP2 MSTORE PUSH1 0x40 SWAP1 KECCAK256 SLOAD PUSH1 0xFF AND DUP2 JUMP JUMPDEST PUSH1 0x40 MLOAD PUSH2 0x233 SWAP2 SWAP1 PUSH2 0x28D3 JUMP JUMPDEST CALLVALUE DUP1 ISZERO PUSH2 0x503 JUMPI PUSH1 0x0 DUP1 REVERT JUMPDEST POP PUSH1 0x96 SLOAD PUSH2 0x21F SWAP1 PUSH1 0x1 PUSH1 0x1 PUSH1 0xA0 SHL SUB AND DUP2 JUMP JUMPDEST CALLVALUE DUP1 ISZERO PUSH2 0x523 JUMPI PUSH1 0x0 DUP1 REVERT JUMPDEST POP PUSH2 0x252 PUSH5 0x2540BE400 DUP2 JUMP JUMPDEST CALLVALUE DUP1 ISZERO PUSH2 0x53C JUMPI PUSH1 0x0 DUP1 REVERT JUMPDEST POP PUSH1 0xCE SLOAD PUSH2 0x21F SWAP1 PUSH1 0x1 PUSH1 0x1 PUSH1 0xA0 SHL SUB AND DUP2 JUMP JUMPDEST CALLVALUE DUP1 ISZERO PUSH2 0x55C JUMPI PUSH1 0x0 DUP1 REVERT JUMPDEST POP PUSH1 0xCD SLOAD PUSH2 0x572 SWAP1 PUSH1 0x1 PUSH1 0xA0 SHL SWAP1 DIV PUSH2 0xFFFF AND DUP2 JUMP JUMPDEST PUSH1 0x40 MLOAD PUSH2 0xFFFF SWAP1 SWAP2 AND DUP2 MSTORE PUSH1 0x20 ADD PUSH2 0x233 JUMP JUMPDEST CALLVALUE DUP1 ISZERO PUSH2 0x591 JUMPI PUSH1 0x0 DUP1 REVERT JUMPDEST POP PUSH1 0xCB SLOAD PUSH2 0x21F SWAP1 PUSH1 0x1 PUSH1 0x1 PUSH1 0xA0 SHL SUB AND DUP2 JUMP JUMPDEST CALLVALUE DUP1 ISZERO PUSH2 0x5B1 JUMPI PUSH1 0x0 DUP1 REVERT JUMPDEST POP PUSH1 0xC9 SLOAD PUSH2 0x21F SWAP1 PUSH1 0x1 PUSH1 0x1 PUSH1 0xA0 SHL SUB AND DUP2 JUMP JUMPDEST CALLVALUE DUP1 ISZERO PUSH2 0x5D1 JUMPI PUSH1 0x0 DUP1 REVERT JUMPDEST POP PUSH1 0x0 SLOAD PUSH2 0x21F SWAP1 PUSH1 0x1 PUSH1 0x1 PUSH1 0xA0 SHL SUB AND DUP2 JUMP JUMPDEST CALLVALUE DUP1 ISZERO PUSH2 0x5F1 JUMPI PUSH1 0x0 DUP1 REVERT JUMPDEST POP PUSH1 0xCC SLOAD PUSH2 0x21F SWAP1 PUSH1 0x1 PUSH1 0x1 PUSH1 0xA0 SHL SUB AND DUP2 JUMP JUMPDEST CALLVALUE DUP1 ISZERO PUSH2 0x611 JUMPI PUSH1 0x0 DUP1 REVERT JUMPDEST POP PUSH2 0x1FD PUSH2 0x620 CALLDATASIZE PUSH1 0x4 PUSH2 0x2704 JUMP JUMPDEST PUSH2 0x1314 JUMP JUMPDEST CALLVALUE DUP1 ISZERO PUSH2 0x631 JUMPI PUSH1 0x0 DUP1 REVERT JUMPDEST POP PUSH2 0x1FD PUSH2 0x640 CALLDATASIZE PUSH1 0x4 PUSH2 0x28FB JUMP JUMPDEST PUSH2 0x13A4 JUMP JUMPDEST PUSH2 0x64D PUSH2 0x13ED JUMP JUMPDEST PUSH1 0xCE SLOAD PUSH1 0x1 PUSH1 0x1 PUSH1 0xA0 SHL SUB AND ISZERO PUSH2 0x6AB JUMPI PUSH1 0x40 MLOAD PUSH3 0x461BCD PUSH1 0xE5 SHL DUP2 MSTORE PUSH1 0x20 PUSH1 0x4 DUP3 ADD DUP2 SWAP1 MSTORE PUSH1 0x24 DUP3 ADD MSTORE PUSH32 0x4C3220426974636F696E204465706F7369746F7220616C726561647920736574 PUSH1 0x44 DUP3 ADD MSTORE PUSH1 0x64 ADD JUMPDEST PUSH1 0x40 MLOAD DUP1 SWAP2 SUB SWAP1 REVERT JUMPDEST PUSH1 0x1 PUSH1 0x1 PUSH1 0xA0 SHL SUB DUP2 AND PUSH2 0x726 JUMPI PUSH1 0x40 MLOAD PUSH3 0x461BCD PUSH1 0xE5 SHL DUP2 MSTORE PUSH1 0x20 PUSH1 0x4 DUP3 ADD MSTORE PUSH1 0x24 DUP1 DUP3 ADD MSTORE PUSH32 0x4C3220426974636F696E204465706F7369746F72206D757374206E6F74206265 PUSH1 0x44 DUP3 ADD MSTORE PUSH32 0x2030783000000000000000000000000000000000000000000000000000000000 PUSH1 0x64 DUP3 ADD MSTORE PUSH1 0x84 ADD PUSH2 0x6A2 JUMP JUMPDEST PUSH1 0xCE DUP1 SLOAD PUSH1 0x1 PUSH1 0x1 PUSH1 0xA0 SHL SUB NOT AND PUSH1 0x1 PUSH1 0x1 PUSH1 0xA0 SHL SUB SWAP3 SWAP1 SWAP3 AND SWAP2 SWAP1 SWAP2 OR SWAP1 SSTORE JUMP JUMPDEST PUSH2 0x750 PUSH2 0x13ED JUMP JUMPDEST PUSH1 0xCF DUP2 SWAP1 SSTORE PUSH1 0x40 MLOAD DUP2 DUP2 MSTORE PUSH32 0x6ED5A3DDEDC64E149E68B8BBC09D35489452528AE70487EE4F8832837C5C0105 SWAP1 PUSH1 0x20 ADD JUMPDEST PUSH1 0x40 MLOAD DUP1 SWAP2 SUB SWAP1 LOG1 POP JUMP JUMPDEST PUSH1 0x0 PUSH2 0x80D PUSH1 0xCA PUSH1 0x0 SWAP1 SLOAD SWAP1 PUSH2 0x100 EXP SWAP1 DIV PUSH1 0x1 PUSH1 0x1 PUSH1 0xA0 SHL SUB AND PUSH1 0x1 PUSH1 0x1 PUSH1 0xA0 SHL SUB AND PUSH4 0x1A90A219 PUSH1 0x40 MLOAD DUP2 PUSH4 0xFFFFFFFF AND PUSH1 0xE0 SHL DUP2 MSTORE PUSH1 0x4 ADD PUSH1 0x20 PUSH1 0x40 MLOAD DUP1 DUP4 SUB DUP2 DUP7 GAS STATICCALL ISZERO DUP1 ISZERO PUSH2 0x7E4 JUMPI RETURNDATASIZE PUSH1 0x0 DUP1 RETURNDATACOPY RETURNDATASIZE PUSH1 0x0 REVERT JUMPDEST POP POP POP POP PUSH1 0x40 MLOAD RETURNDATASIZE PUSH1 0x1F NOT PUSH1 0x1F DUP3 ADD AND DUP3 ADD DUP1 PUSH1 0x40 MSTORE POP DUP2 ADD SWAP1 PUSH2 0x808 SWAP2 SWAP1 PUSH2 0x2918 JUMP JUMPDEST PUSH2 0x1447 JUMP JUMPDEST SWAP1 POP SWAP1 JUMP JUMPDEST PUSH1 0x0 GAS SWAP1 POP PUSH1 0x1 PUSH1 0x0 DUP4 DUP2 MSTORE PUSH1 0xC8 PUSH1 0x20 MSTORE PUSH1 0x40 SWAP1 KECCAK256 SLOAD PUSH1 0xFF AND PUSH1 0x2 DUP2 GT ISZERO PUSH2 0x83C JUMPI PUSH2 0x83C PUSH2 0x28BD JUMP JUMPDEST EQ PUSH2 0x889 JUMPI PUSH1 0x40 MLOAD PUSH3 0x461BCD PUSH1 0xE5 SHL DUP2 MSTORE PUSH1 0x20 PUSH1 0x4 DUP3 ADD MSTORE PUSH1 0x13 PUSH1 0x24 DUP3 ADD MSTORE PUSH32 0x57726F6E67206465706F73697420737461746500000000000000000000000000 PUSH1 0x44 DUP3 ADD MSTORE PUSH1 0x64 ADD PUSH2 0x6A2 JUMP JUMPDEST PUSH1 0x0 DUP3 DUP2 MSTORE PUSH1 0xC8 PUSH1 0x20 MSTORE PUSH1 0x40 DUP2 KECCAK256 DUP1 SLOAD PUSH1 0xFF NOT AND PUSH1 0x2 OR SWAP1 SSTORE DUP1 DUP1 PUSH2 0x8AD DUP6 PUSH2 0x1504 JUMP JUMPDEST PUSH1 0xD4 SLOAD SWAP3 SWAP6 POP SWAP1 SWAP4 POP SWAP2 POP PUSH1 0xFF AND ISZERO PUSH2 0x96B JUMPI PUSH1 0x0 DUP1 PUSH1 0x0 SWAP1 SLOAD SWAP1 PUSH2 0x100 EXP SWAP1 DIV PUSH1 0x1 PUSH1 0x1 PUSH1 0xA0 SHL SUB AND PUSH1 0x1 PUSH1 0x1 PUSH1 0xA0 SHL SUB AND PUSH4 0xC42B64D0 PUSH1 0x40 MLOAD DUP2 PUSH4 0xFFFFFFFF AND PUSH1 0xE0 SHL DUP2 MSTORE PUSH1 0x4 ADD PUSH1 0x80 PUSH1 0x40 MLOAD DUP1 DUP4 SUB DUP2 DUP7 GAS STATICCALL ISZERO DUP1 ISZERO PUSH2 0x914 JUMPI RETURNDATASIZE PUSH1 0x0 DUP1 RETURNDATACOPY RETURNDATASIZE PUSH1 0x0 REVERT JUMPDEST POP POP POP POP PUSH1 0x40 MLOAD RETURNDATASIZE PUSH1 0x1F NOT PUSH1 0x1F DUP3 ADD AND DUP3 ADD DUP1 PUSH1 0x40 MSTORE POP DUP2 ADD SWAP1 PUSH2 0x938 SWAP2 SWAP1 PUSH2 0x2960 JUMP JUMPDEST POP SWAP3 POP POP POP PUSH1 0x0 PUSH5 0x2540BE400 DUP3 PUSH8 0xFFFFFFFFFFFFFFFF AND PUSH2 0x95A SWAP2 SWAP1 PUSH2 0x29CC JUMP JUMPDEST SWAP1 POP PUSH2 0x966 DUP2 DUP6 PUSH2 0x29E3 JUMP JUMPDEST SWAP4 POP POP POP JUMPDEST CALLER DUP2 PUSH1 0x1 PUSH1 0x1 PUSH1 0xA0 SHL SUB AND DUP7 PUSH32 0x94D36BC0D9BF5ADBD2DEC8BD125B7BF12EECC6E5539FC8F2BD57A831D9995AF7 DUP7 DUP7 PUSH1 0x40 MLOAD PUSH2 0x9B1 SWAP3 SWAP2 SWAP1 SWAP2 DUP3 MSTORE PUSH1 0x20 DUP3 ADD MSTORE PUSH1 0x40 ADD SWAP1 JUMP JUMPDEST PUSH1 0x40 MLOAD DUP1 SWAP2 SUB SWAP1 LOG4 PUSH2 0x9C3 DUP3 DUP3 PUSH2 0x1737 JUMP JUMPDEST PUSH1 0x96 SLOAD PUSH1 0x1 PUSH1 0x1 PUSH1 0xA0 SHL SUB AND ISZERO PUSH2 0xB7C JUMPI PUSH1 0x0 DUP6 DUP2 MSTORE PUSH1 0xD0 PUSH1 0x20 SWAP1 DUP2 MSTORE PUSH1 0x40 SWAP2 DUP3 SWAP1 KECCAK256 DUP3 MLOAD DUP1 DUP5 ADD SWAP1 SWAP4 MSTORE SLOAD PUSH1 0x1 PUSH1 0x1 PUSH1 0xA0 SHL SUB DUP2 AND DUP1 DUP5 MSTORE PUSH1 0x1 PUSH1 0xA0 SHL SWAP1 SWAP2 DIV PUSH12 0xFFFFFFFFFFFFFFFFFFFFFFFF AND SWAP2 DUP4 ADD SWAP2 SWAP1 SWAP2 MSTORE ISZERO PUSH2 0xAC5 JUMPI PUSH1 0x0 DUP7 DUP2 MSTORE PUSH1 0xD0 PUSH1 0x20 SWAP1 DUP2 MSTORE PUSH1 0x40 DUP1 DUP4 KECCAK256 SWAP3 SWAP1 SWAP3 SSTORE PUSH1 0x96 SLOAD SWAP1 DUP4 ADD MLOAD DUP4 MLOAD SWAP3 MLOAD PUSH32 0x7AD226DC00000000000000000000000000000000000000000000000000000000 DUP2 MSTORE PUSH12 0xFFFFFFFFFFFFFFFFFFFFFFFF SWAP1 SWAP2 AND PUSH1 0x4 DUP3 ADD MSTORE PUSH1 0x1 PUSH1 0x1 PUSH1 0xA0 SHL SUB SWAP3 DUP4 AND PUSH1 0x24 DUP3 ADD MSTORE SWAP2 AND SWAP1 PUSH4 0x7AD226DC SWAP1 PUSH1 0x44 ADD PUSH1 0x0 PUSH1 0x40 MLOAD DUP1 DUP4 SUB DUP2 PUSH1 0x0 DUP8 DUP1 EXTCODESIZE ISZERO DUP1 ISZERO PUSH2 0xAAC JUMPI PUSH1 0x0 DUP1 REVERT JUMPDEST POP GAS CALL ISZERO DUP1 ISZERO PUSH2 0xAC0 JUMPI RETURNDATASIZE PUSH1 0x0 DUP1 RETURNDATACOPY RETURNDATASIZE PUSH1 0x0 REVERT JUMPDEST POP POP POP POP JUMPDEST CALLER PUSH1 0x0 SWAP1 DUP2 MSTORE PUSH1 0xD3 PUSH1 0x20 MSTORE PUSH1 0x40 SWAP1 KECCAK256 SLOAD PUSH1 0xFF AND ISZERO PUSH2 0xB7A JUMPI PUSH1 0x0 PUSH2 0xAE8 CALLVALUE PUSH2 0x1B4D JUMP JUMPDEST PUSH1 0x96 SLOAD PUSH1 0xD2 SLOAD SWAP2 SWAP3 POP PUSH1 0x1 PUSH1 0x1 PUSH1 0xA0 SHL SUB AND SWAP1 PUSH4 0x7AD226DC SWAP1 DUP4 GAS PUSH2 0xB0D SWAP1 DUP12 PUSH2 0x29F6 JUMP JUMPDEST PUSH2 0xB17 SWAP2 SWAP1 PUSH2 0x29E3 JUMP JUMPDEST PUSH2 0xB21 SWAP2 SWAP1 PUSH2 0x29E3 JUMP JUMPDEST PUSH1 0x40 MLOAD PUSH1 0x1 PUSH1 0x1 PUSH1 0xE0 SHL SUB NOT PUSH1 0xE0 DUP5 SWAP1 SHL AND DUP2 MSTORE PUSH1 0x4 DUP2 ADD SWAP2 SWAP1 SWAP2 MSTORE CALLER PUSH1 0x24 DUP3 ADD MSTORE PUSH1 0x44 ADD PUSH1 0x0 PUSH1 0x40 MLOAD DUP1 DUP4 SUB DUP2 PUSH1 0x0 DUP8 DUP1 EXTCODESIZE ISZERO DUP1 ISZERO PUSH2 0xB60 JUMPI PUSH1 0x0 DUP1 REVERT JUMPDEST POP GAS CALL ISZERO DUP1 ISZERO PUSH2 0xB74 JUMPI RETURNDATASIZE PUSH1 0x0 DUP1 RETURNDATACOPY RETURNDATASIZE PUSH1 0x0 REVERT JUMPDEST POP POP POP POP POP JUMPDEST POP JUMPDEST POP POP POP POP POP JUMP JUMPDEST PUSH2 0xB8B PUSH2 0x13ED JUMP JUMPDEST DUP2 PUSH1 0x1 PUSH1 0x1 PUSH1 0xA0 SHL SUB AND PUSH32 0x1FFF4AAE494AAEDFF71FF8B04DE50A56543BB83CE05B033C3FB4A93E065C05FC DUP3 PUSH1 0x40 MLOAD PUSH2 0xBC8 SWAP2 ISZERO ISZERO DUP2 MSTORE PUSH1 0x20 ADD SWAP1 JUMP JUMPDEST PUSH1 0x40 MLOAD DUP1 SWAP2 SUB SWAP1 LOG2 PUSH1 0x1 PUSH1 0x1 PUSH1 0xA0 SHL SUB SWAP2 SWAP1 SWAP2 AND PUSH1 0x0 SWAP1 DUP2 MSTORE PUSH1 0xD3 PUSH1 0x20 MSTORE PUSH1 0x40 SWAP1 KECCAK256 DUP1 SLOAD PUSH1 0xFF NOT AND SWAP2 ISZERO ISZERO SWAP2 SWAP1 SWAP2 OR SWAP1 SSTORE JUMP JUMPDEST PUSH1 0x0 GAS SWAP1 POP PUSH1 0x1 PUSH1 0x1 PUSH1 0xA0 SHL SUB DUP3 AND PUSH2 0xC56 JUMPI PUSH1 0x40 MLOAD PUSH3 0x461BCD PUSH1 0xE5 SHL DUP2 MSTORE PUSH1 0x20 PUSH1 0x4 DUP3 ADD DUP2 SWAP1 MSTORE PUSH1 0x24 DUP3 ADD MSTORE PUSH32 0x4C32206465706F736974206F776E6572206D757374206E6F7420626520307830 PUSH1 0x44 DUP3 ADD MSTORE PUSH1 0x64 ADD PUSH2 0x6A2 JUMP JUMPDEST PUSH1 0x1 PUSH1 0x1 PUSH1 0xA0 SHL SUB DUP3 AND PUSH1 0x0 PUSH2 0xC83 PUSH2 0xC6E DUP8 PUSH2 0x2AC4 JUMP JUMPDEST PUSH2 0xC7D CALLDATASIZE DUP9 SWAP1 SUB DUP9 ADD DUP9 PUSH2 0x2B89 JUMP JUMPDEST DUP5 PUSH2 0x1CA0 JUMP JUMPDEST POP SWAP1 POP PUSH1 0x0 DUP1 DUP3 DUP2 MSTORE PUSH1 0xC8 PUSH1 0x20 MSTORE PUSH1 0x40 SWAP1 KECCAK256 SLOAD PUSH1 0xFF AND PUSH1 0x2 DUP2 GT ISZERO PUSH2 0xCAA JUMPI PUSH2 0xCAA PUSH2 0x28BD JUMP JUMPDEST EQ PUSH2 0xCF7 JUMPI PUSH1 0x40 MLOAD PUSH3 0x461BCD PUSH1 0xE5 SHL DUP2 MSTORE PUSH1 0x20 PUSH1 0x4 DUP3 ADD MSTORE PUSH1 0x13 PUSH1 0x24 DUP3 ADD MSTORE PUSH32 0x57726F6E67206465706F73697420737461746500000000000000000000000000 PUSH1 0x44 DUP3 ADD MSTORE PUSH1 0x64 ADD PUSH2 0x6A2 JUMP JUMPDEST PUSH1 0x0 DUP2 DUP2 MSTORE PUSH1 0xC8 PUSH1 0x20 MSTORE PUSH1 0x40 DUP1 DUP3 KECCAK256 DUP1 SLOAD PUSH1 0xFF NOT AND PUSH1 0x1 OR SWAP1 SSTORE MLOAD CALLER SWAP2 PUSH1 0x1 PUSH1 0x1 PUSH1 0xA0 SHL SUB DUP8 AND SWAP2 DUP5 SWAP2 PUSH32 0x4870363995D5B750BCCCA9D95E57044D630524AEC2EF09EBDB820AC11D866B4 SWAP2 LOG4 PUSH1 0x96 SLOAD PUSH1 0x1 PUSH1 0x1 PUSH1 0xA0 SHL SUB AND ISZERO DUP1 ISZERO SWAP1 PUSH2 0xD6D JUMPI POP CALLER PUSH1 0x0 SWAP1 DUP2 MSTORE PUSH1 0xD3 PUSH1 0x20 MSTORE PUSH1 0x40 SWAP1 KECCAK256 SLOAD PUSH1 0xFF AND JUMPDEST ISZERO PUSH2 0xB7A JUMPI PUSH1 0x0 PUSH1 0xD1 SLOAD GAS PUSH2 0xD82 SWAP1 DUP7 PUSH2 0x29F6 JUMP JUMPDEST PUSH2 0xD8C SWAP2 SWAP1 PUSH2 0x29E3 JUMP JUMPDEST SWAP1 POP PUSH12 0xFFFFFFFFFFFFFFFFFFFFFFFF DUP2 GT ISZERO PUSH2 0xDAB JUMPI POP POP POP POP POP POP POP JUMP JUMPDEST PUSH1 0x40 DUP1 MLOAD DUP1 DUP3 ADD DUP3 MSTORE CALLER DUP2 MSTORE PUSH12 0xFFFFFFFFFFFFFFFFFFFFFFFF SWAP3 DUP4 AND PUSH1 0x20 DUP1 DUP4 ADD SWAP2 DUP3 MSTORE PUSH1 0x0 SWAP6 DUP7 MSTORE PUSH1 0xD0 SWAP1 MSTORE SWAP2 SWAP1 SWAP4 KECCAK256 SWAP3 MLOAD SWAP1 MLOAD SWAP1 SWAP2 AND PUSH1 0x1 PUSH1 0xA0 SHL MUL PUSH1 0x1 PUSH1 0x1 PUSH1 0xA0 SHL SUB SWAP1 SWAP2 AND OR SWAP1 SSTORE POP POP POP POP POP JUMP JUMPDEST PUSH2 0xE06 PUSH2 0x13ED JUMP JUMPDEST PUSH2 0xE10 PUSH1 0x0 PUSH2 0x1E30 JUMP JUMPDEST JUMP JUMPDEST PUSH1 0x31 SLOAD PUSH2 0x100 SWAP1 DIV PUSH1 0xFF AND ISZERO DUP1 DUP1 ISZERO PUSH2 0xE32 JUMPI POP PUSH1 0x31 SLOAD PUSH1 0x1 PUSH1 0xFF SWAP1 SWAP2 AND LT JUMPDEST DUP1 PUSH2 0xE4C JUMPI POP ADDRESS EXTCODESIZE ISZERO DUP1 ISZERO PUSH2 0xE4C JUMPI POP PUSH1 0x31 SLOAD PUSH1 0xFF AND PUSH1 0x1 EQ JUMPDEST PUSH2 0xEBE JUMPI PUSH1 0x40 MLOAD PUSH3 0x461BCD PUSH1 0xE5 SHL DUP2 MSTORE PUSH1 0x20 PUSH1 0x4 DUP3 ADD MSTORE PUSH1 0x2E PUSH1 0x24 DUP3 ADD MSTORE PUSH32 0x496E697469616C697A61626C653A20636F6E747261637420697320616C726561 PUSH1 0x44 DUP3 ADD MSTORE PUSH32 0x647920696E697469616C697A6564000000000000000000000000000000000000 PUSH1 0x64 DUP3 ADD MSTORE PUSH1 0x84 ADD PUSH2 0x6A2 JUMP JUMPDEST PUSH1 0x31 DUP1 SLOAD PUSH1 0xFF NOT AND PUSH1 0x1 OR SWAP1 SSTORE DUP1 ISZERO PUSH2 0xEE1 JUMPI PUSH1 0x31 DUP1 SLOAD PUSH2 0xFF00 NOT AND PUSH2 0x100 OR SWAP1 SSTORE JUMPDEST PUSH2 0xEEB DUP9 DUP9 PUSH2 0x1E82 JUMP JUMPDEST PUSH2 0xEF3 PUSH2 0x1FF0 JUMP JUMPDEST PUSH1 0x1 PUSH1 0x1 PUSH1 0xA0 SHL SUB DUP7 AND PUSH2 0xF49 JUMPI PUSH1 0x40 MLOAD PUSH3 0x461BCD PUSH1 0xE5 SHL DUP2 MSTORE PUSH1 0x20 PUSH1 0x4 DUP3 ADD MSTORE PUSH1 0x1F PUSH1 0x24 DUP3 ADD MSTORE PUSH32 0x576F726D686F6C6520616464726573732063616E6E6F74206265207A65726F00 PUSH1 0x44 DUP3 ADD MSTORE PUSH1 0x64 ADD PUSH2 0x6A2 JUMP JUMPDEST PUSH1 0x1 PUSH1 0x1 PUSH1 0xA0 SHL SUB DUP6 AND PUSH2 0xFC5 JUMPI PUSH1 0x40 MLOAD PUSH3 0x461BCD PUSH1 0xE5 SHL DUP2 MSTORE PUSH1 0x20 PUSH1 0x4 DUP3 ADD MSTORE PUSH1 0x26 PUSH1 0x24 DUP3 ADD MSTORE PUSH32 0x576F726D686F6C6552656C6179657220616464726573732063616E6E6F742062 PUSH1 0x44 DUP3 ADD MSTORE PUSH32 0x65207A65726F0000000000000000000000000000000000000000000000000000 PUSH1 0x64 DUP3 ADD MSTORE PUSH1 0x84 ADD PUSH2 0x6A2 JUMP JUMPDEST PUSH1 0x1 PUSH1 0x1 PUSH1 0xA0 SHL SUB DUP5 AND PUSH2 0x1041 JUMPI PUSH1 0x40 MLOAD PUSH3 0x461BCD PUSH1 0xE5 SHL DUP2 MSTORE PUSH1 0x20 PUSH1 0x4 DUP3 ADD MSTORE PUSH1 0x2A PUSH1 0x24 DUP3 ADD MSTORE PUSH32 0x576F726D686F6C65546F6B656E42726964676520616464726573732063616E6E PUSH1 0x44 DUP3 ADD MSTORE PUSH32 0x6F74206265207A65726F00000000000000000000000000000000000000000000 PUSH1 0x64 DUP3 ADD MSTORE PUSH1 0x84 ADD PUSH2 0x6A2 JUMP JUMPDEST PUSH1 0x1 PUSH1 0x1 PUSH1 0xA0 SHL SUB DUP4 AND PUSH2 0x10BD JUMPI PUSH1 0x40 MLOAD PUSH3 0x461BCD PUSH1 0xE5 SHL DUP2 MSTORE PUSH1 0x20 PUSH1 0x4 DUP3 ADD MSTORE PUSH1 0x28 PUSH1 0x24 DUP3 ADD MSTORE PUSH32 0x4C32576F726D686F6C654761746577617920616464726573732063616E6E6F74 PUSH1 0x44 DUP3 ADD MSTORE PUSH32 0x206265207A65726F000000000000000000000000000000000000000000000000 PUSH1 0x64 DUP3 ADD MSTORE PUSH1 0x84 ADD PUSH2 0x6A2 JUMP JUMPDEST DUP7 PUSH1 0x1 PUSH1 0x1 PUSH1 0xA0 SHL SUB AND PUSH4 0xE5D3D714 PUSH1 0x40 MLOAD DUP2 PUSH4 0xFFFFFFFF AND PUSH1 0xE0 SHL DUP2 MSTORE PUSH1 0x4 ADD PUSH1 0x20 PUSH1 0x40 MLOAD DUP1 DUP4 SUB DUP2 DUP7 GAS STATICCALL ISZERO DUP1 ISZERO PUSH2 0x10FB JUMPI RETURNDATASIZE PUSH1 0x0 DUP1 RETURNDATACOPY RETURNDATASIZE PUSH1 0x0 REVERT JUMPDEST POP POP POP POP PUSH1 0x40 MLOAD RETURNDATASIZE PUSH1 0x1F NOT PUSH1 0x1F DUP3 ADD AND DUP3 ADD DUP1 PUSH1 0x40 MSTORE POP DUP2 ADD SWAP1 PUSH2 0x111F SWAP2 SWAP1 PUSH2 0x2C53 JUMP JUMPDEST PUSH1 0xC9 DUP1 SLOAD PUSH1 0x1 PUSH1 0x1 PUSH1 0xA0 SHL SUB NOT SWAP1 DUP2 AND PUSH1 0x1 PUSH1 0x1 PUSH1 0xA0 SHL SUB SWAP4 DUP5 AND OR SWAP1 SWAP2 SSTORE PUSH1 0xCA DUP1 SLOAD DUP3 AND DUP10 DUP5 AND OR SWAP1 SSTORE PUSH1 0xCB DUP1 SLOAD DUP3 AND DUP9 DUP5 AND OR SWAP1 SSTORE PUSH1 0xCC DUP1 SLOAD SWAP1 SWAP2 AND DUP7 DUP4 AND OR SWAP1 SSTORE PUSH1 0xCD DUP1 SLOAD SWAP2 DUP6 AND PUSH32 0xFFFFFFFFFFFFFFFFFFFF00000000000000000000000000000000000000000000 SWAP1 SWAP3 AND SWAP2 SWAP1 SWAP2 OR PUSH1 0x1 PUSH1 0xA0 SHL PUSH2 0xFFFF DUP6 AND MUL OR SWAP1 SSTORE PUSH3 0x7A120 PUSH1 0xCF SSTORE PUSH2 0xEA60 PUSH1 0xD1 SSTORE PUSH2 0x4E20 PUSH1 0xD2 SSTORE PUSH1 0xD4 DUP1 SLOAD PUSH1 0xFF NOT AND SWAP1 SSTORE DUP1 ISZERO PUSH2 0x1203 JUMPI PUSH1 0x31 DUP1 SLOAD PUSH2 0xFF00 NOT AND SWAP1 SSTORE PUSH1 0x40 MLOAD PUSH1 0x1 DUP2 MSTORE PUSH32 0x7F26B83FF96E1F2B6A682F133852F6798A09C465DA95921460CEFB3847402498 SWAP1 PUSH1 0x20 ADD PUSH1 0x40 MLOAD DUP1 SWAP2 SUB SWAP1 LOG1 JUMPDEST POP POP POP POP POP POP POP POP JUMP JUMPDEST PUSH1 0x64 SLOAD PUSH1 0x1 PUSH1 0x1 PUSH1 0xA0 SHL SUB AND CALLER EQ PUSH2 0x1267 JUMPI PUSH1 0x40 MLOAD PUSH3 0x461BCD PUSH1 0xE5 SHL DUP2 MSTORE PUSH1 0x20 PUSH1 0x4 DUP3 ADD MSTORE PUSH1 0x17 PUSH1 0x24 DUP3 ADD MSTORE PUSH32 0x43616C6C6572206973206E6F7420746865206F776E6572000000000000000000 PUSH1 0x44 DUP3 ADD MSTORE PUSH1 0x64 ADD PUSH2 0x6A2 JUMP JUMPDEST PUSH1 0x40 MLOAD PUSH1 0x1 PUSH1 0x1 PUSH1 0xA0 SHL SUB DUP3 AND DUP2 MSTORE PUSH32 0xE2D2343D31B085B7C4E56D1C8A6EC79F7AB07460386F1C9A1756239FE2533AC SWAP1 PUSH1 0x20 ADD PUSH1 0x40 MLOAD DUP1 SWAP2 SUB SWAP1 LOG1 PUSH1 0x96 DUP1 SLOAD PUSH1 0x1 PUSH1 0x1 PUSH1 0xA0 SHL SUB NOT AND PUSH1 0x1 PUSH1 0x1 PUSH1 0xA0 SHL SUB SWAP3 SWAP1 SWAP3 AND SWAP2 SWAP1 SWAP2 OR SWAP1 SSTORE JUMP JUMPDEST PUSH2 0x12CD PUSH2 0x13ED JUMP JUMPDEST PUSH1 0xD1 DUP3 SWAP1 SSTORE PUSH1 0xD2 DUP2 SWAP1 SSTORE PUSH1 0x40 DUP1 MLOAD DUP4 DUP2 MSTORE PUSH1 0x20 DUP2 ADD DUP4 SWAP1 MSTORE PUSH32 0xB8DF1FBA472926F296225C210E366F62B21FEC23B8E1B6B0A375724798CA9C0A SWAP2 ADD PUSH1 0x40 MLOAD DUP1 SWAP2 SUB SWAP1 LOG1 POP POP JUMP JUMPDEST PUSH2 0x131C PUSH2 0x13ED JUMP JUMPDEST PUSH1 0x1 PUSH1 0x1 PUSH1 0xA0 SHL SUB DUP2 AND PUSH2 0x1398 JUMPI PUSH1 0x40 MLOAD PUSH3 0x461BCD PUSH1 0xE5 SHL DUP2 MSTORE PUSH1 0x20 PUSH1 0x4 DUP3 ADD MSTORE PUSH1 0x26 PUSH1 0x24 DUP3 ADD MSTORE PUSH32 0x4F776E61626C653A206E6577206F776E657220697320746865207A65726F2061 PUSH1 0x44 DUP3 ADD MSTORE PUSH32 0x6464726573730000000000000000000000000000000000000000000000000000 PUSH1 0x64 DUP3 ADD MSTORE PUSH1 0x84 ADD PUSH2 0x6A2 JUMP JUMPDEST PUSH2 0x13A1 DUP2 PUSH2 0x1E30 JUMP JUMPDEST POP JUMP JUMPDEST PUSH2 0x13AC PUSH2 0x13ED JUMP JUMPDEST PUSH1 0xD4 DUP1 SLOAD PUSH1 0xFF NOT AND DUP3 ISZERO ISZERO SWAP1 DUP2 OR SWAP1 SWAP2 SSTORE PUSH1 0x40 MLOAD SWAP1 DUP2 MSTORE PUSH32 0x6DCF7DD477751916B5AA15E99F6F3008AA5FA398339C3ABD2D92EAAF13B35787 SWAP1 PUSH1 0x20 ADD PUSH2 0x781 JUMP JUMPDEST PUSH1 0x64 SLOAD PUSH1 0x1 PUSH1 0x1 PUSH1 0xA0 SHL SUB AND CALLER EQ PUSH2 0xE10 JUMPI PUSH1 0x40 MLOAD PUSH3 0x461BCD PUSH1 0xE5 SHL DUP2 MSTORE PUSH1 0x20 PUSH1 0x4 DUP3 ADD DUP2 SWAP1 MSTORE PUSH1 0x24 DUP3 ADD MSTORE PUSH32 0x4F776E61626C653A2063616C6C6572206973206E6F7420746865206F776E6572 PUSH1 0x44 DUP3 ADD MSTORE PUSH1 0x64 ADD PUSH2 0x6A2 JUMP JUMPDEST PUSH1 0xCB SLOAD PUSH1 0xCD SLOAD PUSH1 0xCF SLOAD PUSH1 0x40 MLOAD PUSH32 0xC23EE3C300000000000000000000000000000000000000000000000000000000 DUP2 MSTORE PUSH1 0x1 PUSH1 0xA0 SHL SWAP1 SWAP3 DIV PUSH2 0xFFFF AND PUSH1 0x4 DUP4 ADD MSTORE PUSH1 0x0 PUSH1 0x24 DUP4 ADD DUP2 SWAP1 MSTORE PUSH1 0x44 DUP4 ADD SWAP2 SWAP1 SWAP2 MSTORE SWAP2 DUP3 SWAP2 PUSH1 0x1 PUSH1 0x1 PUSH1 0xA0 SHL SUB SWAP1 SWAP2 AND SWAP1 PUSH4 0xC23EE3C3 SWAP1 PUSH1 0x64 ADD PUSH1 0x40 DUP1 MLOAD DUP1 DUP4 SUB DUP2 DUP7 GAS STATICCALL ISZERO DUP1 ISZERO PUSH2 0x14CC JUMPI RETURNDATASIZE PUSH1 0x0 DUP1 RETURNDATACOPY RETURNDATASIZE PUSH1 0x0 REVERT JUMPDEST POP POP POP POP PUSH1 0x40 MLOAD RETURNDATASIZE PUSH1 0x1F NOT PUSH1 0x1F DUP3 ADD AND DUP3 ADD DUP1 PUSH1 0x40 MSTORE POP DUP2 ADD SWAP1 PUSH2 0x14F0 SWAP2 SWAP1 PUSH2 0x2C70 JUMP JUMPDEST POP SWAP1 POP PUSH2 0x14FD DUP4 DUP3 PUSH2 0x29E3 JUMP JUMPDEST SWAP4 SWAP3 POP POP POP JUMP JUMPDEST PUSH1 0x0 DUP1 SLOAD PUSH1 0x40 MLOAD PUSH4 0xB02C43D PUSH1 0xE4 SHL DUP2 MSTORE PUSH1 0x4 DUP2 ADD DUP5 SWAP1 MSTORE DUP3 SWAP2 DUP3 SWAP2 DUP3 SWAP2 PUSH1 0x1 PUSH1 0x1 PUSH1 0xA0 SHL SUB AND SWAP1 PUSH4 0xB02C43D0 SWAP1 PUSH1 0x24 ADD PUSH1 0xE0 PUSH1 0x40 MLOAD DUP1 DUP4 SUB DUP2 DUP7 GAS STATICCALL ISZERO DUP1 ISZERO PUSH2 0x1552 JUMPI RETURNDATASIZE PUSH1 0x0 DUP1 RETURNDATACOPY RETURNDATASIZE PUSH1 0x0 REVERT JUMPDEST POP POP POP POP PUSH1 0x40 MLOAD RETURNDATASIZE PUSH1 0x1F NOT PUSH1 0x1F DUP3 ADD AND DUP3 ADD DUP1 PUSH1 0x40 MSTORE POP DUP2 ADD SWAP1 PUSH2 0x1576 SWAP2 SWAP1 PUSH2 0x2C94 JUMP JUMPDEST SWAP1 POP DUP1 PUSH1 0x40 ADD MLOAD PUSH4 0xFFFFFFFF AND PUSH1 0x0 SUB PUSH2 0x15D2 JUMPI PUSH1 0x40 MLOAD PUSH3 0x461BCD PUSH1 0xE5 SHL DUP2 MSTORE PUSH1 0x20 PUSH1 0x4 DUP3 ADD MSTORE PUSH1 0x17 PUSH1 0x24 DUP3 ADD MSTORE PUSH32 0x4465706F736974206E6F7420696E697469616C697A6564000000000000000000 PUSH1 0x44 DUP3 ADD MSTORE PUSH1 0x64 ADD PUSH2 0x6A2 JUMP JUMPDEST PUSH1 0x1 SLOAD PUSH1 0x40 MLOAD PUSH32 0x6C626AA400000000000000000000000000000000000000000000000000000000 DUP2 MSTORE PUSH1 0x4 DUP2 ADD DUP8 SWAP1 MSTORE PUSH1 0x0 SWAP2 PUSH1 0x1 PUSH1 0x1 PUSH1 0xA0 SHL SUB AND SWAP1 PUSH4 0x6C626AA4 SWAP1 PUSH1 0x24 ADD PUSH1 0x40 DUP1 MLOAD DUP1 DUP4 SUB DUP2 PUSH1 0x0 DUP8 GAS CALL ISZERO DUP1 ISZERO PUSH2 0x1636 JUMPI RETURNDATASIZE PUSH1 0x0 DUP1 RETURNDATACOPY RETURNDATASIZE PUSH1 0x0 REVERT JUMPDEST POP POP POP POP PUSH1 0x40 MLOAD RETURNDATASIZE PUSH1 0x1F NOT PUSH1 0x1F DUP3 ADD AND DUP3 ADD DUP1 PUSH1 0x40 MSTORE POP DUP2 ADD SWAP1 PUSH2 0x165A SWAP2 SWAP1 PUSH2 0x2D47 JUMP JUMPDEST SWAP2 POP POP DUP2 PUSH1 0xA0 ADD MLOAD PUSH4 0xFFFFFFFF AND PUSH1 0x0 EQ ISZERO DUP1 PUSH2 0x1680 JUMPI POP PUSH8 0xFFFFFFFFFFFFFFFF DUP2 AND ISZERO ISZERO JUMPDEST PUSH2 0x16F2 JUMPI PUSH1 0x40 MLOAD PUSH3 0x461BCD PUSH1 0xE5 SHL DUP2 MSTORE PUSH1 0x20 PUSH1 0x4 DUP3 ADD MSTORE PUSH1 0x23 PUSH1 0x24 DUP3 ADD MSTORE PUSH32 0x4465706F736974206E6F742066696E616C697A65642062792074686520627269 PUSH1 0x44 DUP3 ADD MSTORE PUSH32 0x6467650000000000000000000000000000000000000000000000000000000000 PUSH1 0x64 DUP3 ADD MSTORE PUSH1 0x84 ADD PUSH2 0x6A2 JUMP JUMPDEST PUSH5 0x2540BE400 DUP3 PUSH1 0x20 ADD MLOAD PUSH8 0xFFFFFFFFFFFFFFFF AND PUSH2 0x1711 SWAP2 SWAP1 PUSH2 0x29CC JUMP JUMPDEST SWAP5 POP PUSH2 0x1725 DUP3 PUSH1 0x20 ADD MLOAD DUP4 PUSH1 0x80 ADD MLOAD PUSH2 0x2063 JUMP JUMPDEST SWAP4 POP DUP2 PUSH1 0xC0 ADD MLOAD SWAP3 POP POP POP SWAP2 SWAP4 SWAP1 SWAP3 POP JUMP JUMPDEST PUSH2 0x1740 DUP3 PUSH2 0x21E8 JUMP JUMPDEST SWAP2 POP PUSH1 0x0 DUP3 GT PUSH2 0x1792 JUMPI PUSH1 0x40 MLOAD PUSH3 0x461BCD PUSH1 0xE5 SHL DUP2 MSTORE PUSH1 0x20 PUSH1 0x4 DUP3 ADD MSTORE PUSH1 0x18 PUSH1 0x24 DUP3 ADD MSTORE PUSH32 0x416D6F756E7420746F6F206C6F7720746F206272696467650000000000000000 PUSH1 0x44 DUP3 ADD MSTORE PUSH1 0x64 ADD PUSH2 0x6A2 JUMP JUMPDEST PUSH1 0xCA SLOAD PUSH1 0x40 DUP1 MLOAD PUSH32 0x1A90A21900000000000000000000000000000000000000000000000000000000 DUP2 MSTORE SWAP1 MLOAD PUSH1 0x0 SWAP3 PUSH1 0x1 PUSH1 0x1 PUSH1 0xA0 SHL SUB AND SWAP2 PUSH4 0x1A90A219 SWAP2 PUSH1 0x4 DUP1 DUP4 ADD SWAP3 PUSH1 0x20 SWAP3 SWAP2 SWAP1 DUP3 SWAP1 SUB ADD DUP2 DUP7 GAS STATICCALL ISZERO DUP1 ISZERO PUSH2 0x17F5 JUMPI RETURNDATASIZE PUSH1 0x0 DUP1 RETURNDATACOPY RETURNDATASIZE PUSH1 0x0 REVERT JUMPDEST POP POP POP POP PUSH1 0x40 MLOAD RETURNDATASIZE PUSH1 0x1F NOT PUSH1 0x1F DUP3 ADD AND DUP3 ADD DUP1 PUSH1 0x40 MSTORE POP DUP2 ADD SWAP1 PUSH2 0x1819 SWAP2 SWAP1 PUSH2 0x2918 JUMP JUMPDEST SWAP1 POP PUSH1 0x0 PUSH2 0x1826 DUP3 PUSH2 0x1447 JUMP JUMPDEST SWAP1 POP DUP1 CALLVALUE EQ PUSH2 0x189D JUMPI PUSH1 0x40 MLOAD PUSH3 0x461BCD PUSH1 0xE5 SHL DUP2 MSTORE PUSH1 0x20 PUSH1 0x4 DUP3 ADD MSTORE PUSH1 0x27 PUSH1 0x24 DUP3 ADD MSTORE PUSH32 0x5061796D656E7420666F7220576F726D686F6C652052656C6179657220697320 PUSH1 0x44 DUP3 ADD MSTORE PUSH32 0x746F6F206C6F7700000000000000000000000000000000000000000000000000 PUSH1 0x64 DUP3 ADD MSTORE PUSH1 0x84 ADD PUSH2 0x6A2 JUMP JUMPDEST PUSH1 0xCC SLOAD PUSH1 0xC9 SLOAD PUSH2 0x18BA SWAP2 PUSH1 0x1 PUSH1 0x1 PUSH1 0xA0 SHL SUB SWAP2 DUP3 AND SWAP2 AND DUP7 PUSH2 0x220A JUMP JUMPDEST PUSH1 0xCC SLOAD PUSH1 0xC9 SLOAD PUSH1 0xCD SLOAD PUSH1 0x0 SWAP3 PUSH1 0x1 PUSH1 0x1 PUSH1 0xA0 SHL SUB SWAP1 DUP2 AND SWAP3 PUSH4 0xC5A5EBDA SWAP3 DUP8 SWAP3 SWAP2 DUP3 AND SWAP2 DUP11 SWAP2 PUSH1 0x1 PUSH1 0xA0 SHL DUP2 DIV PUSH2 0xFFFF AND SWAP2 AND PUSH1 0x0 DUP12 PUSH1 0x40 MLOAD PUSH1 0x20 ADD PUSH2 0x1902 SWAP2 DUP2 MSTORE PUSH1 0x20 ADD SWAP1 JUMP JUMPDEST PUSH1 0x40 MLOAD PUSH1 0x20 DUP2 DUP4 SUB SUB DUP2 MSTORE SWAP1 PUSH1 0x40 MSTORE PUSH1 0x40 MLOAD DUP9 PUSH4 0xFFFFFFFF AND PUSH1 0xE0 SHL DUP2 MSTORE PUSH1 0x4 ADD PUSH2 0x1932 SWAP7 SWAP6 SWAP5 SWAP4 SWAP3 SWAP2 SWAP1 PUSH2 0x2DCA JUMP JUMPDEST PUSH1 0x20 PUSH1 0x40 MLOAD DUP1 DUP4 SUB DUP2 DUP6 DUP9 GAS CALL ISZERO DUP1 ISZERO PUSH2 0x1950 JUMPI RETURNDATASIZE PUSH1 0x0 DUP1 RETURNDATACOPY RETURNDATASIZE PUSH1 0x0 REVERT JUMPDEST POP POP POP POP POP PUSH1 0x40 MLOAD RETURNDATASIZE PUSH1 0x1F NOT PUSH1 0x1F DUP3 ADD AND DUP3 ADD DUP1 PUSH1 0x40 MSTORE POP DUP2 ADD SWAP1 PUSH2 0x1975 SWAP2 SWAP1 PUSH2 0x2E1A JUMP JUMPDEST PUSH1 0x40 DUP1 MLOAD PUSH1 0x1 DUP1 DUP3 MSTORE DUP2 DUP4 ADD SWAP1 SWAP3 MSTORE SWAP2 SWAP3 POP PUSH1 0x0 SWAP2 SWAP1 DUP2 PUSH1 0x20 ADD JUMPDEST PUSH1 0x40 DUP1 MLOAD PUSH1 0x60 DUP2 ADD DUP3 MSTORE PUSH1 0x0 DUP1 DUP3 MSTORE PUSH1 0x20 DUP1 DUP4 ADD DUP3 SWAP1 MSTORE SWAP3 DUP3 ADD MSTORE DUP3 MSTORE PUSH1 0x0 NOT SWAP1 SWAP3 ADD SWAP2 ADD DUP2 PUSH2 0x1990 JUMPI POP POP PUSH1 0x40 DUP1 MLOAD PUSH1 0x60 DUP2 ADD DUP1 DUP4 MSTORE PUSH1 0xCA SLOAD PUSH32 0x9A8A059200000000000000000000000000000000000000000000000000000000 SWAP1 SWAP2 MSTORE SWAP2 MLOAD SWAP3 SWAP4 POP SWAP2 DUP3 SWAP2 PUSH1 0x1 PUSH1 0x1 PUSH1 0xA0 SHL SUB AND SWAP1 PUSH4 0x9A8A0592 SWAP1 PUSH1 0x64 DUP1 DUP6 ADD SWAP2 PUSH1 0x20 SWAP2 DUP2 DUP8 SUB ADD DUP2 DUP7 GAS STATICCALL ISZERO DUP1 ISZERO PUSH2 0x1A28 JUMPI RETURNDATASIZE PUSH1 0x0 DUP1 RETURNDATACOPY RETURNDATASIZE PUSH1 0x0 REVERT JUMPDEST POP POP POP POP PUSH1 0x40 MLOAD RETURNDATASIZE PUSH1 0x1F NOT PUSH1 0x1F DUP3 ADD AND DUP3 ADD DUP1 PUSH1 0x40 MSTORE POP DUP2 ADD SWAP1 PUSH2 0x1A4C SWAP2 SWAP1 PUSH2 0x2E35 JUMP JUMPDEST PUSH2 0xFFFF AND DUP2 MSTORE PUSH1 0xCC SLOAD PUSH1 0x1 PUSH1 0x1 PUSH1 0xA0 SHL SUB AND PUSH1 0x20 DUP3 ADD MSTORE PUSH8 0xFFFFFFFFFFFFFFFF DUP5 AND PUSH1 0x40 SWAP1 SWAP2 ADD MSTORE DUP2 MLOAD DUP3 SWAP1 PUSH1 0x0 SWAP1 PUSH2 0x1A87 JUMPI PUSH2 0x1A87 PUSH2 0x2E52 JUMP JUMPDEST PUSH1 0x20 SWAP1 DUP2 MUL SWAP2 SWAP1 SWAP2 ADD ADD MSTORE PUSH1 0xCB SLOAD PUSH1 0x1 PUSH1 0x1 PUSH1 0xA0 SHL SUB AND PUSH4 0x32B2FC0E PUSH2 0x1AAD DUP7 DUP7 PUSH2 0x29F6 JUMP JUMPDEST PUSH1 0xCD SLOAD PUSH1 0xCE SLOAD PUSH1 0x40 DUP1 MLOAD PUSH1 0x20 DUP2 ADD DUP3 MSTORE PUSH1 0x0 DUP1 DUP3 MSTORE PUSH1 0xCF SLOAD SWAP3 MLOAD PUSH1 0xE0 DUP9 SWAP1 SHL PUSH1 0x1 PUSH1 0x1 PUSH1 0xE0 SHL SUB NOT AND DUP2 MSTORE PUSH2 0x1B01 SWAP6 PUSH1 0x1 PUSH1 0xA0 SHL SWAP1 DIV PUSH2 0xFFFF AND SWAP5 PUSH1 0x1 PUSH1 0x1 PUSH1 0xA0 SHL SUB AND SWAP4 SWAP1 DUP11 SWAP1 DUP7 SWAP1 CALLER SWAP1 PUSH1 0x4 ADD PUSH2 0x2E68 JUMP JUMPDEST PUSH1 0x20 PUSH1 0x40 MLOAD DUP1 DUP4 SUB DUP2 DUP6 DUP9 GAS CALL ISZERO DUP1 ISZERO PUSH2 0x1B1F JUMPI RETURNDATASIZE PUSH1 0x0 DUP1 RETURNDATACOPY RETURNDATASIZE PUSH1 0x0 REVERT JUMPDEST POP POP POP POP POP PUSH1 0x40 MLOAD RETURNDATASIZE PUSH1 0x1F NOT PUSH1 0x1F DUP3 ADD AND DUP3 ADD DUP1 PUSH1 0x40 MSTORE POP DUP2 ADD SWAP1 PUSH2 0x1B44 SWAP2 SWAP1 PUSH2 0x2E1A JUMP JUMPDEST POP POP POP POP POP POP POP JUMP JUMPDEST PUSH1 0x0 DUP1 PUSH1 0x96 PUSH1 0x0 SWAP1 SLOAD SWAP1 PUSH2 0x100 EXP SWAP1 DIV PUSH1 0x1 PUSH1 0x1 PUSH1 0xA0 SHL SUB AND PUSH1 0x1 PUSH1 0x1 PUSH1 0xA0 SHL SUB AND PUSH4 0x3DE39C11 PUSH1 0x40 MLOAD DUP2 PUSH4 0xFFFFFFFF AND PUSH1 0xE0 SHL DUP2 MSTORE PUSH1 0x4 ADD PUSH1 0x20 PUSH1 0x40 MLOAD DUP1 DUP4 SUB DUP2 DUP7 GAS STATICCALL ISZERO DUP1 ISZERO PUSH2 0x1BA3 JUMPI RETURNDATASIZE PUSH1 0x0 DUP1 RETURNDATACOPY RETURNDATASIZE PUSH1 0x0 REVERT JUMPDEST POP POP POP POP PUSH1 0x40 MLOAD RETURNDATASIZE PUSH1 0x1F NOT PUSH1 0x1F DUP3 ADD AND DUP3 ADD DUP1 PUSH1 0x40 MSTORE POP DUP2 ADD SWAP1 PUSH2 0x1BC7 SWAP2 SWAP1 PUSH2 0x2918 JUMP JUMPDEST SWAP1 POP PUSH1 0x0 PUSH1 0x96 PUSH1 0x0 SWAP1 SLOAD SWAP1 PUSH2 0x100 EXP SWAP1 DIV PUSH1 0x1 PUSH1 0x1 PUSH1 0xA0 SHL SUB AND PUSH1 0x1 PUSH1 0x1 PUSH1 0xA0 SHL SUB AND PUSH4 0xE25B5345 PUSH1 0x40 MLOAD DUP2 PUSH4 0xFFFFFFFF AND PUSH1 0xE0 SHL DUP2 MSTORE PUSH1 0x4 ADD PUSH1 0x20 PUSH1 0x40 MLOAD DUP1 DUP4 SUB DUP2 DUP7 GAS STATICCALL ISZERO DUP1 ISZERO PUSH2 0x1C1E JUMPI RETURNDATASIZE PUSH1 0x0 DUP1 RETURNDATACOPY RETURNDATASIZE PUSH1 0x0 REVERT JUMPDEST POP POP POP POP PUSH1 0x40 MLOAD RETURNDATASIZE PUSH1 0x1F NOT PUSH1 0x1F DUP3 ADD AND DUP3 ADD DUP1 PUSH1 0x40 MSTORE POP DUP2 ADD SWAP1 PUSH2 0x1C42 SWAP2 SWAP1 PUSH2 0x2918 JUMP JUMPDEST SWAP1 POP PUSH1 0x0 DUP3 GASPRICE LT PUSH2 0x1C53 JUMPI DUP3 PUSH2 0x1C55 JUMP JUMPDEST GASPRICE JUMPDEST SWAP1 POP DUP1 PUSH1 0x0 SUB PUSH2 0x1C6A JUMPI POP PUSH1 0x0 SWAP5 SWAP4 POP POP POP POP JUMP JUMPDEST PUSH1 0x0 PUSH2 0x1C76 DUP3 DUP8 PUSH2 0x2F2F JUMP JUMPDEST SWAP1 POP DUP1 DUP4 GT ISZERO PUSH2 0x1C8C JUMPI POP PUSH1 0x0 SWAP6 SWAP5 POP POP POP POP POP JUMP JUMPDEST PUSH2 0x1C96 DUP4 DUP3 PUSH2 0x29F6 JUMP JUMPDEST SWAP7 SWAP6 POP POP POP POP POP POP JUMP JUMPDEST PUSH1 0x1 SLOAD PUSH1 0xA0 DUP4 ADD MLOAD PUSH1 0x0 SWAP2 DUP3 SWAP2 PUSH1 0x1 PUSH1 0x1 PUSH1 0xA0 SHL SUB SWAP1 DUP2 AND SWAP2 AND EQ PUSH2 0x1D07 JUMPI PUSH1 0x40 MLOAD PUSH3 0x461BCD PUSH1 0xE5 SHL DUP2 MSTORE PUSH1 0x20 PUSH1 0x4 DUP3 ADD MSTORE PUSH1 0x16 PUSH1 0x24 DUP3 ADD MSTORE PUSH32 0x5661756C742061646472657373206D69736D6174636800000000000000000000 PUSH1 0x44 DUP3 ADD MSTORE PUSH1 0x64 ADD PUSH2 0x6A2 JUMP JUMPDEST PUSH2 0x1D1A PUSH2 0x1D13 DUP7 PUSH2 0x2336 JUMP JUMPDEST DUP6 MLOAD PUSH2 0x2376 JUMP JUMPDEST PUSH1 0x0 SLOAD PUSH1 0x40 MLOAD PUSH32 0x86F0143900000000000000000000000000000000000000000000000000000000 DUP2 MSTORE SWAP2 SWAP4 POP PUSH1 0x1 PUSH1 0x1 PUSH1 0xA0 SHL SUB AND SWAP1 PUSH4 0x86F01439 SWAP1 PUSH2 0x1D68 SWAP1 DUP9 SWAP1 DUP9 SWAP1 DUP9 SWAP1 PUSH1 0x4 ADD PUSH2 0x2F51 JUMP JUMPDEST PUSH1 0x0 PUSH1 0x40 MLOAD DUP1 DUP4 SUB DUP2 PUSH1 0x0 DUP8 DUP1 EXTCODESIZE ISZERO DUP1 ISZERO PUSH2 0x1D82 JUMPI PUSH1 0x0 DUP1 REVERT JUMPDEST POP GAS CALL ISZERO DUP1 ISZERO PUSH2 0x1D96 JUMPI RETURNDATASIZE PUSH1 0x0 DUP1 RETURNDATACOPY RETURNDATASIZE PUSH1 0x0 REVERT JUMPDEST POP POP PUSH1 0x0 SLOAD PUSH1 0x40 MLOAD PUSH4 0xB02C43D PUSH1 0xE4 SHL DUP2 MSTORE PUSH1 0x4 DUP2 ADD DUP7 SWAP1 MSTORE PUSH5 0x2540BE400 SWAP4 POP PUSH1 0x1 PUSH1 0x1 PUSH1 0xA0 SHL SUB SWAP1 SWAP2 AND SWAP2 POP PUSH4 0xB02C43D0 SWAP1 PUSH1 0x24 ADD PUSH1 0xE0 PUSH1 0x40 MLOAD DUP1 DUP4 SUB DUP2 DUP7 GAS STATICCALL ISZERO DUP1 ISZERO PUSH2 0x1DEA JUMPI RETURNDATASIZE PUSH1 0x0 DUP1 RETURNDATACOPY RETURNDATASIZE PUSH1 0x0 REVERT JUMPDEST POP POP POP POP PUSH1 0x40 MLOAD RETURNDATASIZE PUSH1 0x1F NOT PUSH1 0x1F DUP3 ADD AND DUP3 ADD DUP1 PUSH1 0x40 MSTORE POP DUP2 ADD SWAP1 PUSH2 0x1E0E SWAP2 SWAP1 PUSH2 0x2C94 JUMP JUMPDEST PUSH1 0x20 ADD MLOAD PUSH8 0xFFFFFFFFFFFFFFFF AND PUSH2 0x1E26 SWAP2 SWAP1 PUSH2 0x29CC JUMP JUMPDEST SWAP1 POP SWAP4 POP SWAP4 SWAP2 POP POP JUMP JUMPDEST PUSH1 0x64 DUP1 SLOAD PUSH1 0x1 PUSH1 0x1 PUSH1 0xA0 SHL SUB DUP4 DUP2 AND PUSH1 0x1 PUSH1 0x1 PUSH1 0xA0 SHL SUB NOT DUP4 AND DUP2 OR SWAP1 SWAP4 SSTORE PUSH1 0x40 MLOAD SWAP2 AND SWAP2 SWAP1 DUP3 SWAP1 PUSH32 0x8BE0079C531659141344CD1FD0A4F28419497F9722A3DAAFE3B4186F6B6457E0 SWAP1 PUSH1 0x0 SWAP1 LOG3 POP POP JUMP JUMPDEST PUSH1 0x0 SLOAD PUSH1 0x1 PUSH1 0x1 PUSH1 0xA0 SHL SUB AND ISZERO DUP1 ISZERO PUSH2 0x1EA4 JUMPI POP PUSH1 0x1 SLOAD PUSH1 0x1 PUSH1 0x1 PUSH1 0xA0 SHL SUB AND ISZERO JUMPDEST PUSH2 0x1F16 JUMPI PUSH1 0x40 MLOAD PUSH3 0x461BCD PUSH1 0xE5 SHL DUP2 MSTORE PUSH1 0x20 PUSH1 0x4 DUP3 ADD MSTORE PUSH1 0x29 PUSH1 0x24 DUP3 ADD MSTORE PUSH32 0x4162737472616374544254434465706F7369746F7220616C726561647920696E PUSH1 0x44 DUP3 ADD MSTORE PUSH32 0x697469616C697A65640000000000000000000000000000000000000000000000 PUSH1 0x64 DUP3 ADD MSTORE PUSH1 0x84 ADD PUSH2 0x6A2 JUMP JUMPDEST PUSH1 0x1 PUSH1 0x1 PUSH1 0xA0 SHL SUB DUP3 AND PUSH2 0x1F6C JUMPI PUSH1 0x40 MLOAD PUSH3 0x461BCD PUSH1 0xE5 SHL DUP2 MSTORE PUSH1 0x20 PUSH1 0x4 DUP3 ADD MSTORE PUSH1 0x1D PUSH1 0x24 DUP3 ADD MSTORE PUSH32 0x42726964676520616464726573732063616E6E6F74206265207A65726F000000 PUSH1 0x44 DUP3 ADD MSTORE PUSH1 0x64 ADD PUSH2 0x6A2 JUMP JUMPDEST PUSH1 0x1 PUSH1 0x1 PUSH1 0xA0 SHL SUB DUP2 AND PUSH2 0x1FC2 JUMPI PUSH1 0x40 MLOAD PUSH3 0x461BCD PUSH1 0xE5 SHL DUP2 MSTORE PUSH1 0x20 PUSH1 0x4 DUP3 ADD DUP2 SWAP1 MSTORE PUSH1 0x24 DUP3 ADD MSTORE PUSH32 0x544254435661756C7420616464726573732063616E6E6F74206265207A65726F PUSH1 0x44 DUP3 ADD MSTORE PUSH1 0x64 ADD PUSH2 0x6A2 JUMP JUMPDEST PUSH1 0x0 DUP1 SLOAD PUSH1 0x1 PUSH1 0x1 PUSH1 0xA0 SHL SUB SWAP4 DUP5 AND PUSH1 0x1 PUSH1 0x1 PUSH1 0xA0 SHL SUB NOT SWAP2 DUP3 AND OR SWAP1 SWAP2 SSTORE PUSH1 0x1 DUP1 SLOAD SWAP3 SWAP1 SWAP4 AND SWAP2 AND OR SWAP1 SSTORE JUMP JUMPDEST PUSH1 0x31 SLOAD PUSH2 0x100 SWAP1 DIV PUSH1 0xFF AND PUSH2 0x205B JUMPI PUSH1 0x40 MLOAD PUSH3 0x461BCD PUSH1 0xE5 SHL DUP2 MSTORE PUSH1 0x20 PUSH1 0x4 DUP3 ADD MSTORE PUSH1 0x2B PUSH1 0x24 DUP3 ADD MSTORE PUSH32 0x496E697469616C697A61626C653A20636F6E7472616374206973206E6F742069 PUSH1 0x44 DUP3 ADD MSTORE PUSH11 0x6E697469616C697A696E67 PUSH1 0xA8 SHL PUSH1 0x64 DUP3 ADD MSTORE PUSH1 0x84 ADD PUSH2 0x6A2 JUMP JUMPDEST PUSH2 0xE10 PUSH2 0x23C0 JUMP JUMPDEST PUSH1 0x0 DUP1 PUSH5 0x2540BE400 PUSH2 0x2076 DUP5 DUP7 PUSH2 0x304A JUMP JUMPDEST PUSH8 0xFFFFFFFFFFFFFFFF AND PUSH2 0x208A SWAP2 SWAP1 PUSH2 0x29CC JUMP JUMPDEST SWAP1 POP PUSH1 0x0 PUSH1 0x1 PUSH1 0x0 SWAP1 SLOAD SWAP1 PUSH2 0x100 EXP SWAP1 DIV PUSH1 0x1 PUSH1 0x1 PUSH1 0xA0 SHL SUB AND PUSH1 0x1 PUSH1 0x1 PUSH1 0xA0 SHL SUB AND PUSH4 0x9B53F51 PUSH1 0x40 MLOAD DUP2 PUSH4 0xFFFFFFFF AND PUSH1 0xE0 SHL DUP2 MSTORE PUSH1 0x4 ADD PUSH1 0x20 PUSH1 0x40 MLOAD DUP1 DUP4 SUB DUP2 DUP7 GAS STATICCALL ISZERO DUP1 ISZERO PUSH2 0x20E1 JUMPI RETURNDATASIZE PUSH1 0x0 DUP1 RETURNDATACOPY RETURNDATASIZE PUSH1 0x0 REVERT JUMPDEST POP POP POP POP PUSH1 0x40 MLOAD RETURNDATASIZE PUSH1 0x1F NOT PUSH1 0x1F DUP3 ADD AND DUP3 ADD DUP1 PUSH1 0x40 MSTORE POP DUP2 ADD SWAP1 PUSH2 0x2105 SWAP2 SWAP1 PUSH2 0x3072 JUMP JUMPDEST PUSH4 0xFFFFFFFF AND SWAP1 POP PUSH1 0x0 DUP1 DUP3 GT PUSH2 0x211D JUMPI PUSH1 0x0 PUSH2 0x2127 JUMP JUMPDEST PUSH2 0x2127 DUP3 DUP5 PUSH2 0x2F2F JUMP JUMPDEST SWAP1 POP PUSH1 0x0 DUP1 PUSH1 0x0 SWAP1 SLOAD SWAP1 PUSH2 0x100 EXP SWAP1 DIV PUSH1 0x1 PUSH1 0x1 PUSH1 0xA0 SHL SUB AND PUSH1 0x1 PUSH1 0x1 PUSH1 0xA0 SHL SUB AND PUSH4 0xC42B64D0 PUSH1 0x40 MLOAD DUP2 PUSH4 0xFFFFFFFF AND PUSH1 0xE0 SHL DUP2 MSTORE PUSH1 0x4 ADD PUSH1 0x80 PUSH1 0x40 MLOAD DUP1 DUP4 SUB DUP2 DUP7 GAS STATICCALL ISZERO DUP1 ISZERO PUSH2 0x217D JUMPI RETURNDATASIZE PUSH1 0x0 DUP1 RETURNDATACOPY RETURNDATASIZE PUSH1 0x0 REVERT JUMPDEST POP POP POP POP PUSH1 0x40 MLOAD RETURNDATASIZE PUSH1 0x1F NOT PUSH1 0x1F DUP3 ADD AND DUP3 ADD DUP1 PUSH1 0x40 MSTORE POP DUP2 ADD SWAP1 PUSH2 0x21A1 SWAP2 SWAP1 PUSH2 0x2960 JUMP JUMPDEST POP SWAP3 POP POP POP PUSH1 0x0 PUSH5 0x2540BE400 DUP3 PUSH8 0xFFFFFFFFFFFFFFFF AND PUSH2 0x21C3 SWAP2 SWAP1 PUSH2 0x29CC JUMP JUMPDEST SWAP1 POP DUP1 PUSH2 0x21D0 DUP5 DUP8 PUSH2 0x29F6 JUMP JUMPDEST PUSH2 0x21DA SWAP2 SWAP1 PUSH2 0x29F6 JUMP JUMPDEST SWAP6 POP POP POP POP POP POP JUMPDEST SWAP3 SWAP2 POP POP JUMP JUMPDEST PUSH1 0x0 PUSH2 0x21F9 PUSH5 0x2540BE400 DUP4 PUSH2 0x2F2F JUMP JUMPDEST SWAP2 POP PUSH2 0x21E2 PUSH5 0x2540BE400 DUP4 PUSH2 0x29CC JUMP JUMPDEST PUSH1 0x40 MLOAD PUSH32 0xDD62ED3E00000000000000000000000000000000000000000000000000000000 DUP2 MSTORE ADDRESS PUSH1 0x4 DUP3 ADD MSTORE PUSH1 0x1 PUSH1 0x1 PUSH1 0xA0 SHL SUB DUP4 DUP2 AND PUSH1 0x24 DUP4 ADD MSTORE PUSH1 0x0 SWAP2 SWAP1 DUP6 AND SWAP1 PUSH4 0xDD62ED3E SWAP1 PUSH1 0x44 ADD PUSH1 0x20 PUSH1 0x40 MLOAD DUP1 DUP4 SUB DUP2 DUP7 GAS STATICCALL ISZERO DUP1 ISZERO PUSH2 0x2273 JUMPI RETURNDATASIZE PUSH1 0x0 DUP1 RETURNDATACOPY RETURNDATASIZE PUSH1 0x0 REVERT JUMPDEST POP POP POP POP PUSH1 0x40 MLOAD RETURNDATASIZE PUSH1 0x1F NOT PUSH1 0x1F DUP3 ADD AND DUP3 ADD DUP1 PUSH1 0x40 MSTORE POP DUP2 ADD SWAP1 PUSH2 0x2297 SWAP2 SWAP1 PUSH2 0x2918 JUMP JUMPDEST SWAP1 POP PUSH2 0x2330 DUP5 PUSH32 0x95EA7B300000000000000000000000000000000000000000000000000000000 DUP6 PUSH2 0x22C9 DUP7 DUP7 PUSH2 0x29E3 JUMP JUMPDEST PUSH1 0x40 MLOAD PUSH1 0x1 PUSH1 0x1 PUSH1 0xA0 SHL SUB SWAP1 SWAP3 AND PUSH1 0x24 DUP4 ADD MSTORE PUSH1 0x44 DUP3 ADD MSTORE PUSH1 0x64 ADD PUSH1 0x40 DUP1 MLOAD PUSH1 0x1F NOT DUP2 DUP5 SUB ADD DUP2 MSTORE SWAP2 SWAP1 MSTORE PUSH1 0x20 DUP2 ADD DUP1 MLOAD PUSH28 0xFFFFFFFFFFFFFFFFFFFFFFFFFFFFFFFFFFFFFFFFFFFFFFFFFFFFFFFF AND PUSH1 0x1 PUSH1 0x1 PUSH1 0xE0 SHL SUB NOT SWAP1 SWAP4 AND SWAP3 SWAP1 SWAP3 OR SWAP1 SWAP2 MSTORE PUSH2 0x2434 JUMP JUMPDEST POP POP POP POP JUMP JUMPDEST PUSH1 0x0 PUSH2 0x21E2 DUP3 PUSH1 0x0 ADD MLOAD DUP4 PUSH1 0x20 ADD MLOAD DUP5 PUSH1 0x40 ADD MLOAD DUP6 PUSH1 0x60 ADD MLOAD PUSH1 0x40 MLOAD PUSH1 0x20 ADD PUSH2 0x2362 SWAP5 SWAP4 SWAP3 SWAP2 SWAP1 PUSH2 0x308F JUMP JUMPDEST PUSH1 0x40 MLOAD PUSH1 0x20 DUP2 DUP4 SUB SUB DUP2 MSTORE SWAP1 PUSH1 0x40 MSTORE PUSH2 0x2521 JUMP JUMPDEST PUSH1 0x0 DUP3 DUP3 PUSH1 0x40 MLOAD PUSH1 0x20 ADD PUSH2 0x23A1 SWAP3 SWAP2 SWAP1 SWAP2 DUP3 MSTORE PUSH1 0xE0 SHL PUSH1 0x1 PUSH1 0x1 PUSH1 0xE0 SHL SUB NOT AND PUSH1 0x20 DUP3 ADD MSTORE PUSH1 0x24 ADD SWAP1 JUMP JUMPDEST PUSH1 0x40 DUP1 MLOAD PUSH1 0x1F NOT DUP2 DUP5 SUB ADD DUP2 MSTORE SWAP2 SWAP1 MSTORE DUP1 MLOAD PUSH1 0x20 SWAP1 SWAP2 ADD KECCAK256 SWAP4 SWAP3 POP POP POP JUMP JUMPDEST PUSH1 0x31 SLOAD PUSH2 0x100 SWAP1 DIV PUSH1 0xFF AND PUSH2 0x242B JUMPI PUSH1 0x40 MLOAD PUSH3 0x461BCD PUSH1 0xE5 SHL DUP2 MSTORE PUSH1 0x20 PUSH1 0x4 DUP3 ADD MSTORE PUSH1 0x2B PUSH1 0x24 DUP3 ADD MSTORE PUSH32 0x496E697469616C697A61626C653A20636F6E7472616374206973206E6F742069 PUSH1 0x44 DUP3 ADD MSTORE PUSH11 0x6E697469616C697A696E67 PUSH1 0xA8 SHL PUSH1 0x64 DUP3 ADD MSTORE PUSH1 0x84 ADD PUSH2 0x6A2 JUMP JUMPDEST PUSH2 0xE10 CALLER PUSH2 0x1E30 JUMP JUMPDEST PUSH1 0x0 PUSH2 0x2489 DUP3 PUSH1 0x40 MLOAD DUP1 PUSH1 0x40 ADD PUSH1 0x40 MSTORE DUP1 PUSH1 0x20 DUP2 MSTORE PUSH1 0x20 ADD PUSH32 0x5361666545524332303A206C6F772D6C6576656C2063616C6C206661696C6564 DUP2 MSTORE POP DUP6 PUSH1 0x1 PUSH1 0x1 PUSH1 0xA0 SHL SUB AND PUSH2 0x2548 SWAP1 SWAP3 SWAP2 SWAP1 PUSH4 0xFFFFFFFF AND JUMP JUMPDEST SWAP1 POP DUP1 MLOAD PUSH1 0x0 EQ DUP1 PUSH2 0x24AA JUMPI POP DUP1 DUP1 PUSH1 0x20 ADD SWAP1 MLOAD DUP2 ADD SWAP1 PUSH2 0x24AA SWAP2 SWAP1 PUSH2 0x30E3 JUMP JUMPDEST PUSH2 0x251C JUMPI PUSH1 0x40 MLOAD PUSH3 0x461BCD PUSH1 0xE5 SHL DUP2 MSTORE PUSH1 0x20 PUSH1 0x4 DUP3 ADD MSTORE PUSH1 0x2A PUSH1 0x24 DUP3 ADD MSTORE PUSH32 0x5361666545524332303A204552433230206F7065726174696F6E20646964206E PUSH1 0x44 DUP3 ADD MSTORE PUSH32 0x6F74207375636365656400000000000000000000000000000000000000000000 PUSH1 0x64 DUP3 ADD MSTORE PUSH1 0x84 ADD PUSH2 0x6A2 JUMP JUMPDEST POP POP POP JUMP JUMPDEST PUSH1 0x0 PUSH1 0x20 PUSH1 0x0 DUP4 MLOAD PUSH1 0x20 DUP6 ADD PUSH1 0x2 GAS STATICCALL POP PUSH1 0x20 PUSH1 0x0 PUSH1 0x20 PUSH1 0x0 PUSH1 0x2 GAS STATICCALL POP POP PUSH1 0x0 MLOAD SWAP2 SWAP1 POP JUMP JUMPDEST PUSH1 0x60 PUSH2 0x2557 DUP5 DUP5 PUSH1 0x0 DUP6 PUSH2 0x255F JUMP JUMPDEST SWAP5 SWAP4 POP POP POP POP JUMP JUMPDEST PUSH1 0x60 DUP3 SELFBALANCE LT ISZERO PUSH2 0x25D7 JUMPI PUSH1 0x40 MLOAD PUSH3 0x461BCD PUSH1 0xE5 SHL DUP2 MSTORE PUSH1 0x20 PUSH1 0x4 DUP3 ADD MSTORE PUSH1 0x26 PUSH1 0x24 DUP3 ADD MSTORE PUSH32 0x416464726573733A20696E73756666696369656E742062616C616E636520666F PUSH1 0x44 DUP3 ADD MSTORE PUSH32 0x722063616C6C0000000000000000000000000000000000000000000000000000 PUSH1 0x64 DUP3 ADD MSTORE PUSH1 0x84 ADD PUSH2 0x6A2 JUMP JUMPDEST PUSH1 0x0 DUP1 DUP7 PUSH1 0x1 PUSH1 0x1 PUSH1 0xA0 SHL SUB AND DUP6 DUP8 PUSH1 0x40 MLOAD PUSH2 0x25F3 SWAP2 SWAP1 PUSH2 0x3100 JUMP JUMPDEST PUSH1 0x0 PUSH1 0x40 MLOAD DUP1 DUP4 SUB DUP2 DUP6 DUP8 GAS CALL SWAP3 POP POP POP RETURNDATASIZE DUP1 PUSH1 0x0 DUP2 EQ PUSH2 0x2630 JUMPI PUSH1 0x40 MLOAD SWAP2 POP PUSH1 0x1F NOT PUSH1 0x3F RETURNDATASIZE ADD AND DUP3 ADD PUSH1 0x40 MSTORE RETURNDATASIZE DUP3 MSTORE RETURNDATASIZE PUSH1 0x0 PUSH1 0x20 DUP5 ADD RETURNDATACOPY PUSH2 0x2635 JUMP JUMPDEST PUSH1 0x60 SWAP2 POP JUMPDEST POP SWAP2 POP SWAP2 POP PUSH2 0x2646 DUP8 DUP4 DUP4 DUP8 PUSH2 0x2651 JUMP JUMPDEST SWAP8 SWAP7 POP POP POP POP POP POP POP JUMP JUMPDEST PUSH1 0x60 DUP4 ISZERO PUSH2 0x26C0 JUMPI DUP3 MLOAD PUSH1 0x0 SUB PUSH2 0x26B9 JUMPI PUSH1 0x1 PUSH1 0x1 PUSH1 0xA0 SHL SUB DUP6 AND EXTCODESIZE PUSH2 0x26B9 JUMPI PUSH1 0x40 MLOAD PUSH3 0x461BCD PUSH1 0xE5 SHL DUP2 MSTORE PUSH1 0x20 PUSH1 0x4 DUP3 ADD MSTORE PUSH1 0x1D PUSH1 0x24 DUP3 ADD MSTORE PUSH32 0x416464726573733A2063616C6C20746F206E6F6E2D636F6E7472616374000000 PUSH1 0x44 DUP3 ADD MSTORE PUSH1 0x64 ADD PUSH2 0x6A2 JUMP JUMPDEST POP DUP2 PUSH2 0x2557 JUMP JUMPDEST PUSH2 0x2557 DUP4 DUP4 DUP2 MLOAD ISZERO PUSH2 0x26D5 JUMPI DUP2 MLOAD DUP1 DUP4 PUSH1 0x20 ADD REVERT JUMPDEST DUP1 PUSH1 0x40 MLOAD PUSH3 0x461BCD PUSH1 0xE5 SHL DUP2 MSTORE PUSH1 0x4 ADD PUSH2 0x6A2 SWAP2 SWAP1 PUSH2 0x311C JUMP JUMPDEST PUSH1 0x1 PUSH1 0x1 PUSH1 0xA0 SHL SUB DUP2 AND DUP2 EQ PUSH2 0x13A1 JUMPI PUSH1 0x0 DUP1 REVERT JUMPDEST PUSH1 0x0 PUSH1 0x20 DUP3 DUP5 SUB SLT ISZERO PUSH2 0x2716 JUMPI PUSH1 0x0 DUP1 REVERT JUMPDEST DUP2 CALLDATALOAD PUSH2 0x14FD DUP2 PUSH2 0x26EF JUMP JUMPDEST PUSH1 0x0 PUSH1 0x20 DUP3 DUP5 SUB SLT ISZERO PUSH2 0x2733 JUMPI PUSH1 0x0 DUP1 REVERT JUMPDEST POP CALLDATALOAD SWAP2 SWAP1 POP JUMP JUMPDEST DUP1 ISZERO ISZERO DUP2 EQ PUSH2 0x13A1 JUMPI PUSH1 0x0 DUP1 REVERT JUMPDEST PUSH1 0x0 DUP1 PUSH1 0x40 DUP4 DUP6 SUB SLT ISZERO PUSH2 0x275B JUMPI PUSH1 0x0 DUP1 REVERT JUMPDEST DUP3 CALLDATALOAD PUSH2 0x2766 DUP2 PUSH2 0x26EF JUMP JUMPDEST SWAP2 POP PUSH1 0x20 DUP4 ADD CALLDATALOAD PUSH2 0x2776 DUP2 PUSH2 0x273A JUMP JUMPDEST DUP1 SWAP2 POP POP SWAP3 POP SWAP3 SWAP1 POP JUMP JUMPDEST PUSH1 0x0 DUP1 PUSH1 0x0 DUP4 DUP6 SUB PUSH2 0x100 DUP2 SLT ISZERO PUSH2 0x2798 JUMPI PUSH1 0x0 DUP1 REVERT JUMPDEST DUP5 CALLDATALOAD PUSH8 0xFFFFFFFFFFFFFFFF DUP2 GT ISZERO PUSH2 0x27AF JUMPI PUSH1 0x0 DUP1 REVERT JUMPDEST DUP6 ADD PUSH1 0x80 DUP2 DUP9 SUB SLT ISZERO PUSH2 0x27C1 JUMPI PUSH1 0x0 DUP1 REVERT JUMPDEST SWAP4 POP PUSH1 0xC0 PUSH1 0x1F NOT DUP3 ADD SLT ISZERO PUSH2 0x27D5 JUMPI PUSH1 0x0 DUP1 REVERT JUMPDEST POP PUSH1 0x20 DUP5 ADD SWAP2 POP PUSH1 0xE0 DUP5 ADD CALLDATALOAD PUSH2 0x27EA DUP2 PUSH2 0x26EF JUMP JUMPDEST DUP1 SWAP2 POP POP SWAP3 POP SWAP3 POP SWAP3 JUMP JUMPDEST PUSH2 0xFFFF DUP2 AND DUP2 EQ PUSH2 0x13A1 JUMPI PUSH1 0x0 DUP1 REVERT JUMPDEST PUSH1 0x0 DUP1 PUSH1 0x0 DUP1 PUSH1 0x0 DUP1 PUSH1 0x0 PUSH1 0xE0 DUP9 DUP11 SUB SLT ISZERO PUSH2 0x2820 JUMPI PUSH1 0x0 DUP1 REVERT JUMPDEST DUP8 CALLDATALOAD PUSH2 0x282B DUP2 PUSH2 0x26EF JUMP JUMPDEST SWAP7 POP PUSH1 0x20 DUP9 ADD CALLDATALOAD PUSH2 0x283B DUP2 PUSH2 0x26EF JUMP JUMPDEST SWAP6 POP PUSH1 0x40 DUP9 ADD CALLDATALOAD PUSH2 0x284B DUP2 PUSH2 0x26EF JUMP JUMPDEST SWAP5 POP PUSH1 0x60 DUP9 ADD CALLDATALOAD PUSH2 0x285B DUP2 PUSH2 0x26EF JUMP JUMPDEST SWAP4 POP PUSH1 0x80 DUP9 ADD CALLDATALOAD PUSH2 0x286B DUP2 PUSH2 0x26EF JUMP JUMPDEST SWAP3 POP PUSH1 0xA0 DUP9 ADD CALLDATALOAD PUSH2 0x287B DUP2 PUSH2 0x26EF JUMP JUMPDEST SWAP2 POP PUSH1 0xC0 DUP9 ADD CALLDATALOAD PUSH2 0x288B DUP2 PUSH2 0x27F5 JUMP JUMPDEST DUP1 SWAP2 POP POP SWAP3 SWAP6 SWAP9 SWAP2 SWAP5 SWAP8 POP SWAP3 SWAP6 POP JUMP JUMPDEST PUSH1 0x0 DUP1 PUSH1 0x40 DUP4 DUP6 SUB SLT ISZERO PUSH2 0x28AE JUMPI PUSH1 0x0 DUP1 REVERT JUMPDEST POP POP DUP1 CALLDATALOAD SWAP3 PUSH1 0x20 SWAP1 SWAP2 ADD CALLDATALOAD SWAP2 POP JUMP JUMPDEST PUSH4 0x4E487B71 PUSH1 0xE0 SHL PUSH1 0x0 MSTORE PUSH1 0x21 PUSH1 0x4 MSTORE PUSH1 0x24 PUSH1 0x0 REVERT JUMPDEST PUSH1 0x20 DUP2 ADD PUSH1 0x3 DUP4 LT PUSH2 0x28F5 JUMPI PUSH4 0x4E487B71 PUSH1 0xE0 SHL PUSH1 0x0 MSTORE PUSH1 0x21 PUSH1 0x4 MSTORE PUSH1 0x24 PUSH1 0x0 REVERT JUMPDEST SWAP2 SWAP1 MSTORE SWAP1 JUMP JUMPDEST PUSH1 0x0 PUSH1 0x20 DUP3 DUP5 SUB SLT ISZERO PUSH2 0x290D JUMPI PUSH1 0x0 DUP1 REVERT JUMPDEST DUP2 CALLDATALOAD PUSH2 0x14FD DUP2 PUSH2 0x273A JUMP JUMPDEST PUSH1 0x0 PUSH1 0x20 DUP3 DUP5 SUB SLT ISZERO PUSH2 0x292A JUMPI PUSH1 0x0 DUP1 REVERT JUMPDEST POP MLOAD SWAP2 SWAP1 POP JUMP JUMPDEST DUP1 MLOAD PUSH8 0xFFFFFFFFFFFFFFFF DUP2 AND DUP2 EQ PUSH2 0x2949 JUMPI PUSH1 0x0 DUP1 REVERT JUMPDEST SWAP2 SWAP1 POP JUMP JUMPDEST PUSH4 0xFFFFFFFF DUP2 AND DUP2 EQ PUSH2 0x13A1 JUMPI PUSH1 0x0 DUP1 REVERT JUMPDEST PUSH1 0x0 DUP1 PUSH1 0x0 DUP1 PUSH1 0x80 DUP6 DUP8 SUB SLT ISZERO PUSH2 0x2976 JUMPI PUSH1 0x0 DUP1 REVERT JUMPDEST PUSH2 0x297F DUP6 PUSH2 0x2931 JUMP JUMPDEST SWAP4 POP PUSH2 0x298D PUSH1 0x20 DUP7 ADD PUSH2 0x2931 JUMP JUMPDEST SWAP3 POP PUSH2 0x299B PUSH1 0x40 DUP7 ADD PUSH2 0x2931 JUMP JUMPDEST SWAP2 POP PUSH1 0x60 DUP6 ADD MLOAD PUSH2 0x29AB DUP2 PUSH2 0x294E JUMP JUMPDEST SWAP4 SWAP7 SWAP3 SWAP6 POP SWAP1 SWAP4 POP POP JUMP JUMPDEST PUSH4 0x4E487B71 PUSH1 0xE0 SHL PUSH1 0x0 MSTORE PUSH1 0x11 PUSH1 0x4 MSTORE PUSH1 0x24 PUSH1 0x0 REVERT JUMPDEST DUP1 DUP3 MUL DUP2 ISZERO DUP3 DUP3 DIV DUP5 EQ OR PUSH2 0x21E2 JUMPI PUSH2 0x21E2 PUSH2 0x29B6 JUMP JUMPDEST DUP1 DUP3 ADD DUP1 DUP3 GT ISZERO PUSH2 0x21E2 JUMPI PUSH2 0x21E2 PUSH2 0x29B6 JUMP JUMPDEST DUP2 DUP2 SUB DUP2 DUP2 GT ISZERO PUSH2 0x21E2 JUMPI PUSH2 0x21E2 PUSH2 0x29B6 JUMP JUMPDEST PUSH4 0x4E487B71 PUSH1 0xE0 SHL PUSH1 0x0 MSTORE PUSH1 0x41 PUSH1 0x4 MSTORE PUSH1 0x24 PUSH1 0x0 REVERT JUMPDEST DUP1 CALLDATALOAD PUSH1 0x1 PUSH1 0x1 PUSH1 0xE0 SHL SUB NOT DUP2 AND DUP2 EQ PUSH2 0x2949 JUMPI PUSH1 0x0 DUP1 REVERT JUMPDEST PUSH1 0x0 DUP3 PUSH1 0x1F DUP4 ADD SLT PUSH2 0x2A48 JUMPI PUSH1 0x0 DUP1 REVERT JUMPDEST DUP2 CALLDATALOAD PUSH8 0xFFFFFFFFFFFFFFFF DUP1 DUP3 GT ISZERO PUSH2 0x2A63 JUMPI PUSH2 0x2A63 PUSH2 0x2A09 JUMP JUMPDEST PUSH1 0x40 MLOAD PUSH1 0x1F DUP4 ADD PUSH1 0x1F NOT SWAP1 DUP2 AND PUSH1 0x3F ADD AND DUP2 ADD SWAP1 DUP3 DUP3 GT DUP2 DUP4 LT OR ISZERO PUSH2 0x2A8B JUMPI PUSH2 0x2A8B PUSH2 0x2A09 JUMP JUMPDEST DUP2 PUSH1 0x40 MSTORE DUP4 DUP2 MSTORE DUP7 PUSH1 0x20 DUP6 DUP9 ADD ADD GT ISZERO PUSH2 0x2AA4 JUMPI PUSH1 0x0 DUP1 REVERT JUMPDEST DUP4 PUSH1 0x20 DUP8 ADD PUSH1 0x20 DUP4 ADD CALLDATACOPY PUSH1 0x0 PUSH1 0x20 DUP6 DUP4 ADD ADD MSTORE DUP1 SWAP5 POP POP POP POP POP SWAP3 SWAP2 POP POP JUMP JUMPDEST PUSH1 0x0 PUSH1 0x80 DUP3 CALLDATASIZE SUB SLT ISZERO PUSH2 0x2AD6 JUMPI PUSH1 0x0 DUP1 REVERT JUMPDEST PUSH1 0x40 MLOAD PUSH1 0x80 DUP2 ADD PUSH8 0xFFFFFFFFFFFFFFFF DUP3 DUP3 LT DUP2 DUP4 GT OR ISZERO PUSH2 0x2AFA JUMPI PUSH2 0x2AFA PUSH2 0x2A09 JUMP JUMPDEST DUP2 PUSH1 0x40 MSTORE PUSH2 0x2B07 DUP6 PUSH2 0x2A1F JUMP JUMPDEST DUP4 MSTORE PUSH1 0x20 DUP6 ADD CALLDATALOAD SWAP2 POP DUP1 DUP3 GT ISZERO PUSH2 0x2B1D JUMPI PUSH1 0x0 DUP1 REVERT JUMPDEST PUSH2 0x2B29 CALLDATASIZE DUP4 DUP8 ADD PUSH2 0x2A37 JUMP JUMPDEST PUSH1 0x20 DUP5 ADD MSTORE PUSH1 0x40 DUP6 ADD CALLDATALOAD SWAP2 POP DUP1 DUP3 GT ISZERO PUSH2 0x2B42 JUMPI PUSH1 0x0 DUP1 REVERT JUMPDEST POP PUSH2 0x2B4F CALLDATASIZE DUP3 DUP7 ADD PUSH2 0x2A37 JUMP JUMPDEST PUSH1 0x40 DUP4 ADD MSTORE POP PUSH2 0x2B61 PUSH1 0x60 DUP5 ADD PUSH2 0x2A1F JUMP JUMPDEST PUSH1 0x60 DUP3 ADD MSTORE SWAP3 SWAP2 POP POP JUMP JUMPDEST DUP1 CALLDATALOAD PUSH12 0xFFFFFFFFFFFFFFFFFFFFFFFF NOT DUP2 AND DUP2 EQ PUSH2 0x2949 JUMPI PUSH1 0x0 DUP1 REVERT JUMPDEST PUSH1 0x0 PUSH1 0xC0 DUP3 DUP5 SUB SLT ISZERO PUSH2 0x2B9B JUMPI PUSH1 0x0 DUP1 REVERT JUMPDEST PUSH1 0x40 MLOAD PUSH1 0xC0 DUP2 ADD DUP2 DUP2 LT PUSH8 0xFFFFFFFFFFFFFFFF DUP3 GT OR ISZERO PUSH2 0x2BBE JUMPI PUSH2 0x2BBE PUSH2 0x2A09 JUMP JUMPDEST PUSH1 0x40 MSTORE DUP3 CALLDATALOAD PUSH2 0x2BCC DUP2 PUSH2 0x294E JUMP JUMPDEST DUP2 MSTORE PUSH1 0x20 DUP4 ADD CALLDATALOAD PUSH32 0xFFFFFFFFFFFFFFFF000000000000000000000000000000000000000000000000 DUP2 AND DUP2 EQ PUSH2 0x2C01 JUMPI PUSH1 0x0 DUP1 REVERT JUMPDEST PUSH1 0x20 DUP3 ADD MSTORE PUSH2 0x2C12 PUSH1 0x40 DUP5 ADD PUSH2 0x2B6C JUMP JUMPDEST PUSH1 0x40 DUP3 ADD MSTORE PUSH2 0x2C23 PUSH1 0x60 DUP5 ADD PUSH2 0x2B6C JUMP JUMPDEST PUSH1 0x60 DUP3 ADD MSTORE PUSH2 0x2C34 PUSH1 0x80 DUP5 ADD PUSH2 0x2A1F JUMP JUMPDEST PUSH1 0x80 DUP3 ADD MSTORE PUSH1 0xA0 DUP4 ADD CALLDATALOAD PUSH2 0x2C47 DUP2 PUSH2 0x26EF JUMP JUMPDEST PUSH1 0xA0 DUP3 ADD MSTORE SWAP4 SWAP3 POP POP POP JUMP JUMPDEST PUSH1 0x0 PUSH1 0x20 DUP3 DUP5 SUB SLT ISZERO PUSH2 0x2C65 JUMPI PUSH1 0x0 DUP1 REVERT JUMPDEST DUP2 MLOAD PUSH2 0x14FD DUP2 PUSH2 0x26EF JUMP JUMPDEST PUSH1 0x0 DUP1 PUSH1 0x40 DUP4 DUP6 SUB SLT ISZERO PUSH2 0x2C83 JUMPI PUSH1 0x0 DUP1 REVERT JUMPDEST POP POP DUP1 MLOAD PUSH1 0x20 SWAP1 SWAP2 ADD MLOAD SWAP1 SWAP3 SWAP1 SWAP2 POP JUMP JUMPDEST PUSH1 0x0 PUSH1 0xE0 DUP3 DUP5 SUB SLT ISZERO PUSH2 0x2CA6 JUMPI PUSH1 0x0 DUP1 REVERT JUMPDEST PUSH1 0x40 MLOAD PUSH1 0xE0 DUP2 ADD DUP2 DUP2 LT PUSH8 0xFFFFFFFFFFFFFFFF DUP3 GT OR ISZERO PUSH2 0x2CC9 JUMPI PUSH2 0x2CC9 PUSH2 0x2A09 JUMP JUMPDEST PUSH1 0x40 MSTORE DUP3 MLOAD PUSH2 0x2CD7 DUP2 PUSH2 0x26EF JUMP JUMPDEST DUP2 MSTORE PUSH2 0x2CE5 PUSH1 0x20 DUP5 ADD PUSH2 0x2931 JUMP JUMPDEST PUSH1 0x20 DUP3 ADD MSTORE PUSH1 0x40 DUP4 ADD MLOAD PUSH2 0x2CF8 DUP2 PUSH2 0x294E JUMP JUMPDEST PUSH1 0x40 DUP3 ADD MSTORE PUSH1 0x60 DUP4 ADD MLOAD PUSH2 0x2D0B DUP2 PUSH2 0x26EF JUMP JUMPDEST PUSH1 0x60 DUP3 ADD MSTORE PUSH2 0x2D1C PUSH1 0x80 DUP5 ADD PUSH2 0x2931 JUMP JUMPDEST PUSH1 0x80 DUP3 ADD MSTORE PUSH1 0xA0 DUP4 ADD MLOAD PUSH2 0x2D2F DUP2 PUSH2 0x294E JUMP JUMPDEST PUSH1 0xA0 DUP3 ADD MSTORE PUSH1 0xC0 SWAP3 DUP4 ADD MLOAD SWAP3 DUP2 ADD SWAP3 SWAP1 SWAP3 MSTORE POP SWAP2 SWAP1 POP JUMP JUMPDEST PUSH1 0x0 DUP1 PUSH1 0x40 DUP4 DUP6 SUB SLT ISZERO PUSH2 0x2D5A JUMPI PUSH1 0x0 DUP1 REVERT JUMPDEST PUSH2 0x2D63 DUP4 PUSH2 0x2931 JUMP JUMPDEST SWAP2 POP PUSH2 0x2D71 PUSH1 0x20 DUP5 ADD PUSH2 0x2931 JUMP JUMPDEST SWAP1 POP SWAP3 POP SWAP3 SWAP1 POP JUMP JUMPDEST PUSH1 0x0 JUMPDEST DUP4 DUP2 LT ISZERO PUSH2 0x2D95 JUMPI DUP2 DUP2 ADD MLOAD DUP4 DUP3 ADD MSTORE PUSH1 0x20 ADD PUSH2 0x2D7D JUMP JUMPDEST POP POP PUSH1 0x0 SWAP2 ADD MSTORE JUMP JUMPDEST PUSH1 0x0 DUP2 MLOAD DUP1 DUP5 MSTORE PUSH2 0x2DB6 DUP2 PUSH1 0x20 DUP7 ADD PUSH1 0x20 DUP7 ADD PUSH2 0x2D7A JUMP JUMPDEST PUSH1 0x1F ADD PUSH1 0x1F NOT AND SWAP3 SWAP1 SWAP3 ADD PUSH1 0x20 ADD SWAP3 SWAP2 POP POP JUMP JUMPDEST PUSH1 0x1 PUSH1 0x1 PUSH1 0xA0 SHL SUB DUP8 AND DUP2 MSTORE DUP6 PUSH1 0x20 DUP3 ADD MSTORE PUSH2 0xFFFF DUP6 AND PUSH1 0x40 DUP3 ADD MSTORE DUP4 PUSH1 0x60 DUP3 ADD MSTORE PUSH4 0xFFFFFFFF DUP4 AND PUSH1 0x80 DUP3 ADD MSTORE PUSH1 0xC0 PUSH1 0xA0 DUP3 ADD MSTORE PUSH1 0x0 PUSH2 0x2E0E PUSH1 0xC0 DUP4 ADD DUP5 PUSH2 0x2D9E JUMP JUMPDEST SWAP9 SWAP8 POP POP POP POP POP POP POP POP JUMP JUMPDEST PUSH1 0x0 PUSH1 0x20 DUP3 DUP5 SUB SLT ISZERO PUSH2 0x2E2C JUMPI PUSH1 0x0 DUP1 REVERT JUMPDEST PUSH2 0x14FD DUP3 PUSH2 0x2931 JUMP JUMPDEST PUSH1 0x0 PUSH1 0x20 DUP3 DUP5 SUB SLT ISZERO PUSH2 0x2E47 JUMPI PUSH1 0x0 DUP1 REVERT JUMPDEST DUP2 MLOAD PUSH2 0x14FD DUP2 PUSH2 0x27F5 JUMP JUMPDEST PUSH4 0x4E487B71 PUSH1 0xE0 SHL PUSH1 0x0 MSTORE PUSH1 0x32 PUSH1 0x4 MSTORE PUSH1 0x24 PUSH1 0x0 REVERT JUMPDEST PUSH1 0x0 PUSH2 0x100 PUSH2 0xFFFF DUP1 DUP13 AND DUP5 MSTORE PUSH1 0x20 PUSH1 0x1 PUSH1 0x1 PUSH1 0xA0 SHL SUB DUP13 AND DUP2 DUP7 ADD MSTORE PUSH1 0x40 DUP4 DUP2 DUP8 ADD MSTORE PUSH2 0x2E98 DUP5 DUP8 ADD DUP14 PUSH2 0x2D9E JUMP JUMPDEST PUSH1 0x60 DUP8 DUP2 ADD DUP14 SWAP1 MSTORE PUSH1 0x80 DUP9 ADD DUP13 SWAP1 MSTORE DUP8 DUP3 SUB PUSH1 0xA0 DUP10 ADD MSTORE DUP11 MLOAD DUP1 DUP4 MSTORE DUP5 DUP13 ADD SWAP7 POP SWAP1 SWAP2 DUP5 ADD SWAP1 PUSH1 0x0 JUMPDEST DUP2 DUP2 LT ISZERO PUSH2 0x2EFA JUMPI DUP8 MLOAD DUP1 MLOAD DUP9 AND DUP5 MSTORE DUP7 DUP2 ADD MLOAD DUP8 DUP6 ADD MSTORE DUP6 ADD MLOAD PUSH8 0xFFFFFFFFFFFFFFFF AND DUP6 DUP5 ADD MSTORE SWAP7 DUP6 ADD SWAP7 SWAP2 DUP4 ADD SWAP2 PUSH1 0x1 ADD PUSH2 0x2EC1 JUMP JUMPDEST POP POP PUSH2 0xFFFF DUP11 AND PUSH1 0xC0 DUP10 ADD MSTORE SWAP6 POP PUSH2 0x2F13 SWAP5 POP POP POP POP POP JUMP JUMPDEST PUSH1 0x1 PUSH1 0x1 PUSH1 0xA0 SHL SUB DUP4 AND PUSH1 0xE0 DUP4 ADD MSTORE SWAP10 SWAP9 POP POP POP POP POP POP POP POP POP JUMP JUMPDEST PUSH1 0x0 DUP3 PUSH2 0x2F4C JUMPI PUSH4 0x4E487B71 PUSH1 0xE0 SHL PUSH1 0x0 MSTORE PUSH1 0x12 PUSH1 0x4 MSTORE PUSH1 0x24 PUSH1 0x0 REVERT JUMPDEST POP DIV SWAP1 JUMP JUMPDEST PUSH1 0x0 PUSH2 0x100 DUP1 DUP4 MSTORE PUSH1 0x1 PUSH1 0x1 PUSH1 0xE0 SHL SUB NOT DUP1 DUP8 MLOAD AND DUP3 DUP6 ADD MSTORE PUSH1 0x20 DUP8 ADD MLOAD SWAP2 POP PUSH1 0x80 PUSH2 0x120 DUP6 ADD MSTORE PUSH2 0x2F87 PUSH2 0x180 DUP6 ADD DUP4 PUSH2 0x2D9E JUMP JUMPDEST SWAP2 POP PUSH1 0x40 DUP8 ADD MLOAD PUSH1 0xFF NOT DUP6 DUP5 SUB ADD PUSH2 0x140 DUP7 ADD MSTORE PUSH2 0x2FA5 DUP4 DUP3 PUSH2 0x2D9E JUMP JUMPDEST SWAP3 POP POP DUP1 PUSH1 0x60 DUP9 ADD MLOAD AND PUSH2 0x160 DUP6 ADD MSTORE DUP2 SWAP3 POP PUSH4 0xFFFFFFFF DUP7 MLOAD AND PUSH1 0x20 DUP6 ADD MSTORE PUSH32 0xFFFFFFFFFFFFFFFF000000000000000000000000000000000000000000000000 PUSH1 0x20 DUP8 ADD MLOAD AND PUSH1 0x40 DUP6 ADD MSTORE PUSH1 0x40 DUP7 ADD MLOAD SWAP2 POP PUSH12 0xFFFFFFFFFFFFFFFFFFFFFFFF NOT DUP1 DUP4 AND PUSH1 0x60 DUP7 ADD MSTORE DUP1 PUSH1 0x60 DUP9 ADD MLOAD AND PUSH1 0x80 DUP7 ADD MSTORE POP DUP1 PUSH1 0x80 DUP8 ADD MLOAD AND PUSH1 0xA0 DUP6 ADD MSTORE POP POP PUSH1 0x1 PUSH1 0x1 PUSH1 0xA0 SHL SUB PUSH1 0xA0 DUP6 ADD MLOAD AND PUSH1 0xC0 DUP4 ADD MSTORE DUP3 PUSH1 0xE0 DUP4 ADD MSTORE SWAP5 SWAP4 POP POP POP POP JUMP JUMPDEST PUSH8 0xFFFFFFFFFFFFFFFF DUP3 DUP2 AND DUP3 DUP3 AND SUB SWAP1 DUP1 DUP3 GT ISZERO PUSH2 0x306B JUMPI PUSH2 0x306B PUSH2 0x29B6 JUMP JUMPDEST POP SWAP3 SWAP2 POP POP JUMP JUMPDEST PUSH1 0x0 PUSH1 0x20 DUP3 DUP5 SUB SLT ISZERO PUSH2 0x3084 JUMPI PUSH1 0x0 DUP1 REVERT JUMPDEST DUP2 MLOAD PUSH2 0x14FD DUP2 PUSH2 0x294E JUMP JUMPDEST PUSH1 0x0 PUSH1 0x1 PUSH1 0x1 PUSH1 0xE0 SHL SUB NOT DUP1 DUP8 AND DUP4 MSTORE DUP6 MLOAD PUSH2 0x30B2 DUP2 PUSH1 0x4 DUP7 ADD PUSH1 0x20 DUP11 ADD PUSH2 0x2D7A JUMP JUMPDEST DUP6 MLOAD SWAP1 DUP5 ADD SWAP1 PUSH2 0x30C9 DUP2 PUSH1 0x4 DUP5 ADD PUSH1 0x20 DUP11 ADD PUSH2 0x2D7A JUMP JUMPDEST SWAP2 SWAP1 SWAP5 AND SWAP4 ADD PUSH1 0x4 DUP2 ADD SWAP4 SWAP1 SWAP4 MSTORE POP POP PUSH1 0x8 ADD SWAP4 SWAP3 POP POP POP JUMP JUMPDEST PUSH1 0x0 PUSH1 0x20 DUP3 DUP5 SUB SLT ISZERO PUSH2 0x30F5 JUMPI PUSH1 0x0 DUP1 REVERT JUMPDEST DUP2 MLOAD PUSH2 0x14FD DUP2 PUSH2 0x273A JUMP JUMPDEST PUSH1 0x0 DUP3 MLOAD PUSH2 0x3112 DUP2 DUP5 PUSH1 0x20 DUP8 ADD PUSH2 0x2D7A JUMP JUMPDEST SWAP2 SWAP1 SWAP2 ADD SWAP3 SWAP2 POP POP JUMP JUMPDEST PUSH1 0x20 DUP2 MSTORE PUSH1 0x0 PUSH2 0x14FD PUSH1 0x20 DUP4 ADD DUP5 PUSH2 0x2D9E JUMP INVALID LOG2 PUSH5 0x6970667358 0x22 SLT KECCAK256 CALLER 0xA8 EXTCODESIZE EXTCODESIZE SIGNEXTEND BLOCKHASH EQ PUSH10 0x486B169A20D3317FA433 GASPRICE REVERT SLT SELFBALANCE 0xAF 0x28 0xC6 PUSH28 0x989FE599A3C364736F6C634300081100330000000000000000000000 "},"gasEstimates":{"creation":{"codeDepositCost":"2529000","executionCost":"32322","totalCost":"2561322"},"external":{"SATOSHI_MULTIPLIER()":"306","attachL2BitcoinDepositor(address)":"28949","bridge()":"2370","deposits(uint256)":"2558","finalizeDeposit(uint256)":"infinite","finalizeDepositGasOffset()":"2386","gasReimbursements(uint256)":"2579","initialize(address,address,address,address,address,address,uint16)":"infinite","initializeDeposit((bytes4,bytes,bytes,bytes4),(uint32,bytes8,bytes20,bytes20,bytes4,address),address)":"infinite","initializeDepositGasOffset()":"2385","l2BitcoinDepositor()":"2371","l2ChainId()":"2397","l2FinalizeDepositGasLimit()":"2340","l2WormholeGateway()":"2371","owner()":"2410","quoteFinalizeDeposit()":"infinite","reimburseTxMaxFee()":"2421","reimbursementAuthorizations(address)":"2615","reimbursementPool()":"2415","renounceOwnership()":"infinite","setReimburseTxMaxFee(bool)":"27868","tbtcToken()":"2437","tbtcVault()":"2395","transferOwnership(address)":"infinite","updateGasOffsetParameters(uint256,uint256)":"48076","updateL2FinalizeDepositGasLimit(uint256)":"25600","updateReimbursementAuthorization(address,bool)":"infinite","updateReimbursementPool(address)":"27869","wormhole()":"2394","wormholeRelayer()":"2415","wormholeTokenBridge()":"2392"},"internal":{"_quoteFinalizeDeposit(uint256)":"infinite","_refundToGasSpent(uint256)":"infinite","_transferTbtc(uint256,bytes32)":"infinite"}},"methodIdentifiers":{"SATOSHI_MULTIPLIER()":"c7ba0347","attachL2BitcoinDepositor(address)":"0515f0c1","bridge()":"e78cea92","deposits(uint256)":"b02c43d0","finalizeDeposit(uint256)":"46d9d49a","finalizeDepositGasOffset()":"0fa1ba44","gasReimbursements(uint256)":"7c9e9ffb","initialize(address,address,address,address,address,address,uint16)":"71c654ee","initializeDeposit((bytes4,bytes,bytes,bytes4),(uint32,bytes8,bytes20,bytes20,bytes4,address),address)":"642dc033","initializeDepositGasOffset()":"27ce36c6","l2BitcoinDepositor()":"c81ef168","l2ChainId()":"d6ae3cd5","l2FinalizeDepositGasLimit()":"71546831","l2WormholeGateway()":"aa82e33b","owner()":"8da5cb5b","quoteFinalizeDeposit()":"13b38cce","reimburseTxMaxFee()":"7be04b6a","reimbursementAuthorizations(address)":"66b58a01","reimbursementPool()":"c09975cd","renounceOwnership()":"715018a6","setReimburseTxMaxFee(bool)":"fe012b9b","tbtcToken()":"e5d3d714","tbtcVault()":"0f36403a","transferOwnership(address)":"f2fde38b","updateGasOffsetParameters(uint256,uint256)":"9e0e4e2f","updateL2FinalizeDepositGasLimit(uint256)":"1159bef0","updateReimbursementAuthorization(address,bool)":"60ec23dd","updateReimbursementPool(address)":"7b35b4e6","wormhole()":"84acd1bb","wormholeRelayer()":"da25b725","wormholeTokenBridge()":"f11df69d"}},"storageLayout":{"storage":[{"astId":4400,"contract":"contracts/l1/L1BitcoinDepositor.sol:L1BitcoinDepositor","label":"bridge","offset":0,"slot":"0","type":"t_contract(IBridge)4795"},{"astId":4404,"contract":"contracts/l1/L1BitcoinDepositor.sol:L1BitcoinDepositor","label":"tbtcVault","offset":0,"slot":"1","type":"t_contract(ITBTCVault)4821"},{"astId":4408,"contract":"contracts/l1/L1BitcoinDepositor.sol:L1BitcoinDepositor","label":"__gap","offset":0,"slot":"2","type":"t_array(t_uint256)47_storage"},{"astId":3139,"contract":"contracts/l1/L1BitcoinDepositor.sol:L1BitcoinDepositor","label":"_initialized","offset":0,"slot":"49","type":"t_uint8"},{"astId":3142,"contract":"contracts/l1/L1BitcoinDepositor.sol:L1BitcoinDepositor","label":"_initializing","offset":1,"slot":"49","type":"t_bool"},{"astId":4171,"contract":"contracts/l1/L1BitcoinDepositor.sol:L1BitcoinDepositor","label":"__gap","offset":0,"slot":"50","type":"t_array(t_uint256)50_storage"},{"astId":3011,"contract":"contracts/l1/L1BitcoinDepositor.sol:L1BitcoinDepositor","label":"_owner","offset":0,"slot":"100","type":"t_address"},{"astId":3131,"contract":"contracts/l1/L1BitcoinDepositor.sol:L1BitcoinDepositor","label":"__gap","offset":0,"slot":"101","type":"t_array(t_uint256)49_storage"},{"astId":2669,"contract":"contracts/l1/L1BitcoinDepositor.sol:L1BitcoinDepositor","label":"reimbursementPool","offset":0,"slot":"150","type":"t_contract(ReimbursementPool)2999"},{"astId":2673,"contract":"contracts/l1/L1BitcoinDepositor.sol:L1BitcoinDepositor","label":"__gap","offset":0,"slot":"151","type":"t_array(t_uint256)49_storage"},{"astId":4859,"contract":"contracts/l1/L1BitcoinDepositor.sol:L1BitcoinDepositor","label":"deposits","offset":0,"slot":"200","type":"t_mapping(t_uint256,t_enum(DepositState)4846)"},{"astId":4863,"contract":"contracts/l1/L1BitcoinDepositor.sol:L1BitcoinDepositor","label":"tbtcToken","offset":0,"slot":"201","type":"t_contract(IERC20Upgradeable)3379"},{"astId":4867,"contract":"contracts/l1/L1BitcoinDepositor.sol:L1BitcoinDepositor","label":"wormhole","offset":0,"slot":"202","type":"t_contract(IWormhole)5716"},{"astId":4871,"contract":"contracts/l1/L1BitcoinDepositor.sol:L1BitcoinDepositor","label":"wormholeRelayer","offset":0,"slot":"203","type":"t_contract(IWormholeRelayer)5756"},{"astId":4875,"contract":"contracts/l1/L1BitcoinDepositor.sol:L1BitcoinDepositor","label":"wormholeTokenBridge","offset":0,"slot":"204","type":"t_contract(IWormholeTokenBridge)5841"},{"astId":4878,"contract":"contracts/l1/L1BitcoinDepositor.sol:L1BitcoinDepositor","label":"l2WormholeGateway","offset":0,"slot":"205","type":"t_address"},{"astId":4881,"contract":"contracts/l1/L1BitcoinDepositor.sol:L1BitcoinDepositor","label":"l2ChainId","offset":20,"slot":"205","type":"t_uint16"},{"astId":4884,"contract":"contracts/l1/L1BitcoinDepositor.sol:L1BitcoinDepositor","label":"l2BitcoinDepositor","offset":0,"slot":"206","type":"t_address"},{"astId":4887,"contract":"contracts/l1/L1BitcoinDepositor.sol:L1BitcoinDepositor","label":"l2FinalizeDepositGasLimit","offset":0,"slot":"207","type":"t_uint256"},{"astId":4893,"contract":"contracts/l1/L1BitcoinDepositor.sol:L1BitcoinDepositor","label":"gasReimbursements","offset":0,"slot":"208","type":"t_mapping(t_uint256,t_struct(GasReimbursement)4853_storage)"},{"astId":4896,"contract":"contracts/l1/L1BitcoinDepositor.sol:L1BitcoinDepositor","label":"initializeDepositGasOffset","offset":0,"slot":"209","type":"t_uint256"},{"astId":4899,"contract":"contracts/l1/L1BitcoinDepositor.sol:L1BitcoinDepositor","label":"finalizeDepositGasOffset","offset":0,"slot":"210","type":"t_uint256"},{"astId":4904,"contract":"contracts/l1/L1BitcoinDepositor.sol:L1BitcoinDepositor","label":"reimbursementAuthorizations","offset":0,"slot":"211","type":"t_mapping(t_address,t_bool)"},{"astId":4907,"contract":"contracts/l1/L1BitcoinDepositor.sol:L1BitcoinDepositor","label":"reimburseTxMaxFee","offset":0,"slot":"212","type":"t_bool"}],"types":{"t_address":{"encoding":"inplace","label":"address","numberOfBytes":"20"},"t_array(t_uint256)47_storage":{"base":"t_uint256","encoding":"inplace","label":"uint256[47]","numberOfBytes":"1504"},"t_array(t_uint256)49_storage":{"base":"t_uint256","encoding":"inplace","label":"uint256[49]","numberOfBytes":"1568"},"t_array(t_uint256)50_storage":{"base":"t_uint256","encoding":"inplace","label":"uint256[50]","numberOfBytes":"1600"},"t_bool":{"encoding":"inplace","label":"bool","numberOfBytes":"1"},"t_contract(IBridge)4795":{"encoding":"inplace","label":"contract IBridge","numberOfBytes":"20"},"t_contract(IERC20Upgradeable)3379":{"encoding":"inplace","label":"contract IERC20Upgradeable","numberOfBytes":"20"},"t_contract(ITBTCVault)4821":{"encoding":"inplace","label":"contract ITBTCVault","numberOfBytes":"20"},"t_contract(IWormhole)5716":{"encoding":"inplace","label":"contract IWormhole","numberOfBytes":"20"},"t_contract(IWormholeRelayer)5756":{"encoding":"inplace","label":"contract IWormholeRelayer","numberOfBytes":"20"},"t_contract(IWormholeTokenBridge)5841":{"encoding":"inplace","label":"contract IWormholeTokenBridge","numberOfBytes":"20"},"t_contract(ReimbursementPool)2999":{"encoding":"inplace","label":"contract ReimbursementPool","numberOfBytes":"20"},"t_enum(DepositState)4846":{"encoding":"inplace","label":"enum L1BitcoinDepositor.DepositState","numberOfBytes":"1"},"t_mapping(t_address,t_bool)":{"encoding":"mapping","key":"t_address","label":"mapping(address => bool)","numberOfBytes":"32","value":"t_bool"},"t_mapping(t_uint256,t_enum(DepositState)4846)":{"encoding":"mapping","key":"t_uint256","label":"mapping(uint256 => enum L1BitcoinDepositor.DepositState)","numberOfBytes":"32","value":"t_enum(DepositState)4846"},"t_mapping(t_uint256,t_struct(GasReimbursement)4853_storage)":{"encoding":"mapping","key":"t_uint256","label":"mapping(uint256 => struct L1BitcoinDepositor.GasReimbursement)","numberOfBytes":"32","value":"t_struct(GasReimbursement)4853_storage"},"t_struct(GasReimbursement)4853_storage":{"encoding":"inplace","label":"struct L1BitcoinDepositor.GasReimbursement","members":[{"astId":4849,"contract":"contracts/l1/L1BitcoinDepositor.sol:L1BitcoinDepositor","label":"receiver","offset":0,"slot":"0","type":"t_address"},{"astId":4852,"contract":"contracts/l1/L1BitcoinDepositor.sol:L1BitcoinDepositor","label":"gasSpent","offset":20,"slot":"0","type":"t_uint96"}],"numberOfBytes":"32"},"t_uint16":{"encoding":"inplace","label":"uint16","numberOfBytes":"2"},"t_uint256":{"encoding":"inplace","label":"uint256","numberOfBytes":"32"},"t_uint8":{"encoding":"inplace","label":"uint8","numberOfBytes":"1"},"t_uint96":{"encoding":"inplace","label":"uint96","numberOfBytes":"12"}}},"userdoc":{"events":{"ReimburseTxMaxFeeUpdated(bool)":{"notice":"Emitted whenever the owner toggles the reimbursement of the deposit         transaction max fee."}},"kind":"user","methods":{"SATOSHI_MULTIPLIER()":{"notice":"Multiplier to convert satoshi to TBTC token units."},"attachL2BitcoinDepositor(address)":{"notice":"Sets the address of the `L2BitcoinDepositor` contract on the         corresponding L2 chain. This function solves the chicken-and-egg         problem of setting the `L2BitcoinDepositor` contract address         on the `L1BitcoinDepositor` contract and vice versa."},"bridge()":{"notice":"Bridge contract address."},"deposits(uint256)":{"notice":"Holds the deposit state, keyed by the deposit key calculated for         the individual deposit during the call to `initializeDeposit`         function."},"finalizeDeposit(uint256)":{"notice":"Finalizes the deposit process by transferring ERC20 L1 TBTC         to the L2 deposit owner. This function should be called after         the deposit was initialized with a call to `initializeDeposit`         function and after ERC20 L1 TBTC was minted by the tBTC Bridge         to the `L1BitcoinDepositor` contract. Please note several hours         may pass between `initializeDeposit`and `finalizeDeposit`.         If the reimbursement pool is attached, the function pays out         a gas and call's value refund to the caller (if the given         caller is authorized for refunds) as well as the deferred gas         refund to the caller of `initializeDeposit` corresponding to         the finalized deposit."},"finalizeDepositGasOffset()":{"notice":"Gas that is meant to balance the overall cost of deposit finalization.         Can be updated by the owner based on the current market conditions."},"gasReimbursements(uint256)":{"notice":"Holds deferred gas reimbursements for deposit initialization         (indexed by deposit key). Reimbursement for deposit         initialization is paid out upon deposit finalization. This is         because the tBTC Bridge accepts all (even invalid) deposits but         mints ERC20 TBTC only for the valid ones. Paying out the         reimbursement directly upon initialization would make the         reimbursement pool vulnerable to malicious actors that could         drain it by initializing invalid deposits."},"initializeDeposit((bytes4,bytes,bytes,bytes4),(uint32,bytes8,bytes20,bytes20,bytes4,address),address)":{"notice":"Initializes the deposit process on L1 by revealing the deposit         data (funding transaction and components of the P2(W)SH deposit         address) to the tBTC Bridge. Once tBTC minting is completed,         this call should be followed by a call to `finalizeDeposit`.         Callers of `initializeDeposit` are eligible for a gas refund         that is paid out upon deposit finalization (only if the         reimbursement pool is attached and the given caller is         authorized for refunds).         The Bitcoin funding transaction must transfer funds to a P2(W)SH         deposit address whose underlying script is built from the         following components:         <depositor-address> DROP         <depositor-extra-data> DROP         <blinding-factor> DROP         DUP HASH160 <signingGroupPubkeyHash> EQUAL         IF           CHECKSIG         ELSE           DUP HASH160 <refundPubkeyHash> EQUALVERIFY           <locktime> CHECKLOCKTIMEVERIFY DROP           CHECKSIG         ENDIF         Where:         <depositor-address> 20-byte L1 address of the         `L1BitcoinDepositor` contract.         <depositor-extra-data> L2 deposit owner address in the Wormhole         format, i.e. 32-byte value left-padded with 0.         <blinding-factor> 8-byte deposit blinding factor, as used in the         tBTC bridge.         <signingGroupPubkeyHash> The compressed Bitcoin public key (33         bytes and 02 or 03 prefix) of the deposit's wallet hashed in the         HASH160 Bitcoin opcode style. This must point to the active tBTC         bridge wallet.         <refundPubkeyHash> The compressed Bitcoin public key (33 bytes         and 02 or 03 prefix) that can be used to make the deposit refund         after the tBTC bridge refund locktime passed. Hashed in the         HASH160 Bitcoin opcode style. This is needed only as a security         measure protecting the user in case tBTC bridge completely stops         functioning.         <locktime> The Bitcoin script refund locktime (4-byte LE),         according to tBTC bridge rules.         Please consult tBTC `Bridge.revealDepositWithExtraData` function         documentation for more information."},"initializeDepositGasOffset()":{"notice":"Gas that is meant to balance the overall cost of deposit initialization.         Can be updated by the owner based on the current market conditions."},"l2BitcoinDepositor()":{"notice":"tBTC `L2BitcoinDepositor` contract on the corresponding L2 chain."},"l2ChainId()":{"notice":"Wormhole chain ID of the corresponding L2 chain."},"l2FinalizeDepositGasLimit()":{"notice":"Gas limit necessary to execute the L2 part of the deposit         finalization. This value is used to calculate the payment for         the Wormhole Relayer that is responsible to execute the         deposit finalization on the corresponding L2 chain. Can be         updated by the owner."},"l2WormholeGateway()":{"notice":"tBTC `L2WormholeGateway` contract on the corresponding L2 chain."},"quoteFinalizeDeposit()":{"notice":"Quotes the payment that must be attached to the `finalizeDeposit`         function call. The payment is necessary to cover the cost of         the Wormhole Relayer that is responsible for executing the         deposit finalization on the corresponding L2 chain."},"reimburseTxMaxFee()":{"notice":"**Feature Flag** controlling whether the deposit transaction max fee         is **reimbursed** (added to the users TBTC) or **deducted**.         - `true`  => Add `txMaxFee` to the minted TBTC amount         - `false` => Subtract `txMaxFee` from the minted TBTC amount"},"reimbursementAuthorizations(address)":{"notice":"Set of addresses that are authorized to receive gas reimbursements         for deposit initialization and finalization. The authorization is         granted by the contract owner."},"setReimburseTxMaxFee(bool)":{"notice":"Toggles whether the deposit transaction max fee is reimbursed         or deducted. Only callable by the contract owner."},"tbtcToken()":{"notice":"ERC20 L1 TBTC token contract."},"tbtcVault()":{"notice":"TBTCVault contract address."},"updateGasOffsetParameters(uint256,uint256)":{"notice":"Updates the values of gas offset parameters."},"updateL2FinalizeDepositGasLimit(uint256)":{"notice":"Updates the gas limit necessary to execute the L2 part of the         deposit finalization."},"updateReimbursementAuthorization(address,bool)":{"notice":"Updates the reimbursement authorization for the given address."},"wormhole()":{"notice":"`Wormhole` core contract on L1."},"wormholeRelayer()":{"notice":"`WormholeRelayer` contract on L1."},"wormholeTokenBridge()":{"notice":"Wormhole `TokenBridge` contract on L1."}},"notice":"This contract is part of the direct bridging mechanism allowing         users to obtain ERC20 TBTC on supported L2 chains, without the need         to interact with the L1 tBTC ledger chain where minting occurs.         `L1BitcoinDepositor` is deployed on the L1 chain and interacts with         their L2 counterpart, the `L2BitcoinDepositor`, deployed on the given         L2 chain. Each `L1BitcoinDepositor` & `L2BitcoinDepositor` pair is         responsible for a specific L2 chain.         The outline of the direct bridging mechanism is as follows:         1. An L2 user issues a Bitcoin funding transaction to a P2(W)SH            deposit address that embeds the `L1BitcoinDepositor` contract            and L2 user addresses. The `L1BitcoinDepositor` contract serves            as the actual depositor on the L1 chain while the L2 user            address is set as the deposit owner who will receive the            minted ERC20 TBTC.         2. The data about the Bitcoin funding transaction and deposit            address are passed to the relayer. In the first iteration of            the direct bridging mechanism, this is achieved using an            on-chain event emitted by the `L2BitcoinDepositor` contract.            Further iterations assumes those data are passed off-chain, e.g.            through a REST API exposed by the relayer.         3. The relayer uses the data to initialize a deposit on the L1            chain by calling the `initializeDeposit` function of the            `L1BitcoinDepositor` contract. The `initializeDeposit` function            reveals the deposit to the tBTC Bridge so minting of ERC20 L1 TBTC            can occur.         4. Once minting is complete, the `L1BitcoinDepositor` contract            receives minted ERC20 L1 TBTC. The relayer then calls the            `finalizeDeposit` function of the `L1BitcoinDepositor` contract            to transfer the minted ERC20 L1 TBTC to the L2 user address. This            is achieved using the Wormhole protocol. First, the `finalizeDeposit`            function initiates a Wormhole token transfer that locks the ERC20            L1 TBTC within the Wormhole Token Bridge contract and assigns            Wormhole-wrapped L2 TBTC to the corresponding `L2WormholeGateway`            contract. Then, `finalizeDeposit` notifies the `L2BitcoinDepositor`            contract by sending a Wormhole message containing the VAA            of the Wormhole token transfer. The `L2BitcoinDepositor` contract            receives the Wormhole message, and calls the `L2WormholeGateway`            contract that redeems Wormhole-wrapped L2 TBTC from the Wormhole            Token Bridge and uses it to mint canonical L2 TBTC to the L2 user            address.","version":1}}}}