{
  "_format": "hh-sol-artifact-1",
  "contractName": "ReimbursementPool",
  "sourceName": "@keep-network/random-beacon/contracts/ReimbursementPool.sol",
  "abi": [
    {
      "inputs": [
        {
          "internalType": "uint256",
          "name": "_staticGas",
          "type": "uint256"
        },
        {
          "internalType": "uint256",
          "name": "_maxGasPrice",
          "type": "uint256"
        }
      ],
      "stateMutability": "nonpayable",
      "type": "constructor"
    },
    {
      "anonymous": false,
      "inputs": [
        {
          "indexed": false,
          "internalType": "address",
          "name": "thirdPartyContract",
          "type": "address"
        }
      ],
      "name": "AuthorizedContract",
      "type": "event"
    },
    {
      "anonymous": false,
      "inputs": [
        {
          "indexed": false,
          "internalType": "uint256",
          "name": "withdrawnAmount",
          "type": "uint256"
        },
        {
          "indexed": false,
          "internalType": "address",
          "name": "receiver",
          "type": "address"
        }
      ],
      "name": "FundsWithdrawn",
      "type": "event"
    },
    {
      "anonymous": false,
      "inputs": [
        {
          "indexed": false,
          "internalType": "uint256",
          "name": "newMaxGasPrice",
          "type": "uint256"
        }
      ],
      "name": "MaxGasPriceUpdated",
      "type": "event"
    },
    {
      "anonymous": false,
      "inputs": [
        {
          "indexed": true,
          "internalType": "address",
          "name": "previousOwner",
          "type": "address"
        },
        {
          "indexed": true,
          "internalType": "address",
          "name": "newOwner",
          "type": "address"
        }
      ],
      "name": "OwnershipTransferred",
      "type": "event"
    },
    {
      "anonymous": false,
      "inputs": [
        {
          "indexed": false,
          "internalType": "uint256",
          "name": "refundAmount",
          "type": "uint256"
        },
        {
          "indexed": false,
          "internalType": "address",
          "name": "receiver",
          "type": "address"
        }
      ],
      "name": "SendingEtherFailed",
      "type": "event"
    },
    {
      "anonymous": false,
      "inputs": [
        {
          "indexed": false,
          "internalType": "uint256",
          "name": "newStaticGas",
          "type": "uint256"
        }
      ],
      "name": "StaticGasUpdated",
      "type": "event"
    },
    {
      "anonymous": false,
      "inputs": [
        {
          "indexed": false,
          "internalType": "address",
          "name": "thirdPartyContract",
          "type": "address"
        }
      ],
      "name": "UnauthorizedContract",
      "type": "event"
    },
    {
      "inputs": [
        {
          "internalType": "address",
          "name": "_contract",
          "type": "address"
        }
      ],
      "name": "authorize",
      "outputs": [],
      "stateMutability": "nonpayable",
      "type": "function"
    },
    {
      "inputs": [
        {
          "internalType": "address",
          "name": "",
          "type": "address"
        }
      ],
      "name": "isAuthorized",
      "outputs": [
        {
          "internalType": "bool",
          "name": "",
          "type": "bool"
        }
      ],
      "stateMutability": "view",
      "type": "function"
    },
    {
      "inputs": [],
      "name": "maxGasPrice",
      "outputs": [
        {
          "internalType": "uint256",
          "name": "",
          "type": "uint256"
        }
      ],
      "stateMutability": "view",
      "type": "function"
    },
    {
      "inputs": [],
      "name": "owner",
      "outputs": [
        {
          "internalType": "address",
          "name": "",
          "type": "address"
        }
      ],
      "stateMutability": "view",
      "type": "function"
    },
    {
      "inputs": [
        {
          "internalType": "uint256",
          "name": "gasSpent",
          "type": "uint256"
        },
        {
          "internalType": "address",
          "name": "receiver",
          "type": "address"
        }
      ],
      "name": "refund",
      "outputs": [],
      "stateMutability": "nonpayable",
      "type": "function"
    },
    {
      "inputs": [],
      "name": "renounceOwnership",
      "outputs": [],
      "stateMutability": "nonpayable",
      "type": "function"
    },
    {
      "inputs": [
        {
          "internalType": "uint256",
          "name": "_maxGasPrice",
          "type": "uint256"
        }
      ],
      "name": "setMaxGasPrice",
      "outputs": [],
      "stateMutability": "nonpayable",
      "type": "function"
    },
    {
      "inputs": [
        {
          "internalType": "uint256",
          "name": "_staticGas",
          "type": "uint256"
        }
      ],
      "name": "setStaticGas",
      "outputs": [],
      "stateMutability": "nonpayable",
      "type": "function"
    },
    {
      "inputs": [],
      "name": "staticGas",
      "outputs": [
        {
          "internalType": "uint256",
          "name": "",
          "type": "uint256"
        }
      ],
      "stateMutability": "view",
      "type": "function"
    },
    {
      "inputs": [
        {
          "internalType": "address",
          "name": "newOwner",
          "type": "address"
        }
      ],
      "name": "transferOwnership",
      "outputs": [],
      "stateMutability": "nonpayable",
      "type": "function"
    },
    {
      "inputs": [
        {
          "internalType": "address",
          "name": "_contract",
          "type": "address"
        }
      ],
      "name": "unauthorize",
      "outputs": [],
      "stateMutability": "nonpayable",
      "type": "function"
    },
    {
      "inputs": [
        {
          "internalType": "uint256",
          "name": "amount",
          "type": "uint256"
        },
        {
          "internalType": "address",
          "name": "receiver",
          "type": "address"
        }
      ],
      "name": "withdraw",
      "outputs": [],
      "stateMutability": "nonpayable",
      "type": "function"
    },
    {
      "inputs": [
        {
          "internalType": "address",
          "name": "receiver",
          "type": "address"
        }
      ],
      "name": "withdrawAll",
      "outputs": [],
      "stateMutability": "nonpayable",
      "type": "function"
    },
    {
      "stateMutability": "payable",
      "type": "receive"
    }
  ],
  "bytecode": "0x60806040523480156200001157600080fd5b506040516200133838038062001338833981810160405281019062000037919062000180565b620000576200004b6200007460201b60201c565b6200007c60201b60201c565b6001808190555081600381905550806004819055505050620001c7565b600033905090565b60008060009054906101000a900473ffffffffffffffffffffffffffffffffffffffff169050816000806101000a81548173ffffffffffffffffffffffffffffffffffffffff021916908373ffffffffffffffffffffffffffffffffffffffff1602179055508173ffffffffffffffffffffffffffffffffffffffff168173ffffffffffffffffffffffffffffffffffffffff167f8be0079c531659141344cd1fd0a4f28419497f9722a3daafe3b4186f6b6457e060405160405180910390a35050565b600080fd5b6000819050919050565b6200015a8162000145565b81146200016657600080fd5b50565b6000815190506200017a816200014f565b92915050565b600080604083850312156200019a576200019962000140565b5b6000620001aa8582860162000169565b9250506020620001bd8582860162000169565b9150509250929050565b61116180620001d76000396000f3fe6080604052600436106100c55760003560e01c8063b6a5d7de1161007f578063f0b37c0411610059578063f0b37c0414610236578063f2fde38b1461025f578063fa09e63014610288578063fe9fbb80146102b1576100cc565b8063b6a5d7de146101b9578063d2fa635e146101e2578063e25b53451461020b576100cc565b8062f714ce146100d15780633de39c11146100fa5780633e21740414610125578063715018a61461014e5780637ad226dc146101655780638da5cb5b1461018e576100cc565b366100cc57005b600080fd5b3480156100dd57600080fd5b506100f860048036038101906100f39190610b7c565b6102ee565b005b34801561010657600080fd5b5061010f610492565b60405161011c9190610bcb565b60405180910390f35b34801561013157600080fd5b5061014c60048036038101906101479190610be6565b610498565b005b34801561015a57600080fd5b506101636104e1565b005b34801561017157600080fd5b5061018c60048036038101906101879190610b7c565b6104f5565b005b34801561019a57600080fd5b506101a36106e6565b6040516101b09190610c22565b60405180910390f35b3480156101c557600080fd5b506101e060048036038101906101db9190610c3d565b61070f565b005b3480156101ee57600080fd5b5061020960048036038101906102049190610be6565b6107a9565b005b34801561021757600080fd5b506102206107f2565b60405161022d9190610bcb565b60405180910390f35b34801561024257600080fd5b5061025d60048036038101906102589190610c3d565b6107f8565b005b34801561026b57600080fd5b5061028660048036038101906102819190610c3d565b610889565b005b34801561029457600080fd5b506102af60048036038101906102aa9190610c3d565b61090c565b005b3480156102bd57600080fd5b506102d860048036038101906102d39190610c3d565b610921565b6040516102e59190610c85565b60405180910390f35b6102f6610941565b81471015610339576040517f08c379a000000000000000000000000000000000000000000000000000000000815260040161033090610cfd565b60405180910390fd5b600073ffffffffffffffffffffffffffffffffffffffff168173ffffffffffffffffffffffffffffffffffffffff16036103a8576040517f08c379a000000000000000000000000000000000000000000000000000000000815260040161039f90610d8f565b60405180910390fd5b7f6141b54b56b8a52a8c6f5cd2a857f6117b18ffbf4d46bd3106f300a839cbf5ea82826040516103d9929190610daf565b60405180910390a160008173ffffffffffffffffffffffffffffffffffffffff168360405161040790610e09565b60006040518083038185875af1925050503d8060008114610444576040519150601f19603f3d011682016040523d82523d6000602084013e610449565b606091505b505090508061048d576040517f08c379a000000000000000000000000000000000000000000000000000000000815260040161048490610e6a565b60405180910390fd5b505050565b60045481565b6104a0610941565b806003819055507fa86b6e9a406df021f05f513a796a1d5bea0bd3e18fe1d3f6082a3cccfc898d14816040516104d69190610bcb565b60405180910390a150565b6104e9610941565b6104f360006109bf565b565b6104fd610a83565b600260003373ffffffffffffffffffffffffffffffffffffffff1673ffffffffffffffffffffffffffffffffffffffff16815260200190815260200160002060009054906101000a900460ff16610589576040517f08c379a000000000000000000000000000000000000000000000000000000000815260040161058090610efc565b60405180910390fd5b600073ffffffffffffffffffffffffffffffffffffffff168173ffffffffffffffffffffffffffffffffffffffff16036105f8576040517f08c379a00000000000000000000000000000000000000000000000000000000081526004016105ef90610d8f565b60405180910390fd5b60006004543a1061060b5760045461060d565b3a5b9050600081600354856106209190610f4b565b61062a9190610f7f565b905060008373ffffffffffffffffffffffffffffffffffffffff168260405161065290610e09565b60006040518083038185875af1925050503d806000811461068f576040519150601f19603f3d011682016040523d82523d6000602084013e610694565b606091505b50509050806106d7577fd955712c3ae4c3c40451db84ea0c4531c61cc0ea75c13fe9168ae0e07d71e05082856040516106ce929190610daf565b60405180910390a15b5050506106e2610ad2565b5050565b60008060009054906101000a900473ffffffffffffffffffffffffffffffffffffffff16905090565b610717610941565b6001600260008373ffffffffffffffffffffffffffffffffffffffff1673ffffffffffffffffffffffffffffffffffffffff16815260200190815260200160002060006101000a81548160ff0219169083151502179055507f2c74592fddad593c2c4403101ce9b30930711ab87571268ddd1e1989ee1d79178160405161079e9190610c22565b60405180910390a150565b6107b1610941565b806004819055507fa7a07f821dfdfca8e4baa9ccc4bbe7b782baac5946918bd19f1c9c761db41410816040516107e79190610bcb565b60405180910390a150565b60035481565b610800610941565b600260008273ffffffffffffffffffffffffffffffffffffffff1673ffffffffffffffffffffffffffffffffffffffff16815260200190815260200160002060006101000a81549060ff02191690557fe195aa139c7c69ba98f719c94aecd784e12fabc0789ef81335150078bc0873178160405161087e9190610c22565b60405180910390a150565b610891610941565b600073ffffffffffffffffffffffffffffffffffffffff168173ffffffffffffffffffffffffffffffffffffffff1603610900576040517f08c379a00000000000000000000000000000000000000000000000000000000081526004016108f790611033565b60405180910390fd5b610909816109bf565b50565b610914610941565b61091e47826102ee565b50565b60026020528060005260406000206000915054906101000a900460ff1681565b610949610adb565b73ffffffffffffffffffffffffffffffffffffffff166109676106e6565b73ffffffffffffffffffffffffffffffffffffffff16146109bd576040517f08c379a00000000000000000000000000000000000000000000000000000000081526004016109b49061109f565b60405180910390fd5b565b60008060009054906101000a900473ffffffffffffffffffffffffffffffffffffffff169050816000806101000a81548173ffffffffffffffffffffffffffffffffffffffff021916908373ffffffffffffffffffffffffffffffffffffffff1602179055508173ffffffffffffffffffffffffffffffffffffffff168173ffffffffffffffffffffffffffffffffffffffff167f8be0079c531659141344cd1fd0a4f28419497f9722a3daafe3b4186f6b6457e060405160405180910390a35050565b600260015403610ac8576040517f08c379a0000000000000000000000000000000000000000000000000000000008152600401610abf9061110b565b60405180910390fd5b6002600181905550565b60018081905550565b600033905090565b600080fd5b6000819050919050565b610afb81610ae8565b8114610b0657600080fd5b50565b600081359050610b1881610af2565b92915050565b600073ffffffffffffffffffffffffffffffffffffffff82169050919050565b6000610b4982610b1e565b9050919050565b610b5981610b3e565b8114610b6457600080fd5b50565b600081359050610b7681610b50565b92915050565b60008060408385031215610b9357610b92610ae3565b5b6000610ba185828601610b09565b9250506020610bb285828601610b67565b9150509250929050565b610bc581610ae8565b82525050565b6000602082019050610be06000830184610bbc565b92915050565b600060208284031215610bfc57610bfb610ae3565b5b6000610c0a84828501610b09565b91505092915050565b610c1c81610b3e565b82525050565b6000602082019050610c376000830184610c13565b92915050565b600060208284031215610c5357610c52610ae3565b5b6000610c6184828501610b67565b91505092915050565b60008115159050919050565b610c7f81610c6a565b82525050565b6000602082019050610c9a6000830184610c76565b92915050565b600082825260208201905092915050565b7f496e73756666696369656e7420636f6e74726163742062616c616e6365000000600082015250565b6000610ce7601d83610ca0565b9150610cf282610cb1565b602082019050919050565b60006020820190508181036000830152610d1681610cda565b9050919050565b7f5265636569766572277320616464726573732063616e6e6f74206265207a657260008201527f6f00000000000000000000000000000000000000000000000000000000000000602082015250565b6000610d79602183610ca0565b9150610d8482610d1d565b604082019050919050565b60006020820190508181036000830152610da881610d6c565b9050919050565b6000604082019050610dc46000830185610bbc565b610dd16020830184610c13565b9392505050565b600081905092915050565b50565b6000610df3600083610dd8565b9150610dfe82610de3565b600082019050919050565b6000610e1482610de6565b9150819050919050565b7f4661696c656420746f2073656e64204574686572000000000000000000000000600082015250565b6000610e54601483610ca0565b9150610e5f82610e1e565b602082019050919050565b60006020820190508181036000830152610e8381610e47565b9050919050565b7f436f6e7472616374206973206e6f7420617574686f72697a656420666f72206160008201527f20726566756e6400000000000000000000000000000000000000000000000000602082015250565b6000610ee6602783610ca0565b9150610ef182610e8a565b604082019050919050565b60006020820190508181036000830152610f1581610ed9565b9050919050565b7f4e487b7100000000000000000000000000000000000000000000000000000000600052601160045260246000fd5b6000610f5682610ae8565b9150610f6183610ae8565b9250828201905080821115610f7957610f78610f1c565b5b92915050565b6000610f8a82610ae8565b9150610f9583610ae8565b9250828202610fa381610ae8565b91508282048414831517610fba57610fb9610f1c565b5b5092915050565b7f4f776e61626c653a206e6577206f776e657220697320746865207a65726f206160008201527f6464726573730000000000000000000000000000000000000000000000000000602082015250565b600061101d602683610ca0565b915061102882610fc1565b604082019050919050565b6000602082019050818103600083015261104c81611010565b9050919050565b7f4f776e61626c653a2063616c6c6572206973206e6f7420746865206f776e6572600082015250565b6000611089602083610ca0565b915061109482611053565b602082019050919050565b600060208201905081810360008301526110b88161107c565b9050919050565b7f5265656e7472616e637947756172643a207265656e7472616e742063616c6c00600082015250565b60006110f5601f83610ca0565b9150611100826110bf565b602082019050919050565b60006020820190508181036000830152611124816110e8565b905091905056fea26469706673582212202c075939adfee7c3a9f4b39a080b848b02dcf6ed6706dcd6ac65d9e21467ebe464736f6c63430008110033",
  "linkReferences": {},
  "deployedLinkReferences": {}
}