{
  "_format": "hh-sol-artifact-1",
  "contractName": "L1BitcoinDepositor",
  "sourceName": "contracts/l1/L1BitcoinDepositor.sol",
  "abi": [
    {
      "inputs": [],
      "stateMutability": "nonpayable",
      "type": "constructor"
    },
    {
      "anonymous": false,
      "inputs": [
        {
          "indexed": true,
          "internalType": "uint256",
          "name": "depositKey",
          "type": "uint256"
        },
        {
          "indexed": true,
          "internalType": "address",
          "name": "l2DepositOwner",
          "type": "address"
        },
        {
          "indexed": true,
          "internalType": "address",
          "name": "l1Sender",
          "type": "address"
        },
        {
          "indexed": false,
          "internalType": "uint256",
          "name": "initialAmount",
          "type": "uint256"
        },
        {
          "indexed": false,
          "internalType": "uint256",
          "name": "tbtcAmount",
          "type": "uint256"
        }
      ],
      "name": "DepositFinalized",
      "type": "event"
    },
    {
      "anonymous": false,
      "inputs": [
        {
          "indexed": true,
          "internalType": "uint256",
          "name": "depositKey",
          "type": "uint256"
        },
        {
          "indexed": true,
          "internalType": "address",
          "name": "l2DepositOwner",
          "type": "address"
        },
        {
          "indexed": true,
          "internalType": "address",
          "name": "l1Sender",
          "type": "address"
        }
      ],
      "name": "DepositInitialized",
      "type": "event"
    },
    {
      "anonymous": false,
      "inputs": [
        {
          "indexed": false,
          "internalType": "uint256",
          "name": "initializeDepositGasOffset",
          "type": "uint256"
        },
        {
          "indexed": false,
          "internalType": "uint256",
          "name": "finalizeDepositGasOffset",
          "type": "uint256"
        }
      ],
      "name": "GasOffsetParametersUpdated",
      "type": "event"
    },
    {
      "anonymous": false,
      "inputs": [
        {
          "indexed": false,
          "internalType": "uint8",
          "name": "version",
          "type": "uint8"
        }
      ],
      "name": "Initialized",
      "type": "event"
    },
    {
      "anonymous": false,
      "inputs": [
        {
          "indexed": false,
          "internalType": "uint256",
          "name": "l2FinalizeDepositGasLimit",
          "type": "uint256"
        }
      ],
      "name": "L2FinalizeDepositGasLimitUpdated",
      "type": "event"
    },
    {
      "anonymous": false,
      "inputs": [
        {
          "indexed": true,
          "internalType": "address",
          "name": "previousOwner",
          "type": "address"
        },
        {
          "indexed": true,
          "internalType": "address",
          "name": "newOwner",
          "type": "address"
        }
      ],
      "name": "OwnershipTransferred",
      "type": "event"
    },
    {
      "anonymous": false,
      "inputs": [
        {
          "indexed": true,
          "internalType": "address",
          "name": "_address",
          "type": "address"
        },
        {
          "indexed": false,
          "internalType": "bool",
          "name": "authorization",
          "type": "bool"
        }
      ],
      "name": "ReimbursementAuthorizationUpdated",
      "type": "event"
    },
    {
      "anonymous": false,
      "inputs": [
        {
          "indexed": false,
          "internalType": "address",
          "name": "newReimbursementPool",
          "type": "address"
        }
      ],
      "name": "ReimbursementPoolUpdated",
      "type": "event"
    },
    {
      "inputs": [],
      "name": "SATOSHI_MULTIPLIER",
      "outputs": [
        {
          "internalType": "uint256",
          "name": "",
          "type": "uint256"
        }
      ],
      "stateMutability": "view",
      "type": "function"
    },
    {
      "inputs": [
        {
          "internalType": "address",
          "name": "_l2BitcoinDepositor",
          "type": "address"
        }
      ],
      "name": "attachL2BitcoinDepositor",
      "outputs": [],
      "stateMutability": "nonpayable",
      "type": "function"
    },
    {
      "inputs": [],
      "name": "bridge",
      "outputs": [
        {
          "internalType": "contract IBridge",
          "name": "",
          "type": "address"
        }
      ],
      "stateMutability": "view",
      "type": "function"
    },
    {
      "inputs": [
        {
          "internalType": "uint256",
          "name": "",
          "type": "uint256"
        }
      ],
      "name": "deposits",
      "outputs": [
        {
          "internalType": "enum L1BitcoinDepositor.DepositState",
          "name": "",
          "type": "uint8"
        }
      ],
      "stateMutability": "view",
      "type": "function"
    },
    {
      "inputs": [
        {
          "internalType": "uint256",
          "name": "depositKey",
          "type": "uint256"
        }
      ],
      "name": "finalizeDeposit",
      "outputs": [],
      "stateMutability": "payable",
      "type": "function"
    },
    {
      "inputs": [],
      "name": "finalizeDepositGasOffset",
      "outputs": [
        {
          "internalType": "uint256",
          "name": "",
          "type": "uint256"
        }
      ],
      "stateMutability": "view",
      "type": "function"
    },
    {
      "inputs": [
        {
          "internalType": "uint256",
          "name": "",
          "type": "uint256"
        }
      ],
      "name": "gasReimbursements",
      "outputs": [
        {
          "internalType": "address",
          "name": "receiver",
          "type": "address"
        },
        {
          "internalType": "uint96",
          "name": "gasSpent",
          "type": "uint96"
        }
      ],
      "stateMutability": "view",
      "type": "function"
    },
    {
      "inputs": [
        {
          "internalType": "address",
          "name": "_tbtcBridge",
          "type": "address"
        },
        {
          "internalType": "address",
          "name": "_tbtcVault",
          "type": "address"
        },
        {
          "internalType": "address",
          "name": "_wormhole",
          "type": "address"
        },
        {
          "internalType": "address",
          "name": "_wormholeRelayer",
          "type": "address"
        },
        {
          "internalType": "address",
          "name": "_wormholeTokenBridge",
          "type": "address"
        },
        {
          "internalType": "address",
          "name": "_l2WormholeGateway",
          "type": "address"
        },
        {
          "internalType": "uint16",
          "name": "_l2ChainId",
          "type": "uint16"
        }
      ],
      "name": "initialize",
      "outputs": [],
      "stateMutability": "nonpayable",
      "type": "function"
    },
    {
      "inputs": [
        {
          "components": [
            {
              "internalType": "bytes4",
              "name": "version",
              "type": "bytes4"
            },
            {
              "internalType": "bytes",
              "name": "inputVector",
              "type": "bytes"
            },
            {
              "internalType": "bytes",
              "name": "outputVector",
              "type": "bytes"
            },
            {
              "internalType": "bytes4",
              "name": "locktime",
              "type": "bytes4"
            }
          ],
          "internalType": "struct IBridgeTypes.BitcoinTxInfo",
          "name": "fundingTx",
          "type": "tuple"
        },
        {
          "components": [
            {
              "internalType": "uint32",
              "name": "fundingOutputIndex",
              "type": "uint32"
            },
            {
              "internalType": "bytes8",
              "name": "blindingFactor",
              "type": "bytes8"
            },
            {
              "internalType": "bytes20",
              "name": "walletPubKeyHash",
              "type": "bytes20"
            },
            {
              "internalType": "bytes20",
              "name": "refundPubKeyHash",
              "type": "bytes20"
            },
            {
              "internalType": "bytes4",
              "name": "refundLocktime",
              "type": "bytes4"
            },
            {
              "internalType": "address",
              "name": "vault",
              "type": "address"
            }
          ],
          "internalType": "struct IBridgeTypes.DepositRevealInfo",
          "name": "reveal",
          "type": "tuple"
        },
        {
          "internalType": "address",
          "name": "l2DepositOwner",
          "type": "address"
        }
      ],
      "name": "initializeDeposit",
      "outputs": [],
      "stateMutability": "nonpayable",
      "type": "function"
    },
    {
      "inputs": [],
      "name": "initializeDepositGasOffset",
      "outputs": [
        {
          "internalType": "uint256",
          "name": "",
          "type": "uint256"
        }
      ],
      "stateMutability": "view",
      "type": "function"
    },
    {
      "inputs": [],
      "name": "l2BitcoinDepositor",
      "outputs": [
        {
          "internalType": "address",
          "name": "",
          "type": "address"
        }
      ],
      "stateMutability": "view",
      "type": "function"
    },
    {
      "inputs": [],
      "name": "l2ChainId",
      "outputs": [
        {
          "internalType": "uint16",
          "name": "",
          "type": "uint16"
        }
      ],
      "stateMutability": "view",
      "type": "function"
    },
    {
      "inputs": [],
      "name": "l2FinalizeDepositGasLimit",
      "outputs": [
        {
          "internalType": "uint256",
          "name": "",
          "type": "uint256"
        }
      ],
      "stateMutability": "view",
      "type": "function"
    },
    {
      "inputs": [],
      "name": "l2WormholeGateway",
      "outputs": [
        {
          "internalType": "address",
          "name": "",
          "type": "address"
        }
      ],
      "stateMutability": "view",
      "type": "function"
    },
    {
      "inputs": [],
      "name": "owner",
      "outputs": [
        {
          "internalType": "address",
          "name": "",
          "type": "address"
        }
      ],
      "stateMutability": "view",
      "type": "function"
    },
    {
      "inputs": [],
      "name": "quoteFinalizeDeposit",
      "outputs": [
        {
          "internalType": "uint256",
          "name": "cost",
          "type": "uint256"
        }
      ],
      "stateMutability": "view",
      "type": "function"
    },
    {
      "inputs": [
        {
          "internalType": "address",
          "name": "",
          "type": "address"
        }
      ],
      "name": "reimbursementAuthorizations",
      "outputs": [
        {
          "internalType": "bool",
          "name": "",
          "type": "bool"
        }
      ],
      "stateMutability": "view",
      "type": "function"
    },
    {
      "inputs": [],
      "name": "reimbursementPool",
      "outputs": [
        {
          "internalType": "contract ReimbursementPool",
          "name": "",
          "type": "address"
        }
      ],
      "stateMutability": "view",
      "type": "function"
    },
    {
      "inputs": [],
      "name": "renounceOwnership",
      "outputs": [],
      "stateMutability": "nonpayable",
      "type": "function"
    },
    {
      "inputs": [],
      "name": "tbtcToken",
      "outputs": [
        {
          "internalType": "contract IERC20Upgradeable",
          "name": "",
          "type": "address"
        }
      ],
      "stateMutability": "view",
      "type": "function"
    },
    {
      "inputs": [],
      "name": "tbtcVault",
      "outputs": [
        {
          "internalType": "contract ITBTCVault",
          "name": "",
          "type": "address"
        }
      ],
      "stateMutability": "view",
      "type": "function"
    },
    {
      "inputs": [
        {
          "internalType": "address",
          "name": "newOwner",
          "type": "address"
        }
      ],
      "name": "transferOwnership",
      "outputs": [],
      "stateMutability": "nonpayable",
      "type": "function"
    },
    {
      "inputs": [
        {
          "internalType": "uint256",
          "name": "_initializeDepositGasOffset",
          "type": "uint256"
        },
        {
          "internalType": "uint256",
          "name": "_finalizeDepositGasOffset",
          "type": "uint256"
        }
      ],
      "name": "updateGasOffsetParameters",
      "outputs": [],
      "stateMutability": "nonpayable",
      "type": "function"
    },
    {
      "inputs": [
        {
          "internalType": "uint256",
          "name": "_l2FinalizeDepositGasLimit",
          "type": "uint256"
        }
      ],
      "name": "updateL2FinalizeDepositGasLimit",
      "outputs": [],
      "stateMutability": "nonpayable",
      "type": "function"
    },
    {
      "inputs": [
        {
          "internalType": "address",
          "name": "_address",
          "type": "address"
        },
        {
          "internalType": "bool",
          "name": "authorization",
          "type": "bool"
        }
      ],
      "name": "updateReimbursementAuthorization",
      "outputs": [],
      "stateMutability": "nonpayable",
      "type": "function"
    },
    {
      "inputs": [
        {
          "internalType": "contract ReimbursementPool",
          "name": "_reimbursementPool",
          "type": "address"
        }
      ],
      "name": "updateReimbursementPool",
      "outputs": [],
      "stateMutability": "nonpayable",
      "type": "function"
    },
    {
      "inputs": [],
      "name": "wormhole",
      "outputs": [
        {
          "internalType": "contract IWormhole",
          "name": "",
          "type": "address"
        }
      ],
      "stateMutability": "view",
      "type": "function"
    },
    {
      "inputs": [],
      "name": "wormholeRelayer",
      "outputs": [
        {
          "internalType": "contract IWormholeRelayer",
          "name": "",
          "type": "address"
        }
      ],
      "stateMutability": "view",
      "type": "function"
    },
    {
      "inputs": [],
      "name": "wormholeTokenBridge",
      "outputs": [
        {
          "internalType": "contract IWormholeTokenBridge",
          "name": "",
          "type": "address"
        }
      ],
      "stateMutability": "view",
      "type": "function"
    }
  ],
  "bytecode": "0x60806040523480156200001157600080fd5b50620000226200002860201b60201c565b620001d2565b600060019054906101000a900460ff16156200007b576040517f08c379a0000000000000000000000000000000000000000000000000000000008152600401620000729062000175565b60405180910390fd5b60ff801660008054906101000a900460ff1660ff1614620000ec5760ff6000806101000a81548160ff021916908360ff1602179055507f7f26b83ff96e1f2b6a682f133852f6798a09c465da95921460cefb384740249860ff604051620000e39190620001b5565b60405180910390a15b565b600082825260208201905092915050565b7f496e697469616c697a61626c653a20636f6e747261637420697320696e69746960008201527f616c697a696e6700000000000000000000000000000000000000000000000000602082015250565b60006200015d602783620000ee565b91506200016a82620000ff565b604082019050919050565b6000602082019050818103600083015262000190816200014e565b9050919050565b600060ff82169050919050565b620001af8162000197565b82525050565b6000602082019050620001cc6000830184620001a4565b92915050565b6156b180620001e26000396000f3fe6080604052600436106101c25760003560e01c80637c9e9ffb116100f7578063c7ba034711610095578063e5d3d71411610064578063e5d3d71414610600578063e78cea921461062b578063f11df69d14610656578063f2fde38b14610681576101c2565b8063c7ba034714610554578063c81ef1681461057f578063d6ae3cd5146105aa578063da25b725146105d5576101c2565b80639e0e4e2f116100d15780639e0e4e2f14610498578063aa82e33b146104c1578063b02c43d0146104ec578063c09975cd14610529576101c2565b80637c9e9ffb1461040457806384acd1bb146104425780638da5cb5b1461046d576101c2565b806360ec23dd11610164578063715018a61161013e578063715018a614610370578063715468311461038757806371c654ee146103b25780637b35b4e6146103db576101c2565b806360ec23dd146102e1578063642dc0331461030a57806366b58a0114610333576101c2565b80631159bef0116101a05780631159bef01461024657806313b38cce1461026f57806327ce36c61461029a57806346d9d49a146102c5576101c2565b80630515f0c1146101c75780630f36403a146101f05780630fa1ba441461021b575b600080fd5b3480156101d357600080fd5b506101ee60048036038101906101e99190613218565b6106aa565b005b3480156101fc57600080fd5b506102056107f6565b60405161021291906132a4565b60405180910390f35b34801561022757600080fd5b5061023061081c565b60405161023d91906132d8565b60405180910390f35b34801561025257600080fd5b5061026d6004803603810190610268919061331f565b610822565b005b34801561027b57600080fd5b5061028461086b565b60405161029191906132d8565b60405180910390f35b3480156102a657600080fd5b506102af61090b565b6040516102bc91906132d8565b60405180910390f35b6102df60048036038101906102da919061331f565b610911565b005b3480156102ed57600080fd5b5061030860048036038101906103039190613384565b610dbb565b005b34801561031657600080fd5b50610331600480360381019061032c9190613407565b610e6c565b005b34801561033f57600080fd5b5061035a60048036038101906103559190613218565b6111f5565b6040516103679190613486565b60405180910390f35b34801561037c57600080fd5b50610385611215565b005b34801561039357600080fd5b5061039c611229565b6040516103a991906132d8565b60405180910390f35b3480156103be57600080fd5b506103d960048036038101906103d491906134db565b61122f565b005b3480156103e757600080fd5b5061040260048036038101906103fd91906135cd565b611726565b005b34801561041057600080fd5b5061042b6004803603810190610426919061331f565b611816565b604051610439929190613630565b60405180910390f35b34801561044e57600080fd5b50610457611872565b604051610464919061367a565b60405180910390f35b34801561047957600080fd5b50610482611898565b60405161048f9190613695565b60405180910390f35b3480156104a457600080fd5b506104bf60048036038101906104ba91906136b0565b6118c2565b005b3480156104cd57600080fd5b506104d6611915565b6040516104e39190613695565b60405180910390f35b3480156104f857600080fd5b50610513600480360381019061050e919061331f565b61193b565b6040516105209190613767565b60405180910390f35b34801561053557600080fd5b5061053e61195b565b60405161054b91906137b5565b60405180910390f35b34801561056057600080fd5b50610569611981565b60405161057691906132d8565b60405180910390f35b34801561058b57600080fd5b5061059461198a565b6040516105a19190613695565b60405180910390f35b3480156105b657600080fd5b506105bf6119b0565b6040516105cc91906137df565b60405180910390f35b3480156105e157600080fd5b506105ea6119c4565b6040516105f7919061381b565b60405180910390f35b34801561060c57600080fd5b506106156119ea565b6040516106229190613857565b60405180910390f35b34801561063757600080fd5b50610640611a10565b60405161064d9190613893565b60405180910390f35b34801561066257600080fd5b5061066b611a36565b60405161067891906138cf565b60405180910390f35b34801561068d57600080fd5b506106a860048036038101906106a39190613218565b611a5c565b005b6106b2611adf565b600073ffffffffffffffffffffffffffffffffffffffff1660cd60009054906101000a900473ffffffffffffffffffffffffffffffffffffffff1673ffffffffffffffffffffffffffffffffffffffff1614610743576040517f08c379a000000000000000000000000000000000000000000000000000000000815260040161073a90613947565b60405180910390fd5b600073ffffffffffffffffffffffffffffffffffffffff168173ffffffffffffffffffffffffffffffffffffffff16036107b2576040517f08c379a00000000000000000000000000000000000000000000000000000000081526004016107a9906139d9565b60405180910390fd5b8060cd60006101000a81548173ffffffffffffffffffffffffffffffffffffffff021916908373ffffffffffffffffffffffffffffffffffffffff16021790555050565b600160009054906101000a900473ffffffffffffffffffffffffffffffffffffffff1681565b60d15481565b61082a611adf565b8060ce819055507f6ed5a3ddedc64e149e68b8bbc09d35489452528ae70487ee4f8832837c5c01058160405161086091906132d8565b60405180910390a150565b600061090660c960009054906101000a900473ffffffffffffffffffffffffffffffffffffffff1673ffffffffffffffffffffffffffffffffffffffff16631a90a2196040518163ffffffff1660e01b8152600401602060405180830381865afa1580156108dd573d6000803e3d6000fd5b505050506040513d601f19601f820116820180604052508101906109019190613a0e565b611b5d565b905090565b60d05481565b60005a90506001600281111561092a576109296136f0565b5b60c7600084815260200190815260200160002060009054906101000a900460ff16600281111561095d5761095c6136f0565b5b1461099d576040517f08c379a000000000000000000000000000000000000000000000000000000000815260040161099490613a87565b60405180910390fd5b600260c7600084815260200190815260200160002060006101000a81548160ff021916908360028111156109d4576109d36136f0565b5b021790555060008060006109e785611c29565b9250925092503373ffffffffffffffffffffffffffffffffffffffff16610a0d82611e65565b73ffffffffffffffffffffffffffffffffffffffff16867f94d36bc0d9bf5adbd2dec8bd125b7bf12eecc6e5539fc8f2bd57a831d9995af78686604051610a55929190613aa7565b60405180910390a4610a678282611e72565b600073ffffffffffffffffffffffffffffffffffffffff16609560009054906101000a900473ffffffffffffffffffffffffffffffffffffffff1673ffffffffffffffffffffffffffffffffffffffff1614610db457600060cf60008781526020019081526020016000206040518060400160405290816000820160009054906101000a900473ffffffffffffffffffffffffffffffffffffffff1673ffffffffffffffffffffffffffffffffffffffff1673ffffffffffffffffffffffffffffffffffffffff1681526020016000820160149054906101000a90046bffffffffffffffffffffffff166bffffffffffffffffffffffff166bffffffffffffffffffffffff16815250509050600073ffffffffffffffffffffffffffffffffffffffff16816000015173ffffffffffffffffffffffffffffffffffffffff1614610c9f5760cf6000878152602001908152602001600020600080820160006101000a81549073ffffffffffffffffffffffffffffffffffffffff02191690556000820160146101000a8154906bffffffffffffffffffffffff02191690555050609560009054906101000a900473ffffffffffffffffffffffffffffffffffffffff1673ffffffffffffffffffffffffffffffffffffffff16637ad226dc826020015183600001516040518363ffffffff1660e01b8152600401610c6c929190613b01565b600060405180830381600087803b158015610c8657600080fd5b505af1158015610c9a573d6000803e3d6000fd5b505050505b60d260003373ffffffffffffffffffffffffffffffffffffffff1673ffffffffffffffffffffffffffffffffffffffff16815260200190815260200160002060009054906101000a900460ff1615610db2576000610cfc346123ac565b9050609560009054906101000a900473ffffffffffffffffffffffffffffffffffffffff1673ffffffffffffffffffffffffffffffffffffffff16637ad226dc60d154835a8a610d4c9190613b59565b610d569190613b8d565b610d609190613b8d565b336040518363ffffffff1660e01b8152600401610d7e929190613bc1565b600060405180830381600087803b158015610d9857600080fd5b505af1158015610dac573d6000803e3d6000fd5b50505050505b505b5050505050565b610dc3611adf565b8173ffffffffffffffffffffffffffffffffffffffff167f1fff4aae494aaedff71ff8b04de50a56543bb83ce05b033c3fb4a93e065c05fc82604051610e099190613486565b60405180910390a28060d260008473ffffffffffffffffffffffffffffffffffffffff1673ffffffffffffffffffffffffffffffffffffffff16815260200190815260200160002060006101000a81548160ff0219169083151502179055505050565b60005a9050600073ffffffffffffffffffffffffffffffffffffffff168273ffffffffffffffffffffffffffffffffffffffff1603610ee0576040517f08c379a0000000000000000000000000000000000000000000000000000000008152600401610ed790613c36565b60405180910390fd5b6000610eeb8361253b565b90506000610f1386610efc90613eae565b86803603810190610f0d919061404d565b8461255e565b50905060006002811115610f2a57610f296136f0565b5b60c7600083815260200190815260200160002060009054906101000a900460ff166002811115610f5d57610f5c6136f0565b5b14610f9d576040517f08c379a0000000000000000000000000000000000000000000000000000000008152600401610f9490613a87565b60405180910390fd5b600160c7600083815260200190815260200160002060006101000a81548160ff02191690836002811115610fd457610fd36136f0565b5b02179055503373ffffffffffffffffffffffffffffffffffffffff168473ffffffffffffffffffffffffffffffffffffffff16827f04870363995d5b750bccca9d95e57044d630524aec2ef09ebdb820ac11d866b460405160405180910390a4600073ffffffffffffffffffffffffffffffffffffffff16609560009054906101000a900473ffffffffffffffffffffffffffffffffffffffff1673ffffffffffffffffffffffffffffffffffffffff16141580156110dc575060d260003373ffffffffffffffffffffffffffffffffffffffff1673ffffffffffffffffffffffffffffffffffffffff16815260200190815260200160002060009054906101000a900460ff165b156111ec57600060d0545a856110f29190613b59565b6110fc9190613b8d565b90506bffffffffffffffffffffffff801681111561111d57505050506111f0565b60405180604001604052803373ffffffffffffffffffffffffffffffffffffffff168152602001826bffffffffffffffffffffffff1681525060cf600084815260200190815260200160002060008201518160000160006101000a81548173ffffffffffffffffffffffffffffffffffffffff021916908373ffffffffffffffffffffffffffffffffffffffff16021790555060208201518160000160146101000a8154816bffffffffffffffffffffffff02191690836bffffffffffffffffffffffff160217905550905050505b5050505b505050565b60d26020528060005260406000206000915054906101000a900460ff1681565b61121d611adf565b6112276000612762565b565b60ce5481565b60008060019054906101000a900460ff161590508080156112605750600160008054906101000a900460ff1660ff16105b8061128d575061126f30612828565b15801561128c5750600160008054906101000a900460ff1660ff16145b5b6112cc576040517f08c379a00000000000000000000000000000000000000000000000000000000081526004016112c3906140ec565b60405180910390fd5b60016000806101000a81548160ff021916908360ff1602179055508015611309576001600060016101000a81548160ff0219169083151502179055505b611313888861284b565b61131b612a9a565b600073ffffffffffffffffffffffffffffffffffffffff168673ffffffffffffffffffffffffffffffffffffffff160361138a576040517f08c379a000000000000000000000000000000000000000000000000000000000815260040161138190614158565b60405180910390fd5b600073ffffffffffffffffffffffffffffffffffffffff168573ffffffffffffffffffffffffffffffffffffffff16036113f9576040517f08c379a00000000000000000000000000000000000000000000000000000000081526004016113f0906141ea565b60405180910390fd5b600073ffffffffffffffffffffffffffffffffffffffff168473ffffffffffffffffffffffffffffffffffffffff1603611468576040517f08c379a000000000000000000000000000000000000000000000000000000000815260040161145f9061427c565b60405180910390fd5b600073ffffffffffffffffffffffffffffffffffffffff168373ffffffffffffffffffffffffffffffffffffffff16036114d7576040517f08c379a00000000000000000000000000000000000000000000000000000000081526004016114ce9061430e565b60405180910390fd5b8673ffffffffffffffffffffffffffffffffffffffff1663e5d3d7146040518163ffffffff1660e01b8152600401602060405180830381865afa158015611522573d6000803e3d6000fd5b505050506040513d601f19601f820116820180604052508101906115469190614343565b60c860006101000a81548173ffffffffffffffffffffffffffffffffffffffff021916908373ffffffffffffffffffffffffffffffffffffffff1602179055508560c960006101000a81548173ffffffffffffffffffffffffffffffffffffffff021916908373ffffffffffffffffffffffffffffffffffffffff1602179055508460ca60006101000a81548173ffffffffffffffffffffffffffffffffffffffff021916908373ffffffffffffffffffffffffffffffffffffffff1602179055508360cb60006101000a81548173ffffffffffffffffffffffffffffffffffffffff021916908373ffffffffffffffffffffffffffffffffffffffff1602179055508260cc60006101000a81548173ffffffffffffffffffffffffffffffffffffffff021916908373ffffffffffffffffffffffffffffffffffffffff1602179055508160cc60146101000a81548161ffff021916908361ffff1602179055506207a12060ce8190555061ea6060d081905550614e2060d181905550801561171c5760008060016101000a81548160ff0219169083151502179055507f7f26b83ff96e1f2b6a682f133852f6798a09c465da95921460cefb3847402498600160405161171391906143b8565b60405180910390a15b5050505050505050565b61172e611898565b73ffffffffffffffffffffffffffffffffffffffff163373ffffffffffffffffffffffffffffffffffffffff161461179b576040517f08c379a00000000000000000000000000000000000000000000000000000000081526004016117929061441f565b60405180910390fd5b7f0e2d2343d31b085b7c4e56d1c8a6ec79f7ab07460386f1c9a1756239fe2533ac816040516117ca9190613695565b60405180910390a180609560006101000a81548173ffffffffffffffffffffffffffffffffffffffff021916908373ffffffffffffffffffffffffffffffffffffffff16021790555050565b60cf6020528060005260406000206000915090508060000160009054906101000a900473ffffffffffffffffffffffffffffffffffffffff16908060000160149054906101000a90046bffffffffffffffffffffffff16905082565b60c960009054906101000a900473ffffffffffffffffffffffffffffffffffffffff1681565b6000606360009054906101000a900473ffffffffffffffffffffffffffffffffffffffff16905090565b6118ca611adf565b8160d0819055508060d1819055507fb8df1fba472926f296225c210e366f62b21fec23b8e1b6b0a375724798ca9c0a8282604051611909929190613aa7565b60405180910390a15050565b60cc60009054906101000a900473ffffffffffffffffffffffffffffffffffffffff1681565b60c76020528060005260406000206000915054906101000a900460ff1681565b609560009054906101000a900473ffffffffffffffffffffffffffffffffffffffff1681565b6402540be40081565b60cd60009054906101000a900473ffffffffffffffffffffffffffffffffffffffff1681565b60cc60149054906101000a900461ffff1681565b60ca60009054906101000a900473ffffffffffffffffffffffffffffffffffffffff1681565b60c860009054906101000a900473ffffffffffffffffffffffffffffffffffffffff1681565b600060029054906101000a900473ffffffffffffffffffffffffffffffffffffffff1681565b60cb60009054906101000a900473ffffffffffffffffffffffffffffffffffffffff1681565b611a64611adf565b600073ffffffffffffffffffffffffffffffffffffffff168173ffffffffffffffffffffffffffffffffffffffff1603611ad3576040517f08c379a0000000000000000000000000000000000000000000000000000000008152600401611aca906144b1565b60405180910390fd5b611adc81612762565b50565b611ae7612af3565b73ffffffffffffffffffffffffffffffffffffffff16611b05611898565b73ffffffffffffffffffffffffffffffffffffffff1614611b5b576040517f08c379a0000000000000000000000000000000000000000000000000000000008152600401611b529061451d565b60405180910390fd5b565b60008060ca60009054906101000a900473ffffffffffffffffffffffffffffffffffffffff1673ffffffffffffffffffffffffffffffffffffffff1663c23ee3c360cc60149054906101000a900461ffff16600060ce546040518463ffffffff1660e01b8152600401611bd293929190614578565b6040805180830381865afa158015611bee573d6000803e3d6000fd5b505050506040513d601f19601f82011682018060405250810190611c1291906145af565b5090508281611c219190613b8d565b915050919050565b600080600080600060029054906101000a900473ffffffffffffffffffffffffffffffffffffffff1673ffffffffffffffffffffffffffffffffffffffff1663b02c43d0866040518263ffffffff1660e01b8152600401611c8a91906132d8565b60e060405180830381865afa158015611ca7573d6000803e3d6000fd5b505050506040513d601f19601f82011682018060405250810190611ccb919061472e565b90506000816040015163ffffffff1603611d1a576040517f08c379a0000000000000000000000000000000000000000000000000000000008152600401611d11906147a7565b60405180910390fd5b6000600160009054906101000a900473ffffffffffffffffffffffffffffffffffffffff1673ffffffffffffffffffffffffffffffffffffffff16636c626aa4876040518263ffffffff1660e01b8152600401611d7791906132d8565b60408051808303816000875af1158015611d95573d6000803e3d6000fd5b505050506040513d601f19601f82011682018060405250810190611db991906147c7565b91505060008260a0015163ffffffff16141580611de1575060008167ffffffffffffffff1614155b611e20576040517f08c379a0000000000000000000000000000000000000000000000000000000008152600401611e1790614879565b60405180910390fd5b6402540be400826020015167ffffffffffffffff16611e3f9190614899565b9450611e5382602001518360800151612afb565b93508160c00151925050509193909250565b60008160001c9050919050565b611e7b82612cba565b915060008211611ec0576040517f08c379a0000000000000000000000000000000000000000000000000000000008152600401611eb790614927565b60405180910390fd5b600060c960009054906101000a900473ffffffffffffffffffffffffffffffffffffffff1673ffffffffffffffffffffffffffffffffffffffff16631a90a2196040518163ffffffff1660e01b8152600401602060405180830381865afa158015611f2f573d6000803e3d6000fd5b505050506040513d601f19601f82011682018060405250810190611f539190613a0e565b90506000611f6082611b5d565b9050803414611fa4576040517f08c379a0000000000000000000000000000000000000000000000000000000008152600401611f9b906149b9565b60405180910390fd5b61201360cb60009054906101000a900473ffffffffffffffffffffffffffffffffffffffff168560c860009054906101000a900473ffffffffffffffffffffffffffffffffffffffff1673ffffffffffffffffffffffffffffffffffffffff16612cea9092919063ffffffff16565b600060cb60009054906101000a900473ffffffffffffffffffffffffffffffffffffffff1673ffffffffffffffffffffffffffffffffffffffff1663c5a5ebda8460c860009054906101000a900473ffffffffffffffffffffffffffffffffffffffff168860cc60149054906101000a900461ffff166120b460cc60009054906101000a900473ffffffffffffffffffffffffffffffffffffffff1661253b565b60008b6040516020016120c791906149e8565b6040516020818303038152906040526040518863ffffffff1660e01b81526004016120f796959493929190614ab3565b60206040518083038185885af1158015612115573d6000803e3d6000fd5b50505050506040513d601f19601f8201168201806040525081019061213a9190614b1b565b90506000600167ffffffffffffffff81111561215957612158613c6c565b5b60405190808252806020026020018201604052801561219257816020015b61217f613174565b8152602001906001900390816121775790505b509050604051806060016040528060c960009054906101000a900473ffffffffffffffffffffffffffffffffffffffff1673ffffffffffffffffffffffffffffffffffffffff16639a8a05926040518163ffffffff1660e01b8152600401602060405180830381865afa15801561220d573d6000803e3d6000fd5b505050506040513d601f19601f820116820180604052508101906122319190614b5d565b61ffff16815260200161226560cb60009054906101000a900473ffffffffffffffffffffffffffffffffffffffff1661253b565b81526020018367ffffffffffffffff168152508160008151811061228c5761228b614b8a565b5b602002602001018190525060ca60009054906101000a900473ffffffffffffffffffffffffffffffffffffffff1673ffffffffffffffffffffffffffffffffffffffff166332b2fc0e85856122e19190613b59565b60cc60149054906101000a900461ffff1660cd60009054906101000a900473ffffffffffffffffffffffffffffffffffffffff1660405180602001604052806000815250600060ce548860cc60149054906101000a900461ffff16336040518a63ffffffff1660e01b8152600401612360989796959493929190614cd7565b60206040518083038185885af115801561237e573d6000803e3d6000fd5b50505050506040513d601f19601f820116820180604052508101906123a39190614b1b565b50505050505050565b600080609560009054906101000a900473ffffffffffffffffffffffffffffffffffffffff1673ffffffffffffffffffffffffffffffffffffffff16633de39c116040518163ffffffff1660e01b8152600401602060405180830381865afa15801561241c573d6000803e3d6000fd5b505050506040513d601f19601f820116820180604052508101906124409190613a0e565b90506000609560009054906101000a900473ffffffffffffffffffffffffffffffffffffffff1673ffffffffffffffffffffffffffffffffffffffff1663e25b53456040518163ffffffff1660e01b8152600401602060405180830381865afa1580156124b1573d6000803e3d6000fd5b505050506040513d601f19601f820116820180604052508101906124d59190613a0e565b90506000823a106124e657826124e8565b3a5b9050600081036124fe5760009350505050612536565b6000818661250c9190614d92565b905080831115612523576000945050505050612536565b828161252f9190613b59565b9450505050505b919050565b60008173ffffffffffffffffffffffffffffffffffffffff1660001b9050919050565b600080600160009054906101000a900473ffffffffffffffffffffffffffffffffffffffff1673ffffffffffffffffffffffffffffffffffffffff168460a0015173ffffffffffffffffffffffffffffffffffffffff16146125f5576040517f08c379a00000000000000000000000000000000000000000000000000000000081526004016125ec90614e0f565b60405180910390fd5b61260b61260186612dfc565b8560000151612e43565b9150600060029054906101000a900473ffffffffffffffffffffffffffffffffffffffff1673ffffffffffffffffffffffffffffffffffffffff166386f014398686866040518463ffffffff1660e01b815260040161266c93929190614fa9565b600060405180830381600087803b15801561268657600080fd5b505af115801561269a573d6000803e3d6000fd5b505050506402540be400600060029054906101000a900473ffffffffffffffffffffffffffffffffffffffff1673ffffffffffffffffffffffffffffffffffffffff1663b02c43d0846040518263ffffffff1660e01b81526004016126ff91906132d8565b60e060405180830381865afa15801561271c573d6000803e3d6000fd5b505050506040513d601f19601f82011682018060405250810190612740919061472e565b6020015167ffffffffffffffff166127589190614899565b9050935093915050565b6000606360009054906101000a900473ffffffffffffffffffffffffffffffffffffffff16905081606360006101000a81548173ffffffffffffffffffffffffffffffffffffffff021916908373ffffffffffffffffffffffffffffffffffffffff1602179055508173ffffffffffffffffffffffffffffffffffffffff168173ffffffffffffffffffffffffffffffffffffffff167f8be0079c531659141344cd1fd0a4f28419497f9722a3daafe3b4186f6b6457e060405160405180910390a35050565b6000808273ffffffffffffffffffffffffffffffffffffffff163b119050919050565b600073ffffffffffffffffffffffffffffffffffffffff16600060029054906101000a900473ffffffffffffffffffffffffffffffffffffffff1673ffffffffffffffffffffffffffffffffffffffff161480156128f75750600073ffffffffffffffffffffffffffffffffffffffff16600160009054906101000a900473ffffffffffffffffffffffffffffffffffffffff1673ffffffffffffffffffffffffffffffffffffffff16145b612936576040517f08c379a000000000000000000000000000000000000000000000000000000000815260040161292d9061505a565b60405180910390fd5b600073ffffffffffffffffffffffffffffffffffffffff168273ffffffffffffffffffffffffffffffffffffffff16036129a5576040517f08c379a000000000000000000000000000000000000000000000000000000000815260040161299c906150c6565b60405180910390fd5b600073ffffffffffffffffffffffffffffffffffffffff168173ffffffffffffffffffffffffffffffffffffffff1603612a14576040517f08c379a0000000000000000000000000000000000000000000000000000000008152600401612a0b90615132565b60405180910390fd5b81600060026101000a81548173ffffffffffffffffffffffffffffffffffffffff021916908373ffffffffffffffffffffffffffffffffffffffff16021790555080600160006101000a81548173ffffffffffffffffffffffffffffffffffffffff021916908373ffffffffffffffffffffffffffffffffffffffff1602179055505050565b600060019054906101000a900460ff16612ae9576040517f08c379a0000000000000000000000000000000000000000000000000000000008152600401612ae0906151c4565b60405180910390fd5b612af1612e79565b565b600033905090565b6000806402540be4008385612b1091906151e4565b67ffffffffffffffff16612b249190614899565b90506000600160009054906101000a900473ffffffffffffffffffffffffffffffffffffffff1673ffffffffffffffffffffffffffffffffffffffff166309b53f516040518163ffffffff1660e01b8152600401602060405180830381865afa158015612b95573d6000803e3d6000fd5b505050506040513d601f19601f82011682018060405250810190612bb99190615220565b63ffffffff1690506000808211612bd1576000612bde565b8183612bdd9190614d92565b5b905060008060029054906101000a900473ffffffffffffffffffffffffffffffffffffffff1673ffffffffffffffffffffffffffffffffffffffff1663c42b64d06040518163ffffffff1660e01b8152600401608060405180830381865afa158015612c4e573d6000803e3d6000fd5b505050506040513d601f19601f82011682018060405250810190612c72919061524d565b509250505060006402540be4008267ffffffffffffffff16612c949190614899565b9050808386612ca39190613b59565b612cad9190613b59565b9550505050505092915050565b60006402540be40082612ccd9190614d92565b91506402540be40082612ce09190614899565b9150819050919050565b60008373ffffffffffffffffffffffffffffffffffffffff1663dd62ed3e30856040518363ffffffff1660e01b8152600401612d279291906152b4565b602060405180830381865afa158015612d44573d6000803e3d6000fd5b505050506040513d601f19601f82011682018060405250810190612d689190613a0e565b9050612df68463095ea7b360e01b858585612d839190613b8d565b604051602401612d949291906152dd565b604051602081830303815290604052907bffffffffffffffffffffffffffffffffffffffffffffffffffffffff19166020820180517bffffffffffffffffffffffffffffffffffffffffffffffffffffffff8381831617835250505050612eda565b50505050565b6000612e3c8260000151836020015184604001518560600151604051602001612e289493929190615363565b604051602081830303815290604052612fa2565b9050919050565b60008282604051602001612e58929190615400565b6040516020818303038152906040528051906020012060001c905092915050565b600060019054906101000a900460ff16612ec8576040517f08c379a0000000000000000000000000000000000000000000000000000000008152600401612ebf906151c4565b60405180910390fd5b612ed8612ed3612af3565b612762565b565b6000612f3c826040518060400160405280602081526020017f5361666545524332303a206c6f772d6c6576656c2063616c6c206661696c65648152508573ffffffffffffffffffffffffffffffffffffffff16612fca9092919063ffffffff16565b9050600081511480612f5e575080806020019051810190612f5d9190615441565b5b612f9d576040517f08c379a0000000000000000000000000000000000000000000000000000000008152600401612f94906154e0565b60405180910390fd5b505050565b60006020600083516020850160025afa50602060006020600060025afa506000519050919050565b6060612fd98484600085612fe2565b90509392505050565b606082471015613027576040517f08c379a000000000000000000000000000000000000000000000000000000000815260040161301e90615572565b60405180910390fd5b6000808673ffffffffffffffffffffffffffffffffffffffff1685876040516130509190615592565b60006040518083038185875af1925050503d806000811461308d576040519150601f19603f3d011682016040523d82523d6000602084013e613092565b606091505b50915091506130a3878383876130af565b92505050949350505050565b60608315613111576000835103613109576130c985612828565b613108576040517f08c379a00000000000000000000000000000000000000000000000000000000081526004016130ff906155f5565b60405180910390fd5b5b82905061311c565b61311b8383613124565b5b949350505050565b6000825111156131375781518083602001fd5b806040517f08c379a000000000000000000000000000000000000000000000000000000000815260040161316b9190615659565b60405180910390fd5b6040518060600160405280600061ffff16815260200160008019168152602001600067ffffffffffffffff1681525090565b6000604051905090565b600080fd5b600080fd5b600073ffffffffffffffffffffffffffffffffffffffff82169050919050565b60006131e5826131ba565b9050919050565b6131f5816131da565b811461320057600080fd5b50565b600081359050613212816131ec565b92915050565b60006020828403121561322e5761322d6131b0565b5b600061323c84828501613203565b91505092915050565b6000819050919050565b600061326a613265613260846131ba565b613245565b6131ba565b9050919050565b600061327c8261324f565b9050919050565b600061328e82613271565b9050919050565b61329e81613283565b82525050565b60006020820190506132b96000830184613295565b92915050565b6000819050919050565b6132d2816132bf565b82525050565b60006020820190506132ed60008301846132c9565b92915050565b6132fc816132bf565b811461330757600080fd5b50565b600081359050613319816132f3565b92915050565b600060208284031215613335576133346131b0565b5b60006133438482850161330a565b91505092915050565b60008115159050919050565b6133618161334c565b811461336c57600080fd5b50565b60008135905061337e81613358565b92915050565b6000806040838503121561339b5761339a6131b0565b5b60006133a985828601613203565b92505060206133ba8582860161336f565b9150509250929050565b600080fd5b6000608082840312156133df576133de6133c4565b5b81905092915050565b600060c082840312156133fe576133fd6133c4565b5b81905092915050565b60008060006101008486031215613421576134206131b0565b5b600084013567ffffffffffffffff81111561343f5761343e6131b5565b5b61344b868287016133c9565b935050602061345c868287016133e8565b92505060e061346d86828701613203565b9150509250925092565b6134808161334c565b82525050565b600060208201905061349b6000830184613477565b92915050565b600061ffff82169050919050565b6134b8816134a1565b81146134c357600080fd5b50565b6000813590506134d5816134af565b92915050565b600080600080600080600060e0888a0312156134fa576134f96131b0565b5b60006135088a828b01613203565b97505060206135198a828b01613203565b965050604061352a8a828b01613203565b955050606061353b8a828b01613203565b945050608061354c8a828b01613203565b93505060a061355d8a828b01613203565b92505060c061356e8a828b016134c6565b91505092959891949750929550565b6000613588826131ba565b9050919050565b600061359a8261357d565b9050919050565b6135aa8161358f565b81146135b557600080fd5b50565b6000813590506135c7816135a1565b92915050565b6000602082840312156135e3576135e26131b0565b5b60006135f1848285016135b8565b91505092915050565b613603816131da565b82525050565b60006bffffffffffffffffffffffff82169050919050565b61362a81613609565b82525050565b600060408201905061364560008301856135fa565b6136526020830184613621565b9392505050565b600061366482613271565b9050919050565b61367481613659565b82525050565b600060208201905061368f600083018461366b565b92915050565b60006020820190506136aa60008301846135fa565b92915050565b600080604083850312156136c7576136c66131b0565b5b60006136d58582860161330a565b92505060206136e68582860161330a565b9150509250929050565b7f4e487b7100000000000000000000000000000000000000000000000000000000600052602160045260246000fd5b600381106137305761372f6136f0565b5b50565b60008190506137418261371f565b919050565b600061375182613733565b9050919050565b61376181613746565b82525050565b600060208201905061377c6000830184613758565b92915050565b600061378d8261324f565b9050919050565b600061379f82613782565b9050919050565b6137af81613794565b82525050565b60006020820190506137ca60008301846137a6565b92915050565b6137d9816134a1565b82525050565b60006020820190506137f460008301846137d0565b92915050565b600061380582613271565b9050919050565b613815816137fa565b82525050565b6000602082019050613830600083018461380c565b92915050565b600061384182613271565b9050919050565b61385181613836565b82525050565b600060208201905061386c6000830184613848565b92915050565b600061387d82613271565b9050919050565b61388d81613872565b82525050565b60006020820190506138a86000830184613884565b92915050565b60006138b982613271565b9050919050565b6138c9816138ae565b82525050565b60006020820190506138e460008301846138c0565b92915050565b600082825260208201905092915050565b7f4c3220426974636f696e204465706f7369746f7220616c726561647920736574600082015250565b60006139316020836138ea565b915061393c826138fb565b602082019050919050565b6000602082019050818103600083015261396081613924565b9050919050565b7f4c3220426974636f696e204465706f7369746f72206d757374206e6f7420626560008201527f2030783000000000000000000000000000000000000000000000000000000000602082015250565b60006139c36024836138ea565b91506139ce82613967565b604082019050919050565b600060208201905081810360008301526139f2816139b6565b9050919050565b600081519050613a08816132f3565b92915050565b600060208284031215613a2457613a236131b0565b5b6000613a32848285016139f9565b91505092915050565b7f57726f6e67206465706f73697420737461746500000000000000000000000000600082015250565b6000613a716013836138ea565b9150613a7c82613a3b565b602082019050919050565b60006020820190508181036000830152613aa081613a64565b9050919050565b6000604082019050613abc60008301856132c9565b613ac960208301846132c9565b9392505050565b6000613aeb613ae6613ae184613609565b613245565b6132bf565b9050919050565b613afb81613ad0565b82525050565b6000604082019050613b166000830185613af2565b613b2360208301846135fa565b9392505050565b7f4e487b7100000000000000000000000000000000000000000000000000000000600052601160045260246000fd5b6000613b64826132bf565b9150613b6f836132bf565b9250828203905081811115613b8757613b86613b2a565b5b92915050565b6000613b98826132bf565b9150613ba3836132bf565b9250828201905080821115613bbb57613bba613b2a565b5b92915050565b6000604082019050613bd660008301856132c9565b613be360208301846135fa565b9392505050565b7f4c32206465706f736974206f776e6572206d757374206e6f7420626520307830600082015250565b6000613c206020836138ea565b9150613c2b82613bea565b602082019050919050565b60006020820190508181036000830152613c4f81613c13565b9050919050565b600080fd5b6000601f19601f8301169050919050565b7f4e487b7100000000000000000000000000000000000000000000000000000000600052604160045260246000fd5b613ca482613c5b565b810181811067ffffffffffffffff82111715613cc357613cc2613c6c565b5b80604052505050565b6000613cd66131a6565b9050613ce28282613c9b565b919050565b600080fd5b60007fffffffff0000000000000000000000000000000000000000000000000000000082169050919050565b613d2181613cec565b8114613d2c57600080fd5b50565b600081359050613d3e81613d18565b92915050565b600080fd5b600080fd5b600067ffffffffffffffff821115613d6957613d68613c6c565b5b613d7282613c5b565b9050602081019050919050565b82818337600083830152505050565b6000613da1613d9c84613d4e565b613ccc565b905082815260208101848484011115613dbd57613dbc613d49565b5b613dc8848285613d7f565b509392505050565b600082601f830112613de557613de4613d44565b5b8135613df5848260208601613d8e565b91505092915050565b600060808284031215613e1457613e13613c56565b5b613e1e6080613ccc565b90506000613e2e84828501613d2f565b600083015250602082013567ffffffffffffffff811115613e5257613e51613ce7565b5b613e5e84828501613dd0565b602083015250604082013567ffffffffffffffff811115613e8257613e81613ce7565b5b613e8e84828501613dd0565b6040830152506060613ea284828501613d2f565b60608301525092915050565b6000613eba3683613dfe565b9050919050565b600063ffffffff82169050919050565b613eda81613ec1565b8114613ee557600080fd5b50565b600081359050613ef781613ed1565b92915050565b60007fffffffffffffffff00000000000000000000000000000000000000000000000082169050919050565b613f3281613efd565b8114613f3d57600080fd5b50565b600081359050613f4f81613f29565b92915050565b60007fffffffffffffffffffffffffffffffffffffffff00000000000000000000000082169050919050565b613f8a81613f55565b8114613f9557600080fd5b50565b600081359050613fa781613f81565b92915050565b600060c08284031215613fc357613fc2613c56565b5b613fcd60c0613ccc565b90506000613fdd84828501613ee8565b6000830152506020613ff184828501613f40565b602083015250604061400584828501613f98565b604083015250606061401984828501613f98565b606083015250608061402d84828501613d2f565b60808301525060a061404184828501613203565b60a08301525092915050565b600060c08284031215614063576140626131b0565b5b600061407184828501613fad565b91505092915050565b7f496e697469616c697a61626c653a20636f6e747261637420697320616c72656160008201527f647920696e697469616c697a6564000000000000000000000000000000000000602082015250565b60006140d6602e836138ea565b91506140e18261407a565b604082019050919050565b60006020820190508181036000830152614105816140c9565b9050919050565b7f576f726d686f6c6520616464726573732063616e6e6f74206265207a65726f00600082015250565b6000614142601f836138ea565b915061414d8261410c565b602082019050919050565b6000602082019050818103600083015261417181614135565b9050919050565b7f576f726d686f6c6552656c6179657220616464726573732063616e6e6f74206260008201527f65207a65726f0000000000000000000000000000000000000000000000000000602082015250565b60006141d46026836138ea565b91506141df82614178565b604082019050919050565b60006020820190508181036000830152614203816141c7565b9050919050565b7f576f726d686f6c65546f6b656e42726964676520616464726573732063616e6e60008201527f6f74206265207a65726f00000000000000000000000000000000000000000000602082015250565b6000614266602a836138ea565b91506142718261420a565b604082019050919050565b6000602082019050818103600083015261429581614259565b9050919050565b7f4c32576f726d686f6c654761746577617920616464726573732063616e6e6f7460008201527f206265207a65726f000000000000000000000000000000000000000000000000602082015250565b60006142f86028836138ea565b91506143038261429c565b604082019050919050565b60006020820190508181036000830152614327816142eb565b9050919050565b60008151905061433d816131ec565b92915050565b600060208284031215614359576143586131b0565b5b60006143678482850161432e565b91505092915050565b6000819050919050565b600060ff82169050919050565b60006143a261439d61439884614370565b613245565b61437a565b9050919050565b6143b281614387565b82525050565b60006020820190506143cd60008301846143a9565b92915050565b7f43616c6c6572206973206e6f7420746865206f776e6572000000000000000000600082015250565b60006144096017836138ea565b9150614414826143d3565b602082019050919050565b60006020820190508181036000830152614438816143fc565b9050919050565b7f4f776e61626c653a206e6577206f776e657220697320746865207a65726f206160008201527f6464726573730000000000000000000000000000000000000000000000000000602082015250565b600061449b6026836138ea565b91506144a68261443f565b604082019050919050565b600060208201905081810360008301526144ca8161448e565b9050919050565b7f4f776e61626c653a2063616c6c6572206973206e6f7420746865206f776e6572600082015250565b60006145076020836138ea565b9150614512826144d1565b602082019050919050565b60006020820190508181036000830152614536816144fa565b9050919050565b6000819050919050565b600061456261455d6145588461453d565b613245565b6132bf565b9050919050565b61457281614547565b82525050565b600060608201905061458d60008301866137d0565b61459a6020830185614569565b6145a760408301846132c9565b949350505050565b600080604083850312156145c6576145c56131b0565b5b60006145d4858286016139f9565b92505060206145e5858286016139f9565b9150509250929050565b600067ffffffffffffffff82169050919050565b61460c816145ef565b811461461757600080fd5b50565b60008151905061462981614603565b92915050565b60008151905061463e81613ed1565b92915050565b6000819050919050565b61465781614644565b811461466257600080fd5b50565b6000815190506146748161464e565b92915050565b600060e082840312156146905761468f613c56565b5b61469a60e0613ccc565b905060006146aa8482850161432e565b60008301525060206146be8482850161461a565b60208301525060406146d28482850161462f565b60408301525060606146e68482850161432e565b60608301525060806146fa8482850161461a565b60808301525060a061470e8482850161462f565b60a08301525060c061472284828501614665565b60c08301525092915050565b600060e08284031215614744576147436131b0565b5b60006147528482850161467a565b91505092915050565b7f4465706f736974206e6f7420696e697469616c697a6564000000000000000000600082015250565b60006147916017836138ea565b915061479c8261475b565b602082019050919050565b600060208201905081810360008301526147c081614784565b9050919050565b600080604083850312156147de576147dd6131b0565b5b60006147ec8582860161461a565b92505060206147fd8582860161461a565b9150509250929050565b7f4465706f736974206e6f742066696e616c697a6564206279207468652062726960008201527f6467650000000000000000000000000000000000000000000000000000000000602082015250565b60006148636023836138ea565b915061486e82614807565b604082019050919050565b6000602082019050818103600083015261489281614856565b9050919050565b60006148a4826132bf565b91506148af836132bf565b92508282026148bd816132bf565b915082820484148315176148d4576148d3613b2a565b5b5092915050565b7f416d6f756e7420746f6f206c6f7720746f206272696467650000000000000000600082015250565b60006149116018836138ea565b915061491c826148db565b602082019050919050565b6000602082019050818103600083015261494081614904565b9050919050565b7f5061796d656e7420666f7220576f726d686f6c652052656c617965722069732060008201527f746f6f206c6f7700000000000000000000000000000000000000000000000000602082015250565b60006149a36027836138ea565b91506149ae82614947565b604082019050919050565b600060208201905081810360008301526149d281614996565b9050919050565b6149e281614644565b82525050565b60006020820190506149fd60008301846149d9565b92915050565b6000614a1e614a19614a148461453d565b613245565b613ec1565b9050919050565b614a2e81614a03565b82525050565b600081519050919050565b600082825260208201905092915050565b60005b83811015614a6e578082015181840152602081019050614a53565b60008484015250505050565b6000614a8582614a34565b614a8f8185614a3f565b9350614a9f818560208601614a50565b614aa881613c5b565b840191505092915050565b600060c082019050614ac860008301896135fa565b614ad560208301886132c9565b614ae260408301876137d0565b614aef60608301866149d9565b614afc6080830185614a25565b81810360a0830152614b0e8184614a7a565b9050979650505050505050565b600060208284031215614b3157614b306131b0565b5b6000614b3f8482850161461a565b91505092915050565b600081519050614b57816134af565b92915050565b600060208284031215614b7357614b726131b0565b5b6000614b8184828501614b48565b91505092915050565b7f4e487b7100000000000000000000000000000000000000000000000000000000600052603260045260246000fd5b600081519050919050565b600082825260208201905092915050565b6000819050602082019050919050565b614bee816134a1565b82525050565b614bfd81614644565b82525050565b614c0c816145ef565b82525050565b606082016000820151614c286000850182614be5565b506020820151614c3b6020850182614bf4565b506040820151614c4e6040850182614c03565b50505050565b6000614c608383614c12565b60608301905092915050565b6000602082019050919050565b6000614c8482614bb9565b614c8e8185614bc4565b9350614c9983614bd5565b8060005b83811015614cca578151614cb18882614c54565b9750614cbc83614c6c565b925050600181019050614c9d565b5085935050505092915050565b600061010082019050614ced600083018b6137d0565b614cfa602083018a6135fa565b8181036040830152614d0c8189614a7a565b9050614d1b6060830188614569565b614d2860808301876132c9565b81810360a0830152614d3a8186614c79565b9050614d4960c08301856137d0565b614d5660e08301846135fa565b9998505050505050505050565b7f4e487b7100000000000000000000000000000000000000000000000000000000600052601260045260246000fd5b6000614d9d826132bf565b9150614da8836132bf565b925082614db857614db7614d63565b5b828204905092915050565b7f5661756c742061646472657373206d69736d6174636800000000000000000000600082015250565b6000614df96016836138ea565b9150614e0482614dc3565b602082019050919050565b60006020820190508181036000830152614e2881614dec565b9050919050565b614e3881613cec565b82525050565b600082825260208201905092915050565b6000614e5a82614a34565b614e648185614e3e565b9350614e74818560208601614a50565b614e7d81613c5b565b840191505092915050565b6000608083016000830151614ea06000860182614e2f565b5060208301518482036020860152614eb88282614e4f565b91505060408301518482036040860152614ed28282614e4f565b9150506060830151614ee76060860182614e2f565b508091505092915050565b614efb81613ec1565b82525050565b614f0a81613efd565b82525050565b614f1981613f55565b82525050565b614f28816131da565b82525050565b60c082016000820151614f446000850182614ef2565b506020820151614f576020850182614f01565b506040820151614f6a6040850182614f10565b506060820151614f7d6060850182614f10565b506080820151614f906080850182614e2f565b5060a0820151614fa360a0850182614f1f565b50505050565b6000610100820190508181036000830152614fc48186614e88565b9050614fd36020830185614f2e565b614fe060e08301846149d9565b949350505050565b7f4162737472616374544254434465706f7369746f7220616c726561647920696e60008201527f697469616c697a65640000000000000000000000000000000000000000000000602082015250565b60006150446029836138ea565b915061504f82614fe8565b604082019050919050565b6000602082019050818103600083015261507381615037565b9050919050565b7f42726964676520616464726573732063616e6e6f74206265207a65726f000000600082015250565b60006150b0601d836138ea565b91506150bb8261507a565b602082019050919050565b600060208201905081810360008301526150df816150a3565b9050919050565b7f544254435661756c7420616464726573732063616e6e6f74206265207a65726f600082015250565b600061511c6020836138ea565b9150615127826150e6565b602082019050919050565b6000602082019050818103600083015261514b8161510f565b9050919050565b7f496e697469616c697a61626c653a20636f6e7472616374206973206e6f74206960008201527f6e697469616c697a696e67000000000000000000000000000000000000000000602082015250565b60006151ae602b836138ea565b91506151b982615152565b604082019050919050565b600060208201905081810360008301526151dd816151a1565b9050919050565b60006151ef826145ef565b91506151fa836145ef565b9250828203905067ffffffffffffffff81111561521a57615219613b2a565b5b92915050565b600060208284031215615236576152356131b0565b5b60006152448482850161462f565b91505092915050565b60008060008060808587031215615267576152666131b0565b5b60006152758782880161461a565b94505060206152868782880161461a565b93505060406152978782880161461a565b92505060606152a88782880161462f565b91505092959194509250565b60006040820190506152c960008301856135fa565b6152d660208301846135fa565b9392505050565b60006040820190506152f260008301856135fa565b6152ff60208301846132c9565b9392505050565b6000819050919050565b61532161531c82613cec565b615306565b82525050565b600081905092915050565b600061533d82614a34565b6153478185615327565b9350615357818560208601614a50565b80840191505092915050565b600061536f8287615310565b60048201915061537f8286615332565b915061538b8285615332565b91506153978284615310565b60048201915081905095945050505050565b6000819050919050565b6153c46153bf82614644565b6153a9565b82525050565b60008160e01b9050919050565b60006153e2826153ca565b9050919050565b6153fa6153f582613ec1565b6153d7565b82525050565b600061540c82856153b3565b60208201915061541c82846153e9565b6004820191508190509392505050565b60008151905061543b81613358565b92915050565b600060208284031215615457576154566131b0565b5b60006154658482850161542c565b91505092915050565b7f5361666545524332303a204552433230206f7065726174696f6e20646964206e60008201527f6f74207375636365656400000000000000000000000000000000000000000000602082015250565b60006154ca602a836138ea565b91506154d58261546e565b604082019050919050565b600060208201905081810360008301526154f9816154bd565b9050919050565b7f416464726573733a20696e73756666696369656e742062616c616e636520666f60008201527f722063616c6c0000000000000000000000000000000000000000000000000000602082015250565b600061555c6026836138ea565b915061556782615500565b604082019050919050565b6000602082019050818103600083015261558b8161554f565b9050919050565b600061559e8284615332565b915081905092915050565b7f416464726573733a2063616c6c20746f206e6f6e2d636f6e7472616374000000600082015250565b60006155df601d836138ea565b91506155ea826155a9565b602082019050919050565b6000602082019050818103600083015261560e816155d2565b9050919050565b600081519050919050565b600061562b82615615565b61563581856138ea565b9350615645818560208601614a50565b61564e81613c5b565b840191505092915050565b600060208201905081810360008301526156738184615620565b90509291505056fea2646970667358221220f31fb24dddb3f55fbfbd46966ef901853628cf5ec4957a89f456ec65c74c556d64736f6c63430008110033",
  "linkReferences": {},
  "deployedLinkReferences": {}
}